{
	"RPS_Schett_with_Transaction.sol": {
		"RPS": {
			"abi": [
				{
					"inputs": [],
					"stateMutability": "nonpayable",
					"type": "constructor"
				},
				{
					"inputs": [],
					"name": "betAmount",
					"outputs": [
						{
							"internalType": "uint256",
							"name": "",
							"type": "uint256"
						}
					],
					"stateMutability": "view",
					"type": "function"
				},
				{
					"inputs": [
						{
							"internalType": "bytes32",
							"name": "commit",
							"type": "bytes32"
						}
					],
					"name": "commitMove",
					"outputs": [],
					"stateMutability": "nonpayable",
					"type": "function"
				},
				{
					"inputs": [
						{
							"internalType": "uint256",
							"name": "v",
							"type": "uint256"
						},
						{
							"internalType": "uint256",
							"name": "rand",
							"type": "uint256"
						}
					],
					"name": "generateCommit",
					"outputs": [
						{
							"internalType": "bytes32",
							"name": "",
							"type": "bytes32"
						}
					],
					"stateMutability": "pure",
					"type": "function"
				},
				{
					"inputs": [],
					"name": "player1",
					"outputs": [
						{
							"internalType": "address payable",
							"name": "",
							"type": "address"
						}
					],
					"stateMutability": "view",
					"type": "function"
				},
				{
					"inputs": [],
					"name": "player1Commit",
					"outputs": [
						{
							"internalType": "bytes32",
							"name": "",
							"type": "bytes32"
						}
					],
					"stateMutability": "view",
					"type": "function"
				},
				{
					"inputs": [],
					"name": "player1Move",
					"outputs": [
						{
							"internalType": "enum RPS.Move",
							"name": "",
							"type": "uint8"
						}
					],
					"stateMutability": "view",
					"type": "function"
				},
				{
					"inputs": [],
					"name": "player2",
					"outputs": [
						{
							"internalType": "address payable",
							"name": "",
							"type": "address"
						}
					],
					"stateMutability": "view",
					"type": "function"
				},
				{
					"inputs": [],
					"name": "player2Commit",
					"outputs": [
						{
							"internalType": "bytes32",
							"name": "",
							"type": "bytes32"
						}
					],
					"stateMutability": "view",
					"type": "function"
				},
				{
					"inputs": [],
					"name": "player2Move",
					"outputs": [
						{
							"internalType": "enum RPS.Move",
							"name": "",
							"type": "uint8"
						}
					],
					"stateMutability": "view",
					"type": "function"
				},
				{
					"inputs": [],
					"name": "revealDeadline",
					"outputs": [
						{
							"internalType": "uint256",
							"name": "",
							"type": "uint256"
						}
					],
					"stateMutability": "view",
					"type": "function"
				},
				{
					"inputs": [
						{
							"internalType": "uint256",
							"name": "move",
							"type": "uint256"
						},
						{
							"internalType": "uint256",
							"name": "rand",
							"type": "uint256"
						}
					],
					"name": "revealMove",
					"outputs": [],
					"stateMutability": "nonpayable",
					"type": "function"
				},
				{
					"inputs": [
						{
							"internalType": "address payable",
							"name": "_player2",
							"type": "address"
						}
					],
					"name": "setPlayer2",
					"outputs": [],
					"stateMutability": "payable",
					"type": "function"
				}
			],
			"devdoc": {
				"kind": "dev",
				"methods": {},
				"version": 1
			},
			"evm": {
				"assembly": "    /* \"RPS_Schett_with_Transaction.sol\":261:3443  contract RPS{... */\n  mstore(0x40, 0x80)\n    /* \"RPS_Schett_with_Transaction.sol\":949:1078  constructor(){... */\n  callvalue\n  dup1\n  iszero\n  tag_1\n  jumpi\n  0x00\n  dup1\n  revert\ntag_1:\n  pop\n    /* \"RPS_Schett_with_Transaction.sol\":991:1001  msg.sender */\n  caller\n    /* \"RPS_Schett_with_Transaction.sol\":973:980  player1 */\n  0x00\n  dup1\n    /* \"RPS_Schett_with_Transaction.sol\":973:1002  player1 = payable(msg.sender) */\n  0x0100\n  exp\n  dup2\n  sload\n  dup2\n  0xffffffffffffffffffffffffffffffffffffffff\n  mul\n  not\n  and\n  swap1\n  dup4\n  0xffffffffffffffffffffffffffffffffffffffff\n  and\n  mul\n  or\n  swap1\n  sstore\n  pop\n    /* \"RPS_Schett_with_Transaction.sol\":1027:1036  Move.None */\n  0x03\n    /* \"RPS_Schett_with_Transaction.sol\":1013:1024  player1Move */\n  0x04\n  0x00\n    /* \"RPS_Schett_with_Transaction.sol\":1013:1036  player1Move = Move.None */\n  0x0100\n  exp\n  dup2\n  sload\n  dup2\n  0xff\n  mul\n  not\n  and\n  swap1\n  dup4\n  0x03\n  dup2\n  gt\n  iszero\n  tag_4\n  jumpi\n  tag_5\n  tag_6\n  jump\t// in\ntag_5:\ntag_4:\n  mul\n  or\n  swap1\n  sstore\n  pop\n    /* \"RPS_Schett_with_Transaction.sol\":1061:1070  Move.None */\n  0x03\n    /* \"RPS_Schett_with_Transaction.sol\":1047:1058  player2Move */\n  0x04\n  0x01\n    /* \"RPS_Schett_with_Transaction.sol\":1047:1070  player2Move = Move.None */\n  0x0100\n  exp\n  dup2\n  sload\n  dup2\n  0xff\n  mul\n  not\n  and\n  swap1\n  dup4\n  0x03\n  dup2\n  gt\n  iszero\n  tag_7\n  jumpi\n  tag_8\n  tag_6\n  jump\t// in\ntag_8:\ntag_7:\n  mul\n  or\n  swap1\n  sstore\n  pop\n    /* \"RPS_Schett_with_Transaction.sol\":261:3443  contract RPS{... */\n  jump(tag_9)\n    /* \"#utility.yul\":7:187   */\ntag_6:\n    /* \"#utility.yul\":55:132   */\n  0x4e487b7100000000000000000000000000000000000000000000000000000000\n    /* \"#utility.yul\":52:53   */\n  0x00\n    /* \"#utility.yul\":45:133   */\n  mstore\n    /* \"#utility.yul\":152:156   */\n  0x21\n    /* \"#utility.yul\":149:150   */\n  0x04\n    /* \"#utility.yul\":142:157   */\n  mstore\n    /* \"#utility.yul\":176:180   */\n  0x24\n    /* \"#utility.yul\":173:174   */\n  0x00\n    /* \"#utility.yul\":166:181   */\n  revert\n    /* \"RPS_Schett_with_Transaction.sol\":261:3443  contract RPS{... */\ntag_9:\n  dataSize(sub_0)\n  dup1\n  dataOffset(sub_0)\n  0x00\n  codecopy\n  0x00\n  return\nstop\n\nsub_0: assembly {\n        /* \"RPS_Schett_with_Transaction.sol\":261:3443  contract RPS{... */\n      mstore(0x40, 0x80)\n      jumpi(tag_1, lt(calldatasize, 0x04))\n      shr(0xe0, calldataload(0x00))\n      dup1\n      0xa9ea37b6\n      gt\n      tag_14\n      jumpi\n      dup1\n      0xa9ea37b6\n      eq\n      tag_8\n      jumpi\n      dup1\n      0xb14b28a3\n      eq\n      tag_9\n      jumpi\n      dup1\n      0xce6b2225\n      eq\n      tag_10\n      jumpi\n      dup1\n      0xd24257c0\n      eq\n      tag_11\n      jumpi\n      dup1\n      0xd30895e4\n      eq\n      tag_12\n      jumpi\n      dup1\n      0xf1917766\n      eq\n      tag_13\n      jumpi\n      jump(tag_1)\n    tag_14:\n      dup1\n      0x12190ae0\n      eq\n      tag_2\n      jumpi\n      dup1\n      0x5280fba0\n      eq\n      tag_3\n      jumpi\n      dup1\n      0x59a5f12d\n      eq\n      tag_4\n      jumpi\n      dup1\n      0x73da64a0\n      eq\n      tag_5\n      jumpi\n      dup1\n      0x7685ef8e\n      eq\n      tag_6\n      jumpi\n      dup1\n      0x8690fd71\n      eq\n      tag_7\n      jumpi\n    tag_1:\n      0x00\n      dup1\n      revert\n        /* \"RPS_Schett_with_Transaction.sol\":1135:1268  function generateCommit(uint v, uint rand) public pure returns(bytes32){... */\n    tag_2:\n      callvalue\n      dup1\n      iszero\n      tag_15\n      jumpi\n      0x00\n      dup1\n      revert\n    tag_15:\n      pop\n      tag_16\n      0x04\n      dup1\n      calldatasize\n      sub\n      dup2\n      add\n      swap1\n      tag_17\n      swap2\n      swap1\n      tag_18\n      jump\t// in\n    tag_17:\n      tag_19\n      jump\t// in\n    tag_16:\n      mload(0x40)\n      tag_20\n      swap2\n      swap1\n      tag_21\n      jump\t// in\n    tag_20:\n      mload(0x40)\n      dup1\n      swap2\n      sub\n      swap1\n      return\n        /* \"RPS_Schett_with_Transaction.sol\":2103:2964  function revealMove(uint move, uint rand) external {... */\n    tag_3:\n      callvalue\n      dup1\n      iszero\n      tag_22\n      jumpi\n      0x00\n      dup1\n      revert\n    tag_22:\n      pop\n      tag_23\n      0x04\n      dup1\n      calldatasize\n      sub\n      dup2\n      add\n      swap1\n      tag_24\n      swap2\n      swap1\n      tag_18\n      jump\t// in\n    tag_24:\n      tag_25\n      jump\t// in\n    tag_23:\n      stop\n        /* \"RPS_Schett_with_Transaction.sol\":473:503  address payable public player2 */\n    tag_4:\n      callvalue\n      dup1\n      iszero\n      tag_26\n      jumpi\n      0x00\n      dup1\n      revert\n    tag_26:\n      pop\n      tag_27\n      tag_28\n      jump\t// in\n    tag_27:\n      mload(0x40)\n      tag_29\n      swap2\n      swap1\n      tag_30\n      jump\t// in\n    tag_29:\n      mload(0x40)\n      dup1\n      swap2\n      sub\n      swap1\n      return\n        /* \"RPS_Schett_with_Transaction.sol\":1276:1758  function setPlayer2(address payable _player2) external payable {... */\n    tag_5:\n      tag_31\n      0x04\n      dup1\n      calldatasize\n      sub\n      dup2\n      add\n      swap1\n      tag_32\n      swap2\n      swap1\n      tag_33\n      jump\t// in\n    tag_32:\n      tag_34\n      jump\t// in\n    tag_31:\n      stop\n        /* \"RPS_Schett_with_Transaction.sol\":610:633  Move public player2Move */\n    tag_6:\n      callvalue\n      dup1\n      iszero\n      tag_35\n      jumpi\n      0x00\n      dup1\n      revert\n    tag_35:\n      pop\n      tag_36\n      tag_37\n      jump\t// in\n    tag_36:\n      mload(0x40)\n      tag_38\n      swap2\n      swap1\n      tag_39\n      jump\t// in\n    tag_38:\n      mload(0x40)\n      dup1\n      swap2\n      sub\n      swap1\n      return\n        /* \"RPS_Schett_with_Transaction.sol\":580:603  Move public player1Move */\n    tag_7:\n      callvalue\n      dup1\n      iszero\n      tag_40\n      jumpi\n      0x00\n      dup1\n      revert\n    tag_40:\n      pop\n      tag_41\n      tag_42\n      jump\t// in\n    tag_41:\n      mload(0x40)\n      tag_43\n      swap2\n      swap1\n      tag_39\n      jump\t// in\n    tag_43:\n      mload(0x40)\n      dup1\n      swap2\n      sub\n      swap1\n      return\n        /* \"RPS_Schett_with_Transaction.sol\":1768:2095  function commitMove(bytes32 commit) external {... */\n    tag_8:\n      callvalue\n      dup1\n      iszero\n      tag_44\n      jumpi\n      0x00\n      dup1\n      revert\n    tag_44:\n      pop\n      tag_45\n      0x04\n      dup1\n      calldatasize\n      sub\n      dup2\n      add\n      swap1\n      tag_46\n      swap2\n      swap1\n      tag_47\n      jump\t// in\n    tag_46:\n      tag_48\n      jump\t// in\n    tag_45:\n      stop\n        /* \"RPS_Schett_with_Transaction.sol\":773:799  uint public revealDeadline */\n    tag_9:\n      callvalue\n      dup1\n      iszero\n      tag_49\n      jumpi\n      0x00\n      dup1\n      revert\n    tag_49:\n      pop\n      tag_50\n      tag_51\n      jump\t// in\n    tag_50:\n      mload(0x40)\n      tag_52\n      swap2\n      swap1\n      tag_53\n      jump\t// in\n    tag_52:\n      mload(0x40)\n      dup1\n      swap2\n      sub\n      swap1\n      return\n        /* \"RPS_Schett_with_Transaction.sol\":510:538  bytes32 public player1Commit */\n    tag_10:\n      callvalue\n      dup1\n      iszero\n      tag_54\n      jumpi\n      0x00\n      dup1\n      revert\n    tag_54:\n      pop\n      tag_55\n      tag_56\n      jump\t// in\n    tag_55:\n      mload(0x40)\n      tag_57\n      swap2\n      swap1\n      tag_21\n      jump\t// in\n    tag_57:\n      mload(0x40)\n      dup1\n      swap2\n      sub\n      swap1\n      return\n        /* \"RPS_Schett_with_Transaction.sol\":640:661  uint public betAmount */\n    tag_11:\n      callvalue\n      dup1\n      iszero\n      tag_58\n      jumpi\n      0x00\n      dup1\n      revert\n    tag_58:\n      pop\n      tag_59\n      tag_60\n      jump\t// in\n    tag_59:\n      mload(0x40)\n      tag_61\n      swap2\n      swap1\n      tag_53\n      jump\t// in\n    tag_61:\n      mload(0x40)\n      dup1\n      swap2\n      sub\n      swap1\n      return\n        /* \"RPS_Schett_with_Transaction.sol\":370:400  address payable public player1 */\n    tag_12:\n      callvalue\n      dup1\n      iszero\n      tag_62\n      jumpi\n      0x00\n      dup1\n      revert\n    tag_62:\n      pop\n      tag_63\n      tag_64\n      jump\t// in\n    tag_63:\n      mload(0x40)\n      tag_65\n      swap2\n      swap1\n      tag_30\n      jump\t// in\n    tag_65:\n      mload(0x40)\n      dup1\n      swap2\n      sub\n      swap1\n      return\n        /* \"RPS_Schett_with_Transaction.sol\":545:573  bytes32 public player2Commit */\n    tag_13:\n      callvalue\n      dup1\n      iszero\n      tag_66\n      jumpi\n      0x00\n      dup1\n      revert\n    tag_66:\n      pop\n      tag_67\n      tag_68\n      jump\t// in\n    tag_67:\n      mload(0x40)\n      tag_69\n      swap2\n      swap1\n      tag_21\n      jump\t// in\n    tag_69:\n      mload(0x40)\n      dup1\n      swap2\n      sub\n      swap1\n      return\n        /* \"RPS_Schett_with_Transaction.sol\":1135:1268  function generateCommit(uint v, uint rand) public pure returns(bytes32){... */\n    tag_19:\n        /* \"RPS_Schett_with_Transaction.sol\":1198:1205  bytes32 */\n      0x00\n        /* \"RPS_Schett_with_Transaction.sol\":1251:1252  v */\n      dup3\n        /* \"RPS_Schett_with_Transaction.sol\":1254:1258  rand */\n      dup3\n        /* \"RPS_Schett_with_Transaction.sol\":1234:1259  abi.encodePacked(v, rand) */\n      add(0x20, mload(0x40))\n      tag_71\n      swap3\n      swap2\n      swap1\n      tag_72\n      jump\t// in\n    tag_71:\n      mload(0x40)\n      0x20\n      dup2\n      dup4\n      sub\n      sub\n      dup2\n      mstore\n      swap1\n      0x40\n      mstore\n        /* \"RPS_Schett_with_Transaction.sol\":1224:1260  keccak256(abi.encodePacked(v, rand)) */\n      dup1\n      mload\n      swap1\n      0x20\n      add\n      keccak256\n        /* \"RPS_Schett_with_Transaction.sol\":1217:1260  return keccak256(abi.encodePacked(v, rand)) */\n      swap1\n      pop\n        /* \"RPS_Schett_with_Transaction.sol\":1135:1268  function generateCommit(uint v, uint rand) public pure returns(bytes32){... */\n      swap3\n      swap2\n      pop\n      pop\n      jump\t// out\n        /* \"RPS_Schett_with_Transaction.sol\":2103:2964  function revealMove(uint move, uint rand) external {... */\n    tag_25:\n        /* \"RPS_Schett_with_Transaction.sol\":2192:2206  revealDeadline */\n      sload(0x06)\n        /* \"RPS_Schett_with_Transaction.sol\":2173:2188  block.timestamp */\n      timestamp\n        /* \"RPS_Schett_with_Transaction.sol\":2173:2206  block.timestamp <= revealDeadline */\n      gt\n      iszero\n        /* \"RPS_Schett_with_Transaction.sol\":2165:2242  require(block.timestamp <= revealDeadline, \"Reveal time has ben overstepped\") */\n      tag_74\n      jumpi\n      mload(0x40)\n      0x08c379a000000000000000000000000000000000000000000000000000000000\n      dup2\n      mstore\n      0x04\n      add\n      tag_75\n      swap1\n      tag_76\n      jump\t// in\n    tag_75:\n      mload(0x40)\n      dup1\n      swap2\n      sub\n      swap1\n      revert\n    tag_74:\n        /* \"RPS_Schett_with_Transaction.sol\":2275:2282  player1 */\n      0x00\n      dup1\n      sload\n      swap1\n      0x0100\n      exp\n      swap1\n      div\n      0xffffffffffffffffffffffffffffffffffffffff\n      and\n        /* \"RPS_Schett_with_Transaction.sol\":2261:2282  msg.sender == player1 */\n      0xffffffffffffffffffffffffffffffffffffffff\n      and\n        /* \"RPS_Schett_with_Transaction.sol\":2261:2271  msg.sender */\n      caller\n        /* \"RPS_Schett_with_Transaction.sol\":2261:2282  msg.sender == player1 */\n      0xffffffffffffffffffffffffffffffffffffffff\n      and\n      eq\n        /* \"RPS_Schett_with_Transaction.sol\":2261:2307  msg.sender == player1 || msg.sender == player2 */\n      dup1\n      tag_77\n      jumpi\n      pop\n        /* \"RPS_Schett_with_Transaction.sol\":2300:2307  player2 */\n      0x01\n      0x00\n      swap1\n      sload\n      swap1\n      0x0100\n      exp\n      swap1\n      div\n      0xffffffffffffffffffffffffffffffffffffffff\n      and\n        /* \"RPS_Schett_with_Transaction.sol\":2286:2307  msg.sender == player2 */\n      0xffffffffffffffffffffffffffffffffffffffff\n      and\n        /* \"RPS_Schett_with_Transaction.sol\":2286:2296  msg.sender */\n      caller\n        /* \"RPS_Schett_with_Transaction.sol\":2286:2307  msg.sender == player2 */\n      0xffffffffffffffffffffffffffffffffffffffff\n      and\n      eq\n        /* \"RPS_Schett_with_Transaction.sol\":2261:2307  msg.sender == player1 || msg.sender == player2 */\n    tag_77:\n        /* \"RPS_Schett_with_Transaction.sol\":2253:2324  require(msg.sender == player1 || msg.sender == player2, \"not a player\") */\n      tag_78\n      jumpi\n      mload(0x40)\n      0x08c379a000000000000000000000000000000000000000000000000000000000\n      dup2\n      mstore\n      0x04\n      add\n      tag_79\n      swap1\n      tag_80\n      jump\t// in\n    tag_79:\n      mload(0x40)\n      dup1\n      swap2\n      sub\n      swap1\n      revert\n    tag_78:\n        /* \"RPS_Schett_with_Transaction.sol\":2415:2429  bytes32 commit */\n      0x00\n        /* \"RPS_Schett_with_Transaction.sol\":2432:2458  generateCommit(move, rand) */\n      tag_81\n        /* \"RPS_Schett_with_Transaction.sol\":2447:2451  move */\n      dup4\n        /* \"RPS_Schett_with_Transaction.sol\":2453:2457  rand */\n      dup4\n        /* \"RPS_Schett_with_Transaction.sol\":2432:2446  generateCommit */\n      tag_19\n        /* \"RPS_Schett_with_Transaction.sol\":2432:2458  generateCommit(move, rand) */\n      jump\t// in\n    tag_81:\n        /* \"RPS_Schett_with_Transaction.sol\":2415:2458  bytes32 commit = generateCommit(move, rand) */\n      swap1\n      pop\n        /* \"RPS_Schett_with_Transaction.sol\":2487:2494  player1 */\n      0x00\n      dup1\n      sload\n      swap1\n      0x0100\n      exp\n      swap1\n      div\n      0xffffffffffffffffffffffffffffffffffffffff\n      and\n        /* \"RPS_Schett_with_Transaction.sol\":2473:2494  msg.sender == player1 */\n      0xffffffffffffffffffffffffffffffffffffffff\n      and\n        /* \"RPS_Schett_with_Transaction.sol\":2473:2483  msg.sender */\n      caller\n        /* \"RPS_Schett_with_Transaction.sol\":2473:2494  msg.sender == player1 */\n      0xffffffffffffffffffffffffffffffffffffffff\n      and\n      sub\n        /* \"RPS_Schett_with_Transaction.sol\":2469:2757  if (msg.sender == player1){... */\n      tag_82\n      jumpi\n        /* \"RPS_Schett_with_Transaction.sol\":2528:2541  player1Commit */\n      sload(0x02)\n        /* \"RPS_Schett_with_Transaction.sol\":2518:2524  commit */\n      dup2\n        /* \"RPS_Schett_with_Transaction.sol\":2518:2541  commit == player1Commit */\n      eq\n        /* \"RPS_Schett_with_Transaction.sol\":2510:2572  require(commit == player1Commit, \"Invalid commit for player1\") */\n      tag_83\n      jumpi\n      mload(0x40)\n      0x08c379a000000000000000000000000000000000000000000000000000000000\n      dup2\n      mstore\n      0x04\n      add\n      tag_84\n      swap1\n      tag_85\n      jump\t// in\n    tag_84:\n      mload(0x40)\n      dup1\n      swap2\n      sub\n      swap1\n      revert\n    tag_83:\n        /* \"RPS_Schett_with_Transaction.sol\":2606:2610  move */\n      dup3\n        /* \"RPS_Schett_with_Transaction.sol\":2601:2611  Move(move) */\n      0x03\n      dup2\n      gt\n      iszero\n      tag_86\n      jumpi\n      tag_87\n      tag_88\n      jump\t// in\n    tag_87:\n    tag_86:\n        /* \"RPS_Schett_with_Transaction.sol\":2587:2598  player1Move */\n      0x04\n      0x00\n        /* \"RPS_Schett_with_Transaction.sol\":2587:2611  player1Move = Move(move) */\n      0x0100\n      exp\n      dup2\n      sload\n      dup2\n      0xff\n      mul\n      not\n      and\n      swap1\n      dup4\n      0x03\n      dup2\n      gt\n      iszero\n      tag_89\n      jumpi\n      tag_90\n      tag_88\n      jump\t// in\n    tag_90:\n    tag_89:\n      mul\n      or\n      swap1\n      sstore\n      pop\n        /* \"RPS_Schett_with_Transaction.sol\":2469:2757  if (msg.sender == player1){... */\n      jump(tag_91)\n    tag_82:\n        /* \"RPS_Schett_with_Transaction.sol\":2662:2675  player2Commit */\n      sload(0x03)\n        /* \"RPS_Schett_with_Transaction.sol\":2652:2658  commit */\n      dup2\n        /* \"RPS_Schett_with_Transaction.sol\":2652:2675  commit == player2Commit */\n      eq\n        /* \"RPS_Schett_with_Transaction.sol\":2644:2706  require(commit == player2Commit, \"Invalid commit for player2\") */\n      tag_92\n      jumpi\n      mload(0x40)\n      0x08c379a000000000000000000000000000000000000000000000000000000000\n      dup2\n      mstore\n      0x04\n      add\n      tag_93\n      swap1\n      tag_94\n      jump\t// in\n    tag_93:\n      mload(0x40)\n      dup1\n      swap2\n      sub\n      swap1\n      revert\n    tag_92:\n        /* \"RPS_Schett_with_Transaction.sol\":2740:2744  move */\n      dup3\n        /* \"RPS_Schett_with_Transaction.sol\":2735:2745  Move(move) */\n      0x03\n      dup2\n      gt\n      iszero\n      tag_95\n      jumpi\n      tag_96\n      tag_88\n      jump\t// in\n    tag_96:\n    tag_95:\n        /* \"RPS_Schett_with_Transaction.sol\":2721:2732  player2Move */\n      0x04\n      0x01\n        /* \"RPS_Schett_with_Transaction.sol\":2721:2745  player2Move = Move(move) */\n      0x0100\n      exp\n      dup2\n      sload\n      dup2\n      0xff\n      mul\n      not\n      and\n      swap1\n      dup4\n      0x03\n      dup2\n      gt\n      iszero\n      tag_97\n      jumpi\n      tag_98\n      tag_88\n      jump\t// in\n    tag_98:\n    tag_97:\n      mul\n      or\n      swap1\n      sstore\n      pop\n        /* \"RPS_Schett_with_Transaction.sol\":2469:2757  if (msg.sender == player1){... */\n    tag_91:\n        /* \"RPS_Schett_with_Transaction.sol\":2865:2874  Move.None */\n      0x03\n        /* \"RPS_Schett_with_Transaction.sol\":2850:2874  player1Move != Move.None */\n      dup1\n      dup2\n      gt\n      iszero\n      tag_99\n      jumpi\n      tag_100\n      tag_88\n      jump\t// in\n    tag_100:\n    tag_99:\n        /* \"RPS_Schett_with_Transaction.sol\":2850:2861  player1Move */\n      0x04\n      0x00\n      swap1\n      sload\n      swap1\n      0x0100\n      exp\n      swap1\n      div\n      0xff\n      and\n        /* \"RPS_Schett_with_Transaction.sol\":2850:2874  player1Move != Move.None */\n      0x03\n      dup2\n      gt\n      iszero\n      tag_101\n      jumpi\n      tag_102\n      tag_88\n      jump\t// in\n    tag_102:\n    tag_101:\n      eq\n      iszero\n        /* \"RPS_Schett_with_Transaction.sol\":2850:2902  player1Move != Move.None && player2Move != Move.None */\n      dup1\n      iszero\n      tag_103\n      jumpi\n      pop\n        /* \"RPS_Schett_with_Transaction.sol\":2893:2902  Move.None */\n      0x03\n        /* \"RPS_Schett_with_Transaction.sol\":2878:2902  player2Move != Move.None */\n      dup1\n      dup2\n      gt\n      iszero\n      tag_104\n      jumpi\n      tag_105\n      tag_88\n      jump\t// in\n    tag_105:\n    tag_104:\n        /* \"RPS_Schett_with_Transaction.sol\":2878:2889  player2Move */\n      0x04\n      0x01\n      swap1\n      sload\n      swap1\n      0x0100\n      exp\n      swap1\n      div\n      0xff\n      and\n        /* \"RPS_Schett_with_Transaction.sol\":2878:2902  player2Move != Move.None */\n      0x03\n      dup2\n      gt\n      iszero\n      tag_106\n      jumpi\n      tag_107\n      tag_88\n      jump\t// in\n    tag_107:\n    tag_106:\n      eq\n      iszero\n        /* \"RPS_Schett_with_Transaction.sol\":2850:2902  player1Move != Move.None && player2Move != Move.None */\n    tag_103:\n        /* \"RPS_Schett_with_Transaction.sol\":2846:2947  if (player1Move != Move.None && player2Move != Move.None){... */\n      iszero\n      tag_108\n      jumpi\n        /* \"RPS_Schett_with_Transaction.sol\":2918:2935  determineWinner() */\n      tag_109\n        /* \"RPS_Schett_with_Transaction.sol\":2918:2933  determineWinner */\n      tag_110\n        /* \"RPS_Schett_with_Transaction.sol\":2918:2935  determineWinner() */\n      jump\t// in\n    tag_109:\n        /* \"RPS_Schett_with_Transaction.sol\":2846:2947  if (player1Move != Move.None && player2Move != Move.None){... */\n    tag_108:\n        /* \"RPS_Schett_with_Transaction.sol\":2154:2964  {... */\n      pop\n        /* \"RPS_Schett_with_Transaction.sol\":2103:2964  function revealMove(uint move, uint rand) external {... */\n      pop\n      pop\n      jump\t// out\n        /* \"RPS_Schett_with_Transaction.sol\":473:503  address payable public player2 */\n    tag_28:\n      0x01\n      0x00\n      swap1\n      sload\n      swap1\n      0x0100\n      exp\n      swap1\n      div\n      0xffffffffffffffffffffffffffffffffffffffff\n      and\n      dup2\n      jump\t// out\n        /* \"RPS_Schett_with_Transaction.sol\":1276:1758  function setPlayer2(address payable _player2) external payable {... */\n    tag_34:\n        /* \"RPS_Schett_with_Transaction.sol\":1377:1378  0 */\n      0x00\n        /* \"RPS_Schett_with_Transaction.sol\":1358:1379  player2 == address(0) */\n      0xffffffffffffffffffffffffffffffffffffffff\n      and\n        /* \"RPS_Schett_with_Transaction.sol\":1358:1365  player2 */\n      0x01\n      0x00\n      swap1\n      sload\n      swap1\n      0x0100\n      exp\n      swap1\n      div\n      0xffffffffffffffffffffffffffffffffffffffff\n      and\n        /* \"RPS_Schett_with_Transaction.sol\":1358:1379  player2 == address(0) */\n      0xffffffffffffffffffffffffffffffffffffffff\n      and\n      eq\n        /* \"RPS_Schett_with_Transaction.sol\":1350:1410  require(player2 == address(0), \"Player 2 is already chosen\") */\n      tag_112\n      jumpi\n      mload(0x40)\n      0x08c379a000000000000000000000000000000000000000000000000000000000\n      dup2\n      mstore\n      0x04\n      add\n      tag_113\n      swap1\n      tag_114\n      jump\t// in\n    tag_113:\n      mload(0x40)\n      dup1\n      swap2\n      sub\n      swap1\n      revert\n    tag_112:\n        /* \"RPS_Schett_with_Transaction.sol\":1443:1450  player1 */\n      0x00\n      dup1\n      sload\n      swap1\n      0x0100\n      exp\n      swap1\n      div\n      0xffffffffffffffffffffffffffffffffffffffff\n      and\n        /* \"RPS_Schett_with_Transaction.sol\":1429:1450  msg.sender != player1 */\n      0xffffffffffffffffffffffffffffffffffffffff\n      and\n        /* \"RPS_Schett_with_Transaction.sol\":1429:1439  msg.sender */\n      caller\n        /* \"RPS_Schett_with_Transaction.sol\":1429:1450  msg.sender != player1 */\n      0xffffffffffffffffffffffffffffffffffffffff\n      and\n      sub\n        /* \"RPS_Schett_with_Transaction.sol\":1421:1479  require(msg.sender != player1, \"Player2  cant be player1\") */\n      tag_115\n      jumpi\n      mload(0x40)\n      0x08c379a000000000000000000000000000000000000000000000000000000000\n      dup2\n      mstore\n      0x04\n      add\n      tag_116\n      swap1\n      tag_117\n      jump\t// in\n    tag_116:\n      mload(0x40)\n      dup1\n      swap2\n      sub\n      swap1\n      revert\n    tag_115:\n        /* \"RPS_Schett_with_Transaction.sol\":1510:1511  0 */\n      0x00\n        /* \"RPS_Schett_with_Transaction.sol\":1498:1507  msg.value */\n      callvalue\n        /* \"RPS_Schett_with_Transaction.sol\":1498:1511  msg.value > 0 */\n      gt\n        /* \"RPS_Schett_with_Transaction.sol\":1490:1536  require(msg.value > 0, \"bet amount cant be 0\") */\n      tag_118\n      jumpi\n      mload(0x40)\n      0x08c379a000000000000000000000000000000000000000000000000000000000\n      dup2\n      mstore\n      0x04\n      add\n      tag_119\n      swap1\n      tag_120\n      jump\t// in\n    tag_119:\n      mload(0x40)\n      dup1\n      swap2\n      sub\n      swap1\n      revert\n    tag_118:\n        /* \"RPS_Schett_with_Transaction.sol\":1559:1567  _player2 */\n      dup1\n        /* \"RPS_Schett_with_Transaction.sol\":1549:1556  player2 */\n      0x01\n      0x00\n        /* \"RPS_Schett_with_Transaction.sol\":1549:1567  player2 = _player2 */\n      0x0100\n      exp\n      dup2\n      sload\n      dup2\n      0xffffffffffffffffffffffffffffffffffffffff\n      mul\n      not\n      and\n      swap1\n      dup4\n      0xffffffffffffffffffffffffffffffffffffffff\n      and\n      mul\n      or\n      swap1\n      sstore\n      pop\n        /* \"RPS_Schett_with_Transaction.sol\":1590:1599  msg.value */\n      callvalue\n        /* \"RPS_Schett_with_Transaction.sol\":1578:1587  betAmount */\n      0x05\n        /* \"RPS_Schett_with_Transaction.sol\":1578:1599  betAmount = msg.value */\n      dup2\n      swap1\n      sstore\n      pop\n        /* \"RPS_Schett_with_Transaction.sol\":1706:1715  betAmount */\n      sload(0x05)\n        /* \"RPS_Schett_with_Transaction.sol\":1693:1702  msg.value */\n      callvalue\n        /* \"RPS_Schett_with_Transaction.sol\":1693:1715  msg.value == betAmount */\n      eq\n        /* \"RPS_Schett_with_Transaction.sol\":1685:1750  require(msg.value == betAmount, \"Bet Amount has too be the same\") */\n      tag_121\n      jumpi\n      mload(0x40)\n      0x08c379a000000000000000000000000000000000000000000000000000000000\n      dup2\n      mstore\n      0x04\n      add\n      tag_122\n      swap1\n      tag_123\n      jump\t// in\n    tag_122:\n      mload(0x40)\n      dup1\n      swap2\n      sub\n      swap1\n      revert\n    tag_121:\n        /* \"RPS_Schett_with_Transaction.sol\":1276:1758  function setPlayer2(address payable _player2) external payable {... */\n      pop\n      jump\t// out\n        /* \"RPS_Schett_with_Transaction.sol\":610:633  Move public player2Move */\n    tag_37:\n      0x04\n      0x01\n      swap1\n      sload\n      swap1\n      0x0100\n      exp\n      swap1\n      div\n      0xff\n      and\n      dup2\n      jump\t// out\n        /* \"RPS_Schett_with_Transaction.sol\":580:603  Move public player1Move */\n    tag_42:\n      0x04\n      0x00\n      swap1\n      sload\n      swap1\n      0x0100\n      exp\n      swap1\n      div\n      0xff\n      and\n      dup2\n      jump\t// out\n        /* \"RPS_Schett_with_Transaction.sol\":1768:2095  function commitMove(bytes32 commit) external {... */\n    tag_48:\n        /* \"RPS_Schett_with_Transaction.sol\":1842:1849  player1 */\n      0x00\n      dup1\n      sload\n      swap1\n      0x0100\n      exp\n      swap1\n      div\n      0xffffffffffffffffffffffffffffffffffffffff\n      and\n        /* \"RPS_Schett_with_Transaction.sol\":1828:1849  msg.sender == player1 */\n      0xffffffffffffffffffffffffffffffffffffffff\n      and\n        /* \"RPS_Schett_with_Transaction.sol\":1828:1838  msg.sender */\n      caller\n        /* \"RPS_Schett_with_Transaction.sol\":1828:1849  msg.sender == player1 */\n      0xffffffffffffffffffffffffffffffffffffffff\n      and\n      sub\n        /* \"RPS_Schett_with_Transaction.sol\":1824:2088  if (msg.sender == player1) {... */\n      tag_125\n      jumpi\n        /* \"RPS_Schett_with_Transaction.sol\":1891:1892  0 */\n      0x00\n        /* \"RPS_Schett_with_Transaction.sol\":1874:1892  player1Commit == 0 */\n      dup1\n      shl\n        /* \"RPS_Schett_with_Transaction.sol\":1874:1887  player1Commit */\n      sload(0x02)\n        /* \"RPS_Schett_with_Transaction.sol\":1874:1892  player1Commit == 0 */\n      eq\n        /* \"RPS_Schett_with_Transaction.sol\":1866:1918  require(player1Commit == 0, \"Player 1 has commited\") */\n      tag_126\n      jumpi\n      mload(0x40)\n      0x08c379a000000000000000000000000000000000000000000000000000000000\n      dup2\n      mstore\n      0x04\n      add\n      tag_127\n      swap1\n      tag_128\n      jump\t// in\n    tag_127:\n      mload(0x40)\n      dup1\n      swap2\n      sub\n      swap1\n      revert\n    tag_126:\n        /* \"RPS_Schett_with_Transaction.sol\":1949:1955  commit */\n      dup1\n        /* \"RPS_Schett_with_Transaction.sol\":1933:1946  player1Commit */\n      0x02\n        /* \"RPS_Schett_with_Transaction.sol\":1933:1955  player1Commit = commit */\n      dup2\n      swap1\n      sstore\n      pop\n        /* \"RPS_Schett_with_Transaction.sol\":1824:2088  if (msg.sender == player1) {... */\n      jump(tag_129)\n    tag_125:\n        /* \"RPS_Schett_with_Transaction.sol\":2013:2014  0 */\n      0x00\n        /* \"RPS_Schett_with_Transaction.sol\":1996:2014  player2Commit == 0 */\n      dup1\n      shl\n        /* \"RPS_Schett_with_Transaction.sol\":1996:2009  player2Commit */\n      sload(0x03)\n        /* \"RPS_Schett_with_Transaction.sol\":1996:2014  player2Commit == 0 */\n      eq\n        /* \"RPS_Schett_with_Transaction.sol\":1988:2039  require(player2Commit == 0, \"Player 2 has comited\") */\n      tag_130\n      jumpi\n      mload(0x40)\n      0x08c379a000000000000000000000000000000000000000000000000000000000\n      dup2\n      mstore\n      0x04\n      add\n      tag_131\n      swap1\n      tag_132\n      jump\t// in\n    tag_131:\n      mload(0x40)\n      dup1\n      swap2\n      sub\n      swap1\n      revert\n    tag_130:\n        /* \"RPS_Schett_with_Transaction.sol\":2070:2076  commit */\n      dup1\n        /* \"RPS_Schett_with_Transaction.sol\":2054:2067  player2Commit */\n      0x03\n        /* \"RPS_Schett_with_Transaction.sol\":2054:2076  player2Commit = commit */\n      dup2\n      swap1\n      sstore\n      pop\n        /* \"RPS_Schett_with_Transaction.sol\":1824:2088  if (msg.sender == player1) {... */\n    tag_129:\n        /* \"RPS_Schett_with_Transaction.sol\":1768:2095  function commitMove(bytes32 commit) external {... */\n      pop\n      jump\t// out\n        /* \"RPS_Schett_with_Transaction.sol\":773:799  uint public revealDeadline */\n    tag_51:\n      sload(0x06)\n      dup2\n      jump\t// out\n        /* \"RPS_Schett_with_Transaction.sol\":510:538  bytes32 public player1Commit */\n    tag_56:\n      sload(0x02)\n      dup2\n      jump\t// out\n        /* \"RPS_Schett_with_Transaction.sol\":640:661  uint public betAmount */\n    tag_60:\n      sload(0x05)\n      dup2\n      jump\t// out\n        /* \"RPS_Schett_with_Transaction.sol\":370:400  address payable public player1 */\n    tag_64:\n      0x00\n      dup1\n      sload\n      swap1\n      0x0100\n      exp\n      swap1\n      div\n      0xffffffffffffffffffffffffffffffffffffffff\n      and\n      dup2\n      jump\t// out\n        /* \"RPS_Schett_with_Transaction.sol\":545:573  bytes32 public player2Commit */\n    tag_68:\n      sload(0x03)\n      dup2\n      jump\t// out\n        /* \"RPS_Schett_with_Transaction.sol\":2972:3436  function determineWinner() internal {... */\n    tag_110:\n        /* \"RPS_Schett_with_Transaction.sol\":3039:3048  Move.Rock */\n      0x00\n        /* \"RPS_Schett_with_Transaction.sol\":3024:3048  player1Move == Move.Rock */\n      0x03\n      dup2\n      gt\n      iszero\n      tag_134\n      jumpi\n      tag_135\n      tag_88\n      jump\t// in\n    tag_135:\n    tag_134:\n        /* \"RPS_Schett_with_Transaction.sol\":3024:3035  player1Move */\n      0x04\n      0x00\n      swap1\n      sload\n      swap1\n      0x0100\n      exp\n      swap1\n      div\n      0xff\n      and\n        /* \"RPS_Schett_with_Transaction.sol\":3024:3048  player1Move == Move.Rock */\n      0x03\n      dup2\n      gt\n      iszero\n      tag_136\n      jumpi\n      tag_137\n      tag_88\n      jump\t// in\n    tag_137:\n    tag_136:\n      eq\n        /* \"RPS_Schett_with_Transaction.sol\":3024:3080  player1Move == Move.Rock && player2Move == Move.Scissors */\n      dup1\n      iszero\n      tag_138\n      jumpi\n      pop\n        /* \"RPS_Schett_with_Transaction.sol\":3067:3080  Move.Scissors */\n      0x02\n        /* \"RPS_Schett_with_Transaction.sol\":3052:3080  player2Move == Move.Scissors */\n      0x03\n      dup2\n      gt\n      iszero\n      tag_139\n      jumpi\n      tag_140\n      tag_88\n      jump\t// in\n    tag_140:\n    tag_139:\n        /* \"RPS_Schett_with_Transaction.sol\":3052:3063  player2Move */\n      0x04\n      0x01\n      swap1\n      sload\n      swap1\n      0x0100\n      exp\n      swap1\n      div\n      0xff\n      and\n        /* \"RPS_Schett_with_Transaction.sol\":3052:3080  player2Move == Move.Scissors */\n      0x03\n      dup2\n      gt\n      iszero\n      tag_141\n      jumpi\n      tag_142\n      tag_88\n      jump\t// in\n    tag_142:\n    tag_141:\n      eq\n        /* \"RPS_Schett_with_Transaction.sol\":3024:3080  player1Move == Move.Rock && player2Move == Move.Scissors */\n    tag_138:\n        /* \"RPS_Schett_with_Transaction.sol\":3023:3157  (player1Move == Move.Rock && player2Move == Move.Scissors) ||... */\n      dup1\n      tag_143\n      jumpi\n      pop\n        /* \"RPS_Schett_with_Transaction.sol\":3114:3127  Move.Scissors */\n      0x02\n        /* \"RPS_Schett_with_Transaction.sol\":3099:3127  player1Move == Move.Scissors */\n      0x03\n      dup2\n      gt\n      iszero\n      tag_144\n      jumpi\n      tag_145\n      tag_88\n      jump\t// in\n    tag_145:\n    tag_144:\n        /* \"RPS_Schett_with_Transaction.sol\":3099:3110  player1Move */\n      0x04\n      0x00\n      swap1\n      sload\n      swap1\n      0x0100\n      exp\n      swap1\n      div\n      0xff\n      and\n        /* \"RPS_Schett_with_Transaction.sol\":3099:3127  player1Move == Move.Scissors */\n      0x03\n      dup2\n      gt\n      iszero\n      tag_146\n      jumpi\n      tag_147\n      tag_88\n      jump\t// in\n    tag_147:\n    tag_146:\n      eq\n        /* \"RPS_Schett_with_Transaction.sol\":3099:3156  player1Move == Move.Scissors && player2Move == Move.Paper */\n      dup1\n      iszero\n      tag_148\n      jumpi\n      pop\n        /* \"RPS_Schett_with_Transaction.sol\":3146:3156  Move.Paper */\n      0x01\n        /* \"RPS_Schett_with_Transaction.sol\":3131:3156  player2Move == Move.Paper */\n      0x03\n      dup2\n      gt\n      iszero\n      tag_149\n      jumpi\n      tag_150\n      tag_88\n      jump\t// in\n    tag_150:\n    tag_149:\n        /* \"RPS_Schett_with_Transaction.sol\":3131:3142  player2Move */\n      0x04\n      0x01\n      swap1\n      sload\n      swap1\n      0x0100\n      exp\n      swap1\n      div\n      0xff\n      and\n        /* \"RPS_Schett_with_Transaction.sol\":3131:3156  player2Move == Move.Paper */\n      0x03\n      dup2\n      gt\n      iszero\n      tag_151\n      jumpi\n      tag_152\n      tag_88\n      jump\t// in\n    tag_152:\n    tag_151:\n      eq\n        /* \"RPS_Schett_with_Transaction.sol\":3099:3156  player1Move == Move.Scissors && player2Move == Move.Paper */\n    tag_148:\n        /* \"RPS_Schett_with_Transaction.sol\":3023:3157  (player1Move == Move.Rock && player2Move == Move.Scissors) ||... */\n    tag_143:\n        /* \"RPS_Schett_with_Transaction.sol\":3023:3229  (player1Move == Move.Rock && player2Move == Move.Scissors) ||... */\n      dup1\n      tag_153\n      jumpi\n      pop\n        /* \"RPS_Schett_with_Transaction.sol\":3190:3200  Move.Paper */\n      0x01\n        /* \"RPS_Schett_with_Transaction.sol\":3175:3200  player1Move == Move.Paper */\n      0x03\n      dup2\n      gt\n      iszero\n      tag_154\n      jumpi\n      tag_155\n      tag_88\n      jump\t// in\n    tag_155:\n    tag_154:\n        /* \"RPS_Schett_with_Transaction.sol\":3175:3186  player1Move */\n      0x04\n      0x00\n      swap1\n      sload\n      swap1\n      0x0100\n      exp\n      swap1\n      div\n      0xff\n      and\n        /* \"RPS_Schett_with_Transaction.sol\":3175:3200  player1Move == Move.Paper */\n      0x03\n      dup2\n      gt\n      iszero\n      tag_156\n      jumpi\n      tag_157\n      tag_88\n      jump\t// in\n    tag_157:\n    tag_156:\n      eq\n        /* \"RPS_Schett_with_Transaction.sol\":3175:3228  player1Move == Move.Paper && player2Move == Move.Rock */\n      dup1\n      iszero\n      tag_158\n      jumpi\n      pop\n        /* \"RPS_Schett_with_Transaction.sol\":3219:3228  Move.Rock */\n      0x00\n        /* \"RPS_Schett_with_Transaction.sol\":3204:3228  player2Move == Move.Rock */\n      0x03\n      dup2\n      gt\n      iszero\n      tag_159\n      jumpi\n      tag_160\n      tag_88\n      jump\t// in\n    tag_160:\n    tag_159:\n        /* \"RPS_Schett_with_Transaction.sol\":3204:3215  player2Move */\n      0x04\n      0x01\n      swap1\n      sload\n      swap1\n      0x0100\n      exp\n      swap1\n      div\n      0xff\n      and\n        /* \"RPS_Schett_with_Transaction.sol\":3204:3228  player2Move == Move.Rock */\n      0x03\n      dup2\n      gt\n      iszero\n      tag_161\n      jumpi\n      tag_162\n      tag_88\n      jump\t// in\n    tag_162:\n    tag_161:\n      eq\n        /* \"RPS_Schett_with_Transaction.sol\":3175:3228  player1Move == Move.Paper && player2Move == Move.Rock */\n    tag_158:\n        /* \"RPS_Schett_with_Transaction.sol\":3023:3229  (player1Move == Move.Rock && player2Move == Move.Scissors) ||... */\n    tag_153:\n        /* \"RPS_Schett_with_Transaction.sol\":3019:3429  if ((player1Move == Move.Rock && player2Move == Move.Scissors) ||... */\n      iszero\n      tag_163\n      jumpi\n        /* \"RPS_Schett_with_Transaction.sol\":3276:3283  player1 */\n      0x00\n      dup1\n      sload\n      swap1\n      0x0100\n      exp\n      swap1\n      div\n      0xffffffffffffffffffffffffffffffffffffffff\n      and\n        /* \"RPS_Schett_with_Transaction.sol\":3276:3292  player1.transfer */\n      0xffffffffffffffffffffffffffffffffffffffff\n      and\n        /* \"RPS_Schett_with_Transaction.sol\":3276:3315  player1.transfer(address(this).balance) */\n      0x08fc\n        /* \"RPS_Schett_with_Transaction.sol\":3293:3314  address(this).balance */\n      selfbalance\n        /* \"RPS_Schett_with_Transaction.sol\":3276:3315  player1.transfer(address(this).balance) */\n      swap1\n      dup2\n      iszero\n      mul\n      swap1\n      mload(0x40)\n      0x00\n      mload(0x40)\n      dup1\n      dup4\n      sub\n      dup2\n      dup6\n      dup9\n      dup9\n      call\n      swap4\n      pop\n      pop\n      pop\n      pop\n      iszero\n      dup1\n      iszero\n      tag_165\n      jumpi\n      returndatasize\n      0x00\n      dup1\n      returndatacopy\n      revert(0x00, returndatasize)\n    tag_165:\n      pop\n        /* \"RPS_Schett_with_Transaction.sol\":3019:3429  if ((player1Move == Move.Rock && player2Move == Move.Scissors) ||... */\n      jump(tag_166)\n    tag_163:\n        /* \"RPS_Schett_with_Transaction.sol\":3348:3355  player2 */\n      0x01\n      0x00\n      swap1\n      sload\n      swap1\n      0x0100\n      exp\n      swap1\n      div\n      0xffffffffffffffffffffffffffffffffffffffff\n      and\n        /* \"RPS_Schett_with_Transaction.sol\":3348:3364  player2.transfer */\n      0xffffffffffffffffffffffffffffffffffffffff\n      and\n        /* \"RPS_Schett_with_Transaction.sol\":3348:3387  player2.transfer(address(this).balance) */\n      0x08fc\n        /* \"RPS_Schett_with_Transaction.sol\":3365:3386  address(this).balance */\n      selfbalance\n        /* \"RPS_Schett_with_Transaction.sol\":3348:3387  player2.transfer(address(this).balance) */\n      swap1\n      dup2\n      iszero\n      mul\n      swap1\n      mload(0x40)\n      0x00\n      mload(0x40)\n      dup1\n      dup4\n      sub\n      dup2\n      dup6\n      dup9\n      dup9\n      call\n      swap4\n      pop\n      pop\n      pop\n      pop\n      iszero\n      dup1\n      iszero\n      tag_168\n      jumpi\n      returndatasize\n      0x00\n      dup1\n      returndatacopy\n      revert(0x00, returndatasize)\n    tag_168:\n      pop\n        /* \"RPS_Schett_with_Transaction.sol\":3019:3429  if ((player1Move == Move.Rock && player2Move == Move.Scissors) ||... */\n    tag_166:\n        /* \"RPS_Schett_with_Transaction.sol\":2972:3436  function determineWinner() internal {... */\n      jump\t// out\n        /* \"#utility.yul\":88:205   */\n    tag_170:\n        /* \"#utility.yul\":197:198   */\n      0x00\n        /* \"#utility.yul\":194:195   */\n      dup1\n        /* \"#utility.yul\":187:199   */\n      revert\n        /* \"#utility.yul\":334:411   */\n    tag_172:\n        /* \"#utility.yul\":371:378   */\n      0x00\n        /* \"#utility.yul\":400:405   */\n      dup2\n        /* \"#utility.yul\":389:405   */\n      swap1\n      pop\n        /* \"#utility.yul\":334:411   */\n      swap2\n      swap1\n      pop\n      jump\t// out\n        /* \"#utility.yul\":417:539   */\n    tag_173:\n        /* \"#utility.yul\":490:514   */\n      tag_218\n        /* \"#utility.yul\":508:513   */\n      dup2\n        /* \"#utility.yul\":490:514   */\n      tag_172\n      jump\t// in\n    tag_218:\n        /* \"#utility.yul\":483:488   */\n      dup2\n        /* \"#utility.yul\":480:515   */\n      eq\n        /* \"#utility.yul\":470:533   */\n      tag_219\n      jumpi\n        /* \"#utility.yul\":529:530   */\n      0x00\n        /* \"#utility.yul\":526:527   */\n      dup1\n        /* \"#utility.yul\":519:531   */\n      revert\n        /* \"#utility.yul\":470:533   */\n    tag_219:\n        /* \"#utility.yul\":417:539   */\n      pop\n      jump\t// out\n        /* \"#utility.yul\":545:684   */\n    tag_174:\n        /* \"#utility.yul\":591:596   */\n      0x00\n        /* \"#utility.yul\":629:635   */\n      dup2\n        /* \"#utility.yul\":616:636   */\n      calldataload\n        /* \"#utility.yul\":607:636   */\n      swap1\n      pop\n        /* \"#utility.yul\":645:678   */\n      tag_221\n        /* \"#utility.yul\":672:677   */\n      dup2\n        /* \"#utility.yul\":645:678   */\n      tag_173\n      jump\t// in\n    tag_221:\n        /* \"#utility.yul\":545:684   */\n      swap3\n      swap2\n      pop\n      pop\n      jump\t// out\n        /* \"#utility.yul\":690:1164   */\n    tag_18:\n        /* \"#utility.yul\":758:764   */\n      0x00\n        /* \"#utility.yul\":766:772   */\n      dup1\n        /* \"#utility.yul\":815:817   */\n      0x40\n        /* \"#utility.yul\":803:812   */\n      dup4\n        /* \"#utility.yul\":794:801   */\n      dup6\n        /* \"#utility.yul\":790:813   */\n      sub\n        /* \"#utility.yul\":786:818   */\n      slt\n        /* \"#utility.yul\":783:902   */\n      iszero\n      tag_223\n      jumpi\n        /* \"#utility.yul\":821:900   */\n      tag_224\n      tag_170\n      jump\t// in\n    tag_224:\n        /* \"#utility.yul\":783:902   */\n    tag_223:\n        /* \"#utility.yul\":941:942   */\n      0x00\n        /* \"#utility.yul\":966:1019   */\n      tag_225\n        /* \"#utility.yul\":1011:1018   */\n      dup6\n        /* \"#utility.yul\":1002:1008   */\n      dup3\n        /* \"#utility.yul\":991:1000   */\n      dup7\n        /* \"#utility.yul\":987:1009   */\n      add\n        /* \"#utility.yul\":966:1019   */\n      tag_174\n      jump\t// in\n    tag_225:\n        /* \"#utility.yul\":956:1019   */\n      swap3\n      pop\n        /* \"#utility.yul\":912:1029   */\n      pop\n        /* \"#utility.yul\":1068:1070   */\n      0x20\n        /* \"#utility.yul\":1094:1147   */\n      tag_226\n        /* \"#utility.yul\":1139:1146   */\n      dup6\n        /* \"#utility.yul\":1130:1136   */\n      dup3\n        /* \"#utility.yul\":1119:1128   */\n      dup7\n        /* \"#utility.yul\":1115:1137   */\n      add\n        /* \"#utility.yul\":1094:1147   */\n      tag_174\n      jump\t// in\n    tag_226:\n        /* \"#utility.yul\":1084:1147   */\n      swap2\n      pop\n        /* \"#utility.yul\":1039:1157   */\n      pop\n        /* \"#utility.yul\":690:1164   */\n      swap3\n      pop\n      swap3\n      swap1\n      pop\n      jump\t// out\n        /* \"#utility.yul\":1170:1247   */\n    tag_175:\n        /* \"#utility.yul\":1207:1214   */\n      0x00\n        /* \"#utility.yul\":1236:1241   */\n      dup2\n        /* \"#utility.yul\":1225:1241   */\n      swap1\n      pop\n        /* \"#utility.yul\":1170:1247   */\n      swap2\n      swap1\n      pop\n      jump\t// out\n        /* \"#utility.yul\":1253:1371   */\n    tag_176:\n        /* \"#utility.yul\":1340:1364   */\n      tag_229\n        /* \"#utility.yul\":1358:1363   */\n      dup2\n        /* \"#utility.yul\":1340:1364   */\n      tag_175\n      jump\t// in\n    tag_229:\n        /* \"#utility.yul\":1335:1338   */\n      dup3\n        /* \"#utility.yul\":1328:1365   */\n      mstore\n        /* \"#utility.yul\":1253:1371   */\n      pop\n      pop\n      jump\t// out\n        /* \"#utility.yul\":1377:1599   */\n    tag_21:\n        /* \"#utility.yul\":1470:1474   */\n      0x00\n        /* \"#utility.yul\":1508:1510   */\n      0x20\n        /* \"#utility.yul\":1497:1506   */\n      dup3\n        /* \"#utility.yul\":1493:1511   */\n      add\n        /* \"#utility.yul\":1485:1511   */\n      swap1\n      pop\n        /* \"#utility.yul\":1521:1592   */\n      tag_231\n        /* \"#utility.yul\":1589:1590   */\n      0x00\n        /* \"#utility.yul\":1578:1587   */\n      dup4\n        /* \"#utility.yul\":1574:1591   */\n      add\n        /* \"#utility.yul\":1565:1571   */\n      dup5\n        /* \"#utility.yul\":1521:1592   */\n      tag_176\n      jump\t// in\n    tag_231:\n        /* \"#utility.yul\":1377:1599   */\n      swap3\n      swap2\n      pop\n      pop\n      jump\t// out\n        /* \"#utility.yul\":1605:1731   */\n    tag_177:\n        /* \"#utility.yul\":1642:1649   */\n      0x00\n        /* \"#utility.yul\":1682:1724   */\n      0xffffffffffffffffffffffffffffffffffffffff\n        /* \"#utility.yul\":1675:1680   */\n      dup3\n        /* \"#utility.yul\":1671:1725   */\n      and\n        /* \"#utility.yul\":1660:1725   */\n      swap1\n      pop\n        /* \"#utility.yul\":1605:1731   */\n      swap2\n      swap1\n      pop\n      jump\t// out\n        /* \"#utility.yul\":1737:1841   */\n    tag_178:\n        /* \"#utility.yul\":1782:1789   */\n      0x00\n        /* \"#utility.yul\":1811:1835   */\n      tag_234\n        /* \"#utility.yul\":1829:1834   */\n      dup3\n        /* \"#utility.yul\":1811:1835   */\n      tag_177\n      jump\t// in\n    tag_234:\n        /* \"#utility.yul\":1800:1835   */\n      swap1\n      pop\n        /* \"#utility.yul\":1737:1841   */\n      swap2\n      swap1\n      pop\n      jump\t// out\n        /* \"#utility.yul\":1847:1989   */\n    tag_179:\n        /* \"#utility.yul\":1950:1982   */\n      tag_236\n        /* \"#utility.yul\":1976:1981   */\n      dup2\n        /* \"#utility.yul\":1950:1982   */\n      tag_178\n      jump\t// in\n    tag_236:\n        /* \"#utility.yul\":1945:1948   */\n      dup3\n        /* \"#utility.yul\":1938:1983   */\n      mstore\n        /* \"#utility.yul\":1847:1989   */\n      pop\n      pop\n      jump\t// out\n        /* \"#utility.yul\":1995:2249   */\n    tag_30:\n        /* \"#utility.yul\":2104:2108   */\n      0x00\n        /* \"#utility.yul\":2142:2144   */\n      0x20\n        /* \"#utility.yul\":2131:2140   */\n      dup3\n        /* \"#utility.yul\":2127:2145   */\n      add\n        /* \"#utility.yul\":2119:2145   */\n      swap1\n      pop\n        /* \"#utility.yul\":2155:2242   */\n      tag_238\n        /* \"#utility.yul\":2239:2240   */\n      0x00\n        /* \"#utility.yul\":2228:2237   */\n      dup4\n        /* \"#utility.yul\":2224:2241   */\n      add\n        /* \"#utility.yul\":2215:2221   */\n      dup5\n        /* \"#utility.yul\":2155:2242   */\n      tag_179\n      jump\t// in\n    tag_238:\n        /* \"#utility.yul\":1995:2249   */\n      swap3\n      swap2\n      pop\n      pop\n      jump\t// out\n        /* \"#utility.yul\":2255:2393   */\n    tag_180:\n        /* \"#utility.yul\":2336:2368   */\n      tag_240\n        /* \"#utility.yul\":2362:2367   */\n      dup2\n        /* \"#utility.yul\":2336:2368   */\n      tag_178\n      jump\t// in\n    tag_240:\n        /* \"#utility.yul\":2329:2334   */\n      dup2\n        /* \"#utility.yul\":2326:2369   */\n      eq\n        /* \"#utility.yul\":2316:2387   */\n      tag_241\n      jumpi\n        /* \"#utility.yul\":2383:2384   */\n      0x00\n        /* \"#utility.yul\":2380:2381   */\n      dup1\n        /* \"#utility.yul\":2373:2385   */\n      revert\n        /* \"#utility.yul\":2316:2387   */\n    tag_241:\n        /* \"#utility.yul\":2255:2393   */\n      pop\n      jump\t// out\n        /* \"#utility.yul\":2399:2554   */\n    tag_181:\n        /* \"#utility.yul\":2453:2458   */\n      0x00\n        /* \"#utility.yul\":2491:2497   */\n      dup2\n        /* \"#utility.yul\":2478:2498   */\n      calldataload\n        /* \"#utility.yul\":2469:2498   */\n      swap1\n      pop\n        /* \"#utility.yul\":2507:2548   */\n      tag_243\n        /* \"#utility.yul\":2542:2547   */\n      dup2\n        /* \"#utility.yul\":2507:2548   */\n      tag_180\n      jump\t// in\n    tag_243:\n        /* \"#utility.yul\":2399:2554   */\n      swap3\n      swap2\n      pop\n      pop\n      jump\t// out\n        /* \"#utility.yul\":2560:2905   */\n    tag_33:\n        /* \"#utility.yul\":2627:2633   */\n      0x00\n        /* \"#utility.yul\":2676:2678   */\n      0x20\n        /* \"#utility.yul\":2664:2673   */\n      dup3\n        /* \"#utility.yul\":2655:2662   */\n      dup5\n        /* \"#utility.yul\":2651:2674   */\n      sub\n        /* \"#utility.yul\":2647:2679   */\n      slt\n        /* \"#utility.yul\":2644:2763   */\n      iszero\n      tag_245\n      jumpi\n        /* \"#utility.yul\":2682:2761   */\n      tag_246\n      tag_170\n      jump\t// in\n    tag_246:\n        /* \"#utility.yul\":2644:2763   */\n    tag_245:\n        /* \"#utility.yul\":2802:2803   */\n      0x00\n        /* \"#utility.yul\":2827:2888   */\n      tag_247\n        /* \"#utility.yul\":2880:2887   */\n      dup5\n        /* \"#utility.yul\":2871:2877   */\n      dup3\n        /* \"#utility.yul\":2860:2869   */\n      dup6\n        /* \"#utility.yul\":2856:2878   */\n      add\n        /* \"#utility.yul\":2827:2888   */\n      tag_181\n      jump\t// in\n    tag_247:\n        /* \"#utility.yul\":2817:2888   */\n      swap2\n      pop\n        /* \"#utility.yul\":2773:2898   */\n      pop\n        /* \"#utility.yul\":2560:2905   */\n      swap3\n      swap2\n      pop\n      pop\n      jump\t// out\n        /* \"#utility.yul\":2911:3091   */\n    tag_88:\n        /* \"#utility.yul\":2959:3036   */\n      0x4e487b7100000000000000000000000000000000000000000000000000000000\n        /* \"#utility.yul\":2956:2957   */\n      0x00\n        /* \"#utility.yul\":2949:3037   */\n      mstore\n        /* \"#utility.yul\":3056:3060   */\n      0x21\n        /* \"#utility.yul\":3053:3054   */\n      0x04\n        /* \"#utility.yul\":3046:3061   */\n      mstore\n        /* \"#utility.yul\":3080:3084   */\n      0x24\n        /* \"#utility.yul\":3077:3078   */\n      0x00\n        /* \"#utility.yul\":3070:3085   */\n      revert\n        /* \"#utility.yul\":3097:3208   */\n    tag_182:\n        /* \"#utility.yul\":3176:3177   */\n      0x04\n        /* \"#utility.yul\":3169:3174   */\n      dup2\n        /* \"#utility.yul\":3166:3178   */\n      lt\n        /* \"#utility.yul\":3156:3202   */\n      tag_250\n      jumpi\n        /* \"#utility.yul\":3182:3200   */\n      tag_251\n      tag_88\n      jump\t// in\n    tag_251:\n        /* \"#utility.yul\":3156:3202   */\n    tag_250:\n        /* \"#utility.yul\":3097:3208   */\n      pop\n      jump\t// out\n        /* \"#utility.yul\":3214:3337   */\n    tag_183:\n        /* \"#utility.yul\":3257:3264   */\n      0x00\n        /* \"#utility.yul\":3286:3291   */\n      dup2\n        /* \"#utility.yul\":3275:3291   */\n      swap1\n      pop\n        /* \"#utility.yul\":3292:3331   */\n      tag_253\n        /* \"#utility.yul\":3325:3330   */\n      dup3\n        /* \"#utility.yul\":3292:3331   */\n      tag_182\n      jump\t// in\n    tag_253:\n        /* \"#utility.yul\":3214:3337   */\n      swap2\n      swap1\n      pop\n      jump\t// out\n        /* \"#utility.yul\":3343:3466   */\n    tag_184:\n        /* \"#utility.yul\":3397:3406   */\n      0x00\n        /* \"#utility.yul\":3430:3460   */\n      tag_255\n        /* \"#utility.yul\":3454:3459   */\n      dup3\n        /* \"#utility.yul\":3430:3460   */\n      tag_183\n      jump\t// in\n    tag_255:\n        /* \"#utility.yul\":3417:3460   */\n      swap1\n      pop\n        /* \"#utility.yul\":3343:3466   */\n      swap2\n      swap1\n      pop\n      jump\t// out\n        /* \"#utility.yul\":3472:3611   */\n    tag_185:\n        /* \"#utility.yul\":3563:3604   */\n      tag_257\n        /* \"#utility.yul\":3598:3603   */\n      dup2\n        /* \"#utility.yul\":3563:3604   */\n      tag_184\n      jump\t// in\n    tag_257:\n        /* \"#utility.yul\":3558:3561   */\n      dup3\n        /* \"#utility.yul\":3551:3605   */\n      mstore\n        /* \"#utility.yul\":3472:3611   */\n      pop\n      pop\n      jump\t// out\n        /* \"#utility.yul\":3617:3847   */\n    tag_39:\n        /* \"#utility.yul\":3714:3718   */\n      0x00\n        /* \"#utility.yul\":3752:3754   */\n      0x20\n        /* \"#utility.yul\":3741:3750   */\n      dup3\n        /* \"#utility.yul\":3737:3755   */\n      add\n        /* \"#utility.yul\":3729:3755   */\n      swap1\n      pop\n        /* \"#utility.yul\":3765:3840   */\n      tag_259\n        /* \"#utility.yul\":3837:3838   */\n      0x00\n        /* \"#utility.yul\":3826:3835   */\n      dup4\n        /* \"#utility.yul\":3822:3839   */\n      add\n        /* \"#utility.yul\":3813:3819   */\n      dup5\n        /* \"#utility.yul\":3765:3840   */\n      tag_185\n      jump\t// in\n    tag_259:\n        /* \"#utility.yul\":3617:3847   */\n      swap3\n      swap2\n      pop\n      pop\n      jump\t// out\n        /* \"#utility.yul\":3853:3975   */\n    tag_186:\n        /* \"#utility.yul\":3926:3950   */\n      tag_261\n        /* \"#utility.yul\":3944:3949   */\n      dup2\n        /* \"#utility.yul\":3926:3950   */\n      tag_175\n      jump\t// in\n    tag_261:\n        /* \"#utility.yul\":3919:3924   */\n      dup2\n        /* \"#utility.yul\":3916:3951   */\n      eq\n        /* \"#utility.yul\":3906:3969   */\n      tag_262\n      jumpi\n        /* \"#utility.yul\":3965:3966   */\n      0x00\n        /* \"#utility.yul\":3962:3963   */\n      dup1\n        /* \"#utility.yul\":3955:3967   */\n      revert\n        /* \"#utility.yul\":3906:3969   */\n    tag_262:\n        /* \"#utility.yul\":3853:3975   */\n      pop\n      jump\t// out\n        /* \"#utility.yul\":3981:4120   */\n    tag_187:\n        /* \"#utility.yul\":4027:4032   */\n      0x00\n        /* \"#utility.yul\":4065:4071   */\n      dup2\n        /* \"#utility.yul\":4052:4072   */\n      calldataload\n        /* \"#utility.yul\":4043:4072   */\n      swap1\n      pop\n        /* \"#utility.yul\":4081:4114   */\n      tag_264\n        /* \"#utility.yul\":4108:4113   */\n      dup2\n        /* \"#utility.yul\":4081:4114   */\n      tag_186\n      jump\t// in\n    tag_264:\n        /* \"#utility.yul\":3981:4120   */\n      swap3\n      swap2\n      pop\n      pop\n      jump\t// out\n        /* \"#utility.yul\":4126:4455   */\n    tag_47:\n        /* \"#utility.yul\":4185:4191   */\n      0x00\n        /* \"#utility.yul\":4234:4236   */\n      0x20\n        /* \"#utility.yul\":4222:4231   */\n      dup3\n        /* \"#utility.yul\":4213:4220   */\n      dup5\n        /* \"#utility.yul\":4209:4232   */\n      sub\n        /* \"#utility.yul\":4205:4237   */\n      slt\n        /* \"#utility.yul\":4202:4321   */\n      iszero\n      tag_266\n      jumpi\n        /* \"#utility.yul\":4240:4319   */\n      tag_267\n      tag_170\n      jump\t// in\n    tag_267:\n        /* \"#utility.yul\":4202:4321   */\n    tag_266:\n        /* \"#utility.yul\":4360:4361   */\n      0x00\n        /* \"#utility.yul\":4385:4438   */\n      tag_268\n        /* \"#utility.yul\":4430:4437   */\n      dup5\n        /* \"#utility.yul\":4421:4427   */\n      dup3\n        /* \"#utility.yul\":4410:4419   */\n      dup6\n        /* \"#utility.yul\":4406:4428   */\n      add\n        /* \"#utility.yul\":4385:4438   */\n      tag_187\n      jump\t// in\n    tag_268:\n        /* \"#utility.yul\":4375:4438   */\n      swap2\n      pop\n        /* \"#utility.yul\":4331:4448   */\n      pop\n        /* \"#utility.yul\":4126:4455   */\n      swap3\n      swap2\n      pop\n      pop\n      jump\t// out\n        /* \"#utility.yul\":4461:4579   */\n    tag_188:\n        /* \"#utility.yul\":4548:4572   */\n      tag_270\n        /* \"#utility.yul\":4566:4571   */\n      dup2\n        /* \"#utility.yul\":4548:4572   */\n      tag_172\n      jump\t// in\n    tag_270:\n        /* \"#utility.yul\":4543:4546   */\n      dup3\n        /* \"#utility.yul\":4536:4573   */\n      mstore\n        /* \"#utility.yul\":4461:4579   */\n      pop\n      pop\n      jump\t// out\n        /* \"#utility.yul\":4585:4807   */\n    tag_53:\n        /* \"#utility.yul\":4678:4682   */\n      0x00\n        /* \"#utility.yul\":4716:4718   */\n      0x20\n        /* \"#utility.yul\":4705:4714   */\n      dup3\n        /* \"#utility.yul\":4701:4719   */\n      add\n        /* \"#utility.yul\":4693:4719   */\n      swap1\n      pop\n        /* \"#utility.yul\":4729:4800   */\n      tag_272\n        /* \"#utility.yul\":4797:4798   */\n      0x00\n        /* \"#utility.yul\":4786:4795   */\n      dup4\n        /* \"#utility.yul\":4782:4799   */\n      add\n        /* \"#utility.yul\":4773:4779   */\n      dup5\n        /* \"#utility.yul\":4729:4800   */\n      tag_188\n      jump\t// in\n    tag_272:\n        /* \"#utility.yul\":4585:4807   */\n      swap3\n      swap2\n      pop\n      pop\n      jump\t// out\n        /* \"#utility.yul\":4813:4892   */\n    tag_189:\n        /* \"#utility.yul\":4852:4859   */\n      0x00\n        /* \"#utility.yul\":4881:4886   */\n      dup2\n        /* \"#utility.yul\":4870:4886   */\n      swap1\n      pop\n        /* \"#utility.yul\":4813:4892   */\n      swap2\n      swap1\n      pop\n      jump\t// out\n        /* \"#utility.yul\":4898:5055   */\n    tag_190:\n        /* \"#utility.yul\":5003:5048   */\n      tag_275\n        /* \"#utility.yul\":5023:5047   */\n      tag_276\n        /* \"#utility.yul\":5041:5046   */\n      dup3\n        /* \"#utility.yul\":5023:5047   */\n      tag_172\n      jump\t// in\n    tag_276:\n        /* \"#utility.yul\":5003:5048   */\n      tag_189\n      jump\t// in\n    tag_275:\n        /* \"#utility.yul\":4998:5001   */\n      dup3\n        /* \"#utility.yul\":4991:5049   */\n      mstore\n        /* \"#utility.yul\":4898:5055   */\n      pop\n      pop\n      jump\t// out\n        /* \"#utility.yul\":5061:5458   */\n    tag_72:\n        /* \"#utility.yul\":5201:5204   */\n      0x00\n        /* \"#utility.yul\":5216:5291   */\n      tag_278\n        /* \"#utility.yul\":5287:5290   */\n      dup3\n        /* \"#utility.yul\":5278:5284   */\n      dup6\n        /* \"#utility.yul\":5216:5291   */\n      tag_190\n      jump\t// in\n    tag_278:\n        /* \"#utility.yul\":5316:5318   */\n      0x20\n        /* \"#utility.yul\":5311:5314   */\n      dup3\n        /* \"#utility.yul\":5307:5319   */\n      add\n        /* \"#utility.yul\":5300:5319   */\n      swap2\n      pop\n        /* \"#utility.yul\":5329:5404   */\n      tag_279\n        /* \"#utility.yul\":5400:5403   */\n      dup3\n        /* \"#utility.yul\":5391:5397   */\n      dup5\n        /* \"#utility.yul\":5329:5404   */\n      tag_190\n      jump\t// in\n    tag_279:\n        /* \"#utility.yul\":5429:5431   */\n      0x20\n        /* \"#utility.yul\":5424:5427   */\n      dup3\n        /* \"#utility.yul\":5420:5432   */\n      add\n        /* \"#utility.yul\":5413:5432   */\n      swap2\n      pop\n        /* \"#utility.yul\":5449:5452   */\n      dup2\n        /* \"#utility.yul\":5442:5452   */\n      swap1\n      pop\n        /* \"#utility.yul\":5061:5458   */\n      swap4\n      swap3\n      pop\n      pop\n      pop\n      jump\t// out\n        /* \"#utility.yul\":5464:5633   */\n    tag_191:\n        /* \"#utility.yul\":5548:5559   */\n      0x00\n        /* \"#utility.yul\":5582:5588   */\n      dup3\n        /* \"#utility.yul\":5577:5580   */\n      dup3\n        /* \"#utility.yul\":5570:5589   */\n      mstore\n        /* \"#utility.yul\":5622:5626   */\n      0x20\n        /* \"#utility.yul\":5617:5620   */\n      dup3\n        /* \"#utility.yul\":5613:5627   */\n      add\n        /* \"#utility.yul\":5598:5627   */\n      swap1\n      pop\n        /* \"#utility.yul\":5464:5633   */\n      swap3\n      swap2\n      pop\n      pop\n      jump\t// out\n        /* \"#utility.yul\":5639:5820   */\n    tag_192:\n        /* \"#utility.yul\":5779:5812   */\n      0x52657665616c2074696d65206861732062656e206f7665727374657070656400\n        /* \"#utility.yul\":5775:5776   */\n      0x00\n        /* \"#utility.yul\":5767:5773   */\n      dup3\n        /* \"#utility.yul\":5763:5777   */\n      add\n        /* \"#utility.yul\":5756:5813   */\n      mstore\n        /* \"#utility.yul\":5639:5820   */\n      pop\n      jump\t// out\n        /* \"#utility.yul\":5826:6192   */\n    tag_193:\n        /* \"#utility.yul\":5968:5971   */\n      0x00\n        /* \"#utility.yul\":5989:6056   */\n      tag_283\n        /* \"#utility.yul\":6053:6055   */\n      0x1f\n        /* \"#utility.yul\":6048:6051   */\n      dup4\n        /* \"#utility.yul\":5989:6056   */\n      tag_191\n      jump\t// in\n    tag_283:\n        /* \"#utility.yul\":5982:6056   */\n      swap2\n      pop\n        /* \"#utility.yul\":6065:6158   */\n      tag_284\n        /* \"#utility.yul\":6154:6157   */\n      dup3\n        /* \"#utility.yul\":6065:6158   */\n      tag_192\n      jump\t// in\n    tag_284:\n        /* \"#utility.yul\":6183:6185   */\n      0x20\n        /* \"#utility.yul\":6178:6181   */\n      dup3\n        /* \"#utility.yul\":6174:6186   */\n      add\n        /* \"#utility.yul\":6167:6186   */\n      swap1\n      pop\n        /* \"#utility.yul\":5826:6192   */\n      swap2\n      swap1\n      pop\n      jump\t// out\n        /* \"#utility.yul\":6198:6617   */\n    tag_76:\n        /* \"#utility.yul\":6364:6368   */\n      0x00\n        /* \"#utility.yul\":6402:6404   */\n      0x20\n        /* \"#utility.yul\":6391:6400   */\n      dup3\n        /* \"#utility.yul\":6387:6405   */\n      add\n        /* \"#utility.yul\":6379:6405   */\n      swap1\n      pop\n        /* \"#utility.yul\":6451:6460   */\n      dup2\n        /* \"#utility.yul\":6445:6449   */\n      dup2\n        /* \"#utility.yul\":6441:6461   */\n      sub\n        /* \"#utility.yul\":6437:6438   */\n      0x00\n        /* \"#utility.yul\":6426:6435   */\n      dup4\n        /* \"#utility.yul\":6422:6439   */\n      add\n        /* \"#utility.yul\":6415:6462   */\n      mstore\n        /* \"#utility.yul\":6479:6610   */\n      tag_286\n        /* \"#utility.yul\":6605:6609   */\n      dup2\n        /* \"#utility.yul\":6479:6610   */\n      tag_193\n      jump\t// in\n    tag_286:\n        /* \"#utility.yul\":6471:6610   */\n      swap1\n      pop\n        /* \"#utility.yul\":6198:6617   */\n      swap2\n      swap1\n      pop\n      jump\t// out\n        /* \"#utility.yul\":6623:6785   */\n    tag_194:\n        /* \"#utility.yul\":6763:6777   */\n      0x6e6f74206120706c617965720000000000000000000000000000000000000000\n        /* \"#utility.yul\":6759:6760   */\n      0x00\n        /* \"#utility.yul\":6751:6757   */\n      dup3\n        /* \"#utility.yul\":6747:6761   */\n      add\n        /* \"#utility.yul\":6740:6778   */\n      mstore\n        /* \"#utility.yul\":6623:6785   */\n      pop\n      jump\t// out\n        /* \"#utility.yul\":6791:7157   */\n    tag_195:\n        /* \"#utility.yul\":6933:6936   */\n      0x00\n        /* \"#utility.yul\":6954:7021   */\n      tag_289\n        /* \"#utility.yul\":7018:7020   */\n      0x0c\n        /* \"#utility.yul\":7013:7016   */\n      dup4\n        /* \"#utility.yul\":6954:7021   */\n      tag_191\n      jump\t// in\n    tag_289:\n        /* \"#utility.yul\":6947:7021   */\n      swap2\n      pop\n        /* \"#utility.yul\":7030:7123   */\n      tag_290\n        /* \"#utility.yul\":7119:7122   */\n      dup3\n        /* \"#utility.yul\":7030:7123   */\n      tag_194\n      jump\t// in\n    tag_290:\n        /* \"#utility.yul\":7148:7150   */\n      0x20\n        /* \"#utility.yul\":7143:7146   */\n      dup3\n        /* \"#utility.yul\":7139:7151   */\n      add\n        /* \"#utility.yul\":7132:7151   */\n      swap1\n      pop\n        /* \"#utility.yul\":6791:7157   */\n      swap2\n      swap1\n      pop\n      jump\t// out\n        /* \"#utility.yul\":7163:7582   */\n    tag_80:\n        /* \"#utility.yul\":7329:7333   */\n      0x00\n        /* \"#utility.yul\":7367:7369   */\n      0x20\n        /* \"#utility.yul\":7356:7365   */\n      dup3\n        /* \"#utility.yul\":7352:7370   */\n      add\n        /* \"#utility.yul\":7344:7370   */\n      swap1\n      pop\n        /* \"#utility.yul\":7416:7425   */\n      dup2\n        /* \"#utility.yul\":7410:7414   */\n      dup2\n        /* \"#utility.yul\":7406:7426   */\n      sub\n        /* \"#utility.yul\":7402:7403   */\n      0x00\n        /* \"#utility.yul\":7391:7400   */\n      dup4\n        /* \"#utility.yul\":7387:7404   */\n      add\n        /* \"#utility.yul\":7380:7427   */\n      mstore\n        /* \"#utility.yul\":7444:7575   */\n      tag_292\n        /* \"#utility.yul\":7570:7574   */\n      dup2\n        /* \"#utility.yul\":7444:7575   */\n      tag_195\n      jump\t// in\n    tag_292:\n        /* \"#utility.yul\":7436:7575   */\n      swap1\n      pop\n        /* \"#utility.yul\":7163:7582   */\n      swap2\n      swap1\n      pop\n      jump\t// out\n        /* \"#utility.yul\":7588:7764   */\n    tag_196:\n        /* \"#utility.yul\":7728:7756   */\n      0x496e76616c696420636f6d6d697420666f7220706c6179657231000000000000\n        /* \"#utility.yul\":7724:7725   */\n      0x00\n        /* \"#utility.yul\":7716:7722   */\n      dup3\n        /* \"#utility.yul\":7712:7726   */\n      add\n        /* \"#utility.yul\":7705:7757   */\n      mstore\n        /* \"#utility.yul\":7588:7764   */\n      pop\n      jump\t// out\n        /* \"#utility.yul\":7770:8136   */\n    tag_197:\n        /* \"#utility.yul\":7912:7915   */\n      0x00\n        /* \"#utility.yul\":7933:8000   */\n      tag_295\n        /* \"#utility.yul\":7997:7999   */\n      0x1a\n        /* \"#utility.yul\":7992:7995   */\n      dup4\n        /* \"#utility.yul\":7933:8000   */\n      tag_191\n      jump\t// in\n    tag_295:\n        /* \"#utility.yul\":7926:8000   */\n      swap2\n      pop\n        /* \"#utility.yul\":8009:8102   */\n      tag_296\n        /* \"#utility.yul\":8098:8101   */\n      dup3\n        /* \"#utility.yul\":8009:8102   */\n      tag_196\n      jump\t// in\n    tag_296:\n        /* \"#utility.yul\":8127:8129   */\n      0x20\n        /* \"#utility.yul\":8122:8125   */\n      dup3\n        /* \"#utility.yul\":8118:8130   */\n      add\n        /* \"#utility.yul\":8111:8130   */\n      swap1\n      pop\n        /* \"#utility.yul\":7770:8136   */\n      swap2\n      swap1\n      pop\n      jump\t// out\n        /* \"#utility.yul\":8142:8561   */\n    tag_85:\n        /* \"#utility.yul\":8308:8312   */\n      0x00\n        /* \"#utility.yul\":8346:8348   */\n      0x20\n        /* \"#utility.yul\":8335:8344   */\n      dup3\n        /* \"#utility.yul\":8331:8349   */\n      add\n        /* \"#utility.yul\":8323:8349   */\n      swap1\n      pop\n        /* \"#utility.yul\":8395:8404   */\n      dup2\n        /* \"#utility.yul\":8389:8393   */\n      dup2\n        /* \"#utility.yul\":8385:8405   */\n      sub\n        /* \"#utility.yul\":8381:8382   */\n      0x00\n        /* \"#utility.yul\":8370:8379   */\n      dup4\n        /* \"#utility.yul\":8366:8383   */\n      add\n        /* \"#utility.yul\":8359:8406   */\n      mstore\n        /* \"#utility.yul\":8423:8554   */\n      tag_298\n        /* \"#utility.yul\":8549:8553   */\n      dup2\n        /* \"#utility.yul\":8423:8554   */\n      tag_197\n      jump\t// in\n    tag_298:\n        /* \"#utility.yul\":8415:8554   */\n      swap1\n      pop\n        /* \"#utility.yul\":8142:8561   */\n      swap2\n      swap1\n      pop\n      jump\t// out\n        /* \"#utility.yul\":8567:8743   */\n    tag_198:\n        /* \"#utility.yul\":8707:8735   */\n      0x496e76616c696420636f6d6d697420666f7220706c6179657232000000000000\n        /* \"#utility.yul\":8703:8704   */\n      0x00\n        /* \"#utility.yul\":8695:8701   */\n      dup3\n        /* \"#utility.yul\":8691:8705   */\n      add\n        /* \"#utility.yul\":8684:8736   */\n      mstore\n        /* \"#utility.yul\":8567:8743   */\n      pop\n      jump\t// out\n        /* \"#utility.yul\":8749:9115   */\n    tag_199:\n        /* \"#utility.yul\":8891:8894   */\n      0x00\n        /* \"#utility.yul\":8912:8979   */\n      tag_301\n        /* \"#utility.yul\":8976:8978   */\n      0x1a\n        /* \"#utility.yul\":8971:8974   */\n      dup4\n        /* \"#utility.yul\":8912:8979   */\n      tag_191\n      jump\t// in\n    tag_301:\n        /* \"#utility.yul\":8905:8979   */\n      swap2\n      pop\n        /* \"#utility.yul\":8988:9081   */\n      tag_302\n        /* \"#utility.yul\":9077:9080   */\n      dup3\n        /* \"#utility.yul\":8988:9081   */\n      tag_198\n      jump\t// in\n    tag_302:\n        /* \"#utility.yul\":9106:9108   */\n      0x20\n        /* \"#utility.yul\":9101:9104   */\n      dup3\n        /* \"#utility.yul\":9097:9109   */\n      add\n        /* \"#utility.yul\":9090:9109   */\n      swap1\n      pop\n        /* \"#utility.yul\":8749:9115   */\n      swap2\n      swap1\n      pop\n      jump\t// out\n        /* \"#utility.yul\":9121:9540   */\n    tag_94:\n        /* \"#utility.yul\":9287:9291   */\n      0x00\n        /* \"#utility.yul\":9325:9327   */\n      0x20\n        /* \"#utility.yul\":9314:9323   */\n      dup3\n        /* \"#utility.yul\":9310:9328   */\n      add\n        /* \"#utility.yul\":9302:9328   */\n      swap1\n      pop\n        /* \"#utility.yul\":9374:9383   */\n      dup2\n        /* \"#utility.yul\":9368:9372   */\n      dup2\n        /* \"#utility.yul\":9364:9384   */\n      sub\n        /* \"#utility.yul\":9360:9361   */\n      0x00\n        /* \"#utility.yul\":9349:9358   */\n      dup4\n        /* \"#utility.yul\":9345:9362   */\n      add\n        /* \"#utility.yul\":9338:9385   */\n      mstore\n        /* \"#utility.yul\":9402:9533   */\n      tag_304\n        /* \"#utility.yul\":9528:9532   */\n      dup2\n        /* \"#utility.yul\":9402:9533   */\n      tag_199\n      jump\t// in\n    tag_304:\n        /* \"#utility.yul\":9394:9533   */\n      swap1\n      pop\n        /* \"#utility.yul\":9121:9540   */\n      swap2\n      swap1\n      pop\n      jump\t// out\n        /* \"#utility.yul\":9546:9722   */\n    tag_200:\n        /* \"#utility.yul\":9686:9714   */\n      0x506c61796572203220697320616c72656164792063686f73656e000000000000\n        /* \"#utility.yul\":9682:9683   */\n      0x00\n        /* \"#utility.yul\":9674:9680   */\n      dup3\n        /* \"#utility.yul\":9670:9684   */\n      add\n        /* \"#utility.yul\":9663:9715   */\n      mstore\n        /* \"#utility.yul\":9546:9722   */\n      pop\n      jump\t// out\n        /* \"#utility.yul\":9728:10094   */\n    tag_201:\n        /* \"#utility.yul\":9870:9873   */\n      0x00\n        /* \"#utility.yul\":9891:9958   */\n      tag_307\n        /* \"#utility.yul\":9955:9957   */\n      0x1a\n        /* \"#utility.yul\":9950:9953   */\n      dup4\n        /* \"#utility.yul\":9891:9958   */\n      tag_191\n      jump\t// in\n    tag_307:\n        /* \"#utility.yul\":9884:9958   */\n      swap2\n      pop\n        /* \"#utility.yul\":9967:10060   */\n      tag_308\n        /* \"#utility.yul\":10056:10059   */\n      dup3\n        /* \"#utility.yul\":9967:10060   */\n      tag_200\n      jump\t// in\n    tag_308:\n        /* \"#utility.yul\":10085:10087   */\n      0x20\n        /* \"#utility.yul\":10080:10083   */\n      dup3\n        /* \"#utility.yul\":10076:10088   */\n      add\n        /* \"#utility.yul\":10069:10088   */\n      swap1\n      pop\n        /* \"#utility.yul\":9728:10094   */\n      swap2\n      swap1\n      pop\n      jump\t// out\n        /* \"#utility.yul\":10100:10519   */\n    tag_114:\n        /* \"#utility.yul\":10266:10270   */\n      0x00\n        /* \"#utility.yul\":10304:10306   */\n      0x20\n        /* \"#utility.yul\":10293:10302   */\n      dup3\n        /* \"#utility.yul\":10289:10307   */\n      add\n        /* \"#utility.yul\":10281:10307   */\n      swap1\n      pop\n        /* \"#utility.yul\":10353:10362   */\n      dup2\n        /* \"#utility.yul\":10347:10351   */\n      dup2\n        /* \"#utility.yul\":10343:10363   */\n      sub\n        /* \"#utility.yul\":10339:10340   */\n      0x00\n        /* \"#utility.yul\":10328:10337   */\n      dup4\n        /* \"#utility.yul\":10324:10341   */\n      add\n        /* \"#utility.yul\":10317:10364   */\n      mstore\n        /* \"#utility.yul\":10381:10512   */\n      tag_310\n        /* \"#utility.yul\":10507:10511   */\n      dup2\n        /* \"#utility.yul\":10381:10512   */\n      tag_201\n      jump\t// in\n    tag_310:\n        /* \"#utility.yul\":10373:10512   */\n      swap1\n      pop\n        /* \"#utility.yul\":10100:10519   */\n      swap2\n      swap1\n      pop\n      jump\t// out\n        /* \"#utility.yul\":10525:10699   */\n    tag_202:\n        /* \"#utility.yul\":10665:10691   */\n      0x506c6179657232202063616e7420626520706c61796572310000000000000000\n        /* \"#utility.yul\":10661:10662   */\n      0x00\n        /* \"#utility.yul\":10653:10659   */\n      dup3\n        /* \"#utility.yul\":10649:10663   */\n      add\n        /* \"#utility.yul\":10642:10692   */\n      mstore\n        /* \"#utility.yul\":10525:10699   */\n      pop\n      jump\t// out\n        /* \"#utility.yul\":10705:11071   */\n    tag_203:\n        /* \"#utility.yul\":10847:10850   */\n      0x00\n        /* \"#utility.yul\":10868:10935   */\n      tag_313\n        /* \"#utility.yul\":10932:10934   */\n      0x18\n        /* \"#utility.yul\":10927:10930   */\n      dup4\n        /* \"#utility.yul\":10868:10935   */\n      tag_191\n      jump\t// in\n    tag_313:\n        /* \"#utility.yul\":10861:10935   */\n      swap2\n      pop\n        /* \"#utility.yul\":10944:11037   */\n      tag_314\n        /* \"#utility.yul\":11033:11036   */\n      dup3\n        /* \"#utility.yul\":10944:11037   */\n      tag_202\n      jump\t// in\n    tag_314:\n        /* \"#utility.yul\":11062:11064   */\n      0x20\n        /* \"#utility.yul\":11057:11060   */\n      dup3\n        /* \"#utility.yul\":11053:11065   */\n      add\n        /* \"#utility.yul\":11046:11065   */\n      swap1\n      pop\n        /* \"#utility.yul\":10705:11071   */\n      swap2\n      swap1\n      pop\n      jump\t// out\n        /* \"#utility.yul\":11077:11496   */\n    tag_117:\n        /* \"#utility.yul\":11243:11247   */\n      0x00\n        /* \"#utility.yul\":11281:11283   */\n      0x20\n        /* \"#utility.yul\":11270:11279   */\n      dup3\n        /* \"#utility.yul\":11266:11284   */\n      add\n        /* \"#utility.yul\":11258:11284   */\n      swap1\n      pop\n        /* \"#utility.yul\":11330:11339   */\n      dup2\n        /* \"#utility.yul\":11324:11328   */\n      dup2\n        /* \"#utility.yul\":11320:11340   */\n      sub\n        /* \"#utility.yul\":11316:11317   */\n      0x00\n        /* \"#utility.yul\":11305:11314   */\n      dup4\n        /* \"#utility.yul\":11301:11318   */\n      add\n        /* \"#utility.yul\":11294:11341   */\n      mstore\n        /* \"#utility.yul\":11358:11489   */\n      tag_316\n        /* \"#utility.yul\":11484:11488   */\n      dup2\n        /* \"#utility.yul\":11358:11489   */\n      tag_203\n      jump\t// in\n    tag_316:\n        /* \"#utility.yul\":11350:11489   */\n      swap1\n      pop\n        /* \"#utility.yul\":11077:11496   */\n      swap2\n      swap1\n      pop\n      jump\t// out\n        /* \"#utility.yul\":11502:11672   */\n    tag_204:\n        /* \"#utility.yul\":11642:11664   */\n      0x62657420616d6f756e742063616e742062652030000000000000000000000000\n        /* \"#utility.yul\":11638:11639   */\n      0x00\n        /* \"#utility.yul\":11630:11636   */\n      dup3\n        /* \"#utility.yul\":11626:11640   */\n      add\n        /* \"#utility.yul\":11619:11665   */\n      mstore\n        /* \"#utility.yul\":11502:11672   */\n      pop\n      jump\t// out\n        /* \"#utility.yul\":11678:12044   */\n    tag_205:\n        /* \"#utility.yul\":11820:11823   */\n      0x00\n        /* \"#utility.yul\":11841:11908   */\n      tag_319\n        /* \"#utility.yul\":11905:11907   */\n      0x14\n        /* \"#utility.yul\":11900:11903   */\n      dup4\n        /* \"#utility.yul\":11841:11908   */\n      tag_191\n      jump\t// in\n    tag_319:\n        /* \"#utility.yul\":11834:11908   */\n      swap2\n      pop\n        /* \"#utility.yul\":11917:12010   */\n      tag_320\n        /* \"#utility.yul\":12006:12009   */\n      dup3\n        /* \"#utility.yul\":11917:12010   */\n      tag_204\n      jump\t// in\n    tag_320:\n        /* \"#utility.yul\":12035:12037   */\n      0x20\n        /* \"#utility.yul\":12030:12033   */\n      dup3\n        /* \"#utility.yul\":12026:12038   */\n      add\n        /* \"#utility.yul\":12019:12038   */\n      swap1\n      pop\n        /* \"#utility.yul\":11678:12044   */\n      swap2\n      swap1\n      pop\n      jump\t// out\n        /* \"#utility.yul\":12050:12469   */\n    tag_120:\n        /* \"#utility.yul\":12216:12220   */\n      0x00\n        /* \"#utility.yul\":12254:12256   */\n      0x20\n        /* \"#utility.yul\":12243:12252   */\n      dup3\n        /* \"#utility.yul\":12239:12257   */\n      add\n        /* \"#utility.yul\":12231:12257   */\n      swap1\n      pop\n        /* \"#utility.yul\":12303:12312   */\n      dup2\n        /* \"#utility.yul\":12297:12301   */\n      dup2\n        /* \"#utility.yul\":12293:12313   */\n      sub\n        /* \"#utility.yul\":12289:12290   */\n      0x00\n        /* \"#utility.yul\":12278:12287   */\n      dup4\n        /* \"#utility.yul\":12274:12291   */\n      add\n        /* \"#utility.yul\":12267:12314   */\n      mstore\n        /* \"#utility.yul\":12331:12462   */\n      tag_322\n        /* \"#utility.yul\":12457:12461   */\n      dup2\n        /* \"#utility.yul\":12331:12462   */\n      tag_205\n      jump\t// in\n    tag_322:\n        /* \"#utility.yul\":12323:12462   */\n      swap1\n      pop\n        /* \"#utility.yul\":12050:12469   */\n      swap2\n      swap1\n      pop\n      jump\t// out\n        /* \"#utility.yul\":12475:12655   */\n    tag_206:\n        /* \"#utility.yul\":12615:12647   */\n      0x42657420416d6f756e742068617320746f6f206265207468652073616d650000\n        /* \"#utility.yul\":12611:12612   */\n      0x00\n        /* \"#utility.yul\":12603:12609   */\n      dup3\n        /* \"#utility.yul\":12599:12613   */\n      add\n        /* \"#utility.yul\":12592:12648   */\n      mstore\n        /* \"#utility.yul\":12475:12655   */\n      pop\n      jump\t// out\n        /* \"#utility.yul\":12661:13027   */\n    tag_207:\n        /* \"#utility.yul\":12803:12806   */\n      0x00\n        /* \"#utility.yul\":12824:12891   */\n      tag_325\n        /* \"#utility.yul\":12888:12890   */\n      0x1e\n        /* \"#utility.yul\":12883:12886   */\n      dup4\n        /* \"#utility.yul\":12824:12891   */\n      tag_191\n      jump\t// in\n    tag_325:\n        /* \"#utility.yul\":12817:12891   */\n      swap2\n      pop\n        /* \"#utility.yul\":12900:12993   */\n      tag_326\n        /* \"#utility.yul\":12989:12992   */\n      dup3\n        /* \"#utility.yul\":12900:12993   */\n      tag_206\n      jump\t// in\n    tag_326:\n        /* \"#utility.yul\":13018:13020   */\n      0x20\n        /* \"#utility.yul\":13013:13016   */\n      dup3\n        /* \"#utility.yul\":13009:13021   */\n      add\n        /* \"#utility.yul\":13002:13021   */\n      swap1\n      pop\n        /* \"#utility.yul\":12661:13027   */\n      swap2\n      swap1\n      pop\n      jump\t// out\n        /* \"#utility.yul\":13033:13452   */\n    tag_123:\n        /* \"#utility.yul\":13199:13203   */\n      0x00\n        /* \"#utility.yul\":13237:13239   */\n      0x20\n        /* \"#utility.yul\":13226:13235   */\n      dup3\n        /* \"#utility.yul\":13222:13240   */\n      add\n        /* \"#utility.yul\":13214:13240   */\n      swap1\n      pop\n        /* \"#utility.yul\":13286:13295   */\n      dup2\n        /* \"#utility.yul\":13280:13284   */\n      dup2\n        /* \"#utility.yul\":13276:13296   */\n      sub\n        /* \"#utility.yul\":13272:13273   */\n      0x00\n        /* \"#utility.yul\":13261:13270   */\n      dup4\n        /* \"#utility.yul\":13257:13274   */\n      add\n        /* \"#utility.yul\":13250:13297   */\n      mstore\n        /* \"#utility.yul\":13314:13445   */\n      tag_328\n        /* \"#utility.yul\":13440:13444   */\n      dup2\n        /* \"#utility.yul\":13314:13445   */\n      tag_207\n      jump\t// in\n    tag_328:\n        /* \"#utility.yul\":13306:13445   */\n      swap1\n      pop\n        /* \"#utility.yul\":13033:13452   */\n      swap2\n      swap1\n      pop\n      jump\t// out\n        /* \"#utility.yul\":13458:13629   */\n    tag_208:\n        /* \"#utility.yul\":13598:13621   */\n      0x506c6179657220312068617320636f6d6d697465640000000000000000000000\n        /* \"#utility.yul\":13594:13595   */\n      0x00\n        /* \"#utility.yul\":13586:13592   */\n      dup3\n        /* \"#utility.yul\":13582:13596   */\n      add\n        /* \"#utility.yul\":13575:13622   */\n      mstore\n        /* \"#utility.yul\":13458:13629   */\n      pop\n      jump\t// out\n        /* \"#utility.yul\":13635:14001   */\n    tag_209:\n        /* \"#utility.yul\":13777:13780   */\n      0x00\n        /* \"#utility.yul\":13798:13865   */\n      tag_331\n        /* \"#utility.yul\":13862:13864   */\n      0x15\n        /* \"#utility.yul\":13857:13860   */\n      dup4\n        /* \"#utility.yul\":13798:13865   */\n      tag_191\n      jump\t// in\n    tag_331:\n        /* \"#utility.yul\":13791:13865   */\n      swap2\n      pop\n        /* \"#utility.yul\":13874:13967   */\n      tag_332\n        /* \"#utility.yul\":13963:13966   */\n      dup3\n        /* \"#utility.yul\":13874:13967   */\n      tag_208\n      jump\t// in\n    tag_332:\n        /* \"#utility.yul\":13992:13994   */\n      0x20\n        /* \"#utility.yul\":13987:13990   */\n      dup3\n        /* \"#utility.yul\":13983:13995   */\n      add\n        /* \"#utility.yul\":13976:13995   */\n      swap1\n      pop\n        /* \"#utility.yul\":13635:14001   */\n      swap2\n      swap1\n      pop\n      jump\t// out\n        /* \"#utility.yul\":14007:14426   */\n    tag_128:\n        /* \"#utility.yul\":14173:14177   */\n      0x00\n        /* \"#utility.yul\":14211:14213   */\n      0x20\n        /* \"#utility.yul\":14200:14209   */\n      dup3\n        /* \"#utility.yul\":14196:14214   */\n      add\n        /* \"#utility.yul\":14188:14214   */\n      swap1\n      pop\n        /* \"#utility.yul\":14260:14269   */\n      dup2\n        /* \"#utility.yul\":14254:14258   */\n      dup2\n        /* \"#utility.yul\":14250:14270   */\n      sub\n        /* \"#utility.yul\":14246:14247   */\n      0x00\n        /* \"#utility.yul\":14235:14244   */\n      dup4\n        /* \"#utility.yul\":14231:14248   */\n      add\n        /* \"#utility.yul\":14224:14271   */\n      mstore\n        /* \"#utility.yul\":14288:14419   */\n      tag_334\n        /* \"#utility.yul\":14414:14418   */\n      dup2\n        /* \"#utility.yul\":14288:14419   */\n      tag_209\n      jump\t// in\n    tag_334:\n        /* \"#utility.yul\":14280:14419   */\n      swap1\n      pop\n        /* \"#utility.yul\":14007:14426   */\n      swap2\n      swap1\n      pop\n      jump\t// out\n        /* \"#utility.yul\":14432:14602   */\n    tag_210:\n        /* \"#utility.yul\":14572:14594   */\n      0x506c6179657220322068617320636f6d69746564000000000000000000000000\n        /* \"#utility.yul\":14568:14569   */\n      0x00\n        /* \"#utility.yul\":14560:14566   */\n      dup3\n        /* \"#utility.yul\":14556:14570   */\n      add\n        /* \"#utility.yul\":14549:14595   */\n      mstore\n        /* \"#utility.yul\":14432:14602   */\n      pop\n      jump\t// out\n        /* \"#utility.yul\":14608:14974   */\n    tag_211:\n        /* \"#utility.yul\":14750:14753   */\n      0x00\n        /* \"#utility.yul\":14771:14838   */\n      tag_337\n        /* \"#utility.yul\":14835:14837   */\n      0x14\n        /* \"#utility.yul\":14830:14833   */\n      dup4\n        /* \"#utility.yul\":14771:14838   */\n      tag_191\n      jump\t// in\n    tag_337:\n        /* \"#utility.yul\":14764:14838   */\n      swap2\n      pop\n        /* \"#utility.yul\":14847:14940   */\n      tag_338\n        /* \"#utility.yul\":14936:14939   */\n      dup3\n        /* \"#utility.yul\":14847:14940   */\n      tag_210\n      jump\t// in\n    tag_338:\n        /* \"#utility.yul\":14965:14967   */\n      0x20\n        /* \"#utility.yul\":14960:14963   */\n      dup3\n        /* \"#utility.yul\":14956:14968   */\n      add\n        /* \"#utility.yul\":14949:14968   */\n      swap1\n      pop\n        /* \"#utility.yul\":14608:14974   */\n      swap2\n      swap1\n      pop\n      jump\t// out\n        /* \"#utility.yul\":14980:15399   */\n    tag_132:\n        /* \"#utility.yul\":15146:15150   */\n      0x00\n        /* \"#utility.yul\":15184:15186   */\n      0x20\n        /* \"#utility.yul\":15173:15182   */\n      dup3\n        /* \"#utility.yul\":15169:15187   */\n      add\n        /* \"#utility.yul\":15161:15187   */\n      swap1\n      pop\n        /* \"#utility.yul\":15233:15242   */\n      dup2\n        /* \"#utility.yul\":15227:15231   */\n      dup2\n        /* \"#utility.yul\":15223:15243   */\n      sub\n        /* \"#utility.yul\":15219:15220   */\n      0x00\n        /* \"#utility.yul\":15208:15217   */\n      dup4\n        /* \"#utility.yul\":15204:15221   */\n      add\n        /* \"#utility.yul\":15197:15244   */\n      mstore\n        /* \"#utility.yul\":15261:15392   */\n      tag_340\n        /* \"#utility.yul\":15387:15391   */\n      dup2\n        /* \"#utility.yul\":15261:15392   */\n      tag_211\n      jump\t// in\n    tag_340:\n        /* \"#utility.yul\":15253:15392   */\n      swap1\n      pop\n        /* \"#utility.yul\":14980:15399   */\n      swap2\n      swap1\n      pop\n      jump\t// out\n\n    auxdata: 0xa2646970667358221220f8ee2ed0c62a1ee2b1ced8b10543b945e1ddf146ded618ee38b5b13da4bc601264736f6c634300081a0033\n}\n",
				"bytecode": {
					"linkReferences": {},
					"object": "6080604052348015600e575f80fd5b50335f806101000a81548173ffffffffffffffffffffffffffffffffffffffff021916908373ffffffffffffffffffffffffffffffffffffffff160217905550600360045f6101000a81548160ff02191690836003811115607057606f60a1565b5b02179055506003600460016101000a81548160ff02191690836003811115609857609760a1565b5b021790555060ce565b7f4e487b71000000000000000000000000000000000000000000000000000000005f52602160045260245ffd5b61128c806100db5f395ff3fe6080604052600436106100a6575f3560e01c8063a9ea37b611610063578063a9ea37b6146101a8578063b14b28a3146101d0578063ce6b2225146101fa578063d24257c014610224578063d30895e41461024e578063f191776614610278576100a6565b806312190ae0146100aa5780635280fba0146100e657806359a5f12d1461010e57806373da64a0146101385780637685ef8e146101545780638690fd711461017e575b5f80fd5b3480156100b5575f80fd5b506100d060048036038101906100cb9190610bc6565b6102a2565b6040516100dd9190610c1c565b60405180910390f35b3480156100f1575f80fd5b5061010c60048036038101906101079190610bc6565b6102d4565b005b348015610119575f80fd5b506101226105e9565b60405161012f9190610c74565b60405180910390f35b610152600480360381019061014d9190610cb7565b61060e565b005b34801561015f575f80fd5b506101686107fa565b6040516101759190610d55565b60405180910390f35b348015610189575f80fd5b5061019261080d565b60405161019f9190610d55565b60405180910390f35b3480156101b3575f80fd5b506101ce60048036038101906101c99190610d98565b61081f565b005b3480156101db575f80fd5b506101e4610914565b6040516101f19190610dd2565b60405180910390f35b348015610205575f80fd5b5061020e61091a565b60405161021b9190610c1c565b60405180910390f35b34801561022f575f80fd5b50610238610920565b6040516102459190610dd2565b60405180910390f35b348015610259575f80fd5b50610262610926565b60405161026f9190610c74565b60405180910390f35b348015610283575f80fd5b5061028c610949565b6040516102999190610c1c565b60405180910390f35b5f82826040516020016102b6929190610e0b565b60405160208183030381529060405280519060200120905092915050565b600654421115610319576040517f08c379a000000000000000000000000000000000000000000000000000000000815260040161031090610e90565b60405180910390fd5b5f8054906101000a900473ffffffffffffffffffffffffffffffffffffffff1673ffffffffffffffffffffffffffffffffffffffff163373ffffffffffffffffffffffffffffffffffffffff1614806103be575060015f9054906101000a900473ffffffffffffffffffffffffffffffffffffffff1673ffffffffffffffffffffffffffffffffffffffff163373ffffffffffffffffffffffffffffffffffffffff16145b6103fd576040517f08c379a00000000000000000000000000000000000000000000000000000000081526004016103f490610ef8565b60405180910390fd5b5f61040883836102a2565b90505f8054906101000a900473ffffffffffffffffffffffffffffffffffffffff1673ffffffffffffffffffffffffffffffffffffffff163373ffffffffffffffffffffffffffffffffffffffff16036104e05760025481146104a0576040517f08c379a000000000000000000000000000000000000000000000000000000000815260040161049790610f60565b60405180910390fd5b8260038111156104b3576104b2610ce2565b5b60045f6101000a81548160ff021916908360038111156104d6576104d5610ce2565b5b0217905550610561565b6003548114610524576040517f08c379a000000000000000000000000000000000000000000000000000000000815260040161051b90610fc8565b60405180910390fd5b82600381111561053757610536610ce2565b5b600460016101000a81548160ff0219169083600381111561055b5761055a610ce2565b5b02179055505b60038081111561057457610573610ce2565b5b60045f9054906101000a900460ff16600381111561059557610594610ce2565b5b141580156105d657506003808111156105b1576105b0610ce2565b5b600460019054906101000a900460ff1660038111156105d3576105d2610ce2565b5b14155b156105e4576105e361094f565b5b505050565b60015f9054906101000a900473ffffffffffffffffffffffffffffffffffffffff1681565b5f73ffffffffffffffffffffffffffffffffffffffff1660015f9054906101000a900473ffffffffffffffffffffffffffffffffffffffff1673ffffffffffffffffffffffffffffffffffffffff161461069d576040517f08c379a000000000000000000000000000000000000000000000000000000000815260040161069490611030565b60405180910390fd5b5f8054906101000a900473ffffffffffffffffffffffffffffffffffffffff1673ffffffffffffffffffffffffffffffffffffffff163373ffffffffffffffffffffffffffffffffffffffff160361072a576040517f08c379a000000000000000000000000000000000000000000000000000000000815260040161072190611098565b60405180910390fd5b5f341161076c576040517f08c379a000000000000000000000000000000000000000000000000000000000815260040161076390611100565b60405180910390fd5b8060015f6101000a81548173ffffffffffffffffffffffffffffffffffffffff021916908373ffffffffffffffffffffffffffffffffffffffff1602179055503460058190555060055434146107f7576040517f08c379a00000000000000000000000000000000000000000000000000000000081526004016107ee90611168565b60405180910390fd5b50565b600460019054906101000a900460ff1681565b60045f9054906101000a900460ff1681565b5f8054906101000a900473ffffffffffffffffffffffffffffffffffffffff1673ffffffffffffffffffffffffffffffffffffffff163373ffffffffffffffffffffffffffffffffffffffff16036108c3575f801b600254146108b7576040517f08c379a00000000000000000000000000000000000000000000000000000000081526004016108ae906111d0565b60405180910390fd5b80600281905550610911565b5f801b60035414610909576040517f08c379a000000000000000000000000000000000000000000000000000000000815260040161090090611238565b60405180910390fd5b806003819055505b50565b60065481565b60025481565b60055481565b5f8054906101000a900473ffffffffffffffffffffffffffffffffffffffff1681565b60035481565b5f600381111561096257610961610ce2565b5b60045f9054906101000a900460ff16600381111561098357610982610ce2565b5b1480156109c357506002600381111561099f5761099e610ce2565b5b600460019054906101000a900460ff1660038111156109c1576109c0610ce2565b5b145b80610a3f5750600260038111156109dd576109dc610ce2565b5b60045f9054906101000a900460ff1660038111156109fe576109fd610ce2565b5b148015610a3e575060016003811115610a1a57610a19610ce2565b5b600460019054906101000a900460ff166003811115610a3c57610a3b610ce2565b5b145b5b80610aba575060016003811115610a5957610a58610ce2565b5b60045f9054906101000a900460ff166003811115610a7a57610a79610ce2565b5b148015610ab957505f6003811115610a9557610a94610ce2565b5b600460019054906101000a900460ff166003811115610ab757610ab6610ce2565b5b145b5b15610b27575f8054906101000a900473ffffffffffffffffffffffffffffffffffffffff1673ffffffffffffffffffffffffffffffffffffffff166108fc4790811502906040515f60405180830381858888f19350505050158015610b21573d5f803e3d5ffd5b50610b8d565b60015f9054906101000a900473ffffffffffffffffffffffffffffffffffffffff1673ffffffffffffffffffffffffffffffffffffffff166108fc4790811502906040515f60405180830381858888f19350505050158015610b8b573d5f803e3d5ffd5b505b565b5f80fd5b5f819050919050565b610ba581610b93565b8114610baf575f80fd5b50565b5f81359050610bc081610b9c565b92915050565b5f8060408385031215610bdc57610bdb610b8f565b5b5f610be985828601610bb2565b9250506020610bfa85828601610bb2565b9150509250929050565b5f819050919050565b610c1681610c04565b82525050565b5f602082019050610c2f5f830184610c0d565b92915050565b5f73ffffffffffffffffffffffffffffffffffffffff82169050919050565b5f610c5e82610c35565b9050919050565b610c6e81610c54565b82525050565b5f602082019050610c875f830184610c65565b92915050565b610c9681610c54565b8114610ca0575f80fd5b50565b5f81359050610cb181610c8d565b92915050565b5f60208284031215610ccc57610ccb610b8f565b5b5f610cd984828501610ca3565b91505092915050565b7f4e487b71000000000000000000000000000000000000000000000000000000005f52602160045260245ffd5b60048110610d2057610d1f610ce2565b5b50565b5f819050610d3082610d0f565b919050565b5f610d3f82610d23565b9050919050565b610d4f81610d35565b82525050565b5f602082019050610d685f830184610d46565b92915050565b610d7781610c04565b8114610d81575f80fd5b50565b5f81359050610d9281610d6e565b92915050565b5f60208284031215610dad57610dac610b8f565b5b5f610dba84828501610d84565b91505092915050565b610dcc81610b93565b82525050565b5f602082019050610de55f830184610dc3565b92915050565b5f819050919050565b610e05610e0082610b93565b610deb565b82525050565b5f610e168285610df4565b602082019150610e268284610df4565b6020820191508190509392505050565b5f82825260208201905092915050565b7f52657665616c2074696d65206861732062656e206f76657273746570706564005f82015250565b5f610e7a601f83610e36565b9150610e8582610e46565b602082019050919050565b5f6020820190508181035f830152610ea781610e6e565b9050919050565b7f6e6f74206120706c6179657200000000000000000000000000000000000000005f82015250565b5f610ee2600c83610e36565b9150610eed82610eae565b602082019050919050565b5f6020820190508181035f830152610f0f81610ed6565b9050919050565b7f496e76616c696420636f6d6d697420666f7220706c61796572310000000000005f82015250565b5f610f4a601a83610e36565b9150610f5582610f16565b602082019050919050565b5f6020820190508181035f830152610f7781610f3e565b9050919050565b7f496e76616c696420636f6d6d697420666f7220706c61796572320000000000005f82015250565b5f610fb2601a83610e36565b9150610fbd82610f7e565b602082019050919050565b5f6020820190508181035f830152610fdf81610fa6565b9050919050565b7f506c61796572203220697320616c72656164792063686f73656e0000000000005f82015250565b5f61101a601a83610e36565b915061102582610fe6565b602082019050919050565b5f6020820190508181035f8301526110478161100e565b9050919050565b7f506c6179657232202063616e7420626520706c617965723100000000000000005f82015250565b5f611082601883610e36565b915061108d8261104e565b602082019050919050565b5f6020820190508181035f8301526110af81611076565b9050919050565b7f62657420616d6f756e742063616e7420626520300000000000000000000000005f82015250565b5f6110ea601483610e36565b91506110f5826110b6565b602082019050919050565b5f6020820190508181035f830152611117816110de565b9050919050565b7f42657420416d6f756e742068617320746f6f206265207468652073616d6500005f82015250565b5f611152601e83610e36565b915061115d8261111e565b602082019050919050565b5f6020820190508181035f83015261117f81611146565b9050919050565b7f506c6179657220312068617320636f6d6d6974656400000000000000000000005f82015250565b5f6111ba601583610e36565b91506111c582611186565b602082019050919050565b5f6020820190508181035f8301526111e7816111ae565b9050919050565b7f506c6179657220322068617320636f6d697465640000000000000000000000005f82015250565b5f611222601483610e36565b915061122d826111ee565b602082019050919050565b5f6020820190508181035f83015261124f81611216565b905091905056fea2646970667358221220f8ee2ed0c62a1ee2b1ced8b10543b945e1ddf146ded618ee38b5b13da4bc601264736f6c634300081a0033",
					"opcodes": "PUSH1 0x80 PUSH1 0x40 MSTORE CALLVALUE DUP1 ISZERO PUSH1 0xE JUMPI PUSH0 DUP1 REVERT JUMPDEST POP CALLER PUSH0 DUP1 PUSH2 0x100 EXP DUP2 SLOAD DUP2 PUSH20 0xFFFFFFFFFFFFFFFFFFFFFFFFFFFFFFFFFFFFFFFF MUL NOT AND SWAP1 DUP4 PUSH20 0xFFFFFFFFFFFFFFFFFFFFFFFFFFFFFFFFFFFFFFFF AND MUL OR SWAP1 SSTORE POP PUSH1 0x3 PUSH1 0x4 PUSH0 PUSH2 0x100 EXP DUP2 SLOAD DUP2 PUSH1 0xFF MUL NOT AND SWAP1 DUP4 PUSH1 0x3 DUP2 GT ISZERO PUSH1 0x70 JUMPI PUSH1 0x6F PUSH1 0xA1 JUMP JUMPDEST JUMPDEST MUL OR SWAP1 SSTORE POP PUSH1 0x3 PUSH1 0x4 PUSH1 0x1 PUSH2 0x100 EXP DUP2 SLOAD DUP2 PUSH1 0xFF MUL NOT AND SWAP1 DUP4 PUSH1 0x3 DUP2 GT ISZERO PUSH1 0x98 JUMPI PUSH1 0x97 PUSH1 0xA1 JUMP JUMPDEST JUMPDEST MUL OR SWAP1 SSTORE POP PUSH1 0xCE JUMP JUMPDEST PUSH32 0x4E487B7100000000000000000000000000000000000000000000000000000000 PUSH0 MSTORE PUSH1 0x21 PUSH1 0x4 MSTORE PUSH1 0x24 PUSH0 REVERT JUMPDEST PUSH2 0x128C DUP1 PUSH2 0xDB PUSH0 CODECOPY PUSH0 RETURN INVALID PUSH1 0x80 PUSH1 0x40 MSTORE PUSH1 0x4 CALLDATASIZE LT PUSH2 0xA6 JUMPI PUSH0 CALLDATALOAD PUSH1 0xE0 SHR DUP1 PUSH4 0xA9EA37B6 GT PUSH2 0x63 JUMPI DUP1 PUSH4 0xA9EA37B6 EQ PUSH2 0x1A8 JUMPI DUP1 PUSH4 0xB14B28A3 EQ PUSH2 0x1D0 JUMPI DUP1 PUSH4 0xCE6B2225 EQ PUSH2 0x1FA JUMPI DUP1 PUSH4 0xD24257C0 EQ PUSH2 0x224 JUMPI DUP1 PUSH4 0xD30895E4 EQ PUSH2 0x24E JUMPI DUP1 PUSH4 0xF1917766 EQ PUSH2 0x278 JUMPI PUSH2 0xA6 JUMP JUMPDEST DUP1 PUSH4 0x12190AE0 EQ PUSH2 0xAA JUMPI DUP1 PUSH4 0x5280FBA0 EQ PUSH2 0xE6 JUMPI DUP1 PUSH4 0x59A5F12D EQ PUSH2 0x10E JUMPI DUP1 PUSH4 0x73DA64A0 EQ PUSH2 0x138 JUMPI DUP1 PUSH4 0x7685EF8E EQ PUSH2 0x154 JUMPI DUP1 PUSH4 0x8690FD71 EQ PUSH2 0x17E JUMPI JUMPDEST PUSH0 DUP1 REVERT JUMPDEST CALLVALUE DUP1 ISZERO PUSH2 0xB5 JUMPI PUSH0 DUP1 REVERT JUMPDEST POP PUSH2 0xD0 PUSH1 0x4 DUP1 CALLDATASIZE SUB DUP2 ADD SWAP1 PUSH2 0xCB SWAP2 SWAP1 PUSH2 0xBC6 JUMP JUMPDEST PUSH2 0x2A2 JUMP JUMPDEST PUSH1 0x40 MLOAD PUSH2 0xDD SWAP2 SWAP1 PUSH2 0xC1C JUMP JUMPDEST PUSH1 0x40 MLOAD DUP1 SWAP2 SUB SWAP1 RETURN JUMPDEST CALLVALUE DUP1 ISZERO PUSH2 0xF1 JUMPI PUSH0 DUP1 REVERT JUMPDEST POP PUSH2 0x10C PUSH1 0x4 DUP1 CALLDATASIZE SUB DUP2 ADD SWAP1 PUSH2 0x107 SWAP2 SWAP1 PUSH2 0xBC6 JUMP JUMPDEST PUSH2 0x2D4 JUMP JUMPDEST STOP JUMPDEST CALLVALUE DUP1 ISZERO PUSH2 0x119 JUMPI PUSH0 DUP1 REVERT JUMPDEST POP PUSH2 0x122 PUSH2 0x5E9 JUMP JUMPDEST PUSH1 0x40 MLOAD PUSH2 0x12F SWAP2 SWAP1 PUSH2 0xC74 JUMP JUMPDEST PUSH1 0x40 MLOAD DUP1 SWAP2 SUB SWAP1 RETURN JUMPDEST PUSH2 0x152 PUSH1 0x4 DUP1 CALLDATASIZE SUB DUP2 ADD SWAP1 PUSH2 0x14D SWAP2 SWAP1 PUSH2 0xCB7 JUMP JUMPDEST PUSH2 0x60E JUMP JUMPDEST STOP JUMPDEST CALLVALUE DUP1 ISZERO PUSH2 0x15F JUMPI PUSH0 DUP1 REVERT JUMPDEST POP PUSH2 0x168 PUSH2 0x7FA JUMP JUMPDEST PUSH1 0x40 MLOAD PUSH2 0x175 SWAP2 SWAP1 PUSH2 0xD55 JUMP JUMPDEST PUSH1 0x40 MLOAD DUP1 SWAP2 SUB SWAP1 RETURN JUMPDEST CALLVALUE DUP1 ISZERO PUSH2 0x189 JUMPI PUSH0 DUP1 REVERT JUMPDEST POP PUSH2 0x192 PUSH2 0x80D JUMP JUMPDEST PUSH1 0x40 MLOAD PUSH2 0x19F SWAP2 SWAP1 PUSH2 0xD55 JUMP JUMPDEST PUSH1 0x40 MLOAD DUP1 SWAP2 SUB SWAP1 RETURN JUMPDEST CALLVALUE DUP1 ISZERO PUSH2 0x1B3 JUMPI PUSH0 DUP1 REVERT JUMPDEST POP PUSH2 0x1CE PUSH1 0x4 DUP1 CALLDATASIZE SUB DUP2 ADD SWAP1 PUSH2 0x1C9 SWAP2 SWAP1 PUSH2 0xD98 JUMP JUMPDEST PUSH2 0x81F JUMP JUMPDEST STOP JUMPDEST CALLVALUE DUP1 ISZERO PUSH2 0x1DB JUMPI PUSH0 DUP1 REVERT JUMPDEST POP PUSH2 0x1E4 PUSH2 0x914 JUMP JUMPDEST PUSH1 0x40 MLOAD PUSH2 0x1F1 SWAP2 SWAP1 PUSH2 0xDD2 JUMP JUMPDEST PUSH1 0x40 MLOAD DUP1 SWAP2 SUB SWAP1 RETURN JUMPDEST CALLVALUE DUP1 ISZERO PUSH2 0x205 JUMPI PUSH0 DUP1 REVERT JUMPDEST POP PUSH2 0x20E PUSH2 0x91A JUMP JUMPDEST PUSH1 0x40 MLOAD PUSH2 0x21B SWAP2 SWAP1 PUSH2 0xC1C JUMP JUMPDEST PUSH1 0x40 MLOAD DUP1 SWAP2 SUB SWAP1 RETURN JUMPDEST CALLVALUE DUP1 ISZERO PUSH2 0x22F JUMPI PUSH0 DUP1 REVERT JUMPDEST POP PUSH2 0x238 PUSH2 0x920 JUMP JUMPDEST PUSH1 0x40 MLOAD PUSH2 0x245 SWAP2 SWAP1 PUSH2 0xDD2 JUMP JUMPDEST PUSH1 0x40 MLOAD DUP1 SWAP2 SUB SWAP1 RETURN JUMPDEST CALLVALUE DUP1 ISZERO PUSH2 0x259 JUMPI PUSH0 DUP1 REVERT JUMPDEST POP PUSH2 0x262 PUSH2 0x926 JUMP JUMPDEST PUSH1 0x40 MLOAD PUSH2 0x26F SWAP2 SWAP1 PUSH2 0xC74 JUMP JUMPDEST PUSH1 0x40 MLOAD DUP1 SWAP2 SUB SWAP1 RETURN JUMPDEST CALLVALUE DUP1 ISZERO PUSH2 0x283 JUMPI PUSH0 DUP1 REVERT JUMPDEST POP PUSH2 0x28C PUSH2 0x949 JUMP JUMPDEST PUSH1 0x40 MLOAD PUSH2 0x299 SWAP2 SWAP1 PUSH2 0xC1C JUMP JUMPDEST PUSH1 0x40 MLOAD DUP1 SWAP2 SUB SWAP1 RETURN JUMPDEST PUSH0 DUP3 DUP3 PUSH1 0x40 MLOAD PUSH1 0x20 ADD PUSH2 0x2B6 SWAP3 SWAP2 SWAP1 PUSH2 0xE0B JUMP JUMPDEST PUSH1 0x40 MLOAD PUSH1 0x20 DUP2 DUP4 SUB SUB DUP2 MSTORE SWAP1 PUSH1 0x40 MSTORE DUP1 MLOAD SWAP1 PUSH1 0x20 ADD KECCAK256 SWAP1 POP SWAP3 SWAP2 POP POP JUMP JUMPDEST PUSH1 0x6 SLOAD TIMESTAMP GT ISZERO PUSH2 0x319 JUMPI PUSH1 0x40 MLOAD PUSH32 0x8C379A000000000000000000000000000000000000000000000000000000000 DUP2 MSTORE PUSH1 0x4 ADD PUSH2 0x310 SWAP1 PUSH2 0xE90 JUMP JUMPDEST PUSH1 0x40 MLOAD DUP1 SWAP2 SUB SWAP1 REVERT JUMPDEST PUSH0 DUP1 SLOAD SWAP1 PUSH2 0x100 EXP SWAP1 DIV PUSH20 0xFFFFFFFFFFFFFFFFFFFFFFFFFFFFFFFFFFFFFFFF AND PUSH20 0xFFFFFFFFFFFFFFFFFFFFFFFFFFFFFFFFFFFFFFFF AND CALLER PUSH20 0xFFFFFFFFFFFFFFFFFFFFFFFFFFFFFFFFFFFFFFFF AND EQ DUP1 PUSH2 0x3BE JUMPI POP PUSH1 0x1 PUSH0 SWAP1 SLOAD SWAP1 PUSH2 0x100 EXP SWAP1 DIV PUSH20 0xFFFFFFFFFFFFFFFFFFFFFFFFFFFFFFFFFFFFFFFF AND PUSH20 0xFFFFFFFFFFFFFFFFFFFFFFFFFFFFFFFFFFFFFFFF AND CALLER PUSH20 0xFFFFFFFFFFFFFFFFFFFFFFFFFFFFFFFFFFFFFFFF AND EQ JUMPDEST PUSH2 0x3FD JUMPI PUSH1 0x40 MLOAD PUSH32 0x8C379A000000000000000000000000000000000000000000000000000000000 DUP2 MSTORE PUSH1 0x4 ADD PUSH2 0x3F4 SWAP1 PUSH2 0xEF8 JUMP JUMPDEST PUSH1 0x40 MLOAD DUP1 SWAP2 SUB SWAP1 REVERT JUMPDEST PUSH0 PUSH2 0x408 DUP4 DUP4 PUSH2 0x2A2 JUMP JUMPDEST SWAP1 POP PUSH0 DUP1 SLOAD SWAP1 PUSH2 0x100 EXP SWAP1 DIV PUSH20 0xFFFFFFFFFFFFFFFFFFFFFFFFFFFFFFFFFFFFFFFF AND PUSH20 0xFFFFFFFFFFFFFFFFFFFFFFFFFFFFFFFFFFFFFFFF AND CALLER PUSH20 0xFFFFFFFFFFFFFFFFFFFFFFFFFFFFFFFFFFFFFFFF AND SUB PUSH2 0x4E0 JUMPI PUSH1 0x2 SLOAD DUP2 EQ PUSH2 0x4A0 JUMPI PUSH1 0x40 MLOAD PUSH32 0x8C379A000000000000000000000000000000000000000000000000000000000 DUP2 MSTORE PUSH1 0x4 ADD PUSH2 0x497 SWAP1 PUSH2 0xF60 JUMP JUMPDEST PUSH1 0x40 MLOAD DUP1 SWAP2 SUB SWAP1 REVERT JUMPDEST DUP3 PUSH1 0x3 DUP2 GT ISZERO PUSH2 0x4B3 JUMPI PUSH2 0x4B2 PUSH2 0xCE2 JUMP JUMPDEST JUMPDEST PUSH1 0x4 PUSH0 PUSH2 0x100 EXP DUP2 SLOAD DUP2 PUSH1 0xFF MUL NOT AND SWAP1 DUP4 PUSH1 0x3 DUP2 GT ISZERO PUSH2 0x4D6 JUMPI PUSH2 0x4D5 PUSH2 0xCE2 JUMP JUMPDEST JUMPDEST MUL OR SWAP1 SSTORE POP PUSH2 0x561 JUMP JUMPDEST PUSH1 0x3 SLOAD DUP2 EQ PUSH2 0x524 JUMPI PUSH1 0x40 MLOAD PUSH32 0x8C379A000000000000000000000000000000000000000000000000000000000 DUP2 MSTORE PUSH1 0x4 ADD PUSH2 0x51B SWAP1 PUSH2 0xFC8 JUMP JUMPDEST PUSH1 0x40 MLOAD DUP1 SWAP2 SUB SWAP1 REVERT JUMPDEST DUP3 PUSH1 0x3 DUP2 GT ISZERO PUSH2 0x537 JUMPI PUSH2 0x536 PUSH2 0xCE2 JUMP JUMPDEST JUMPDEST PUSH1 0x4 PUSH1 0x1 PUSH2 0x100 EXP DUP2 SLOAD DUP2 PUSH1 0xFF MUL NOT AND SWAP1 DUP4 PUSH1 0x3 DUP2 GT ISZERO PUSH2 0x55B JUMPI PUSH2 0x55A PUSH2 0xCE2 JUMP JUMPDEST JUMPDEST MUL OR SWAP1 SSTORE POP JUMPDEST PUSH1 0x3 DUP1 DUP2 GT ISZERO PUSH2 0x574 JUMPI PUSH2 0x573 PUSH2 0xCE2 JUMP JUMPDEST JUMPDEST PUSH1 0x4 PUSH0 SWAP1 SLOAD SWAP1 PUSH2 0x100 EXP SWAP1 DIV PUSH1 0xFF AND PUSH1 0x3 DUP2 GT ISZERO PUSH2 0x595 JUMPI PUSH2 0x594 PUSH2 0xCE2 JUMP JUMPDEST JUMPDEST EQ ISZERO DUP1 ISZERO PUSH2 0x5D6 JUMPI POP PUSH1 0x3 DUP1 DUP2 GT ISZERO PUSH2 0x5B1 JUMPI PUSH2 0x5B0 PUSH2 0xCE2 JUMP JUMPDEST JUMPDEST PUSH1 0x4 PUSH1 0x1 SWAP1 SLOAD SWAP1 PUSH2 0x100 EXP SWAP1 DIV PUSH1 0xFF AND PUSH1 0x3 DUP2 GT ISZERO PUSH2 0x5D3 JUMPI PUSH2 0x5D2 PUSH2 0xCE2 JUMP JUMPDEST JUMPDEST EQ ISZERO JUMPDEST ISZERO PUSH2 0x5E4 JUMPI PUSH2 0x5E3 PUSH2 0x94F JUMP JUMPDEST JUMPDEST POP POP POP JUMP JUMPDEST PUSH1 0x1 PUSH0 SWAP1 SLOAD SWAP1 PUSH2 0x100 EXP SWAP1 DIV PUSH20 0xFFFFFFFFFFFFFFFFFFFFFFFFFFFFFFFFFFFFFFFF AND DUP2 JUMP JUMPDEST PUSH0 PUSH20 0xFFFFFFFFFFFFFFFFFFFFFFFFFFFFFFFFFFFFFFFF AND PUSH1 0x1 PUSH0 SWAP1 SLOAD SWAP1 PUSH2 0x100 EXP SWAP1 DIV PUSH20 0xFFFFFFFFFFFFFFFFFFFFFFFFFFFFFFFFFFFFFFFF AND PUSH20 0xFFFFFFFFFFFFFFFFFFFFFFFFFFFFFFFFFFFFFFFF AND EQ PUSH2 0x69D JUMPI PUSH1 0x40 MLOAD PUSH32 0x8C379A000000000000000000000000000000000000000000000000000000000 DUP2 MSTORE PUSH1 0x4 ADD PUSH2 0x694 SWAP1 PUSH2 0x1030 JUMP JUMPDEST PUSH1 0x40 MLOAD DUP1 SWAP2 SUB SWAP1 REVERT JUMPDEST PUSH0 DUP1 SLOAD SWAP1 PUSH2 0x100 EXP SWAP1 DIV PUSH20 0xFFFFFFFFFFFFFFFFFFFFFFFFFFFFFFFFFFFFFFFF AND PUSH20 0xFFFFFFFFFFFFFFFFFFFFFFFFFFFFFFFFFFFFFFFF AND CALLER PUSH20 0xFFFFFFFFFFFFFFFFFFFFFFFFFFFFFFFFFFFFFFFF AND SUB PUSH2 0x72A JUMPI PUSH1 0x40 MLOAD PUSH32 0x8C379A000000000000000000000000000000000000000000000000000000000 DUP2 MSTORE PUSH1 0x4 ADD PUSH2 0x721 SWAP1 PUSH2 0x1098 JUMP JUMPDEST PUSH1 0x40 MLOAD DUP1 SWAP2 SUB SWAP1 REVERT JUMPDEST PUSH0 CALLVALUE GT PUSH2 0x76C JUMPI PUSH1 0x40 MLOAD PUSH32 0x8C379A000000000000000000000000000000000000000000000000000000000 DUP2 MSTORE PUSH1 0x4 ADD PUSH2 0x763 SWAP1 PUSH2 0x1100 JUMP JUMPDEST PUSH1 0x40 MLOAD DUP1 SWAP2 SUB SWAP1 REVERT JUMPDEST DUP1 PUSH1 0x1 PUSH0 PUSH2 0x100 EXP DUP2 SLOAD DUP2 PUSH20 0xFFFFFFFFFFFFFFFFFFFFFFFFFFFFFFFFFFFFFFFF MUL NOT AND SWAP1 DUP4 PUSH20 0xFFFFFFFFFFFFFFFFFFFFFFFFFFFFFFFFFFFFFFFF AND MUL OR SWAP1 SSTORE POP CALLVALUE PUSH1 0x5 DUP2 SWAP1 SSTORE POP PUSH1 0x5 SLOAD CALLVALUE EQ PUSH2 0x7F7 JUMPI PUSH1 0x40 MLOAD PUSH32 0x8C379A000000000000000000000000000000000000000000000000000000000 DUP2 MSTORE PUSH1 0x4 ADD PUSH2 0x7EE SWAP1 PUSH2 0x1168 JUMP JUMPDEST PUSH1 0x40 MLOAD DUP1 SWAP2 SUB SWAP1 REVERT JUMPDEST POP JUMP JUMPDEST PUSH1 0x4 PUSH1 0x1 SWAP1 SLOAD SWAP1 PUSH2 0x100 EXP SWAP1 DIV PUSH1 0xFF AND DUP2 JUMP JUMPDEST PUSH1 0x4 PUSH0 SWAP1 SLOAD SWAP1 PUSH2 0x100 EXP SWAP1 DIV PUSH1 0xFF AND DUP2 JUMP JUMPDEST PUSH0 DUP1 SLOAD SWAP1 PUSH2 0x100 EXP SWAP1 DIV PUSH20 0xFFFFFFFFFFFFFFFFFFFFFFFFFFFFFFFFFFFFFFFF AND PUSH20 0xFFFFFFFFFFFFFFFFFFFFFFFFFFFFFFFFFFFFFFFF AND CALLER PUSH20 0xFFFFFFFFFFFFFFFFFFFFFFFFFFFFFFFFFFFFFFFF AND SUB PUSH2 0x8C3 JUMPI PUSH0 DUP1 SHL PUSH1 0x2 SLOAD EQ PUSH2 0x8B7 JUMPI PUSH1 0x40 MLOAD PUSH32 0x8C379A000000000000000000000000000000000000000000000000000000000 DUP2 MSTORE PUSH1 0x4 ADD PUSH2 0x8AE SWAP1 PUSH2 0x11D0 JUMP JUMPDEST PUSH1 0x40 MLOAD DUP1 SWAP2 SUB SWAP1 REVERT JUMPDEST DUP1 PUSH1 0x2 DUP2 SWAP1 SSTORE POP PUSH2 0x911 JUMP JUMPDEST PUSH0 DUP1 SHL PUSH1 0x3 SLOAD EQ PUSH2 0x909 JUMPI PUSH1 0x40 MLOAD PUSH32 0x8C379A000000000000000000000000000000000000000000000000000000000 DUP2 MSTORE PUSH1 0x4 ADD PUSH2 0x900 SWAP1 PUSH2 0x1238 JUMP JUMPDEST PUSH1 0x40 MLOAD DUP1 SWAP2 SUB SWAP1 REVERT JUMPDEST DUP1 PUSH1 0x3 DUP2 SWAP1 SSTORE POP JUMPDEST POP JUMP JUMPDEST PUSH1 0x6 SLOAD DUP2 JUMP JUMPDEST PUSH1 0x2 SLOAD DUP2 JUMP JUMPDEST PUSH1 0x5 SLOAD DUP2 JUMP JUMPDEST PUSH0 DUP1 SLOAD SWAP1 PUSH2 0x100 EXP SWAP1 DIV PUSH20 0xFFFFFFFFFFFFFFFFFFFFFFFFFFFFFFFFFFFFFFFF AND DUP2 JUMP JUMPDEST PUSH1 0x3 SLOAD DUP2 JUMP JUMPDEST PUSH0 PUSH1 0x3 DUP2 GT ISZERO PUSH2 0x962 JUMPI PUSH2 0x961 PUSH2 0xCE2 JUMP JUMPDEST JUMPDEST PUSH1 0x4 PUSH0 SWAP1 SLOAD SWAP1 PUSH2 0x100 EXP SWAP1 DIV PUSH1 0xFF AND PUSH1 0x3 DUP2 GT ISZERO PUSH2 0x983 JUMPI PUSH2 0x982 PUSH2 0xCE2 JUMP JUMPDEST JUMPDEST EQ DUP1 ISZERO PUSH2 0x9C3 JUMPI POP PUSH1 0x2 PUSH1 0x3 DUP2 GT ISZERO PUSH2 0x99F JUMPI PUSH2 0x99E PUSH2 0xCE2 JUMP JUMPDEST JUMPDEST PUSH1 0x4 PUSH1 0x1 SWAP1 SLOAD SWAP1 PUSH2 0x100 EXP SWAP1 DIV PUSH1 0xFF AND PUSH1 0x3 DUP2 GT ISZERO PUSH2 0x9C1 JUMPI PUSH2 0x9C0 PUSH2 0xCE2 JUMP JUMPDEST JUMPDEST EQ JUMPDEST DUP1 PUSH2 0xA3F JUMPI POP PUSH1 0x2 PUSH1 0x3 DUP2 GT ISZERO PUSH2 0x9DD JUMPI PUSH2 0x9DC PUSH2 0xCE2 JUMP JUMPDEST JUMPDEST PUSH1 0x4 PUSH0 SWAP1 SLOAD SWAP1 PUSH2 0x100 EXP SWAP1 DIV PUSH1 0xFF AND PUSH1 0x3 DUP2 GT ISZERO PUSH2 0x9FE JUMPI PUSH2 0x9FD PUSH2 0xCE2 JUMP JUMPDEST JUMPDEST EQ DUP1 ISZERO PUSH2 0xA3E JUMPI POP PUSH1 0x1 PUSH1 0x3 DUP2 GT ISZERO PUSH2 0xA1A JUMPI PUSH2 0xA19 PUSH2 0xCE2 JUMP JUMPDEST JUMPDEST PUSH1 0x4 PUSH1 0x1 SWAP1 SLOAD SWAP1 PUSH2 0x100 EXP SWAP1 DIV PUSH1 0xFF AND PUSH1 0x3 DUP2 GT ISZERO PUSH2 0xA3C JUMPI PUSH2 0xA3B PUSH2 0xCE2 JUMP JUMPDEST JUMPDEST EQ JUMPDEST JUMPDEST DUP1 PUSH2 0xABA JUMPI POP PUSH1 0x1 PUSH1 0x3 DUP2 GT ISZERO PUSH2 0xA59 JUMPI PUSH2 0xA58 PUSH2 0xCE2 JUMP JUMPDEST JUMPDEST PUSH1 0x4 PUSH0 SWAP1 SLOAD SWAP1 PUSH2 0x100 EXP SWAP1 DIV PUSH1 0xFF AND PUSH1 0x3 DUP2 GT ISZERO PUSH2 0xA7A JUMPI PUSH2 0xA79 PUSH2 0xCE2 JUMP JUMPDEST JUMPDEST EQ DUP1 ISZERO PUSH2 0xAB9 JUMPI POP PUSH0 PUSH1 0x3 DUP2 GT ISZERO PUSH2 0xA95 JUMPI PUSH2 0xA94 PUSH2 0xCE2 JUMP JUMPDEST JUMPDEST PUSH1 0x4 PUSH1 0x1 SWAP1 SLOAD SWAP1 PUSH2 0x100 EXP SWAP1 DIV PUSH1 0xFF AND PUSH1 0x3 DUP2 GT ISZERO PUSH2 0xAB7 JUMPI PUSH2 0xAB6 PUSH2 0xCE2 JUMP JUMPDEST JUMPDEST EQ JUMPDEST JUMPDEST ISZERO PUSH2 0xB27 JUMPI PUSH0 DUP1 SLOAD SWAP1 PUSH2 0x100 EXP SWAP1 DIV PUSH20 0xFFFFFFFFFFFFFFFFFFFFFFFFFFFFFFFFFFFFFFFF AND PUSH20 0xFFFFFFFFFFFFFFFFFFFFFFFFFFFFFFFFFFFFFFFF AND PUSH2 0x8FC SELFBALANCE SWAP1 DUP2 ISZERO MUL SWAP1 PUSH1 0x40 MLOAD PUSH0 PUSH1 0x40 MLOAD DUP1 DUP4 SUB DUP2 DUP6 DUP9 DUP9 CALL SWAP4 POP POP POP POP ISZERO DUP1 ISZERO PUSH2 0xB21 JUMPI RETURNDATASIZE PUSH0 DUP1 RETURNDATACOPY RETURNDATASIZE PUSH0 REVERT JUMPDEST POP PUSH2 0xB8D JUMP JUMPDEST PUSH1 0x1 PUSH0 SWAP1 SLOAD SWAP1 PUSH2 0x100 EXP SWAP1 DIV PUSH20 0xFFFFFFFFFFFFFFFFFFFFFFFFFFFFFFFFFFFFFFFF AND PUSH20 0xFFFFFFFFFFFFFFFFFFFFFFFFFFFFFFFFFFFFFFFF AND PUSH2 0x8FC SELFBALANCE SWAP1 DUP2 ISZERO MUL SWAP1 PUSH1 0x40 MLOAD PUSH0 PUSH1 0x40 MLOAD DUP1 DUP4 SUB DUP2 DUP6 DUP9 DUP9 CALL SWAP4 POP POP POP POP ISZERO DUP1 ISZERO PUSH2 0xB8B JUMPI RETURNDATASIZE PUSH0 DUP1 RETURNDATACOPY RETURNDATASIZE PUSH0 REVERT JUMPDEST POP JUMPDEST JUMP JUMPDEST PUSH0 DUP1 REVERT JUMPDEST PUSH0 DUP2 SWAP1 POP SWAP2 SWAP1 POP JUMP JUMPDEST PUSH2 0xBA5 DUP2 PUSH2 0xB93 JUMP JUMPDEST DUP2 EQ PUSH2 0xBAF JUMPI PUSH0 DUP1 REVERT JUMPDEST POP JUMP JUMPDEST PUSH0 DUP2 CALLDATALOAD SWAP1 POP PUSH2 0xBC0 DUP2 PUSH2 0xB9C JUMP JUMPDEST SWAP3 SWAP2 POP POP JUMP JUMPDEST PUSH0 DUP1 PUSH1 0x40 DUP4 DUP6 SUB SLT ISZERO PUSH2 0xBDC JUMPI PUSH2 0xBDB PUSH2 0xB8F JUMP JUMPDEST JUMPDEST PUSH0 PUSH2 0xBE9 DUP6 DUP3 DUP7 ADD PUSH2 0xBB2 JUMP JUMPDEST SWAP3 POP POP PUSH1 0x20 PUSH2 0xBFA DUP6 DUP3 DUP7 ADD PUSH2 0xBB2 JUMP JUMPDEST SWAP2 POP POP SWAP3 POP SWAP3 SWAP1 POP JUMP JUMPDEST PUSH0 DUP2 SWAP1 POP SWAP2 SWAP1 POP JUMP JUMPDEST PUSH2 0xC16 DUP2 PUSH2 0xC04 JUMP JUMPDEST DUP3 MSTORE POP POP JUMP JUMPDEST PUSH0 PUSH1 0x20 DUP3 ADD SWAP1 POP PUSH2 0xC2F PUSH0 DUP4 ADD DUP5 PUSH2 0xC0D JUMP JUMPDEST SWAP3 SWAP2 POP POP JUMP JUMPDEST PUSH0 PUSH20 0xFFFFFFFFFFFFFFFFFFFFFFFFFFFFFFFFFFFFFFFF DUP3 AND SWAP1 POP SWAP2 SWAP1 POP JUMP JUMPDEST PUSH0 PUSH2 0xC5E DUP3 PUSH2 0xC35 JUMP JUMPDEST SWAP1 POP SWAP2 SWAP1 POP JUMP JUMPDEST PUSH2 0xC6E DUP2 PUSH2 0xC54 JUMP JUMPDEST DUP3 MSTORE POP POP JUMP JUMPDEST PUSH0 PUSH1 0x20 DUP3 ADD SWAP1 POP PUSH2 0xC87 PUSH0 DUP4 ADD DUP5 PUSH2 0xC65 JUMP JUMPDEST SWAP3 SWAP2 POP POP JUMP JUMPDEST PUSH2 0xC96 DUP2 PUSH2 0xC54 JUMP JUMPDEST DUP2 EQ PUSH2 0xCA0 JUMPI PUSH0 DUP1 REVERT JUMPDEST POP JUMP JUMPDEST PUSH0 DUP2 CALLDATALOAD SWAP1 POP PUSH2 0xCB1 DUP2 PUSH2 0xC8D JUMP JUMPDEST SWAP3 SWAP2 POP POP JUMP JUMPDEST PUSH0 PUSH1 0x20 DUP3 DUP5 SUB SLT ISZERO PUSH2 0xCCC JUMPI PUSH2 0xCCB PUSH2 0xB8F JUMP JUMPDEST JUMPDEST PUSH0 PUSH2 0xCD9 DUP5 DUP3 DUP6 ADD PUSH2 0xCA3 JUMP JUMPDEST SWAP2 POP POP SWAP3 SWAP2 POP POP JUMP JUMPDEST PUSH32 0x4E487B7100000000000000000000000000000000000000000000000000000000 PUSH0 MSTORE PUSH1 0x21 PUSH1 0x4 MSTORE PUSH1 0x24 PUSH0 REVERT JUMPDEST PUSH1 0x4 DUP2 LT PUSH2 0xD20 JUMPI PUSH2 0xD1F PUSH2 0xCE2 JUMP JUMPDEST JUMPDEST POP JUMP JUMPDEST PUSH0 DUP2 SWAP1 POP PUSH2 0xD30 DUP3 PUSH2 0xD0F JUMP JUMPDEST SWAP2 SWAP1 POP JUMP JUMPDEST PUSH0 PUSH2 0xD3F DUP3 PUSH2 0xD23 JUMP JUMPDEST SWAP1 POP SWAP2 SWAP1 POP JUMP JUMPDEST PUSH2 0xD4F DUP2 PUSH2 0xD35 JUMP JUMPDEST DUP3 MSTORE POP POP JUMP JUMPDEST PUSH0 PUSH1 0x20 DUP3 ADD SWAP1 POP PUSH2 0xD68 PUSH0 DUP4 ADD DUP5 PUSH2 0xD46 JUMP JUMPDEST SWAP3 SWAP2 POP POP JUMP JUMPDEST PUSH2 0xD77 DUP2 PUSH2 0xC04 JUMP JUMPDEST DUP2 EQ PUSH2 0xD81 JUMPI PUSH0 DUP1 REVERT JUMPDEST POP JUMP JUMPDEST PUSH0 DUP2 CALLDATALOAD SWAP1 POP PUSH2 0xD92 DUP2 PUSH2 0xD6E JUMP JUMPDEST SWAP3 SWAP2 POP POP JUMP JUMPDEST PUSH0 PUSH1 0x20 DUP3 DUP5 SUB SLT ISZERO PUSH2 0xDAD JUMPI PUSH2 0xDAC PUSH2 0xB8F JUMP JUMPDEST JUMPDEST PUSH0 PUSH2 0xDBA DUP5 DUP3 DUP6 ADD PUSH2 0xD84 JUMP JUMPDEST SWAP2 POP POP SWAP3 SWAP2 POP POP JUMP JUMPDEST PUSH2 0xDCC DUP2 PUSH2 0xB93 JUMP JUMPDEST DUP3 MSTORE POP POP JUMP JUMPDEST PUSH0 PUSH1 0x20 DUP3 ADD SWAP1 POP PUSH2 0xDE5 PUSH0 DUP4 ADD DUP5 PUSH2 0xDC3 JUMP JUMPDEST SWAP3 SWAP2 POP POP JUMP JUMPDEST PUSH0 DUP2 SWAP1 POP SWAP2 SWAP1 POP JUMP JUMPDEST PUSH2 0xE05 PUSH2 0xE00 DUP3 PUSH2 0xB93 JUMP JUMPDEST PUSH2 0xDEB JUMP JUMPDEST DUP3 MSTORE POP POP JUMP JUMPDEST PUSH0 PUSH2 0xE16 DUP3 DUP6 PUSH2 0xDF4 JUMP JUMPDEST PUSH1 0x20 DUP3 ADD SWAP2 POP PUSH2 0xE26 DUP3 DUP5 PUSH2 0xDF4 JUMP JUMPDEST PUSH1 0x20 DUP3 ADD SWAP2 POP DUP2 SWAP1 POP SWAP4 SWAP3 POP POP POP JUMP JUMPDEST PUSH0 DUP3 DUP3 MSTORE PUSH1 0x20 DUP3 ADD SWAP1 POP SWAP3 SWAP2 POP POP JUMP JUMPDEST PUSH32 0x52657665616C2074696D65206861732062656E206F7665727374657070656400 PUSH0 DUP3 ADD MSTORE POP JUMP JUMPDEST PUSH0 PUSH2 0xE7A PUSH1 0x1F DUP4 PUSH2 0xE36 JUMP JUMPDEST SWAP2 POP PUSH2 0xE85 DUP3 PUSH2 0xE46 JUMP JUMPDEST PUSH1 0x20 DUP3 ADD SWAP1 POP SWAP2 SWAP1 POP JUMP JUMPDEST PUSH0 PUSH1 0x20 DUP3 ADD SWAP1 POP DUP2 DUP2 SUB PUSH0 DUP4 ADD MSTORE PUSH2 0xEA7 DUP2 PUSH2 0xE6E JUMP JUMPDEST SWAP1 POP SWAP2 SWAP1 POP JUMP JUMPDEST PUSH32 0x6E6F74206120706C617965720000000000000000000000000000000000000000 PUSH0 DUP3 ADD MSTORE POP JUMP JUMPDEST PUSH0 PUSH2 0xEE2 PUSH1 0xC DUP4 PUSH2 0xE36 JUMP JUMPDEST SWAP2 POP PUSH2 0xEED DUP3 PUSH2 0xEAE JUMP JUMPDEST PUSH1 0x20 DUP3 ADD SWAP1 POP SWAP2 SWAP1 POP JUMP JUMPDEST PUSH0 PUSH1 0x20 DUP3 ADD SWAP1 POP DUP2 DUP2 SUB PUSH0 DUP4 ADD MSTORE PUSH2 0xF0F DUP2 PUSH2 0xED6 JUMP JUMPDEST SWAP1 POP SWAP2 SWAP1 POP JUMP JUMPDEST PUSH32 0x496E76616C696420636F6D6D697420666F7220706C6179657231000000000000 PUSH0 DUP3 ADD MSTORE POP JUMP JUMPDEST PUSH0 PUSH2 0xF4A PUSH1 0x1A DUP4 PUSH2 0xE36 JUMP JUMPDEST SWAP2 POP PUSH2 0xF55 DUP3 PUSH2 0xF16 JUMP JUMPDEST PUSH1 0x20 DUP3 ADD SWAP1 POP SWAP2 SWAP1 POP JUMP JUMPDEST PUSH0 PUSH1 0x20 DUP3 ADD SWAP1 POP DUP2 DUP2 SUB PUSH0 DUP4 ADD MSTORE PUSH2 0xF77 DUP2 PUSH2 0xF3E JUMP JUMPDEST SWAP1 POP SWAP2 SWAP1 POP JUMP JUMPDEST PUSH32 0x496E76616C696420636F6D6D697420666F7220706C6179657232000000000000 PUSH0 DUP3 ADD MSTORE POP JUMP JUMPDEST PUSH0 PUSH2 0xFB2 PUSH1 0x1A DUP4 PUSH2 0xE36 JUMP JUMPDEST SWAP2 POP PUSH2 0xFBD DUP3 PUSH2 0xF7E JUMP JUMPDEST PUSH1 0x20 DUP3 ADD SWAP1 POP SWAP2 SWAP1 POP JUMP JUMPDEST PUSH0 PUSH1 0x20 DUP3 ADD SWAP1 POP DUP2 DUP2 SUB PUSH0 DUP4 ADD MSTORE PUSH2 0xFDF DUP2 PUSH2 0xFA6 JUMP JUMPDEST SWAP1 POP SWAP2 SWAP1 POP JUMP JUMPDEST PUSH32 0x506C61796572203220697320616C72656164792063686F73656E000000000000 PUSH0 DUP3 ADD MSTORE POP JUMP JUMPDEST PUSH0 PUSH2 0x101A PUSH1 0x1A DUP4 PUSH2 0xE36 JUMP JUMPDEST SWAP2 POP PUSH2 0x1025 DUP3 PUSH2 0xFE6 JUMP JUMPDEST PUSH1 0x20 DUP3 ADD SWAP1 POP SWAP2 SWAP1 POP JUMP JUMPDEST PUSH0 PUSH1 0x20 DUP3 ADD SWAP1 POP DUP2 DUP2 SUB PUSH0 DUP4 ADD MSTORE PUSH2 0x1047 DUP2 PUSH2 0x100E JUMP JUMPDEST SWAP1 POP SWAP2 SWAP1 POP JUMP JUMPDEST PUSH32 0x506C6179657232202063616E7420626520706C61796572310000000000000000 PUSH0 DUP3 ADD MSTORE POP JUMP JUMPDEST PUSH0 PUSH2 0x1082 PUSH1 0x18 DUP4 PUSH2 0xE36 JUMP JUMPDEST SWAP2 POP PUSH2 0x108D DUP3 PUSH2 0x104E JUMP JUMPDEST PUSH1 0x20 DUP3 ADD SWAP1 POP SWAP2 SWAP1 POP JUMP JUMPDEST PUSH0 PUSH1 0x20 DUP3 ADD SWAP1 POP DUP2 DUP2 SUB PUSH0 DUP4 ADD MSTORE PUSH2 0x10AF DUP2 PUSH2 0x1076 JUMP JUMPDEST SWAP1 POP SWAP2 SWAP1 POP JUMP JUMPDEST PUSH32 0x62657420616D6F756E742063616E742062652030000000000000000000000000 PUSH0 DUP3 ADD MSTORE POP JUMP JUMPDEST PUSH0 PUSH2 0x10EA PUSH1 0x14 DUP4 PUSH2 0xE36 JUMP JUMPDEST SWAP2 POP PUSH2 0x10F5 DUP3 PUSH2 0x10B6 JUMP JUMPDEST PUSH1 0x20 DUP3 ADD SWAP1 POP SWAP2 SWAP1 POP JUMP JUMPDEST PUSH0 PUSH1 0x20 DUP3 ADD SWAP1 POP DUP2 DUP2 SUB PUSH0 DUP4 ADD MSTORE PUSH2 0x1117 DUP2 PUSH2 0x10DE JUMP JUMPDEST SWAP1 POP SWAP2 SWAP1 POP JUMP JUMPDEST PUSH32 0x42657420416D6F756E742068617320746F6F206265207468652073616D650000 PUSH0 DUP3 ADD MSTORE POP JUMP JUMPDEST PUSH0 PUSH2 0x1152 PUSH1 0x1E DUP4 PUSH2 0xE36 JUMP JUMPDEST SWAP2 POP PUSH2 0x115D DUP3 PUSH2 0x111E JUMP JUMPDEST PUSH1 0x20 DUP3 ADD SWAP1 POP SWAP2 SWAP1 POP JUMP JUMPDEST PUSH0 PUSH1 0x20 DUP3 ADD SWAP1 POP DUP2 DUP2 SUB PUSH0 DUP4 ADD MSTORE PUSH2 0x117F DUP2 PUSH2 0x1146 JUMP JUMPDEST SWAP1 POP SWAP2 SWAP1 POP JUMP JUMPDEST PUSH32 0x506C6179657220312068617320636F6D6D697465640000000000000000000000 PUSH0 DUP3 ADD MSTORE POP JUMP JUMPDEST PUSH0 PUSH2 0x11BA PUSH1 0x15 DUP4 PUSH2 0xE36 JUMP JUMPDEST SWAP2 POP PUSH2 0x11C5 DUP3 PUSH2 0x1186 JUMP JUMPDEST PUSH1 0x20 DUP3 ADD SWAP1 POP SWAP2 SWAP1 POP JUMP JUMPDEST PUSH0 PUSH1 0x20 DUP3 ADD SWAP1 POP DUP2 DUP2 SUB PUSH0 DUP4 ADD MSTORE PUSH2 0x11E7 DUP2 PUSH2 0x11AE JUMP JUMPDEST SWAP1 POP SWAP2 SWAP1 POP JUMP JUMPDEST PUSH32 0x506C6179657220322068617320636F6D69746564000000000000000000000000 PUSH0 DUP3 ADD MSTORE POP JUMP JUMPDEST PUSH0 PUSH2 0x1222 PUSH1 0x14 DUP4 PUSH2 0xE36 JUMP JUMPDEST SWAP2 POP PUSH2 0x122D DUP3 PUSH2 0x11EE JUMP JUMPDEST PUSH1 0x20 DUP3 ADD SWAP1 POP SWAP2 SWAP1 POP JUMP JUMPDEST PUSH0 PUSH1 0x20 DUP3 ADD SWAP1 POP DUP2 DUP2 SUB PUSH0 DUP4 ADD MSTORE PUSH2 0x124F DUP2 PUSH2 0x1216 JUMP JUMPDEST SWAP1 POP SWAP2 SWAP1 POP JUMP INVALID LOG2 PUSH5 0x6970667358 0x22 SLT KECCAK256 0xF8 0xEE 0x2E 0xD0 0xC6 0x2A 0x1E 0xE2 0xB1 0xCE 0xD8 0xB1 SDIV NUMBER 0xB9 GASLIMIT 0xE1 0xDD CALL CHAINID 0xDE 0xD6 XOR 0xEE CODESIZE 0xB5 0xB1 RETURNDATASIZE LOG4 0xBC PUSH1 0x12 PUSH5 0x736F6C6343 STOP ADDMOD BYTE STOP CALLER "
				},
				"gasEstimates": {
					"creation": {
						"codeDepositCost": "949600",
						"executionCost": "73886",
						"totalCost": "1023486"
					},
					"external": {
						"betAmount()": "2491",
						"commitMove(bytes32)": "26820",
						"generateCommit(uint256,uint256)": "infinite",
						"player1()": "2593",
						"player1Commit()": "2469",
						"player1Move()": "2665",
						"player2()": "2553",
						"player2Commit()": "2535",
						"player2Move()": "2694",
						"revealDeadline()": "2447",
						"revealMove(uint256,uint256)": "infinite",
						"setPlayer2(address)": "53349"
					},
					"internal": {
						"determineWinner()": "infinite"
					}
				},
				"methodIdentifiers": {
					"betAmount()": "d24257c0",
					"commitMove(bytes32)": "a9ea37b6",
					"generateCommit(uint256,uint256)": "12190ae0",
					"player1()": "d30895e4",
					"player1Commit()": "ce6b2225",
					"player1Move()": "8690fd71",
					"player2()": "59a5f12d",
					"player2Commit()": "f1917766",
					"player2Move()": "7685ef8e",
					"revealDeadline()": "b14b28a3",
					"revealMove(uint256,uint256)": "5280fba0",
					"setPlayer2(address)": "73da64a0"
				}
			},
			"storageLayout": {
				"storage": [
					{
						"astId": 8,
						"contract": "RPS_Schett_with_Transaction.sol:RPS",
						"label": "player1",
						"offset": 0,
						"slot": "0",
						"type": "t_address_payable"
					},
					{
						"astId": 10,
						"contract": "RPS_Schett_with_Transaction.sol:RPS",
						"label": "player2",
						"offset": 0,
						"slot": "1",
						"type": "t_address_payable"
					},
					{
						"astId": 12,
						"contract": "RPS_Schett_with_Transaction.sol:RPS",
						"label": "player1Commit",
						"offset": 0,
						"slot": "2",
						"type": "t_bytes32"
					},
					{
						"astId": 14,
						"contract": "RPS_Schett_with_Transaction.sol:RPS",
						"label": "player2Commit",
						"offset": 0,
						"slot": "3",
						"type": "t_bytes32"
					},
					{
						"astId": 17,
						"contract": "RPS_Schett_with_Transaction.sol:RPS",
						"label": "player1Move",
						"offset": 0,
						"slot": "4",
						"type": "t_enum(Move)6"
					},
					{
						"astId": 20,
						"contract": "RPS_Schett_with_Transaction.sol:RPS",
						"label": "player2Move",
						"offset": 1,
						"slot": "4",
						"type": "t_enum(Move)6"
					},
					{
						"astId": 22,
						"contract": "RPS_Schett_with_Transaction.sol:RPS",
						"label": "betAmount",
						"offset": 0,
						"slot": "5",
						"type": "t_uint256"
					},
					{
						"astId": 27,
						"contract": "RPS_Schett_with_Transaction.sol:RPS",
						"label": "revealDeadline",
						"offset": 0,
						"slot": "6",
						"type": "t_uint256"
					}
				],
				"types": {
					"t_address_payable": {
						"encoding": "inplace",
						"label": "address payable",
						"numberOfBytes": "20"
					},
					"t_bytes32": {
						"encoding": "inplace",
						"label": "bytes32",
						"numberOfBytes": "32"
					},
					"t_enum(Move)6": {
						"encoding": "inplace",
						"label": "enum RPS.Move",
						"numberOfBytes": "1"
					},
					"t_uint256": {
						"encoding": "inplace",
						"label": "uint256",
						"numberOfBytes": "32"
					}
				}
			},
			"userdoc": {
				"kind": "user",
				"methods": {},
				"version": 1
			}
		}
	}
}