{
	"RPS_Schett_with_Transaction_and_Draw.sol": {
		"RPS": {
			"abi": [
				{
					"inputs": [
						{
							"internalType": "address",
							"name": "",
							"type": "address"
						}
					],
					"name": "balances",
					"outputs": [
						{
							"internalType": "uint256",
							"name": "",
							"type": "uint256"
						}
					],
					"stateMutability": "view",
					"type": "function"
				},
				{
					"inputs": [],
					"name": "betAmount",
					"outputs": [
						{
							"internalType": "uint256",
							"name": "",
							"type": "uint256"
						}
					],
					"stateMutability": "view",
					"type": "function"
				},
				{
					"inputs": [
						{
							"internalType": "bytes32",
							"name": "commit",
							"type": "bytes32"
						}
					],
					"name": "commitMove",
					"outputs": [],
					"stateMutability": "payable",
					"type": "function"
				},
				{
					"inputs": [],
					"name": "determineWinner",
					"outputs": [],
					"stateMutability": "nonpayable",
					"type": "function"
				},
				{
					"inputs": [
						{
							"internalType": "enum RPS.Move",
							"name": "move",
							"type": "uint8"
						},
						{
							"internalType": "uint256",
							"name": "nonce",
							"type": "uint256"
						}
					],
					"name": "generateCommit",
					"outputs": [
						{
							"internalType": "bytes32",
							"name": "",
							"type": "bytes32"
						}
					],
					"stateMutability": "pure",
					"type": "function"
				},
				{
					"inputs": [],
					"name": "player1",
					"outputs": [
						{
							"internalType": "address",
							"name": "",
							"type": "address"
						}
					],
					"stateMutability": "view",
					"type": "function"
				},
				{
					"inputs": [],
					"name": "player1Commit",
					"outputs": [
						{
							"internalType": "bytes32",
							"name": "",
							"type": "bytes32"
						}
					],
					"stateMutability": "view",
					"type": "function"
				},
				{
					"inputs": [],
					"name": "player1Move",
					"outputs": [
						{
							"internalType": "enum RPS.Move",
							"name": "",
							"type": "uint8"
						}
					],
					"stateMutability": "view",
					"type": "function"
				},
				{
					"inputs": [],
					"name": "player2",
					"outputs": [
						{
							"internalType": "address",
							"name": "",
							"type": "address"
						}
					],
					"stateMutability": "view",
					"type": "function"
				},
				{
					"inputs": [],
					"name": "player2Commit",
					"outputs": [
						{
							"internalType": "bytes32",
							"name": "",
							"type": "bytes32"
						}
					],
					"stateMutability": "view",
					"type": "function"
				},
				{
					"inputs": [],
					"name": "player2Move",
					"outputs": [
						{
							"internalType": "enum RPS.Move",
							"name": "",
							"type": "uint8"
						}
					],
					"stateMutability": "view",
					"type": "function"
				},
				{
					"inputs": [],
					"name": "revealDeadline",
					"outputs": [
						{
							"internalType": "uint256",
							"name": "",
							"type": "uint256"
						}
					],
					"stateMutability": "view",
					"type": "function"
				},
				{
					"inputs": [
						{
							"internalType": "enum RPS.Move",
							"name": "move",
							"type": "uint8"
						},
						{
							"internalType": "uint256",
							"name": "nonce",
							"type": "uint256"
						}
					],
					"name": "revealMove",
					"outputs": [],
					"stateMutability": "nonpayable",
					"type": "function"
				},
				{
					"inputs": [],
					"name": "withdraw",
					"outputs": [],
					"stateMutability": "nonpayable",
					"type": "function"
				}
			],
			"devdoc": {
				"kind": "dev",
				"methods": {},
				"version": 1
			},
			"evm": {
				"assembly": "    /* \"RPS_Schett_with_Transaction_and_Draw.sol\":263:4199  contract RPS{... */\n  mstore(0x40, 0x80)\n    /* \"RPS_Schett_with_Transaction_and_Draw.sol\":690:699  Move.None */\n  0x03\n    /* \"RPS_Schett_with_Transaction_and_Draw.sol\":664:699  Move public player1Move = Move.None */\n  0x02\n  exp(0x0100, 0x00)\n  dup2\n  sload\n  dup2\n  0xff\n  mul\n  not\n  and\n  swap1\n  dup4\n  0x03\n  dup2\n  gt\n  iszero\n  tag_1\n  jumpi\n  tag_2\n  tag_3\n  jump\t// in\ntag_2:\ntag_1:\n  mul\n  or\n  swap1\n  sstore\n  pop\n    /* \"RPS_Schett_with_Transaction_and_Draw.sol\":764:773  Move.None */\n  0x03\n    /* \"RPS_Schett_with_Transaction_and_Draw.sol\":738:773  Move public player2Move = Move.None */\n  0x02\n  exp(0x0100, 0x01)\n  dup2\n  sload\n  dup2\n  0xff\n  mul\n  not\n  and\n  swap1\n  dup4\n  0x03\n  dup2\n  gt\n  iszero\n  tag_4\n  jumpi\n  tag_5\n  tag_3\n  jump\t// in\ntag_5:\ntag_4:\n  mul\n  or\n  swap1\n  sstore\n  pop\n    /* \"RPS_Schett_with_Transaction_and_Draw.sol\":263:4199  contract RPS{... */\n  callvalue\n  dup1\n  iszero\n  tag_6\n  jumpi\n  0x00\n  dup1\n  revert\ntag_6:\n  pop\n  jump(tag_7)\n    /* \"#utility.yul\":7:187   */\ntag_3:\n    /* \"#utility.yul\":55:132   */\n  0x4e487b7100000000000000000000000000000000000000000000000000000000\n    /* \"#utility.yul\":52:53   */\n  0x00\n    /* \"#utility.yul\":45:133   */\n  mstore\n    /* \"#utility.yul\":152:156   */\n  0x21\n    /* \"#utility.yul\":149:150   */\n  0x04\n    /* \"#utility.yul\":142:157   */\n  mstore\n    /* \"#utility.yul\":176:180   */\n  0x24\n    /* \"#utility.yul\":173:174   */\n  0x00\n    /* \"#utility.yul\":166:181   */\n  revert\n    /* \"RPS_Schett_with_Transaction_and_Draw.sol\":263:4199  contract RPS{... */\ntag_7:\n  dataSize(sub_0)\n  dup1\n  dataOffset(sub_0)\n  0x00\n  codecopy\n  0x00\n  return\nstop\n\nsub_0: assembly {\n        /* \"RPS_Schett_with_Transaction_and_Draw.sol\":263:4199  contract RPS{... */\n      mstore(0x40, 0x80)\n      jumpi(tag_1, lt(calldatasize, 0x04))\n      shr(0xe0, calldataload(0x00))\n      dup1\n      0x8690fd71\n      gt\n      tag_16\n      jumpi\n      dup1\n      0xce6b2225\n      gt\n      tag_17\n      jumpi\n      dup1\n      0xce6b2225\n      eq\n      tag_12\n      jumpi\n      dup1\n      0xd24257c0\n      eq\n      tag_13\n      jumpi\n      dup1\n      0xd30895e4\n      eq\n      tag_14\n      jumpi\n      dup1\n      0xf1917766\n      eq\n      tag_15\n      jumpi\n      jump(tag_1)\n    tag_17:\n      dup1\n      0x8690fd71\n      eq\n      tag_9\n      jumpi\n      dup1\n      0xa9ea37b6\n      eq\n      tag_10\n      jumpi\n      dup1\n      0xb14b28a3\n      eq\n      tag_11\n      jumpi\n      jump(tag_1)\n    tag_16:\n      dup1\n      0x3ccfd60b\n      gt\n      tag_18\n      jumpi\n      dup1\n      0x3ccfd60b\n      eq\n      tag_5\n      jumpi\n      dup1\n      0x562a5b74\n      eq\n      tag_6\n      jumpi\n      dup1\n      0x59a5f12d\n      eq\n      tag_7\n      jumpi\n      dup1\n      0x7685ef8e\n      eq\n      tag_8\n      jumpi\n      jump(tag_1)\n    tag_18:\n      dup1\n      0x1f683f24\n      eq\n      tag_2\n      jumpi\n      dup1\n      0x27e235e3\n      eq\n      tag_3\n      jumpi\n      dup1\n      0x33b16d93\n      eq\n      tag_4\n      jumpi\n    tag_1:\n      0x00\n      dup1\n      revert\n        /* \"RPS_Schett_with_Transaction_and_Draw.sol\":1966:2928  function revealMove(Move move, uint nonce) public {... */\n    tag_2:\n      callvalue\n      dup1\n      iszero\n      tag_19\n      jumpi\n      0x00\n      dup1\n      revert\n    tag_19:\n      pop\n      tag_20\n      0x04\n      dup1\n      calldatasize\n      sub\n      dup2\n      add\n      swap1\n      tag_21\n      swap2\n      swap1\n      tag_22\n      jump\t// in\n    tag_21:\n      tag_23\n      jump\t// in\n    tag_20:\n      stop\n        /* \"RPS_Schett_with_Transaction_and_Draw.sol\":1002:1040  mapping(address=>uint) public balances */\n    tag_3:\n      callvalue\n      dup1\n      iszero\n      tag_24\n      jumpi\n      0x00\n      dup1\n      revert\n    tag_24:\n      pop\n      tag_25\n      0x04\n      dup1\n      calldatasize\n      sub\n      dup2\n      add\n      swap1\n      tag_26\n      swap2\n      swap1\n      tag_27\n      jump\t// in\n    tag_26:\n      tag_28\n      jump\t// in\n    tag_25:\n      mload(0x40)\n      tag_29\n      swap2\n      swap1\n      tag_30\n      jump\t// in\n    tag_29:\n      mload(0x40)\n      dup1\n      swap2\n      sub\n      swap1\n      return\n        /* \"RPS_Schett_with_Transaction_and_Draw.sol\":2936:3704  function determineWinner() public {... */\n    tag_4:\n      callvalue\n      dup1\n      iszero\n      tag_31\n      jumpi\n      0x00\n      dup1\n      revert\n    tag_31:\n      pop\n      tag_32\n      tag_33\n      jump\t// in\n    tag_32:\n      stop\n        /* \"RPS_Schett_with_Transaction_and_Draw.sol\":3712:3929  function withdraw() public{... */\n    tag_5:\n      callvalue\n      dup1\n      iszero\n      tag_34\n      jumpi\n      0x00\n      dup1\n      revert\n    tag_34:\n      pop\n      tag_35\n      tag_36\n      jump\t// in\n    tag_35:\n      stop\n        /* \"RPS_Schett_with_Transaction_and_Draw.sol\":1146:1287  function generateCommit(Move move, uint nonce) public pure returns(bytes32){... */\n    tag_6:\n      callvalue\n      dup1\n      iszero\n      tag_37\n      jumpi\n      0x00\n      dup1\n      revert\n    tag_37:\n      pop\n      tag_38\n      0x04\n      dup1\n      calldatasize\n      sub\n      dup2\n      add\n      swap1\n      tag_39\n      swap2\n      swap1\n      tag_22\n      jump\t// in\n    tag_39:\n      tag_40\n      jump\t// in\n    tag_38:\n      mload(0x40)\n      tag_41\n      swap2\n      swap1\n      tag_42\n      jump\t// in\n    tag_41:\n      mload(0x40)\n      dup1\n      swap2\n      sub\n      swap1\n      return\n        /* \"RPS_Schett_with_Transaction_and_Draw.sol\":511:587  address constant public player2 = 0xAb8483F64d9C6d1EcF9b849Ae677dD3315835cb2 */\n    tag_7:\n      callvalue\n      dup1\n      iszero\n      tag_43\n      jumpi\n      0x00\n      dup1\n      revert\n    tag_43:\n      pop\n      tag_44\n      tag_45\n      jump\t// in\n    tag_44:\n      mload(0x40)\n      tag_46\n      swap2\n      swap1\n      tag_47\n      jump\t// in\n    tag_46:\n      mload(0x40)\n      dup1\n      swap2\n      sub\n      swap1\n      return\n        /* \"RPS_Schett_with_Transaction_and_Draw.sol\":738:773  Move public player2Move = Move.None */\n    tag_8:\n      callvalue\n      dup1\n      iszero\n      tag_48\n      jumpi\n      0x00\n      dup1\n      revert\n    tag_48:\n      pop\n      tag_49\n      tag_50\n      jump\t// in\n    tag_49:\n      mload(0x40)\n      tag_51\n      swap2\n      swap1\n      tag_52\n      jump\t// in\n    tag_51:\n      mload(0x40)\n      dup1\n      swap2\n      sub\n      swap1\n      return\n        /* \"RPS_Schett_with_Transaction_and_Draw.sol\":664:699  Move public player1Move = Move.None */\n    tag_9:\n      callvalue\n      dup1\n      iszero\n      tag_53\n      jumpi\n      0x00\n      dup1\n      revert\n    tag_53:\n      pop\n      tag_54\n      tag_55\n      jump\t// in\n    tag_54:\n      mload(0x40)\n      tag_56\n      swap2\n      swap1\n      tag_52\n      jump\t// in\n    tag_56:\n      mload(0x40)\n      dup1\n      swap2\n      sub\n      swap1\n      return\n        /* \"RPS_Schett_with_Transaction_and_Draw.sol\":1297:1958  function commitMove(bytes32 commit) public payable {... */\n    tag_10:\n      tag_57\n      0x04\n      dup1\n      calldatasize\n      sub\n      dup2\n      add\n      swap1\n      tag_58\n      swap2\n      swap1\n      tag_59\n      jump\t// in\n    tag_58:\n      tag_60\n      jump\t// in\n    tag_57:\n      stop\n        /* \"RPS_Schett_with_Transaction_and_Draw.sol\":913:939  uint public revealDeadline */\n    tag_11:\n      callvalue\n      dup1\n      iszero\n      tag_61\n      jumpi\n      0x00\n      dup1\n      revert\n    tag_61:\n      pop\n      tag_62\n      tag_63\n      jump\t// in\n    tag_62:\n      mload(0x40)\n      tag_64\n      swap2\n      swap1\n      tag_30\n      jump\t// in\n    tag_64:\n      mload(0x40)\n      dup1\n      swap2\n      sub\n      swap1\n      return\n        /* \"RPS_Schett_with_Transaction_and_Draw.sol\":594:622  bytes32 public player1Commit */\n    tag_12:\n      callvalue\n      dup1\n      iszero\n      tag_65\n      jumpi\n      0x00\n      dup1\n      revert\n    tag_65:\n      pop\n      tag_66\n      tag_67\n      jump\t// in\n    tag_66:\n      mload(0x40)\n      tag_68\n      swap2\n      swap1\n      tag_42\n      jump\t// in\n    tag_68:\n      mload(0x40)\n      dup1\n      swap2\n      sub\n      swap1\n      return\n        /* \"RPS_Schett_with_Transaction_and_Draw.sol\":780:801  uint public betAmount */\n    tag_13:\n      callvalue\n      dup1\n      iszero\n      tag_69\n      jumpi\n      0x00\n      dup1\n      revert\n    tag_69:\n      pop\n      tag_70\n      tag_71\n      jump\t// in\n    tag_70:\n      mload(0x40)\n      tag_72\n      swap2\n      swap1\n      tag_30\n      jump\t// in\n    tag_72:\n      mload(0x40)\n      dup1\n      swap2\n      sub\n      swap1\n      return\n        /* \"RPS_Schett_with_Transaction_and_Draw.sol\":428:504  address constant public player1 = 0x5B38Da6a701c568545dCfcB03FcB875f56beddC4 */\n    tag_14:\n      callvalue\n      dup1\n      iszero\n      tag_73\n      jumpi\n      0x00\n      dup1\n      revert\n    tag_73:\n      pop\n      tag_74\n      tag_75\n      jump\t// in\n    tag_74:\n      mload(0x40)\n      tag_76\n      swap2\n      swap1\n      tag_47\n      jump\t// in\n    tag_76:\n      mload(0x40)\n      dup1\n      swap2\n      sub\n      swap1\n      return\n        /* \"RPS_Schett_with_Transaction_and_Draw.sol\":629:657  bytes32 public player2Commit */\n    tag_15:\n      callvalue\n      dup1\n      iszero\n      tag_77\n      jumpi\n      0x00\n      dup1\n      revert\n    tag_77:\n      pop\n      tag_78\n      tag_79\n      jump\t// in\n    tag_78:\n      mload(0x40)\n      tag_80\n      swap2\n      swap1\n      tag_42\n      jump\t// in\n    tag_80:\n      mload(0x40)\n      dup1\n      swap2\n      sub\n      swap1\n      return\n        /* \"RPS_Schett_with_Transaction_and_Draw.sol\":1966:2928  function revealMove(Move move, uint nonce) public {... */\n    tag_23:\n        /* \"RPS_Schett_with_Transaction_and_Draw.sol\":2054:2068  revealDeadline */\n      sload(0x04)\n        /* \"RPS_Schett_with_Transaction_and_Draw.sol\":2035:2050  block.timestamp */\n      timestamp\n        /* \"RPS_Schett_with_Transaction_and_Draw.sol\":2035:2068  block.timestamp <= revealDeadline */\n      gt\n      iszero\n        /* \"RPS_Schett_with_Transaction_and_Draw.sol\":2027:2104  require(block.timestamp <= revealDeadline, \"Reveal time has ben overstepped\") */\n      tag_82\n      jumpi\n      mload(0x40)\n      0x08c379a000000000000000000000000000000000000000000000000000000000\n      dup2\n      mstore\n      0x04\n      add\n      tag_83\n      swap1\n      tag_84\n      jump\t// in\n    tag_83:\n      mload(0x40)\n      dup1\n      swap2\n      sub\n      swap1\n      revert\n    tag_82:\n        /* \"RPS_Schett_with_Transaction_and_Draw.sol\":462:504  0x5B38Da6a701c568545dCfcB03FcB875f56beddC4 */\n      0x5b38da6a701c568545dcfcb03fcb875f56beddc4\n        /* \"RPS_Schett_with_Transaction_and_Draw.sol\":2123:2144  msg.sender == player1 */\n      0xffffffffffffffffffffffffffffffffffffffff\n      and\n        /* \"RPS_Schett_with_Transaction_and_Draw.sol\":2123:2133  msg.sender */\n      caller\n        /* \"RPS_Schett_with_Transaction_and_Draw.sol\":2123:2144  msg.sender == player1 */\n      0xffffffffffffffffffffffffffffffffffffffff\n      and\n      eq\n        /* \"RPS_Schett_with_Transaction_and_Draw.sol\":2123:2169  msg.sender == player1 || msg.sender == player2 */\n      dup1\n      tag_85\n      jumpi\n      pop\n        /* \"RPS_Schett_with_Transaction_and_Draw.sol\":545:587  0xAb8483F64d9C6d1EcF9b849Ae677dD3315835cb2 */\n      0xab8483f64d9c6d1ecf9b849ae677dd3315835cb2\n        /* \"RPS_Schett_with_Transaction_and_Draw.sol\":2148:2169  msg.sender == player2 */\n      0xffffffffffffffffffffffffffffffffffffffff\n      and\n        /* \"RPS_Schett_with_Transaction_and_Draw.sol\":2148:2158  msg.sender */\n      caller\n        /* \"RPS_Schett_with_Transaction_and_Draw.sol\":2148:2169  msg.sender == player2 */\n      0xffffffffffffffffffffffffffffffffffffffff\n      and\n      eq\n        /* \"RPS_Schett_with_Transaction_and_Draw.sol\":2123:2169  msg.sender == player1 || msg.sender == player2 */\n    tag_85:\n        /* \"RPS_Schett_with_Transaction_and_Draw.sol\":2115:2186  require(msg.sender == player1 || msg.sender == player2, \"not a player\") */\n      tag_86\n      jumpi\n      mload(0x40)\n      0x08c379a000000000000000000000000000000000000000000000000000000000\n      dup2\n      mstore\n      0x04\n      add\n      tag_87\n      swap1\n      tag_88\n      jump\t// in\n    tag_87:\n      mload(0x40)\n      dup1\n      swap2\n      sub\n      swap1\n      revert\n    tag_86:\n        /* \"RPS_Schett_with_Transaction_and_Draw.sol\":2222:2223  0 */\n      0x00\n        /* \"RPS_Schett_with_Transaction_and_Draw.sol\":2205:2223  player2Commit != 0 */\n      dup1\n      shl\n        /* \"RPS_Schett_with_Transaction_and_Draw.sol\":2205:2218  player2Commit */\n      sload(0x01)\n        /* \"RPS_Schett_with_Transaction_and_Draw.sol\":2205:2223  player2Commit != 0 */\n      eq\n      iszero\n        /* \"RPS_Schett_with_Transaction_and_Draw.sol\":2205:2245  player2Commit != 0 && player1Commit != 0 */\n      dup1\n      iszero\n      tag_89\n      jumpi\n      pop\n        /* \"RPS_Schett_with_Transaction_and_Draw.sol\":2244:2245  0 */\n      0x00\n        /* \"RPS_Schett_with_Transaction_and_Draw.sol\":2227:2245  player1Commit != 0 */\n      dup1\n      shl\n        /* \"RPS_Schett_with_Transaction_and_Draw.sol\":2227:2240  player1Commit */\n      sload(0x00)\n        /* \"RPS_Schett_with_Transaction_and_Draw.sol\":2227:2245  player1Commit != 0 */\n      eq\n      iszero\n        /* \"RPS_Schett_with_Transaction_and_Draw.sol\":2205:2245  player2Commit != 0 && player1Commit != 0 */\n    tag_89:\n        /* \"RPS_Schett_with_Transaction_and_Draw.sol\":2197:2277  require(player2Commit != 0 && player1Commit != 0, \"someone didnt commit a hash\") */\n      tag_90\n      jumpi\n      mload(0x40)\n      0x08c379a000000000000000000000000000000000000000000000000000000000\n      dup2\n      mstore\n      0x04\n      add\n      tag_91\n      swap1\n      tag_92\n      jump\t// in\n    tag_91:\n      mload(0x40)\n      dup1\n      swap2\n      sub\n      swap1\n      revert\n    tag_90:\n        /* \"RPS_Schett_with_Transaction_and_Draw.sol\":2304:2313  Move.None */\n      0x03\n        /* \"RPS_Schett_with_Transaction_and_Draw.sol\":2296:2313  move != Move.None */\n      dup1\n      dup2\n      gt\n      iszero\n      tag_93\n      jumpi\n      tag_94\n      tag_95\n      jump\t// in\n    tag_94:\n    tag_93:\n        /* \"RPS_Schett_with_Transaction_and_Draw.sol\":2296:2300  move */\n      dup3\n        /* \"RPS_Schett_with_Transaction_and_Draw.sol\":2296:2313  move != Move.None */\n      0x03\n      dup2\n      gt\n      iszero\n      tag_96\n      jumpi\n      tag_97\n      tag_95\n      jump\t// in\n    tag_97:\n    tag_96:\n      sub\n        /* \"RPS_Schett_with_Transaction_and_Draw.sol\":2288:2364  require(move != Move.None, \"have to choose between Rock, Paper and Scissor\") */\n      tag_98\n      jumpi\n      mload(0x40)\n      0x08c379a000000000000000000000000000000000000000000000000000000000\n      dup2\n      mstore\n      0x04\n      add\n      tag_99\n      swap1\n      tag_100\n      jump\t// in\n    tag_99:\n      mload(0x40)\n      dup1\n      swap2\n      sub\n      swap1\n      revert\n    tag_98:\n        /* \"RPS_Schett_with_Transaction_and_Draw.sol\":462:504  0x5B38Da6a701c568545dCfcB03FcB875f56beddC4 */\n      0x5b38da6a701c568545dcfcb03fcb875f56beddc4\n        /* \"RPS_Schett_with_Transaction_and_Draw.sol\":2381:2402  msg.sender == player1 */\n      0xffffffffffffffffffffffffffffffffffffffff\n      and\n        /* \"RPS_Schett_with_Transaction_and_Draw.sol\":2381:2391  msg.sender */\n      caller\n        /* \"RPS_Schett_with_Transaction_and_Draw.sol\":2381:2402  msg.sender == player1 */\n      0xffffffffffffffffffffffffffffffffffffffff\n      and\n      sub\n        /* \"RPS_Schett_with_Transaction_and_Draw.sol\":2377:2721  if (msg.sender == player1){... */\n      tag_101\n      jumpi\n        /* \"RPS_Schett_with_Transaction_and_Draw.sol\":2470:2474  move */\n      dup2\n        /* \"RPS_Schett_with_Transaction_and_Draw.sol\":2476:2481  nonce */\n      dup2\n        /* \"RPS_Schett_with_Transaction_and_Draw.sol\":2453:2482  abi.encodePacked(move, nonce) */\n      add(0x20, mload(0x40))\n      tag_102\n      swap3\n      swap2\n      swap1\n      tag_103\n      jump\t// in\n    tag_102:\n      mload(0x40)\n      0x20\n      dup2\n      dup4\n      sub\n      sub\n      dup2\n      mstore\n      swap1\n      0x40\n      mstore\n        /* \"RPS_Schett_with_Transaction_and_Draw.sol\":2443:2483  keccak256(abi.encodePacked(move, nonce)) */\n      dup1\n      mload\n      swap1\n      0x20\n      add\n      keccak256\n        /* \"RPS_Schett_with_Transaction_and_Draw.sol\":2426:2439  player1Commit */\n      sload(0x00)\n        /* \"RPS_Schett_with_Transaction_and_Draw.sol\":2426:2483  player1Commit == keccak256(abi.encodePacked(move, nonce)) */\n      eq\n        /* \"RPS_Schett_with_Transaction_and_Draw.sol\":2418:2514  require(player1Commit == keccak256(abi.encodePacked(move, nonce)), \"Invalid commit for player1\") */\n      tag_104\n      jumpi\n      mload(0x40)\n      0x08c379a000000000000000000000000000000000000000000000000000000000\n      dup2\n      mstore\n      0x04\n      add\n      tag_105\n      swap1\n      tag_106\n      jump\t// in\n    tag_105:\n      mload(0x40)\n      dup1\n      swap2\n      sub\n      swap1\n      revert\n    tag_104:\n        /* \"RPS_Schett_with_Transaction_and_Draw.sol\":2543:2547  move */\n      dup2\n        /* \"RPS_Schett_with_Transaction_and_Draw.sol\":2529:2540  player1Move */\n      0x02\n      0x00\n        /* \"RPS_Schett_with_Transaction_and_Draw.sol\":2529:2547  player1Move = move */\n      0x0100\n      exp\n      dup2\n      sload\n      dup2\n      0xff\n      mul\n      not\n      and\n      swap1\n      dup4\n      0x03\n      dup2\n      gt\n      iszero\n      tag_107\n      jumpi\n      tag_108\n      tag_95\n      jump\t// in\n    tag_108:\n    tag_107:\n      mul\n      or\n      swap1\n      sstore\n      pop\n        /* \"RPS_Schett_with_Transaction_and_Draw.sol\":2377:2721  if (msg.sender == player1){... */\n      jump(tag_109)\n    tag_101:\n        /* \"RPS_Schett_with_Transaction_and_Draw.sol\":2632:2636  move */\n      dup2\n        /* \"RPS_Schett_with_Transaction_and_Draw.sol\":2638:2643  nonce */\n      dup2\n        /* \"RPS_Schett_with_Transaction_and_Draw.sol\":2615:2644  abi.encodePacked(move, nonce) */\n      add(0x20, mload(0x40))\n      tag_110\n      swap3\n      swap2\n      swap1\n      tag_103\n      jump\t// in\n    tag_110:\n      mload(0x40)\n      0x20\n      dup2\n      dup4\n      sub\n      sub\n      dup2\n      mstore\n      swap1\n      0x40\n      mstore\n        /* \"RPS_Schett_with_Transaction_and_Draw.sol\":2605:2645  keccak256(abi.encodePacked(move, nonce)) */\n      dup1\n      mload\n      swap1\n      0x20\n      add\n      keccak256\n        /* \"RPS_Schett_with_Transaction_and_Draw.sol\":2588:2601  player2Commit */\n      sload(0x01)\n        /* \"RPS_Schett_with_Transaction_and_Draw.sol\":2588:2645  player2Commit == keccak256(abi.encodePacked(move, nonce)) */\n      eq\n        /* \"RPS_Schett_with_Transaction_and_Draw.sol\":2580:2676  require(player2Commit == keccak256(abi.encodePacked(move, nonce)), \"Invalid commit for player2\") */\n      tag_111\n      jumpi\n      mload(0x40)\n      0x08c379a000000000000000000000000000000000000000000000000000000000\n      dup2\n      mstore\n      0x04\n      add\n      tag_112\n      swap1\n      tag_113\n      jump\t// in\n    tag_112:\n      mload(0x40)\n      dup1\n      swap2\n      sub\n      swap1\n      revert\n    tag_111:\n        /* \"RPS_Schett_with_Transaction_and_Draw.sol\":2705:2709  move */\n      dup2\n        /* \"RPS_Schett_with_Transaction_and_Draw.sol\":2691:2702  player2Move */\n      0x02\n      0x01\n        /* \"RPS_Schett_with_Transaction_and_Draw.sol\":2691:2709  player2Move = move */\n      0x0100\n      exp\n      dup2\n      sload\n      dup2\n      0xff\n      mul\n      not\n      and\n      swap1\n      dup4\n      0x03\n      dup2\n      gt\n      iszero\n      tag_114\n      jumpi\n      tag_115\n      tag_95\n      jump\t// in\n    tag_115:\n    tag_114:\n      mul\n      or\n      swap1\n      sstore\n      pop\n        /* \"RPS_Schett_with_Transaction_and_Draw.sol\":2377:2721  if (msg.sender == player1){... */\n    tag_109:\n        /* \"RPS_Schett_with_Transaction_and_Draw.sol\":2829:2838  Move.None */\n      0x03\n        /* \"RPS_Schett_with_Transaction_and_Draw.sol\":2814:2838  player1Move != Move.None */\n      dup1\n      dup2\n      gt\n      iszero\n      tag_116\n      jumpi\n      tag_117\n      tag_95\n      jump\t// in\n    tag_117:\n    tag_116:\n        /* \"RPS_Schett_with_Transaction_and_Draw.sol\":2814:2825  player1Move */\n      0x02\n      0x00\n      swap1\n      sload\n      swap1\n      0x0100\n      exp\n      swap1\n      div\n      0xff\n      and\n        /* \"RPS_Schett_with_Transaction_and_Draw.sol\":2814:2838  player1Move != Move.None */\n      0x03\n      dup2\n      gt\n      iszero\n      tag_118\n      jumpi\n      tag_119\n      tag_95\n      jump\t// in\n    tag_119:\n    tag_118:\n      eq\n      iszero\n        /* \"RPS_Schett_with_Transaction_and_Draw.sol\":2814:2866  player1Move != Move.None && player2Move != Move.None */\n      dup1\n      iszero\n      tag_120\n      jumpi\n      pop\n        /* \"RPS_Schett_with_Transaction_and_Draw.sol\":2857:2866  Move.None */\n      0x03\n        /* \"RPS_Schett_with_Transaction_and_Draw.sol\":2842:2866  player2Move != Move.None */\n      dup1\n      dup2\n      gt\n      iszero\n      tag_121\n      jumpi\n      tag_122\n      tag_95\n      jump\t// in\n    tag_122:\n    tag_121:\n        /* \"RPS_Schett_with_Transaction_and_Draw.sol\":2842:2853  player2Move */\n      0x02\n      0x01\n      swap1\n      sload\n      swap1\n      0x0100\n      exp\n      swap1\n      div\n      0xff\n      and\n        /* \"RPS_Schett_with_Transaction_and_Draw.sol\":2842:2866  player2Move != Move.None */\n      0x03\n      dup2\n      gt\n      iszero\n      tag_123\n      jumpi\n      tag_124\n      tag_95\n      jump\t// in\n    tag_124:\n    tag_123:\n      eq\n      iszero\n        /* \"RPS_Schett_with_Transaction_and_Draw.sol\":2814:2866  player1Move != Move.None && player2Move != Move.None */\n    tag_120:\n        /* \"RPS_Schett_with_Transaction_and_Draw.sol\":2810:2911  if (player1Move != Move.None && player2Move != Move.None){... */\n      iszero\n      tag_125\n      jumpi\n        /* \"RPS_Schett_with_Transaction_and_Draw.sol\":2882:2899  determineWinner() */\n      tag_126\n        /* \"RPS_Schett_with_Transaction_and_Draw.sol\":2882:2897  determineWinner */\n      tag_33\n        /* \"RPS_Schett_with_Transaction_and_Draw.sol\":2882:2899  determineWinner() */\n      jump\t// in\n    tag_126:\n        /* \"RPS_Schett_with_Transaction_and_Draw.sol\":2810:2911  if (player1Move != Move.None && player2Move != Move.None){... */\n    tag_125:\n        /* \"RPS_Schett_with_Transaction_and_Draw.sol\":1966:2928  function revealMove(Move move, uint nonce) public {... */\n      pop\n      pop\n      jump\t// out\n        /* \"RPS_Schett_with_Transaction_and_Draw.sol\":1002:1040  mapping(address=>uint) public balances */\n    tag_28:\n      mstore(0x20, 0x05)\n      dup1\n      0x00\n      mstore\n      keccak256(0x00, 0x40)\n      0x00\n      swap2\n      pop\n      swap1\n      pop\n      sload\n      dup2\n      jump\t// out\n        /* \"RPS_Schett_with_Transaction_and_Draw.sol\":2936:3704  function determineWinner() public {... */\n    tag_33:\n        /* \"RPS_Schett_with_Transaction_and_Draw.sol\":3004:3013  Move.None */\n      0x03\n        /* \"RPS_Schett_with_Transaction_and_Draw.sol\":2989:3013  player1Move != Move.None */\n      dup1\n      dup2\n      gt\n      iszero\n      tag_128\n      jumpi\n      tag_129\n      tag_95\n      jump\t// in\n    tag_129:\n    tag_128:\n        /* \"RPS_Schett_with_Transaction_and_Draw.sol\":2989:3000  player1Move */\n      0x02\n      0x00\n      swap1\n      sload\n      swap1\n      0x0100\n      exp\n      swap1\n      div\n      0xff\n      and\n        /* \"RPS_Schett_with_Transaction_and_Draw.sol\":2989:3013  player1Move != Move.None */\n      0x03\n      dup2\n      gt\n      iszero\n      tag_130\n      jumpi\n      tag_131\n      tag_95\n      jump\t// in\n    tag_131:\n    tag_130:\n      eq\n      iszero\n        /* \"RPS_Schett_with_Transaction_and_Draw.sol\":2989:3041  player1Move != Move.None && player2Move != Move.None */\n      dup1\n      iszero\n      tag_132\n      jumpi\n      pop\n        /* \"RPS_Schett_with_Transaction_and_Draw.sol\":3032:3041  Move.None */\n      0x03\n        /* \"RPS_Schett_with_Transaction_and_Draw.sol\":3017:3041  player2Move != Move.None */\n      dup1\n      dup2\n      gt\n      iszero\n      tag_133\n      jumpi\n      tag_134\n      tag_95\n      jump\t// in\n    tag_134:\n    tag_133:\n        /* \"RPS_Schett_with_Transaction_and_Draw.sol\":3017:3028  player2Move */\n      0x02\n      0x01\n      swap1\n      sload\n      swap1\n      0x0100\n      exp\n      swap1\n      div\n      0xff\n      and\n        /* \"RPS_Schett_with_Transaction_and_Draw.sol\":3017:3041  player2Move != Move.None */\n      0x03\n      dup2\n      gt\n      iszero\n      tag_135\n      jumpi\n      tag_136\n      tag_95\n      jump\t// in\n    tag_136:\n    tag_135:\n      eq\n      iszero\n        /* \"RPS_Schett_with_Transaction_and_Draw.sol\":2989:3041  player1Move != Move.None && player2Move != Move.None */\n    tag_132:\n        /* \"RPS_Schett_with_Transaction_and_Draw.sol\":2981:3078  require(player1Move != Move.None && player2Move != Move.None, \"at least one player didnt choose\") */\n      tag_137\n      jumpi\n      mload(0x40)\n      0x08c379a000000000000000000000000000000000000000000000000000000000\n      dup2\n      mstore\n      0x04\n      add\n      tag_138\n      swap1\n      tag_139\n      jump\t// in\n    tag_138:\n      mload(0x40)\n      dup1\n      swap2\n      sub\n      swap1\n      revert\n    tag_137:\n        /* \"RPS_Schett_with_Transaction_and_Draw.sol\":3108:3119  player2Move */\n      0x02\n      0x01\n      swap1\n      sload\n      swap1\n      0x0100\n      exp\n      swap1\n      div\n      0xff\n      and\n        /* \"RPS_Schett_with_Transaction_and_Draw.sol\":3093:3119  player1Move == player2Move */\n      0x03\n      dup2\n      gt\n      iszero\n      tag_140\n      jumpi\n      tag_141\n      tag_95\n      jump\t// in\n    tag_141:\n    tag_140:\n        /* \"RPS_Schett_with_Transaction_and_Draw.sol\":3093:3104  player1Move */\n      0x02\n      0x00\n      swap1\n      sload\n      swap1\n      0x0100\n      exp\n      swap1\n      div\n      0xff\n      and\n        /* \"RPS_Schett_with_Transaction_and_Draw.sol\":3093:3119  player1Move == player2Move */\n      0x03\n      dup2\n      gt\n      iszero\n      tag_142\n      jumpi\n      tag_143\n      tag_95\n      jump\t// in\n    tag_143:\n    tag_142:\n      sub\n        /* \"RPS_Schett_with_Transaction_and_Draw.sol\":3089:3673  if (player1Move == player2Move){... */\n      tag_144\n      jumpi\n        /* \"RPS_Schett_with_Transaction_and_Draw.sol\":3208:3215  1 ether */\n      0x0de0b6b3a7640000\n        /* \"RPS_Schett_with_Transaction_and_Draw.sol\":3187:3195  balances */\n      0x05\n        /* \"RPS_Schett_with_Transaction_and_Draw.sol\":3187:3204  balances[player1] */\n      0x00\n        /* \"RPS_Schett_with_Transaction_and_Draw.sol\":462:504  0x5B38Da6a701c568545dCfcB03FcB875f56beddC4 */\n      0x5b38da6a701c568545dcfcb03fcb875f56beddc4\n        /* \"RPS_Schett_with_Transaction_and_Draw.sol\":3187:3204  balances[player1] */\n      0xffffffffffffffffffffffffffffffffffffffff\n      and\n      0xffffffffffffffffffffffffffffffffffffffff\n      and\n      dup2\n      mstore\n      0x20\n      add\n      swap1\n      dup2\n      mstore\n      0x20\n      add\n      0x00\n      keccak256\n      0x00\n        /* \"RPS_Schett_with_Transaction_and_Draw.sol\":3187:3215  balances[player1] += 1 ether */\n      dup3\n      dup3\n      sload\n      tag_145\n      swap2\n      swap1\n      tag_146\n      jump\t// in\n    tag_145:\n      swap3\n      pop\n      pop\n      dup2\n      swap1\n      sstore\n      pop\n        /* \"RPS_Schett_with_Transaction_and_Draw.sol\":3251:3258  1 ether */\n      0x0de0b6b3a7640000\n        /* \"RPS_Schett_with_Transaction_and_Draw.sol\":3230:3238  balances */\n      0x05\n        /* \"RPS_Schett_with_Transaction_and_Draw.sol\":3230:3247  balances[player2] */\n      0x00\n        /* \"RPS_Schett_with_Transaction_and_Draw.sol\":545:587  0xAb8483F64d9C6d1EcF9b849Ae677dD3315835cb2 */\n      0xab8483f64d9c6d1ecf9b849ae677dd3315835cb2\n        /* \"RPS_Schett_with_Transaction_and_Draw.sol\":3230:3247  balances[player2] */\n      0xffffffffffffffffffffffffffffffffffffffff\n      and\n      0xffffffffffffffffffffffffffffffffffffffff\n      and\n      dup2\n      mstore\n      0x20\n      add\n      swap1\n      dup2\n      mstore\n      0x20\n      add\n      0x00\n      keccak256\n      0x00\n        /* \"RPS_Schett_with_Transaction_and_Draw.sol\":3230:3258  balances[player2] += 1 ether */\n      dup3\n      dup3\n      sload\n      tag_147\n      swap2\n      swap1\n      tag_146\n      jump\t// in\n    tag_147:\n      swap3\n      pop\n      pop\n      dup2\n      swap1\n      sstore\n      pop\n        /* \"RPS_Schett_with_Transaction_and_Draw.sol\":3089:3673  if (player1Move == player2Move){... */\n      jump(tag_148)\n    tag_144:\n        /* \"RPS_Schett_with_Transaction_and_Draw.sol\":3305:3314  Move.Rock */\n      0x00\n        /* \"RPS_Schett_with_Transaction_and_Draw.sol\":3290:3314  player1Move == Move.Rock */\n      0x03\n      dup2\n      gt\n      iszero\n      tag_149\n      jumpi\n      tag_150\n      tag_95\n      jump\t// in\n    tag_150:\n    tag_149:\n        /* \"RPS_Schett_with_Transaction_and_Draw.sol\":3290:3301  player1Move */\n      0x02\n      0x00\n      swap1\n      sload\n      swap1\n      0x0100\n      exp\n      swap1\n      div\n      0xff\n      and\n        /* \"RPS_Schett_with_Transaction_and_Draw.sol\":3290:3314  player1Move == Move.Rock */\n      0x03\n      dup2\n      gt\n      iszero\n      tag_151\n      jumpi\n      tag_152\n      tag_95\n      jump\t// in\n    tag_152:\n    tag_151:\n      eq\n        /* \"RPS_Schett_with_Transaction_and_Draw.sol\":3290:3346  player1Move == Move.Rock && player2Move == Move.Scissors */\n      dup1\n      iszero\n      tag_153\n      jumpi\n      pop\n        /* \"RPS_Schett_with_Transaction_and_Draw.sol\":3333:3346  Move.Scissors */\n      0x02\n        /* \"RPS_Schett_with_Transaction_and_Draw.sol\":3318:3346  player2Move == Move.Scissors */\n      0x03\n      dup2\n      gt\n      iszero\n      tag_154\n      jumpi\n      tag_155\n      tag_95\n      jump\t// in\n    tag_155:\n    tag_154:\n        /* \"RPS_Schett_with_Transaction_and_Draw.sol\":3318:3329  player2Move */\n      0x02\n      0x01\n      swap1\n      sload\n      swap1\n      0x0100\n      exp\n      swap1\n      div\n      0xff\n      and\n        /* \"RPS_Schett_with_Transaction_and_Draw.sol\":3318:3346  player2Move == Move.Scissors */\n      0x03\n      dup2\n      gt\n      iszero\n      tag_156\n      jumpi\n      tag_157\n      tag_95\n      jump\t// in\n    tag_157:\n    tag_156:\n      eq\n        /* \"RPS_Schett_with_Transaction_and_Draw.sol\":3290:3346  player1Move == Move.Rock && player2Move == Move.Scissors */\n    tag_153:\n        /* \"RPS_Schett_with_Transaction_and_Draw.sol\":3289:3423  (player1Move == Move.Rock && player2Move == Move.Scissors) ||... */\n      dup1\n      tag_158\n      jumpi\n      pop\n        /* \"RPS_Schett_with_Transaction_and_Draw.sol\":3380:3393  Move.Scissors */\n      0x02\n        /* \"RPS_Schett_with_Transaction_and_Draw.sol\":3365:3393  player1Move == Move.Scissors */\n      0x03\n      dup2\n      gt\n      iszero\n      tag_159\n      jumpi\n      tag_160\n      tag_95\n      jump\t// in\n    tag_160:\n    tag_159:\n        /* \"RPS_Schett_with_Transaction_and_Draw.sol\":3365:3376  player1Move */\n      0x02\n      0x00\n      swap1\n      sload\n      swap1\n      0x0100\n      exp\n      swap1\n      div\n      0xff\n      and\n        /* \"RPS_Schett_with_Transaction_and_Draw.sol\":3365:3393  player1Move == Move.Scissors */\n      0x03\n      dup2\n      gt\n      iszero\n      tag_161\n      jumpi\n      tag_162\n      tag_95\n      jump\t// in\n    tag_162:\n    tag_161:\n      eq\n        /* \"RPS_Schett_with_Transaction_and_Draw.sol\":3365:3422  player1Move == Move.Scissors && player2Move == Move.Paper */\n      dup1\n      iszero\n      tag_163\n      jumpi\n      pop\n        /* \"RPS_Schett_with_Transaction_and_Draw.sol\":3412:3422  Move.Paper */\n      0x01\n        /* \"RPS_Schett_with_Transaction_and_Draw.sol\":3397:3422  player2Move == Move.Paper */\n      0x03\n      dup2\n      gt\n      iszero\n      tag_164\n      jumpi\n      tag_165\n      tag_95\n      jump\t// in\n    tag_165:\n    tag_164:\n        /* \"RPS_Schett_with_Transaction_and_Draw.sol\":3397:3408  player2Move */\n      0x02\n      0x01\n      swap1\n      sload\n      swap1\n      0x0100\n      exp\n      swap1\n      div\n      0xff\n      and\n        /* \"RPS_Schett_with_Transaction_and_Draw.sol\":3397:3422  player2Move == Move.Paper */\n      0x03\n      dup2\n      gt\n      iszero\n      tag_166\n      jumpi\n      tag_167\n      tag_95\n      jump\t// in\n    tag_167:\n    tag_166:\n      eq\n        /* \"RPS_Schett_with_Transaction_and_Draw.sol\":3365:3422  player1Move == Move.Scissors && player2Move == Move.Paper */\n    tag_163:\n        /* \"RPS_Schett_with_Transaction_and_Draw.sol\":3289:3423  (player1Move == Move.Rock && player2Move == Move.Scissors) ||... */\n    tag_158:\n        /* \"RPS_Schett_with_Transaction_and_Draw.sol\":3289:3495  (player1Move == Move.Rock && player2Move == Move.Scissors) ||... */\n      dup1\n      tag_168\n      jumpi\n      pop\n        /* \"RPS_Schett_with_Transaction_and_Draw.sol\":3456:3466  Move.Paper */\n      0x01\n        /* \"RPS_Schett_with_Transaction_and_Draw.sol\":3441:3466  player1Move == Move.Paper */\n      0x03\n      dup2\n      gt\n      iszero\n      tag_169\n      jumpi\n      tag_170\n      tag_95\n      jump\t// in\n    tag_170:\n    tag_169:\n        /* \"RPS_Schett_with_Transaction_and_Draw.sol\":3441:3452  player1Move */\n      0x02\n      0x00\n      swap1\n      sload\n      swap1\n      0x0100\n      exp\n      swap1\n      div\n      0xff\n      and\n        /* \"RPS_Schett_with_Transaction_and_Draw.sol\":3441:3466  player1Move == Move.Paper */\n      0x03\n      dup2\n      gt\n      iszero\n      tag_171\n      jumpi\n      tag_172\n      tag_95\n      jump\t// in\n    tag_172:\n    tag_171:\n      eq\n        /* \"RPS_Schett_with_Transaction_and_Draw.sol\":3441:3494  player1Move == Move.Paper && player2Move == Move.Rock */\n      dup1\n      iszero\n      tag_173\n      jumpi\n      pop\n        /* \"RPS_Schett_with_Transaction_and_Draw.sol\":3485:3494  Move.Rock */\n      0x00\n        /* \"RPS_Schett_with_Transaction_and_Draw.sol\":3470:3494  player2Move == Move.Rock */\n      0x03\n      dup2\n      gt\n      iszero\n      tag_174\n      jumpi\n      tag_175\n      tag_95\n      jump\t// in\n    tag_175:\n    tag_174:\n        /* \"RPS_Schett_with_Transaction_and_Draw.sol\":3470:3481  player2Move */\n      0x02\n      0x01\n      swap1\n      sload\n      swap1\n      0x0100\n      exp\n      swap1\n      div\n      0xff\n      and\n        /* \"RPS_Schett_with_Transaction_and_Draw.sol\":3470:3494  player2Move == Move.Rock */\n      0x03\n      dup2\n      gt\n      iszero\n      tag_176\n      jumpi\n      tag_177\n      tag_95\n      jump\t// in\n    tag_177:\n    tag_176:\n      eq\n        /* \"RPS_Schett_with_Transaction_and_Draw.sol\":3441:3494  player1Move == Move.Paper && player2Move == Move.Rock */\n    tag_173:\n        /* \"RPS_Schett_with_Transaction_and_Draw.sol\":3289:3495  (player1Move == Move.Rock && player2Move == Move.Scissors) ||... */\n    tag_168:\n        /* \"RPS_Schett_with_Transaction_and_Draw.sol\":3285:3673  if ((player1Move == Move.Rock && player2Move == Move.Scissors) ||... */\n      iszero\n      tag_178\n      jumpi\n        /* \"RPS_Schett_with_Transaction_and_Draw.sol\":3563:3570  2 ether */\n      0x1bc16d674ec80000\n        /* \"RPS_Schett_with_Transaction_and_Draw.sol\":3542:3550  balances */\n      0x05\n        /* \"RPS_Schett_with_Transaction_and_Draw.sol\":3542:3559  balances[player1] */\n      0x00\n        /* \"RPS_Schett_with_Transaction_and_Draw.sol\":462:504  0x5B38Da6a701c568545dCfcB03FcB875f56beddC4 */\n      0x5b38da6a701c568545dcfcb03fcb875f56beddc4\n        /* \"RPS_Schett_with_Transaction_and_Draw.sol\":3542:3559  balances[player1] */\n      0xffffffffffffffffffffffffffffffffffffffff\n      and\n      0xffffffffffffffffffffffffffffffffffffffff\n      and\n      dup2\n      mstore\n      0x20\n      add\n      swap1\n      dup2\n      mstore\n      0x20\n      add\n      0x00\n      keccak256\n      0x00\n        /* \"RPS_Schett_with_Transaction_and_Draw.sol\":3542:3570  balances[player1] += 2 ether */\n      dup3\n      dup3\n      sload\n      tag_179\n      swap2\n      swap1\n      tag_146\n      jump\t// in\n    tag_179:\n      swap3\n      pop\n      pop\n      dup2\n      swap1\n      sstore\n      pop\n        /* \"RPS_Schett_with_Transaction_and_Draw.sol\":3285:3673  if ((player1Move == Move.Rock && player2Move == Move.Scissors) ||... */\n      jump(tag_180)\n    tag_178:\n        /* \"RPS_Schett_with_Transaction_and_Draw.sol\":3624:3631  2 ether */\n      0x1bc16d674ec80000\n        /* \"RPS_Schett_with_Transaction_and_Draw.sol\":3603:3611  balances */\n      0x05\n        /* \"RPS_Schett_with_Transaction_and_Draw.sol\":3603:3620  balances[player2] */\n      0x00\n        /* \"RPS_Schett_with_Transaction_and_Draw.sol\":545:587  0xAb8483F64d9C6d1EcF9b849Ae677dD3315835cb2 */\n      0xab8483f64d9c6d1ecf9b849ae677dd3315835cb2\n        /* \"RPS_Schett_with_Transaction_and_Draw.sol\":3603:3620  balances[player2] */\n      0xffffffffffffffffffffffffffffffffffffffff\n      and\n      0xffffffffffffffffffffffffffffffffffffffff\n      and\n      dup2\n      mstore\n      0x20\n      add\n      swap1\n      dup2\n      mstore\n      0x20\n      add\n      0x00\n      keccak256\n      0x00\n        /* \"RPS_Schett_with_Transaction_and_Draw.sol\":3603:3631  balances[player2] += 2 ether */\n      dup3\n      dup3\n      sload\n      tag_181\n      swap2\n      swap1\n      tag_146\n      jump\t// in\n    tag_181:\n      swap3\n      pop\n      pop\n      dup2\n      swap1\n      sstore\n      pop\n        /* \"RPS_Schett_with_Transaction_and_Draw.sol\":3285:3673  if ((player1Move == Move.Rock && player2Move == Move.Scissors) ||... */\n    tag_180:\n        /* \"RPS_Schett_with_Transaction_and_Draw.sol\":3089:3673  if (player1Move == player2Move){... */\n    tag_148:\n        /* \"RPS_Schett_with_Transaction_and_Draw.sol\":3685:3696  resetGame() */\n      tag_182\n        /* \"RPS_Schett_with_Transaction_and_Draw.sol\":3685:3694  resetGame */\n      tag_183\n        /* \"RPS_Schett_with_Transaction_and_Draw.sol\":3685:3696  resetGame() */\n      jump\t// in\n    tag_182:\n        /* \"RPS_Schett_with_Transaction_and_Draw.sol\":2936:3704  function determineWinner() public {... */\n      jump\t// out\n        /* \"RPS_Schett_with_Transaction_and_Draw.sol\":3712:3929  function withdraw() public{... */\n    tag_36:\n        /* \"RPS_Schett_with_Transaction_and_Draw.sol\":3749:3760  uint amount */\n      0x00\n        /* \"RPS_Schett_with_Transaction_and_Draw.sol\":3763:3771  balances */\n      0x05\n        /* \"RPS_Schett_with_Transaction_and_Draw.sol\":3763:3783  balances[msg.sender] */\n      0x00\n        /* \"RPS_Schett_with_Transaction_and_Draw.sol\":3772:3782  msg.sender */\n      caller\n        /* \"RPS_Schett_with_Transaction_and_Draw.sol\":3763:3783  balances[msg.sender] */\n      0xffffffffffffffffffffffffffffffffffffffff\n      and\n      0xffffffffffffffffffffffffffffffffffffffff\n      and\n      dup2\n      mstore\n      0x20\n      add\n      swap1\n      dup2\n      mstore\n      0x20\n      add\n      0x00\n      keccak256\n      sload\n        /* \"RPS_Schett_with_Transaction_and_Draw.sol\":3749:3783  uint amount = balances[msg.sender] */\n      swap1\n      pop\n        /* \"RPS_Schett_with_Transaction_and_Draw.sol\":3811:3812  0 */\n      0x00\n        /* \"RPS_Schett_with_Transaction_and_Draw.sol\":3802:3808  amount */\n      dup2\n        /* \"RPS_Schett_with_Transaction_and_Draw.sol\":3802:3812  amount > 0 */\n      gt\n        /* \"RPS_Schett_with_Transaction_and_Draw.sol\":3794:3839  require(amount > 0, \"No balance to withdraw\") */\n      tag_185\n      jumpi\n      mload(0x40)\n      0x08c379a000000000000000000000000000000000000000000000000000000000\n      dup2\n      mstore\n      0x04\n      add\n      tag_186\n      swap1\n      tag_187\n      jump\t// in\n    tag_186:\n      mload(0x40)\n      dup1\n      swap2\n      sub\n      swap1\n      revert\n    tag_185:\n        /* \"RPS_Schett_with_Transaction_and_Draw.sol\":3873:3874  0 */\n      0x00\n        /* \"RPS_Schett_with_Transaction_and_Draw.sol\":3850:3858  balances */\n      0x05\n        /* \"RPS_Schett_with_Transaction_and_Draw.sol\":3850:3870  balances[msg.sender] */\n      0x00\n        /* \"RPS_Schett_with_Transaction_and_Draw.sol\":3859:3869  msg.sender */\n      caller\n        /* \"RPS_Schett_with_Transaction_and_Draw.sol\":3850:3870  balances[msg.sender] */\n      0xffffffffffffffffffffffffffffffffffffffff\n      and\n      0xffffffffffffffffffffffffffffffffffffffff\n      and\n      dup2\n      mstore\n      0x20\n      add\n      swap1\n      dup2\n      mstore\n      0x20\n      add\n      0x00\n      keccak256\n        /* \"RPS_Schett_with_Transaction_and_Draw.sol\":3850:3874  balances[msg.sender] = 0 */\n      dup2\n      swap1\n      sstore\n      pop\n        /* \"RPS_Schett_with_Transaction_and_Draw.sol\":3893:3903  msg.sender */\n      caller\n        /* \"RPS_Schett_with_Transaction_and_Draw.sol\":3885:3913  payable(msg.sender).transfer */\n      0xffffffffffffffffffffffffffffffffffffffff\n      and\n        /* \"RPS_Schett_with_Transaction_and_Draw.sol\":3885:3921  payable(msg.sender).transfer(amount) */\n      0x08fc\n        /* \"RPS_Schett_with_Transaction_and_Draw.sol\":3914:3920  amount */\n      dup3\n        /* \"RPS_Schett_with_Transaction_and_Draw.sol\":3885:3921  payable(msg.sender).transfer(amount) */\n      swap1\n      dup2\n      iszero\n      mul\n      swap1\n      mload(0x40)\n      0x00\n      mload(0x40)\n      dup1\n      dup4\n      sub\n      dup2\n      dup6\n      dup9\n      dup9\n      call\n      swap4\n      pop\n      pop\n      pop\n      pop\n      iszero\n      dup1\n      iszero\n      tag_189\n      jumpi\n      returndatasize\n      0x00\n      dup1\n      returndatacopy\n      revert(0x00, returndatasize)\n    tag_189:\n      pop\n        /* \"RPS_Schett_with_Transaction_and_Draw.sol\":3738:3929  {... */\n      pop\n        /* \"RPS_Schett_with_Transaction_and_Draw.sol\":3712:3929  function withdraw() public{... */\n      jump\t// out\n        /* \"RPS_Schett_with_Transaction_and_Draw.sol\":1146:1287  function generateCommit(Move move, uint nonce) public pure returns(bytes32){... */\n    tag_40:\n        /* \"RPS_Schett_with_Transaction_and_Draw.sol\":1213:1220  bytes32 */\n      0x00\n        /* \"RPS_Schett_with_Transaction_and_Draw.sol\":1266:1270  move */\n      dup3\n        /* \"RPS_Schett_with_Transaction_and_Draw.sol\":1272:1277  nonce */\n      dup3\n        /* \"RPS_Schett_with_Transaction_and_Draw.sol\":1249:1278  abi.encodePacked(move, nonce) */\n      add(0x20, mload(0x40))\n      tag_191\n      swap3\n      swap2\n      swap1\n      tag_103\n      jump\t// in\n    tag_191:\n      mload(0x40)\n      0x20\n      dup2\n      dup4\n      sub\n      sub\n      dup2\n      mstore\n      swap1\n      0x40\n      mstore\n        /* \"RPS_Schett_with_Transaction_and_Draw.sol\":1239:1279  keccak256(abi.encodePacked(move, nonce)) */\n      dup1\n      mload\n      swap1\n      0x20\n      add\n      keccak256\n        /* \"RPS_Schett_with_Transaction_and_Draw.sol\":1232:1279  return keccak256(abi.encodePacked(move, nonce)) */\n      swap1\n      pop\n        /* \"RPS_Schett_with_Transaction_and_Draw.sol\":1146:1287  function generateCommit(Move move, uint nonce) public pure returns(bytes32){... */\n      swap3\n      swap2\n      pop\n      pop\n      jump\t// out\n        /* \"RPS_Schett_with_Transaction_and_Draw.sol\":511:587  address constant public player2 = 0xAb8483F64d9C6d1EcF9b849Ae677dD3315835cb2 */\n    tag_45:\n        /* \"RPS_Schett_with_Transaction_and_Draw.sol\":545:587  0xAb8483F64d9C6d1EcF9b849Ae677dD3315835cb2 */\n      0xab8483f64d9c6d1ecf9b849ae677dd3315835cb2\n        /* \"RPS_Schett_with_Transaction_and_Draw.sol\":511:587  address constant public player2 = 0xAb8483F64d9C6d1EcF9b849Ae677dD3315835cb2 */\n      dup2\n      jump\t// out\n        /* \"RPS_Schett_with_Transaction_and_Draw.sol\":738:773  Move public player2Move = Move.None */\n    tag_50:\n      0x02\n      0x01\n      swap1\n      sload\n      swap1\n      0x0100\n      exp\n      swap1\n      div\n      0xff\n      and\n      dup2\n      jump\t// out\n        /* \"RPS_Schett_with_Transaction_and_Draw.sol\":664:699  Move public player1Move = Move.None */\n    tag_55:\n      0x02\n      0x00\n      swap1\n      sload\n      swap1\n      0x0100\n      exp\n      swap1\n      div\n      0xff\n      and\n      dup2\n      jump\t// out\n        /* \"RPS_Schett_with_Transaction_and_Draw.sol\":1297:1958  function commitMove(bytes32 commit) public payable {... */\n    tag_60:\n        /* \"RPS_Schett_with_Transaction_and_Draw.sol\":462:504  0x5B38Da6a701c568545dCfcB03FcB875f56beddC4 */\n      0x5b38da6a701c568545dcfcb03fcb875f56beddc4\n        /* \"RPS_Schett_with_Transaction_and_Draw.sol\":1368:1389  msg.sender == player1 */\n      0xffffffffffffffffffffffffffffffffffffffff\n      and\n        /* \"RPS_Schett_with_Transaction_and_Draw.sol\":1368:1378  msg.sender */\n      caller\n        /* \"RPS_Schett_with_Transaction_and_Draw.sol\":1368:1389  msg.sender == player1 */\n      0xffffffffffffffffffffffffffffffffffffffff\n      and\n      eq\n        /* \"RPS_Schett_with_Transaction_and_Draw.sol\":1368:1411  msg.sender == player1 && player1Commit == 0 */\n      dup1\n      iszero\n      tag_193\n      jumpi\n      pop\n        /* \"RPS_Schett_with_Transaction_and_Draw.sol\":1410:1411  0 */\n      0x00\n        /* \"RPS_Schett_with_Transaction_and_Draw.sol\":1393:1411  player1Commit == 0 */\n      dup1\n      shl\n        /* \"RPS_Schett_with_Transaction_and_Draw.sol\":1393:1406  player1Commit */\n      sload(0x00)\n        /* \"RPS_Schett_with_Transaction_and_Draw.sol\":1393:1411  player1Commit == 0 */\n      eq\n        /* \"RPS_Schett_with_Transaction_and_Draw.sol\":1368:1411  msg.sender == player1 && player1Commit == 0 */\n    tag_193:\n        /* \"RPS_Schett_with_Transaction_and_Draw.sol\":1367:1461  (msg.sender == player1 && player1Commit == 0) || (msg.sender == player2 && player2Commit == 0) */\n      dup1\n      tag_194\n      jumpi\n      pop\n        /* \"RPS_Schett_with_Transaction_and_Draw.sol\":545:587  0xAb8483F64d9C6d1EcF9b849Ae677dD3315835cb2 */\n      0xab8483f64d9c6d1ecf9b849ae677dd3315835cb2\n        /* \"RPS_Schett_with_Transaction_and_Draw.sol\":1417:1438  msg.sender == player2 */\n      0xffffffffffffffffffffffffffffffffffffffff\n      and\n        /* \"RPS_Schett_with_Transaction_and_Draw.sol\":1417:1427  msg.sender */\n      caller\n        /* \"RPS_Schett_with_Transaction_and_Draw.sol\":1417:1438  msg.sender == player2 */\n      0xffffffffffffffffffffffffffffffffffffffff\n      and\n      eq\n        /* \"RPS_Schett_with_Transaction_and_Draw.sol\":1417:1460  msg.sender == player2 && player2Commit == 0 */\n      dup1\n      iszero\n      tag_195\n      jumpi\n      pop\n        /* \"RPS_Schett_with_Transaction_and_Draw.sol\":1459:1460  0 */\n      0x00\n        /* \"RPS_Schett_with_Transaction_and_Draw.sol\":1442:1460  player2Commit == 0 */\n      dup1\n      shl\n        /* \"RPS_Schett_with_Transaction_and_Draw.sol\":1442:1455  player2Commit */\n      sload(0x01)\n        /* \"RPS_Schett_with_Transaction_and_Draw.sol\":1442:1460  player2Commit == 0 */\n      eq\n        /* \"RPS_Schett_with_Transaction_and_Draw.sol\":1417:1460  msg.sender == player2 && player2Commit == 0 */\n    tag_195:\n        /* \"RPS_Schett_with_Transaction_and_Draw.sol\":1367:1461  (msg.sender == player1 && player1Commit == 0) || (msg.sender == player2 && player2Commit == 0) */\n    tag_194:\n        /* \"RPS_Schett_with_Transaction_and_Draw.sol\":1359:1507  require((msg.sender == player1 && player1Commit == 0) || (msg.sender == player2 && player2Commit == 0), \"either invalid player or already commited\") */\n      tag_196\n      jumpi\n      mload(0x40)\n      0x08c379a000000000000000000000000000000000000000000000000000000000\n      dup2\n      mstore\n      0x04\n      add\n      tag_197\n      swap1\n      tag_198\n      jump\t// in\n    tag_197:\n      mload(0x40)\n      dup1\n      swap2\n      sub\n      swap1\n      revert\n    tag_196:\n        /* \"RPS_Schett_with_Transaction_and_Draw.sol\":1539:1546  1 ether */\n      0x0de0b6b3a7640000\n        /* \"RPS_Schett_with_Transaction_and_Draw.sol\":1526:1535  msg.value */\n      callvalue\n        /* \"RPS_Schett_with_Transaction_and_Draw.sol\":1526:1546  msg.value == 1 ether */\n      eq\n        /* \"RPS_Schett_with_Transaction_and_Draw.sol\":1518:1578  require(msg.value == 1 ether, \"Need 1 ether to participate\") */\n      tag_199\n      jumpi\n      mload(0x40)\n      0x08c379a000000000000000000000000000000000000000000000000000000000\n      dup2\n      mstore\n      0x04\n      add\n      tag_200\n      swap1\n      tag_201\n      jump\t// in\n    tag_200:\n      mload(0x40)\n      dup1\n      swap2\n      sub\n      swap1\n      revert\n    tag_199:\n        /* \"RPS_Schett_with_Transaction_and_Draw.sol\":462:504  0x5B38Da6a701c568545dCfcB03FcB875f56beddC4 */\n      0x5b38da6a701c568545dcfcb03fcb875f56beddc4\n        /* \"RPS_Schett_with_Transaction_and_Draw.sol\":1592:1613  msg.sender == player1 */\n      0xffffffffffffffffffffffffffffffffffffffff\n      and\n        /* \"RPS_Schett_with_Transaction_and_Draw.sol\":1592:1602  msg.sender */\n      caller\n        /* \"RPS_Schett_with_Transaction_and_Draw.sol\":1592:1613  msg.sender == player1 */\n      0xffffffffffffffffffffffffffffffffffffffff\n      and\n      sub\n        /* \"RPS_Schett_with_Transaction_and_Draw.sol\":1589:1718  if(msg.sender == player1){... */\n      tag_202\n      jumpi\n        /* \"RPS_Schett_with_Transaction_and_Draw.sol\":1645:1651  commit */\n      dup1\n        /* \"RPS_Schett_with_Transaction_and_Draw.sol\":1629:1642  player1Commit */\n      0x00\n        /* \"RPS_Schett_with_Transaction_and_Draw.sol\":1629:1651  player1Commit = commit */\n      dup2\n      swap1\n      sstore\n      pop\n        /* \"RPS_Schett_with_Transaction_and_Draw.sol\":1589:1718  if(msg.sender == player1){... */\n      jump(tag_203)\n    tag_202:\n        /* \"RPS_Schett_with_Transaction_and_Draw.sol\":1700:1706  commit */\n      dup1\n        /* \"RPS_Schett_with_Transaction_and_Draw.sol\":1684:1697  player2Commit */\n      0x01\n        /* \"RPS_Schett_with_Transaction_and_Draw.sol\":1684:1706  player2Commit = commit */\n      dup2\n      swap1\n      sstore\n      pop\n        /* \"RPS_Schett_with_Transaction_and_Draw.sol\":1589:1718  if(msg.sender == player1){... */\n    tag_203:\n        /* \"RPS_Schett_with_Transaction_and_Draw.sol\":1853:1854  0 */\n      0x00\n        /* \"RPS_Schett_with_Transaction_and_Draw.sol\":1836:1854  player1Commit != 0 */\n      dup1\n      shl\n        /* \"RPS_Schett_with_Transaction_and_Draw.sol\":1836:1849  player1Commit */\n      sload(0x00)\n        /* \"RPS_Schett_with_Transaction_and_Draw.sol\":1836:1854  player1Commit != 0 */\n      eq\n      iszero\n        /* \"RPS_Schett_with_Transaction_and_Draw.sol\":1836:1877  player1Commit != 0 &&  player2Commit != 0 */\n      dup1\n      iszero\n      tag_204\n      jumpi\n      pop\n        /* \"RPS_Schett_with_Transaction_and_Draw.sol\":1876:1877  0 */\n      0x00\n        /* \"RPS_Schett_with_Transaction_and_Draw.sol\":1859:1877  player2Commit != 0 */\n      dup1\n      shl\n        /* \"RPS_Schett_with_Transaction_and_Draw.sol\":1859:1872  player2Commit */\n      sload(0x01)\n        /* \"RPS_Schett_with_Transaction_and_Draw.sol\":1859:1877  player2Commit != 0 */\n      eq\n      iszero\n        /* \"RPS_Schett_with_Transaction_and_Draw.sol\":1836:1877  player1Commit != 0 &&  player2Commit != 0 */\n    tag_204:\n        /* \"RPS_Schett_with_Transaction_and_Draw.sol\":1832:1951  if (player1Commit != 0 &&  player2Commit != 0){... */\n      iszero\n      tag_205\n      jumpi\n        /* \"RPS_Schett_with_Transaction_and_Draw.sol\":836:843  5 hours */\n      0x4650\n        /* \"RPS_Schett_with_Transaction_and_Draw.sol\":1910:1925  block.timestamp */\n      timestamp\n        /* \"RPS_Schett_with_Transaction_and_Draw.sol\":1910:1939  block.timestamp + REVEAL_TIME */\n      tag_206\n      swap2\n      swap1\n      tag_146\n      jump\t// in\n    tag_206:\n        /* \"RPS_Schett_with_Transaction_and_Draw.sol\":1893:1907  revealDeadline */\n      0x04\n        /* \"RPS_Schett_with_Transaction_and_Draw.sol\":1893:1939  revealDeadline = block.timestamp + REVEAL_TIME */\n      dup2\n      swap1\n      sstore\n      pop\n        /* \"RPS_Schett_with_Transaction_and_Draw.sol\":1832:1951  if (player1Commit != 0 &&  player2Commit != 0){... */\n    tag_205:\n        /* \"RPS_Schett_with_Transaction_and_Draw.sol\":1297:1958  function commitMove(bytes32 commit) public payable {... */\n      pop\n      jump\t// out\n        /* \"RPS_Schett_with_Transaction_and_Draw.sol\":913:939  uint public revealDeadline */\n    tag_63:\n      sload(0x04)\n      dup2\n      jump\t// out\n        /* \"RPS_Schett_with_Transaction_and_Draw.sol\":594:622  bytes32 public player1Commit */\n    tag_67:\n      sload(0x00)\n      dup2\n      jump\t// out\n        /* \"RPS_Schett_with_Transaction_and_Draw.sol\":780:801  uint public betAmount */\n    tag_71:\n      sload(0x03)\n      dup2\n      jump\t// out\n        /* \"RPS_Schett_with_Transaction_and_Draw.sol\":428:504  address constant public player1 = 0x5B38Da6a701c568545dCfcB03FcB875f56beddC4 */\n    tag_75:\n        /* \"RPS_Schett_with_Transaction_and_Draw.sol\":462:504  0x5B38Da6a701c568545dCfcB03FcB875f56beddC4 */\n      0x5b38da6a701c568545dcfcb03fcb875f56beddc4\n        /* \"RPS_Schett_with_Transaction_and_Draw.sol\":428:504  address constant public player1 = 0x5B38Da6a701c568545dCfcB03FcB875f56beddC4 */\n      dup2\n      jump\t// out\n        /* \"RPS_Schett_with_Transaction_and_Draw.sol\":629:657  bytes32 public player2Commit */\n    tag_79:\n      sload(0x01)\n      dup2\n      jump\t// out\n        /* \"RPS_Schett_with_Transaction_and_Draw.sol\":3987:4196  function resetGame() internal {... */\n    tag_183:\n        /* \"RPS_Schett_with_Transaction_and_Draw.sol\":4052:4053  0 */\n      0x00\n        /* \"RPS_Schett_with_Transaction_and_Draw.sol\":4044:4054  bytes32(0) */\n      dup1\n      shl\n        /* \"RPS_Schett_with_Transaction_and_Draw.sol\":4028:4041  player1Commit */\n      0x00\n        /* \"RPS_Schett_with_Transaction_and_Draw.sol\":4028:4054  player1Commit = bytes32(0) */\n      dup2\n      swap1\n      sstore\n      pop\n        /* \"RPS_Schett_with_Transaction_and_Draw.sol\":4089:4090  0 */\n      0x00\n        /* \"RPS_Schett_with_Transaction_and_Draw.sol\":4081:4091  bytes32(0) */\n      dup1\n      shl\n        /* \"RPS_Schett_with_Transaction_and_Draw.sol\":4065:4078  player2Commit */\n      0x01\n        /* \"RPS_Schett_with_Transaction_and_Draw.sol\":4065:4091  player2Commit = bytes32(0) */\n      dup2\n      swap1\n      sstore\n      pop\n        /* \"RPS_Schett_with_Transaction_and_Draw.sol\":4116:4125  Move.None */\n      0x03\n        /* \"RPS_Schett_with_Transaction_and_Draw.sol\":4102:4113  player1Move */\n      0x02\n      0x00\n        /* \"RPS_Schett_with_Transaction_and_Draw.sol\":4102:4125  player1Move = Move.None */\n      0x0100\n      exp\n      dup2\n      sload\n      dup2\n      0xff\n      mul\n      not\n      and\n      swap1\n      dup4\n      0x03\n      dup2\n      gt\n      iszero\n      tag_208\n      jumpi\n      tag_209\n      tag_95\n      jump\t// in\n    tag_209:\n    tag_208:\n      mul\n      or\n      swap1\n      sstore\n      pop\n        /* \"RPS_Schett_with_Transaction_and_Draw.sol\":4150:4159  Move.None */\n      0x03\n        /* \"RPS_Schett_with_Transaction_and_Draw.sol\":4136:4147  player2Move */\n      0x02\n      0x01\n        /* \"RPS_Schett_with_Transaction_and_Draw.sol\":4136:4159  player2Move = Move.None */\n      0x0100\n      exp\n      dup2\n      sload\n      dup2\n      0xff\n      mul\n      not\n      and\n      swap1\n      dup4\n      0x03\n      dup2\n      gt\n      iszero\n      tag_210\n      jumpi\n      tag_211\n      tag_95\n      jump\t// in\n    tag_211:\n    tag_210:\n      mul\n      or\n      swap1\n      sstore\n      pop\n        /* \"RPS_Schett_with_Transaction_and_Draw.sol\":4187:4188  0 */\n      0x00\n        /* \"RPS_Schett_with_Transaction_and_Draw.sol\":4170:4184  revealDeadline */\n      0x04\n        /* \"RPS_Schett_with_Transaction_and_Draw.sol\":4170:4188  revealDeadline = 0 */\n      dup2\n      swap1\n      sstore\n      pop\n        /* \"RPS_Schett_with_Transaction_and_Draw.sol\":3987:4196  function resetGame() internal {... */\n      jump\t// out\n        /* \"#utility.yul\":88:205   */\n    tag_213:\n        /* \"#utility.yul\":197:198   */\n      0x00\n        /* \"#utility.yul\":194:195   */\n      dup1\n        /* \"#utility.yul\":187:199   */\n      revert\n        /* \"#utility.yul\":334:439   */\n    tag_215:\n        /* \"#utility.yul\":413:414   */\n      0x04\n        /* \"#utility.yul\":406:411   */\n      dup2\n        /* \"#utility.yul\":403:415   */\n      lt\n        /* \"#utility.yul\":393:433   */\n      tag_266\n      jumpi\n        /* \"#utility.yul\":429:430   */\n      0x00\n        /* \"#utility.yul\":426:427   */\n      dup1\n        /* \"#utility.yul\":419:431   */\n      revert\n        /* \"#utility.yul\":393:433   */\n    tag_266:\n        /* \"#utility.yul\":334:439   */\n      pop\n      jump\t// out\n        /* \"#utility.yul\":445:596   */\n    tag_216:\n        /* \"#utility.yul\":497:502   */\n      0x00\n        /* \"#utility.yul\":535:541   */\n      dup2\n        /* \"#utility.yul\":522:542   */\n      calldataload\n        /* \"#utility.yul\":513:542   */\n      swap1\n      pop\n        /* \"#utility.yul\":551:590   */\n      tag_268\n        /* \"#utility.yul\":584:589   */\n      dup2\n        /* \"#utility.yul\":551:590   */\n      tag_215\n      jump\t// in\n    tag_268:\n        /* \"#utility.yul\":445:596   */\n      swap3\n      swap2\n      pop\n      pop\n      jump\t// out\n        /* \"#utility.yul\":602:679   */\n    tag_217:\n        /* \"#utility.yul\":639:646   */\n      0x00\n        /* \"#utility.yul\":668:673   */\n      dup2\n        /* \"#utility.yul\":657:673   */\n      swap1\n      pop\n        /* \"#utility.yul\":602:679   */\n      swap2\n      swap1\n      pop\n      jump\t// out\n        /* \"#utility.yul\":685:807   */\n    tag_218:\n        /* \"#utility.yul\":758:782   */\n      tag_271\n        /* \"#utility.yul\":776:781   */\n      dup2\n        /* \"#utility.yul\":758:782   */\n      tag_217\n      jump\t// in\n    tag_271:\n        /* \"#utility.yul\":751:756   */\n      dup2\n        /* \"#utility.yul\":748:783   */\n      eq\n        /* \"#utility.yul\":738:801   */\n      tag_272\n      jumpi\n        /* \"#utility.yul\":797:798   */\n      0x00\n        /* \"#utility.yul\":794:795   */\n      dup1\n        /* \"#utility.yul\":787:799   */\n      revert\n        /* \"#utility.yul\":738:801   */\n    tag_272:\n        /* \"#utility.yul\":685:807   */\n      pop\n      jump\t// out\n        /* \"#utility.yul\":813:952   */\n    tag_219:\n        /* \"#utility.yul\":859:864   */\n      0x00\n        /* \"#utility.yul\":897:903   */\n      dup2\n        /* \"#utility.yul\":884:904   */\n      calldataload\n        /* \"#utility.yul\":875:904   */\n      swap1\n      pop\n        /* \"#utility.yul\":913:946   */\n      tag_274\n        /* \"#utility.yul\":940:945   */\n      dup2\n        /* \"#utility.yul\":913:946   */\n      tag_218\n      jump\t// in\n    tag_274:\n        /* \"#utility.yul\":813:952   */\n      swap3\n      swap2\n      pop\n      pop\n      jump\t// out\n        /* \"#utility.yul\":958:1444   */\n    tag_22:\n        /* \"#utility.yul\":1032:1038   */\n      0x00\n        /* \"#utility.yul\":1040:1046   */\n      dup1\n        /* \"#utility.yul\":1089:1091   */\n      0x40\n        /* \"#utility.yul\":1077:1086   */\n      dup4\n        /* \"#utility.yul\":1068:1075   */\n      dup6\n        /* \"#utility.yul\":1064:1087   */\n      sub\n        /* \"#utility.yul\":1060:1092   */\n      slt\n        /* \"#utility.yul\":1057:1176   */\n      iszero\n      tag_276\n      jumpi\n        /* \"#utility.yul\":1095:1174   */\n      tag_277\n      tag_213\n      jump\t// in\n    tag_277:\n        /* \"#utility.yul\":1057:1176   */\n    tag_276:\n        /* \"#utility.yul\":1215:1216   */\n      0x00\n        /* \"#utility.yul\":1240:1299   */\n      tag_278\n        /* \"#utility.yul\":1291:1298   */\n      dup6\n        /* \"#utility.yul\":1282:1288   */\n      dup3\n        /* \"#utility.yul\":1271:1280   */\n      dup7\n        /* \"#utility.yul\":1267:1289   */\n      add\n        /* \"#utility.yul\":1240:1299   */\n      tag_216\n      jump\t// in\n    tag_278:\n        /* \"#utility.yul\":1230:1299   */\n      swap3\n      pop\n        /* \"#utility.yul\":1186:1309   */\n      pop\n        /* \"#utility.yul\":1348:1350   */\n      0x20\n        /* \"#utility.yul\":1374:1427   */\n      tag_279\n        /* \"#utility.yul\":1419:1426   */\n      dup6\n        /* \"#utility.yul\":1410:1416   */\n      dup3\n        /* \"#utility.yul\":1399:1408   */\n      dup7\n        /* \"#utility.yul\":1395:1417   */\n      add\n        /* \"#utility.yul\":1374:1427   */\n      tag_219\n      jump\t// in\n    tag_279:\n        /* \"#utility.yul\":1364:1427   */\n      swap2\n      pop\n        /* \"#utility.yul\":1319:1437   */\n      pop\n        /* \"#utility.yul\":958:1444   */\n      swap3\n      pop\n      swap3\n      swap1\n      pop\n      jump\t// out\n        /* \"#utility.yul\":1450:1576   */\n    tag_220:\n        /* \"#utility.yul\":1487:1494   */\n      0x00\n        /* \"#utility.yul\":1527:1569   */\n      0xffffffffffffffffffffffffffffffffffffffff\n        /* \"#utility.yul\":1520:1525   */\n      dup3\n        /* \"#utility.yul\":1516:1570   */\n      and\n        /* \"#utility.yul\":1505:1570   */\n      swap1\n      pop\n        /* \"#utility.yul\":1450:1576   */\n      swap2\n      swap1\n      pop\n      jump\t// out\n        /* \"#utility.yul\":1582:1678   */\n    tag_221:\n        /* \"#utility.yul\":1619:1626   */\n      0x00\n        /* \"#utility.yul\":1648:1672   */\n      tag_282\n        /* \"#utility.yul\":1666:1671   */\n      dup3\n        /* \"#utility.yul\":1648:1672   */\n      tag_220\n      jump\t// in\n    tag_282:\n        /* \"#utility.yul\":1637:1672   */\n      swap1\n      pop\n        /* \"#utility.yul\":1582:1678   */\n      swap2\n      swap1\n      pop\n      jump\t// out\n        /* \"#utility.yul\":1684:1806   */\n    tag_222:\n        /* \"#utility.yul\":1757:1781   */\n      tag_284\n        /* \"#utility.yul\":1775:1780   */\n      dup2\n        /* \"#utility.yul\":1757:1781   */\n      tag_221\n      jump\t// in\n    tag_284:\n        /* \"#utility.yul\":1750:1755   */\n      dup2\n        /* \"#utility.yul\":1747:1782   */\n      eq\n        /* \"#utility.yul\":1737:1800   */\n      tag_285\n      jumpi\n        /* \"#utility.yul\":1796:1797   */\n      0x00\n        /* \"#utility.yul\":1793:1794   */\n      dup1\n        /* \"#utility.yul\":1786:1798   */\n      revert\n        /* \"#utility.yul\":1737:1800   */\n    tag_285:\n        /* \"#utility.yul\":1684:1806   */\n      pop\n      jump\t// out\n        /* \"#utility.yul\":1812:1951   */\n    tag_223:\n        /* \"#utility.yul\":1858:1863   */\n      0x00\n        /* \"#utility.yul\":1896:1902   */\n      dup2\n        /* \"#utility.yul\":1883:1903   */\n      calldataload\n        /* \"#utility.yul\":1874:1903   */\n      swap1\n      pop\n        /* \"#utility.yul\":1912:1945   */\n      tag_287\n        /* \"#utility.yul\":1939:1944   */\n      dup2\n        /* \"#utility.yul\":1912:1945   */\n      tag_222\n      jump\t// in\n    tag_287:\n        /* \"#utility.yul\":1812:1951   */\n      swap3\n      swap2\n      pop\n      pop\n      jump\t// out\n        /* \"#utility.yul\":1957:2286   */\n    tag_27:\n        /* \"#utility.yul\":2016:2022   */\n      0x00\n        /* \"#utility.yul\":2065:2067   */\n      0x20\n        /* \"#utility.yul\":2053:2062   */\n      dup3\n        /* \"#utility.yul\":2044:2051   */\n      dup5\n        /* \"#utility.yul\":2040:2063   */\n      sub\n        /* \"#utility.yul\":2036:2068   */\n      slt\n        /* \"#utility.yul\":2033:2152   */\n      iszero\n      tag_289\n      jumpi\n        /* \"#utility.yul\":2071:2150   */\n      tag_290\n      tag_213\n      jump\t// in\n    tag_290:\n        /* \"#utility.yul\":2033:2152   */\n    tag_289:\n        /* \"#utility.yul\":2191:2192   */\n      0x00\n        /* \"#utility.yul\":2216:2269   */\n      tag_291\n        /* \"#utility.yul\":2261:2268   */\n      dup5\n        /* \"#utility.yul\":2252:2258   */\n      dup3\n        /* \"#utility.yul\":2241:2250   */\n      dup6\n        /* \"#utility.yul\":2237:2259   */\n      add\n        /* \"#utility.yul\":2216:2269   */\n      tag_223\n      jump\t// in\n    tag_291:\n        /* \"#utility.yul\":2206:2269   */\n      swap2\n      pop\n        /* \"#utility.yul\":2162:2279   */\n      pop\n        /* \"#utility.yul\":1957:2286   */\n      swap3\n      swap2\n      pop\n      pop\n      jump\t// out\n        /* \"#utility.yul\":2292:2410   */\n    tag_224:\n        /* \"#utility.yul\":2379:2403   */\n      tag_293\n        /* \"#utility.yul\":2397:2402   */\n      dup2\n        /* \"#utility.yul\":2379:2403   */\n      tag_217\n      jump\t// in\n    tag_293:\n        /* \"#utility.yul\":2374:2377   */\n      dup3\n        /* \"#utility.yul\":2367:2404   */\n      mstore\n        /* \"#utility.yul\":2292:2410   */\n      pop\n      pop\n      jump\t// out\n        /* \"#utility.yul\":2416:2638   */\n    tag_30:\n        /* \"#utility.yul\":2509:2513   */\n      0x00\n        /* \"#utility.yul\":2547:2549   */\n      0x20\n        /* \"#utility.yul\":2536:2545   */\n      dup3\n        /* \"#utility.yul\":2532:2550   */\n      add\n        /* \"#utility.yul\":2524:2550   */\n      swap1\n      pop\n        /* \"#utility.yul\":2560:2631   */\n      tag_295\n        /* \"#utility.yul\":2628:2629   */\n      0x00\n        /* \"#utility.yul\":2617:2626   */\n      dup4\n        /* \"#utility.yul\":2613:2630   */\n      add\n        /* \"#utility.yul\":2604:2610   */\n      dup5\n        /* \"#utility.yul\":2560:2631   */\n      tag_224\n      jump\t// in\n    tag_295:\n        /* \"#utility.yul\":2416:2638   */\n      swap3\n      swap2\n      pop\n      pop\n      jump\t// out\n        /* \"#utility.yul\":2644:2721   */\n    tag_225:\n        /* \"#utility.yul\":2681:2688   */\n      0x00\n        /* \"#utility.yul\":2710:2715   */\n      dup2\n        /* \"#utility.yul\":2699:2715   */\n      swap1\n      pop\n        /* \"#utility.yul\":2644:2721   */\n      swap2\n      swap1\n      pop\n      jump\t// out\n        /* \"#utility.yul\":2727:2845   */\n    tag_226:\n        /* \"#utility.yul\":2814:2838   */\n      tag_298\n        /* \"#utility.yul\":2832:2837   */\n      dup2\n        /* \"#utility.yul\":2814:2838   */\n      tag_225\n      jump\t// in\n    tag_298:\n        /* \"#utility.yul\":2809:2812   */\n      dup3\n        /* \"#utility.yul\":2802:2839   */\n      mstore\n        /* \"#utility.yul\":2727:2845   */\n      pop\n      pop\n      jump\t// out\n        /* \"#utility.yul\":2851:3073   */\n    tag_42:\n        /* \"#utility.yul\":2944:2948   */\n      0x00\n        /* \"#utility.yul\":2982:2984   */\n      0x20\n        /* \"#utility.yul\":2971:2980   */\n      dup3\n        /* \"#utility.yul\":2967:2985   */\n      add\n        /* \"#utility.yul\":2959:2985   */\n      swap1\n      pop\n        /* \"#utility.yul\":2995:3066   */\n      tag_300\n        /* \"#utility.yul\":3063:3064   */\n      0x00\n        /* \"#utility.yul\":3052:3061   */\n      dup4\n        /* \"#utility.yul\":3048:3065   */\n      add\n        /* \"#utility.yul\":3039:3045   */\n      dup5\n        /* \"#utility.yul\":2995:3066   */\n      tag_226\n      jump\t// in\n    tag_300:\n        /* \"#utility.yul\":2851:3073   */\n      swap3\n      swap2\n      pop\n      pop\n      jump\t// out\n        /* \"#utility.yul\":3079:3197   */\n    tag_227:\n        /* \"#utility.yul\":3166:3190   */\n      tag_302\n        /* \"#utility.yul\":3184:3189   */\n      dup2\n        /* \"#utility.yul\":3166:3190   */\n      tag_221\n      jump\t// in\n    tag_302:\n        /* \"#utility.yul\":3161:3164   */\n      dup3\n        /* \"#utility.yul\":3154:3191   */\n      mstore\n        /* \"#utility.yul\":3079:3197   */\n      pop\n      pop\n      jump\t// out\n        /* \"#utility.yul\":3203:3425   */\n    tag_47:\n        /* \"#utility.yul\":3296:3300   */\n      0x00\n        /* \"#utility.yul\":3334:3336   */\n      0x20\n        /* \"#utility.yul\":3323:3332   */\n      dup3\n        /* \"#utility.yul\":3319:3337   */\n      add\n        /* \"#utility.yul\":3311:3337   */\n      swap1\n      pop\n        /* \"#utility.yul\":3347:3418   */\n      tag_304\n        /* \"#utility.yul\":3415:3416   */\n      0x00\n        /* \"#utility.yul\":3404:3413   */\n      dup4\n        /* \"#utility.yul\":3400:3417   */\n      add\n        /* \"#utility.yul\":3391:3397   */\n      dup5\n        /* \"#utility.yul\":3347:3418   */\n      tag_227\n      jump\t// in\n    tag_304:\n        /* \"#utility.yul\":3203:3425   */\n      swap3\n      swap2\n      pop\n      pop\n      jump\t// out\n        /* \"#utility.yul\":3431:3611   */\n    tag_95:\n        /* \"#utility.yul\":3479:3556   */\n      0x4e487b7100000000000000000000000000000000000000000000000000000000\n        /* \"#utility.yul\":3476:3477   */\n      0x00\n        /* \"#utility.yul\":3469:3557   */\n      mstore\n        /* \"#utility.yul\":3576:3580   */\n      0x21\n        /* \"#utility.yul\":3573:3574   */\n      0x04\n        /* \"#utility.yul\":3566:3581   */\n      mstore\n        /* \"#utility.yul\":3600:3604   */\n      0x24\n        /* \"#utility.yul\":3597:3598   */\n      0x00\n        /* \"#utility.yul\":3590:3605   */\n      revert\n        /* \"#utility.yul\":3617:3728   */\n    tag_228:\n        /* \"#utility.yul\":3696:3697   */\n      0x04\n        /* \"#utility.yul\":3689:3694   */\n      dup2\n        /* \"#utility.yul\":3686:3698   */\n      lt\n        /* \"#utility.yul\":3676:3722   */\n      tag_307\n      jumpi\n        /* \"#utility.yul\":3702:3720   */\n      tag_308\n      tag_95\n      jump\t// in\n    tag_308:\n        /* \"#utility.yul\":3676:3722   */\n    tag_307:\n        /* \"#utility.yul\":3617:3728   */\n      pop\n      jump\t// out\n        /* \"#utility.yul\":3734:3857   */\n    tag_229:\n        /* \"#utility.yul\":3777:3784   */\n      0x00\n        /* \"#utility.yul\":3806:3811   */\n      dup2\n        /* \"#utility.yul\":3795:3811   */\n      swap1\n      pop\n        /* \"#utility.yul\":3812:3851   */\n      tag_310\n        /* \"#utility.yul\":3845:3850   */\n      dup3\n        /* \"#utility.yul\":3812:3851   */\n      tag_228\n      jump\t// in\n    tag_310:\n        /* \"#utility.yul\":3734:3857   */\n      swap2\n      swap1\n      pop\n      jump\t// out\n        /* \"#utility.yul\":3863:3986   */\n    tag_230:\n        /* \"#utility.yul\":3917:3926   */\n      0x00\n        /* \"#utility.yul\":3950:3980   */\n      tag_312\n        /* \"#utility.yul\":3974:3979   */\n      dup3\n        /* \"#utility.yul\":3950:3980   */\n      tag_229\n      jump\t// in\n    tag_312:\n        /* \"#utility.yul\":3937:3980   */\n      swap1\n      pop\n        /* \"#utility.yul\":3863:3986   */\n      swap2\n      swap1\n      pop\n      jump\t// out\n        /* \"#utility.yul\":3992:4131   */\n    tag_231:\n        /* \"#utility.yul\":4083:4124   */\n      tag_314\n        /* \"#utility.yul\":4118:4123   */\n      dup2\n        /* \"#utility.yul\":4083:4124   */\n      tag_230\n      jump\t// in\n    tag_314:\n        /* \"#utility.yul\":4078:4081   */\n      dup3\n        /* \"#utility.yul\":4071:4125   */\n      mstore\n        /* \"#utility.yul\":3992:4131   */\n      pop\n      pop\n      jump\t// out\n        /* \"#utility.yul\":4137:4367   */\n    tag_52:\n        /* \"#utility.yul\":4234:4238   */\n      0x00\n        /* \"#utility.yul\":4272:4274   */\n      0x20\n        /* \"#utility.yul\":4261:4270   */\n      dup3\n        /* \"#utility.yul\":4257:4275   */\n      add\n        /* \"#utility.yul\":4249:4275   */\n      swap1\n      pop\n        /* \"#utility.yul\":4285:4360   */\n      tag_316\n        /* \"#utility.yul\":4357:4358   */\n      0x00\n        /* \"#utility.yul\":4346:4355   */\n      dup4\n        /* \"#utility.yul\":4342:4359   */\n      add\n        /* \"#utility.yul\":4333:4339   */\n      dup5\n        /* \"#utility.yul\":4285:4360   */\n      tag_231\n      jump\t// in\n    tag_316:\n        /* \"#utility.yul\":4137:4367   */\n      swap3\n      swap2\n      pop\n      pop\n      jump\t// out\n        /* \"#utility.yul\":4373:4495   */\n    tag_232:\n        /* \"#utility.yul\":4446:4470   */\n      tag_318\n        /* \"#utility.yul\":4464:4469   */\n      dup2\n        /* \"#utility.yul\":4446:4470   */\n      tag_225\n      jump\t// in\n    tag_318:\n        /* \"#utility.yul\":4439:4444   */\n      dup2\n        /* \"#utility.yul\":4436:4471   */\n      eq\n        /* \"#utility.yul\":4426:4489   */\n      tag_319\n      jumpi\n        /* \"#utility.yul\":4485:4486   */\n      0x00\n        /* \"#utility.yul\":4482:4483   */\n      dup1\n        /* \"#utility.yul\":4475:4487   */\n      revert\n        /* \"#utility.yul\":4426:4489   */\n    tag_319:\n        /* \"#utility.yul\":4373:4495   */\n      pop\n      jump\t// out\n        /* \"#utility.yul\":4501:4640   */\n    tag_233:\n        /* \"#utility.yul\":4547:4552   */\n      0x00\n        /* \"#utility.yul\":4585:4591   */\n      dup2\n        /* \"#utility.yul\":4572:4592   */\n      calldataload\n        /* \"#utility.yul\":4563:4592   */\n      swap1\n      pop\n        /* \"#utility.yul\":4601:4634   */\n      tag_321\n        /* \"#utility.yul\":4628:4633   */\n      dup2\n        /* \"#utility.yul\":4601:4634   */\n      tag_232\n      jump\t// in\n    tag_321:\n        /* \"#utility.yul\":4501:4640   */\n      swap3\n      swap2\n      pop\n      pop\n      jump\t// out\n        /* \"#utility.yul\":4646:4975   */\n    tag_59:\n        /* \"#utility.yul\":4705:4711   */\n      0x00\n        /* \"#utility.yul\":4754:4756   */\n      0x20\n        /* \"#utility.yul\":4742:4751   */\n      dup3\n        /* \"#utility.yul\":4733:4740   */\n      dup5\n        /* \"#utility.yul\":4729:4752   */\n      sub\n        /* \"#utility.yul\":4725:4757   */\n      slt\n        /* \"#utility.yul\":4722:4841   */\n      iszero\n      tag_323\n      jumpi\n        /* \"#utility.yul\":4760:4839   */\n      tag_324\n      tag_213\n      jump\t// in\n    tag_324:\n        /* \"#utility.yul\":4722:4841   */\n    tag_323:\n        /* \"#utility.yul\":4880:4881   */\n      0x00\n        /* \"#utility.yul\":4905:4958   */\n      tag_325\n        /* \"#utility.yul\":4950:4957   */\n      dup5\n        /* \"#utility.yul\":4941:4947   */\n      dup3\n        /* \"#utility.yul\":4930:4939   */\n      dup6\n        /* \"#utility.yul\":4926:4948   */\n      add\n        /* \"#utility.yul\":4905:4958   */\n      tag_233\n      jump\t// in\n    tag_325:\n        /* \"#utility.yul\":4895:4958   */\n      swap2\n      pop\n        /* \"#utility.yul\":4851:4968   */\n      pop\n        /* \"#utility.yul\":4646:4975   */\n      swap3\n      swap2\n      pop\n      pop\n      jump\t// out\n        /* \"#utility.yul\":4981:5150   */\n    tag_234:\n        /* \"#utility.yul\":5065:5076   */\n      0x00\n        /* \"#utility.yul\":5099:5105   */\n      dup3\n        /* \"#utility.yul\":5094:5097   */\n      dup3\n        /* \"#utility.yul\":5087:5106   */\n      mstore\n        /* \"#utility.yul\":5139:5143   */\n      0x20\n        /* \"#utility.yul\":5134:5137   */\n      dup3\n        /* \"#utility.yul\":5130:5144   */\n      add\n        /* \"#utility.yul\":5115:5144   */\n      swap1\n      pop\n        /* \"#utility.yul\":4981:5150   */\n      swap3\n      swap2\n      pop\n      pop\n      jump\t// out\n        /* \"#utility.yul\":5156:5337   */\n    tag_235:\n        /* \"#utility.yul\":5296:5329   */\n      0x52657665616c2074696d65206861732062656e206f7665727374657070656400\n        /* \"#utility.yul\":5292:5293   */\n      0x00\n        /* \"#utility.yul\":5284:5290   */\n      dup3\n        /* \"#utility.yul\":5280:5294   */\n      add\n        /* \"#utility.yul\":5273:5330   */\n      mstore\n        /* \"#utility.yul\":5156:5337   */\n      pop\n      jump\t// out\n        /* \"#utility.yul\":5343:5709   */\n    tag_236:\n        /* \"#utility.yul\":5485:5488   */\n      0x00\n        /* \"#utility.yul\":5506:5573   */\n      tag_329\n        /* \"#utility.yul\":5570:5572   */\n      0x1f\n        /* \"#utility.yul\":5565:5568   */\n      dup4\n        /* \"#utility.yul\":5506:5573   */\n      tag_234\n      jump\t// in\n    tag_329:\n        /* \"#utility.yul\":5499:5573   */\n      swap2\n      pop\n        /* \"#utility.yul\":5582:5675   */\n      tag_330\n        /* \"#utility.yul\":5671:5674   */\n      dup3\n        /* \"#utility.yul\":5582:5675   */\n      tag_235\n      jump\t// in\n    tag_330:\n        /* \"#utility.yul\":5700:5702   */\n      0x20\n        /* \"#utility.yul\":5695:5698   */\n      dup3\n        /* \"#utility.yul\":5691:5703   */\n      add\n        /* \"#utility.yul\":5684:5703   */\n      swap1\n      pop\n        /* \"#utility.yul\":5343:5709   */\n      swap2\n      swap1\n      pop\n      jump\t// out\n        /* \"#utility.yul\":5715:6134   */\n    tag_84:\n        /* \"#utility.yul\":5881:5885   */\n      0x00\n        /* \"#utility.yul\":5919:5921   */\n      0x20\n        /* \"#utility.yul\":5908:5917   */\n      dup3\n        /* \"#utility.yul\":5904:5922   */\n      add\n        /* \"#utility.yul\":5896:5922   */\n      swap1\n      pop\n        /* \"#utility.yul\":5968:5977   */\n      dup2\n        /* \"#utility.yul\":5962:5966   */\n      dup2\n        /* \"#utility.yul\":5958:5978   */\n      sub\n        /* \"#utility.yul\":5954:5955   */\n      0x00\n        /* \"#utility.yul\":5943:5952   */\n      dup4\n        /* \"#utility.yul\":5939:5956   */\n      add\n        /* \"#utility.yul\":5932:5979   */\n      mstore\n        /* \"#utility.yul\":5996:6127   */\n      tag_332\n        /* \"#utility.yul\":6122:6126   */\n      dup2\n        /* \"#utility.yul\":5996:6127   */\n      tag_236\n      jump\t// in\n    tag_332:\n        /* \"#utility.yul\":5988:6127   */\n      swap1\n      pop\n        /* \"#utility.yul\":5715:6134   */\n      swap2\n      swap1\n      pop\n      jump\t// out\n        /* \"#utility.yul\":6140:6302   */\n    tag_237:\n        /* \"#utility.yul\":6280:6294   */\n      0x6e6f74206120706c617965720000000000000000000000000000000000000000\n        /* \"#utility.yul\":6276:6277   */\n      0x00\n        /* \"#utility.yul\":6268:6274   */\n      dup3\n        /* \"#utility.yul\":6264:6278   */\n      add\n        /* \"#utility.yul\":6257:6295   */\n      mstore\n        /* \"#utility.yul\":6140:6302   */\n      pop\n      jump\t// out\n        /* \"#utility.yul\":6308:6674   */\n    tag_238:\n        /* \"#utility.yul\":6450:6453   */\n      0x00\n        /* \"#utility.yul\":6471:6538   */\n      tag_335\n        /* \"#utility.yul\":6535:6537   */\n      0x0c\n        /* \"#utility.yul\":6530:6533   */\n      dup4\n        /* \"#utility.yul\":6471:6538   */\n      tag_234\n      jump\t// in\n    tag_335:\n        /* \"#utility.yul\":6464:6538   */\n      swap2\n      pop\n        /* \"#utility.yul\":6547:6640   */\n      tag_336\n        /* \"#utility.yul\":6636:6639   */\n      dup3\n        /* \"#utility.yul\":6547:6640   */\n      tag_237\n      jump\t// in\n    tag_336:\n        /* \"#utility.yul\":6665:6667   */\n      0x20\n        /* \"#utility.yul\":6660:6663   */\n      dup3\n        /* \"#utility.yul\":6656:6668   */\n      add\n        /* \"#utility.yul\":6649:6668   */\n      swap1\n      pop\n        /* \"#utility.yul\":6308:6674   */\n      swap2\n      swap1\n      pop\n      jump\t// out\n        /* \"#utility.yul\":6680:7099   */\n    tag_88:\n        /* \"#utility.yul\":6846:6850   */\n      0x00\n        /* \"#utility.yul\":6884:6886   */\n      0x20\n        /* \"#utility.yul\":6873:6882   */\n      dup3\n        /* \"#utility.yul\":6869:6887   */\n      add\n        /* \"#utility.yul\":6861:6887   */\n      swap1\n      pop\n        /* \"#utility.yul\":6933:6942   */\n      dup2\n        /* \"#utility.yul\":6927:6931   */\n      dup2\n        /* \"#utility.yul\":6923:6943   */\n      sub\n        /* \"#utility.yul\":6919:6920   */\n      0x00\n        /* \"#utility.yul\":6908:6917   */\n      dup4\n        /* \"#utility.yul\":6904:6921   */\n      add\n        /* \"#utility.yul\":6897:6944   */\n      mstore\n        /* \"#utility.yul\":6961:7092   */\n      tag_338\n        /* \"#utility.yul\":7087:7091   */\n      dup2\n        /* \"#utility.yul\":6961:7092   */\n      tag_238\n      jump\t// in\n    tag_338:\n        /* \"#utility.yul\":6953:7092   */\n      swap1\n      pop\n        /* \"#utility.yul\":6680:7099   */\n      swap2\n      swap1\n      pop\n      jump\t// out\n        /* \"#utility.yul\":7105:7282   */\n    tag_239:\n        /* \"#utility.yul\":7245:7274   */\n      0x736f6d656f6e65206469646e7420636f6d6d6974206120686173680000000000\n        /* \"#utility.yul\":7241:7242   */\n      0x00\n        /* \"#utility.yul\":7233:7239   */\n      dup3\n        /* \"#utility.yul\":7229:7243   */\n      add\n        /* \"#utility.yul\":7222:7275   */\n      mstore\n        /* \"#utility.yul\":7105:7282   */\n      pop\n      jump\t// out\n        /* \"#utility.yul\":7288:7654   */\n    tag_240:\n        /* \"#utility.yul\":7430:7433   */\n      0x00\n        /* \"#utility.yul\":7451:7518   */\n      tag_341\n        /* \"#utility.yul\":7515:7517   */\n      0x1b\n        /* \"#utility.yul\":7510:7513   */\n      dup4\n        /* \"#utility.yul\":7451:7518   */\n      tag_234\n      jump\t// in\n    tag_341:\n        /* \"#utility.yul\":7444:7518   */\n      swap2\n      pop\n        /* \"#utility.yul\":7527:7620   */\n      tag_342\n        /* \"#utility.yul\":7616:7619   */\n      dup3\n        /* \"#utility.yul\":7527:7620   */\n      tag_239\n      jump\t// in\n    tag_342:\n        /* \"#utility.yul\":7645:7647   */\n      0x20\n        /* \"#utility.yul\":7640:7643   */\n      dup3\n        /* \"#utility.yul\":7636:7648   */\n      add\n        /* \"#utility.yul\":7629:7648   */\n      swap1\n      pop\n        /* \"#utility.yul\":7288:7654   */\n      swap2\n      swap1\n      pop\n      jump\t// out\n        /* \"#utility.yul\":7660:8079   */\n    tag_92:\n        /* \"#utility.yul\":7826:7830   */\n      0x00\n        /* \"#utility.yul\":7864:7866   */\n      0x20\n        /* \"#utility.yul\":7853:7862   */\n      dup3\n        /* \"#utility.yul\":7849:7867   */\n      add\n        /* \"#utility.yul\":7841:7867   */\n      swap1\n      pop\n        /* \"#utility.yul\":7913:7922   */\n      dup2\n        /* \"#utility.yul\":7907:7911   */\n      dup2\n        /* \"#utility.yul\":7903:7923   */\n      sub\n        /* \"#utility.yul\":7899:7900   */\n      0x00\n        /* \"#utility.yul\":7888:7897   */\n      dup4\n        /* \"#utility.yul\":7884:7901   */\n      add\n        /* \"#utility.yul\":7877:7924   */\n      mstore\n        /* \"#utility.yul\":7941:8072   */\n      tag_344\n        /* \"#utility.yul\":8067:8071   */\n      dup2\n        /* \"#utility.yul\":7941:8072   */\n      tag_240\n      jump\t// in\n    tag_344:\n        /* \"#utility.yul\":7933:8072   */\n      swap1\n      pop\n        /* \"#utility.yul\":7660:8079   */\n      swap2\n      swap1\n      pop\n      jump\t// out\n        /* \"#utility.yul\":8085:8318   */\n    tag_241:\n        /* \"#utility.yul\":8225:8259   */\n      0x6861766520746f2063686f6f7365206265747765656e20526f636b2c20506170\n        /* \"#utility.yul\":8221:8222   */\n      0x00\n        /* \"#utility.yul\":8213:8219   */\n      dup3\n        /* \"#utility.yul\":8209:8223   */\n      add\n        /* \"#utility.yul\":8202:8260   */\n      mstore\n        /* \"#utility.yul\":8294:8310   */\n      0x657220616e642053636973736f72000000000000000000000000000000000000\n        /* \"#utility.yul\":8289:8291   */\n      0x20\n        /* \"#utility.yul\":8281:8287   */\n      dup3\n        /* \"#utility.yul\":8277:8292   */\n      add\n        /* \"#utility.yul\":8270:8311   */\n      mstore\n        /* \"#utility.yul\":8085:8318   */\n      pop\n      jump\t// out\n        /* \"#utility.yul\":8324:8690   */\n    tag_242:\n        /* \"#utility.yul\":8466:8469   */\n      0x00\n        /* \"#utility.yul\":8487:8554   */\n      tag_347\n        /* \"#utility.yul\":8551:8553   */\n      0x2e\n        /* \"#utility.yul\":8546:8549   */\n      dup4\n        /* \"#utility.yul\":8487:8554   */\n      tag_234\n      jump\t// in\n    tag_347:\n        /* \"#utility.yul\":8480:8554   */\n      swap2\n      pop\n        /* \"#utility.yul\":8563:8656   */\n      tag_348\n        /* \"#utility.yul\":8652:8655   */\n      dup3\n        /* \"#utility.yul\":8563:8656   */\n      tag_241\n      jump\t// in\n    tag_348:\n        /* \"#utility.yul\":8681:8683   */\n      0x40\n        /* \"#utility.yul\":8676:8679   */\n      dup3\n        /* \"#utility.yul\":8672:8684   */\n      add\n        /* \"#utility.yul\":8665:8684   */\n      swap1\n      pop\n        /* \"#utility.yul\":8324:8690   */\n      swap2\n      swap1\n      pop\n      jump\t// out\n        /* \"#utility.yul\":8696:9115   */\n    tag_100:\n        /* \"#utility.yul\":8862:8866   */\n      0x00\n        /* \"#utility.yul\":8900:8902   */\n      0x20\n        /* \"#utility.yul\":8889:8898   */\n      dup3\n        /* \"#utility.yul\":8885:8903   */\n      add\n        /* \"#utility.yul\":8877:8903   */\n      swap1\n      pop\n        /* \"#utility.yul\":8949:8958   */\n      dup2\n        /* \"#utility.yul\":8943:8947   */\n      dup2\n        /* \"#utility.yul\":8939:8959   */\n      sub\n        /* \"#utility.yul\":8935:8936   */\n      0x00\n        /* \"#utility.yul\":8924:8933   */\n      dup4\n        /* \"#utility.yul\":8920:8937   */\n      add\n        /* \"#utility.yul\":8913:8960   */\n      mstore\n        /* \"#utility.yul\":8977:9108   */\n      tag_350\n        /* \"#utility.yul\":9103:9107   */\n      dup2\n        /* \"#utility.yul\":8977:9108   */\n      tag_242\n      jump\t// in\n    tag_350:\n        /* \"#utility.yul\":8969:9108   */\n      swap1\n      pop\n        /* \"#utility.yul\":8696:9115   */\n      swap2\n      swap1\n      pop\n      jump\t// out\n        /* \"#utility.yul\":9121:9217   */\n    tag_243:\n        /* \"#utility.yul\":9155:9163   */\n      0x00\n        /* \"#utility.yul\":9204:9209   */\n      dup2\n        /* \"#utility.yul\":9199:9202   */\n      0xf8\n        /* \"#utility.yul\":9195:9210   */\n      shl\n        /* \"#utility.yul\":9174:9210   */\n      swap1\n      pop\n        /* \"#utility.yul\":9121:9217   */\n      swap2\n      swap1\n      pop\n      jump\t// out\n        /* \"#utility.yul\":9223:9316   */\n    tag_244:\n        /* \"#utility.yul\":9260:9267   */\n      0x00\n        /* \"#utility.yul\":9289:9310   */\n      tag_353\n        /* \"#utility.yul\":9304:9309   */\n      dup3\n        /* \"#utility.yul\":9289:9310   */\n      tag_243\n      jump\t// in\n    tag_353:\n        /* \"#utility.yul\":9278:9310   */\n      swap1\n      pop\n        /* \"#utility.yul\":9223:9316   */\n      swap2\n      swap1\n      pop\n      jump\t// out\n        /* \"#utility.yul\":9322:9498   */\n    tag_245:\n        /* \"#utility.yul\":9431:9491   */\n      tag_355\n        /* \"#utility.yul\":9449:9490   */\n      tag_356\n        /* \"#utility.yul\":9484:9489   */\n      dup3\n        /* \"#utility.yul\":9449:9490   */\n      tag_230\n      jump\t// in\n    tag_356:\n        /* \"#utility.yul\":9431:9491   */\n      tag_244\n      jump\t// in\n    tag_355:\n        /* \"#utility.yul\":9426:9429   */\n      dup3\n        /* \"#utility.yul\":9419:9492   */\n      mstore\n        /* \"#utility.yul\":9322:9498   */\n      pop\n      pop\n      jump\t// out\n        /* \"#utility.yul\":9504:9583   */\n    tag_246:\n        /* \"#utility.yul\":9543:9550   */\n      0x00\n        /* \"#utility.yul\":9572:9577   */\n      dup2\n        /* \"#utility.yul\":9561:9577   */\n      swap1\n      pop\n        /* \"#utility.yul\":9504:9583   */\n      swap2\n      swap1\n      pop\n      jump\t// out\n        /* \"#utility.yul\":9589:9746   */\n    tag_247:\n        /* \"#utility.yul\":9694:9739   */\n      tag_359\n        /* \"#utility.yul\":9714:9738   */\n      tag_360\n        /* \"#utility.yul\":9732:9737   */\n      dup3\n        /* \"#utility.yul\":9714:9738   */\n      tag_217\n      jump\t// in\n    tag_360:\n        /* \"#utility.yul\":9694:9739   */\n      tag_246\n      jump\t// in\n    tag_359:\n        /* \"#utility.yul\":9689:9692   */\n      dup3\n        /* \"#utility.yul\":9682:9740   */\n      mstore\n        /* \"#utility.yul\":9589:9746   */\n      pop\n      pop\n      jump\t// out\n        /* \"#utility.yul\":9752:10156   */\n    tag_103:\n        /* \"#utility.yul\":9896:9899   */\n      0x00\n        /* \"#utility.yul\":9911:9990   */\n      tag_362\n        /* \"#utility.yul\":9986:9989   */\n      dup3\n        /* \"#utility.yul\":9977:9983   */\n      dup6\n        /* \"#utility.yul\":9911:9990   */\n      tag_245\n      jump\t// in\n    tag_362:\n        /* \"#utility.yul\":10015:10016   */\n      0x01\n        /* \"#utility.yul\":10010:10013   */\n      dup3\n        /* \"#utility.yul\":10006:10017   */\n      add\n        /* \"#utility.yul\":9999:10017   */\n      swap2\n      pop\n        /* \"#utility.yul\":10027:10102   */\n      tag_363\n        /* \"#utility.yul\":10098:10101   */\n      dup3\n        /* \"#utility.yul\":10089:10095   */\n      dup5\n        /* \"#utility.yul\":10027:10102   */\n      tag_247\n      jump\t// in\n    tag_363:\n        /* \"#utility.yul\":10127:10129   */\n      0x20\n        /* \"#utility.yul\":10122:10125   */\n      dup3\n        /* \"#utility.yul\":10118:10130   */\n      add\n        /* \"#utility.yul\":10111:10130   */\n      swap2\n      pop\n        /* \"#utility.yul\":10147:10150   */\n      dup2\n        /* \"#utility.yul\":10140:10150   */\n      swap1\n      pop\n        /* \"#utility.yul\":9752:10156   */\n      swap4\n      swap3\n      pop\n      pop\n      pop\n      jump\t// out\n        /* \"#utility.yul\":10162:10338   */\n    tag_248:\n        /* \"#utility.yul\":10302:10330   */\n      0x496e76616c696420636f6d6d697420666f7220706c6179657231000000000000\n        /* \"#utility.yul\":10298:10299   */\n      0x00\n        /* \"#utility.yul\":10290:10296   */\n      dup3\n        /* \"#utility.yul\":10286:10300   */\n      add\n        /* \"#utility.yul\":10279:10331   */\n      mstore\n        /* \"#utility.yul\":10162:10338   */\n      pop\n      jump\t// out\n        /* \"#utility.yul\":10344:10710   */\n    tag_249:\n        /* \"#utility.yul\":10486:10489   */\n      0x00\n        /* \"#utility.yul\":10507:10574   */\n      tag_366\n        /* \"#utility.yul\":10571:10573   */\n      0x1a\n        /* \"#utility.yul\":10566:10569   */\n      dup4\n        /* \"#utility.yul\":10507:10574   */\n      tag_234\n      jump\t// in\n    tag_366:\n        /* \"#utility.yul\":10500:10574   */\n      swap2\n      pop\n        /* \"#utility.yul\":10583:10676   */\n      tag_367\n        /* \"#utility.yul\":10672:10675   */\n      dup3\n        /* \"#utility.yul\":10583:10676   */\n      tag_248\n      jump\t// in\n    tag_367:\n        /* \"#utility.yul\":10701:10703   */\n      0x20\n        /* \"#utility.yul\":10696:10699   */\n      dup3\n        /* \"#utility.yul\":10692:10704   */\n      add\n        /* \"#utility.yul\":10685:10704   */\n      swap1\n      pop\n        /* \"#utility.yul\":10344:10710   */\n      swap2\n      swap1\n      pop\n      jump\t// out\n        /* \"#utility.yul\":10716:11135   */\n    tag_106:\n        /* \"#utility.yul\":10882:10886   */\n      0x00\n        /* \"#utility.yul\":10920:10922   */\n      0x20\n        /* \"#utility.yul\":10909:10918   */\n      dup3\n        /* \"#utility.yul\":10905:10923   */\n      add\n        /* \"#utility.yul\":10897:10923   */\n      swap1\n      pop\n        /* \"#utility.yul\":10969:10978   */\n      dup2\n        /* \"#utility.yul\":10963:10967   */\n      dup2\n        /* \"#utility.yul\":10959:10979   */\n      sub\n        /* \"#utility.yul\":10955:10956   */\n      0x00\n        /* \"#utility.yul\":10944:10953   */\n      dup4\n        /* \"#utility.yul\":10940:10957   */\n      add\n        /* \"#utility.yul\":10933:10980   */\n      mstore\n        /* \"#utility.yul\":10997:11128   */\n      tag_369\n        /* \"#utility.yul\":11123:11127   */\n      dup2\n        /* \"#utility.yul\":10997:11128   */\n      tag_249\n      jump\t// in\n    tag_369:\n        /* \"#utility.yul\":10989:11128   */\n      swap1\n      pop\n        /* \"#utility.yul\":10716:11135   */\n      swap2\n      swap1\n      pop\n      jump\t// out\n        /* \"#utility.yul\":11141:11317   */\n    tag_250:\n        /* \"#utility.yul\":11281:11309   */\n      0x496e76616c696420636f6d6d697420666f7220706c6179657232000000000000\n        /* \"#utility.yul\":11277:11278   */\n      0x00\n        /* \"#utility.yul\":11269:11275   */\n      dup3\n        /* \"#utility.yul\":11265:11279   */\n      add\n        /* \"#utility.yul\":11258:11310   */\n      mstore\n        /* \"#utility.yul\":11141:11317   */\n      pop\n      jump\t// out\n        /* \"#utility.yul\":11323:11689   */\n    tag_251:\n        /* \"#utility.yul\":11465:11468   */\n      0x00\n        /* \"#utility.yul\":11486:11553   */\n      tag_372\n        /* \"#utility.yul\":11550:11552   */\n      0x1a\n        /* \"#utility.yul\":11545:11548   */\n      dup4\n        /* \"#utility.yul\":11486:11553   */\n      tag_234\n      jump\t// in\n    tag_372:\n        /* \"#utility.yul\":11479:11553   */\n      swap2\n      pop\n        /* \"#utility.yul\":11562:11655   */\n      tag_373\n        /* \"#utility.yul\":11651:11654   */\n      dup3\n        /* \"#utility.yul\":11562:11655   */\n      tag_250\n      jump\t// in\n    tag_373:\n        /* \"#utility.yul\":11680:11682   */\n      0x20\n        /* \"#utility.yul\":11675:11678   */\n      dup3\n        /* \"#utility.yul\":11671:11683   */\n      add\n        /* \"#utility.yul\":11664:11683   */\n      swap1\n      pop\n        /* \"#utility.yul\":11323:11689   */\n      swap2\n      swap1\n      pop\n      jump\t// out\n        /* \"#utility.yul\":11695:12114   */\n    tag_113:\n        /* \"#utility.yul\":11861:11865   */\n      0x00\n        /* \"#utility.yul\":11899:11901   */\n      0x20\n        /* \"#utility.yul\":11888:11897   */\n      dup3\n        /* \"#utility.yul\":11884:11902   */\n      add\n        /* \"#utility.yul\":11876:11902   */\n      swap1\n      pop\n        /* \"#utility.yul\":11948:11957   */\n      dup2\n        /* \"#utility.yul\":11942:11946   */\n      dup2\n        /* \"#utility.yul\":11938:11958   */\n      sub\n        /* \"#utility.yul\":11934:11935   */\n      0x00\n        /* \"#utility.yul\":11923:11932   */\n      dup4\n        /* \"#utility.yul\":11919:11936   */\n      add\n        /* \"#utility.yul\":11912:11959   */\n      mstore\n        /* \"#utility.yul\":11976:12107   */\n      tag_375\n        /* \"#utility.yul\":12102:12106   */\n      dup2\n        /* \"#utility.yul\":11976:12107   */\n      tag_251\n      jump\t// in\n    tag_375:\n        /* \"#utility.yul\":11968:12107   */\n      swap1\n      pop\n        /* \"#utility.yul\":11695:12114   */\n      swap2\n      swap1\n      pop\n      jump\t// out\n        /* \"#utility.yul\":12120:12302   */\n    tag_252:\n        /* \"#utility.yul\":12260:12294   */\n      0x6174206c65617374206f6e6520706c61796572206469646e742063686f6f7365\n        /* \"#utility.yul\":12256:12257   */\n      0x00\n        /* \"#utility.yul\":12248:12254   */\n      dup3\n        /* \"#utility.yul\":12244:12258   */\n      add\n        /* \"#utility.yul\":12237:12295   */\n      mstore\n        /* \"#utility.yul\":12120:12302   */\n      pop\n      jump\t// out\n        /* \"#utility.yul\":12308:12674   */\n    tag_253:\n        /* \"#utility.yul\":12450:12453   */\n      0x00\n        /* \"#utility.yul\":12471:12538   */\n      tag_378\n        /* \"#utility.yul\":12535:12537   */\n      0x20\n        /* \"#utility.yul\":12530:12533   */\n      dup4\n        /* \"#utility.yul\":12471:12538   */\n      tag_234\n      jump\t// in\n    tag_378:\n        /* \"#utility.yul\":12464:12538   */\n      swap2\n      pop\n        /* \"#utility.yul\":12547:12640   */\n      tag_379\n        /* \"#utility.yul\":12636:12639   */\n      dup3\n        /* \"#utility.yul\":12547:12640   */\n      tag_252\n      jump\t// in\n    tag_379:\n        /* \"#utility.yul\":12665:12667   */\n      0x20\n        /* \"#utility.yul\":12660:12663   */\n      dup3\n        /* \"#utility.yul\":12656:12668   */\n      add\n        /* \"#utility.yul\":12649:12668   */\n      swap1\n      pop\n        /* \"#utility.yul\":12308:12674   */\n      swap2\n      swap1\n      pop\n      jump\t// out\n        /* \"#utility.yul\":12680:13099   */\n    tag_139:\n        /* \"#utility.yul\":12846:12850   */\n      0x00\n        /* \"#utility.yul\":12884:12886   */\n      0x20\n        /* \"#utility.yul\":12873:12882   */\n      dup3\n        /* \"#utility.yul\":12869:12887   */\n      add\n        /* \"#utility.yul\":12861:12887   */\n      swap1\n      pop\n        /* \"#utility.yul\":12933:12942   */\n      dup2\n        /* \"#utility.yul\":12927:12931   */\n      dup2\n        /* \"#utility.yul\":12923:12943   */\n      sub\n        /* \"#utility.yul\":12919:12920   */\n      0x00\n        /* \"#utility.yul\":12908:12917   */\n      dup4\n        /* \"#utility.yul\":12904:12921   */\n      add\n        /* \"#utility.yul\":12897:12944   */\n      mstore\n        /* \"#utility.yul\":12961:13092   */\n      tag_381\n        /* \"#utility.yul\":13087:13091   */\n      dup2\n        /* \"#utility.yul\":12961:13092   */\n      tag_253\n      jump\t// in\n    tag_381:\n        /* \"#utility.yul\":12953:13092   */\n      swap1\n      pop\n        /* \"#utility.yul\":12680:13099   */\n      swap2\n      swap1\n      pop\n      jump\t// out\n        /* \"#utility.yul\":13105:13285   */\n    tag_254:\n        /* \"#utility.yul\":13153:13230   */\n      0x4e487b7100000000000000000000000000000000000000000000000000000000\n        /* \"#utility.yul\":13150:13151   */\n      0x00\n        /* \"#utility.yul\":13143:13231   */\n      mstore\n        /* \"#utility.yul\":13250:13254   */\n      0x11\n        /* \"#utility.yul\":13247:13248   */\n      0x04\n        /* \"#utility.yul\":13240:13255   */\n      mstore\n        /* \"#utility.yul\":13274:13278   */\n      0x24\n        /* \"#utility.yul\":13271:13272   */\n      0x00\n        /* \"#utility.yul\":13264:13279   */\n      revert\n        /* \"#utility.yul\":13291:13482   */\n    tag_146:\n        /* \"#utility.yul\":13331:13334   */\n      0x00\n        /* \"#utility.yul\":13350:13370   */\n      tag_384\n        /* \"#utility.yul\":13368:13369   */\n      dup3\n        /* \"#utility.yul\":13350:13370   */\n      tag_217\n      jump\t// in\n    tag_384:\n        /* \"#utility.yul\":13345:13370   */\n      swap2\n      pop\n        /* \"#utility.yul\":13384:13404   */\n      tag_385\n        /* \"#utility.yul\":13402:13403   */\n      dup4\n        /* \"#utility.yul\":13384:13404   */\n      tag_217\n      jump\t// in\n    tag_385:\n        /* \"#utility.yul\":13379:13404   */\n      swap3\n      pop\n        /* \"#utility.yul\":13427:13428   */\n      dup3\n        /* \"#utility.yul\":13424:13425   */\n      dup3\n        /* \"#utility.yul\":13420:13429   */\n      add\n        /* \"#utility.yul\":13413:13429   */\n      swap1\n      pop\n        /* \"#utility.yul\":13448:13451   */\n      dup1\n        /* \"#utility.yul\":13445:13446   */\n      dup3\n        /* \"#utility.yul\":13442:13452   */\n      gt\n        /* \"#utility.yul\":13439:13475   */\n      iszero\n      tag_386\n      jumpi\n        /* \"#utility.yul\":13455:13473   */\n      tag_387\n      tag_254\n      jump\t// in\n    tag_387:\n        /* \"#utility.yul\":13439:13475   */\n    tag_386:\n        /* \"#utility.yul\":13291:13482   */\n      swap3\n      swap2\n      pop\n      pop\n      jump\t// out\n        /* \"#utility.yul\":13488:13660   */\n    tag_255:\n        /* \"#utility.yul\":13628:13652   */\n      0x4e6f2062616c616e636520746f20776974686472617700000000000000000000\n        /* \"#utility.yul\":13624:13625   */\n      0x00\n        /* \"#utility.yul\":13616:13622   */\n      dup3\n        /* \"#utility.yul\":13612:13626   */\n      add\n        /* \"#utility.yul\":13605:13653   */\n      mstore\n        /* \"#utility.yul\":13488:13660   */\n      pop\n      jump\t// out\n        /* \"#utility.yul\":13666:14032   */\n    tag_256:\n        /* \"#utility.yul\":13808:13811   */\n      0x00\n        /* \"#utility.yul\":13829:13896   */\n      tag_390\n        /* \"#utility.yul\":13893:13895   */\n      0x16\n        /* \"#utility.yul\":13888:13891   */\n      dup4\n        /* \"#utility.yul\":13829:13896   */\n      tag_234\n      jump\t// in\n    tag_390:\n        /* \"#utility.yul\":13822:13896   */\n      swap2\n      pop\n        /* \"#utility.yul\":13905:13998   */\n      tag_391\n        /* \"#utility.yul\":13994:13997   */\n      dup3\n        /* \"#utility.yul\":13905:13998   */\n      tag_255\n      jump\t// in\n    tag_391:\n        /* \"#utility.yul\":14023:14025   */\n      0x20\n        /* \"#utility.yul\":14018:14021   */\n      dup3\n        /* \"#utility.yul\":14014:14026   */\n      add\n        /* \"#utility.yul\":14007:14026   */\n      swap1\n      pop\n        /* \"#utility.yul\":13666:14032   */\n      swap2\n      swap1\n      pop\n      jump\t// out\n        /* \"#utility.yul\":14038:14457   */\n    tag_187:\n        /* \"#utility.yul\":14204:14208   */\n      0x00\n        /* \"#utility.yul\":14242:14244   */\n      0x20\n        /* \"#utility.yul\":14231:14240   */\n      dup3\n        /* \"#utility.yul\":14227:14245   */\n      add\n        /* \"#utility.yul\":14219:14245   */\n      swap1\n      pop\n        /* \"#utility.yul\":14291:14300   */\n      dup2\n        /* \"#utility.yul\":14285:14289   */\n      dup2\n        /* \"#utility.yul\":14281:14301   */\n      sub\n        /* \"#utility.yul\":14277:14278   */\n      0x00\n        /* \"#utility.yul\":14266:14275   */\n      dup4\n        /* \"#utility.yul\":14262:14279   */\n      add\n        /* \"#utility.yul\":14255:14302   */\n      mstore\n        /* \"#utility.yul\":14319:14450   */\n      tag_393\n        /* \"#utility.yul\":14445:14449   */\n      dup2\n        /* \"#utility.yul\":14319:14450   */\n      tag_256\n      jump\t// in\n    tag_393:\n        /* \"#utility.yul\":14311:14450   */\n      swap1\n      pop\n        /* \"#utility.yul\":14038:14457   */\n      swap2\n      swap1\n      pop\n      jump\t// out\n        /* \"#utility.yul\":14463:14691   */\n    tag_257:\n        /* \"#utility.yul\":14603:14637   */\n      0x65697468657220696e76616c696420706c61796572206f7220616c7265616479\n        /* \"#utility.yul\":14599:14600   */\n      0x00\n        /* \"#utility.yul\":14591:14597   */\n      dup3\n        /* \"#utility.yul\":14587:14601   */\n      add\n        /* \"#utility.yul\":14580:14638   */\n      mstore\n        /* \"#utility.yul\":14672:14683   */\n      0x20636f6d6d697465640000000000000000000000000000000000000000000000\n        /* \"#utility.yul\":14667:14669   */\n      0x20\n        /* \"#utility.yul\":14659:14665   */\n      dup3\n        /* \"#utility.yul\":14655:14670   */\n      add\n        /* \"#utility.yul\":14648:14684   */\n      mstore\n        /* \"#utility.yul\":14463:14691   */\n      pop\n      jump\t// out\n        /* \"#utility.yul\":14697:15063   */\n    tag_258:\n        /* \"#utility.yul\":14839:14842   */\n      0x00\n        /* \"#utility.yul\":14860:14927   */\n      tag_396\n        /* \"#utility.yul\":14924:14926   */\n      0x29\n        /* \"#utility.yul\":14919:14922   */\n      dup4\n        /* \"#utility.yul\":14860:14927   */\n      tag_234\n      jump\t// in\n    tag_396:\n        /* \"#utility.yul\":14853:14927   */\n      swap2\n      pop\n        /* \"#utility.yul\":14936:15029   */\n      tag_397\n        /* \"#utility.yul\":15025:15028   */\n      dup3\n        /* \"#utility.yul\":14936:15029   */\n      tag_257\n      jump\t// in\n    tag_397:\n        /* \"#utility.yul\":15054:15056   */\n      0x40\n        /* \"#utility.yul\":15049:15052   */\n      dup3\n        /* \"#utility.yul\":15045:15057   */\n      add\n        /* \"#utility.yul\":15038:15057   */\n      swap1\n      pop\n        /* \"#utility.yul\":14697:15063   */\n      swap2\n      swap1\n      pop\n      jump\t// out\n        /* \"#utility.yul\":15069:15488   */\n    tag_198:\n        /* \"#utility.yul\":15235:15239   */\n      0x00\n        /* \"#utility.yul\":15273:15275   */\n      0x20\n        /* \"#utility.yul\":15262:15271   */\n      dup3\n        /* \"#utility.yul\":15258:15276   */\n      add\n        /* \"#utility.yul\":15250:15276   */\n      swap1\n      pop\n        /* \"#utility.yul\":15322:15331   */\n      dup2\n        /* \"#utility.yul\":15316:15320   */\n      dup2\n        /* \"#utility.yul\":15312:15332   */\n      sub\n        /* \"#utility.yul\":15308:15309   */\n      0x00\n        /* \"#utility.yul\":15297:15306   */\n      dup4\n        /* \"#utility.yul\":15293:15310   */\n      add\n        /* \"#utility.yul\":15286:15333   */\n      mstore\n        /* \"#utility.yul\":15350:15481   */\n      tag_399\n        /* \"#utility.yul\":15476:15480   */\n      dup2\n        /* \"#utility.yul\":15350:15481   */\n      tag_258\n      jump\t// in\n    tag_399:\n        /* \"#utility.yul\":15342:15481   */\n      swap1\n      pop\n        /* \"#utility.yul\":15069:15488   */\n      swap2\n      swap1\n      pop\n      jump\t// out\n        /* \"#utility.yul\":15494:15671   */\n    tag_259:\n        /* \"#utility.yul\":15634:15663   */\n      0x4e656564203120657468657220746f2070617274696369706174650000000000\n        /* \"#utility.yul\":15630:15631   */\n      0x00\n        /* \"#utility.yul\":15622:15628   */\n      dup3\n        /* \"#utility.yul\":15618:15632   */\n      add\n        /* \"#utility.yul\":15611:15664   */\n      mstore\n        /* \"#utility.yul\":15494:15671   */\n      pop\n      jump\t// out\n        /* \"#utility.yul\":15677:16043   */\n    tag_260:\n        /* \"#utility.yul\":15819:15822   */\n      0x00\n        /* \"#utility.yul\":15840:15907   */\n      tag_402\n        /* \"#utility.yul\":15904:15906   */\n      0x1b\n        /* \"#utility.yul\":15899:15902   */\n      dup4\n        /* \"#utility.yul\":15840:15907   */\n      tag_234\n      jump\t// in\n    tag_402:\n        /* \"#utility.yul\":15833:15907   */\n      swap2\n      pop\n        /* \"#utility.yul\":15916:16009   */\n      tag_403\n        /* \"#utility.yul\":16005:16008   */\n      dup3\n        /* \"#utility.yul\":15916:16009   */\n      tag_259\n      jump\t// in\n    tag_403:\n        /* \"#utility.yul\":16034:16036   */\n      0x20\n        /* \"#utility.yul\":16029:16032   */\n      dup3\n        /* \"#utility.yul\":16025:16037   */\n      add\n        /* \"#utility.yul\":16018:16037   */\n      swap1\n      pop\n        /* \"#utility.yul\":15677:16043   */\n      swap2\n      swap1\n      pop\n      jump\t// out\n        /* \"#utility.yul\":16049:16468   */\n    tag_201:\n        /* \"#utility.yul\":16215:16219   */\n      0x00\n        /* \"#utility.yul\":16253:16255   */\n      0x20\n        /* \"#utility.yul\":16242:16251   */\n      dup3\n        /* \"#utility.yul\":16238:16256   */\n      add\n        /* \"#utility.yul\":16230:16256   */\n      swap1\n      pop\n        /* \"#utility.yul\":16302:16311   */\n      dup2\n        /* \"#utility.yul\":16296:16300   */\n      dup2\n        /* \"#utility.yul\":16292:16312   */\n      sub\n        /* \"#utility.yul\":16288:16289   */\n      0x00\n        /* \"#utility.yul\":16277:16286   */\n      dup4\n        /* \"#utility.yul\":16273:16290   */\n      add\n        /* \"#utility.yul\":16266:16313   */\n      mstore\n        /* \"#utility.yul\":16330:16461   */\n      tag_405\n        /* \"#utility.yul\":16456:16460   */\n      dup2\n        /* \"#utility.yul\":16330:16461   */\n      tag_260\n      jump\t// in\n    tag_405:\n        /* \"#utility.yul\":16322:16461   */\n      swap1\n      pop\n        /* \"#utility.yul\":16049:16468   */\n      swap2\n      swap1\n      pop\n      jump\t// out\n\n    auxdata: 0xa264697066735822122068409c5d4f667f76ede4397c0b9c14c26e035410669aa38e52396dd16161c1a364736f6c634300081a0033\n}\n",
				"bytecode": {
					"linkReferences": {},
					"object": "6080604052600360025f6101000a81548160ff0219169083600381111560265760256062565b5b02179055506003600260016101000a81548160ff02191690836003811115604e57604d6062565b5b0217905550348015605d575f80fd5b50608f565b7f4e487b71000000000000000000000000000000000000000000000000000000005f52602160045260245ffd5b6117108061009c5f395ff3fe6080604052600436106100dc575f3560e01c80638690fd711161007e578063ce6b222511610058578063ce6b222514610270578063d24257c01461029a578063d30895e4146102c4578063f1917766146102ee576100dc565b80638690fd7114610200578063a9ea37b61461022a578063b14b28a314610246576100dc565b80633ccfd60b116100ba5780633ccfd60b1461015a578063562a5b741461017057806359a5f12d146101ac5780637685ef8e146101d6576100dc565b80631f683f24146100e057806327e235e31461010857806333b16d9314610144575b5f80fd5b3480156100eb575f80fd5b5061010660048036038101906101019190610f6a565b610318565b005b348015610113575f80fd5b5061012e60048036038101906101299190611002565b6106e3565b60405161013b919061103c565b60405180910390f35b34801561014f575f80fd5b506101586106f8565b005b348015610165575f80fd5b5061016e610b36565b005b34801561017b575f80fd5b5061019660048036038101906101919190610f6a565b610c42565b6040516101a3919061106d565b60405180910390f35b3480156101b7575f80fd5b506101c0610c74565b6040516101cd9190611095565b60405180910390f35b3480156101e1575f80fd5b506101ea610c8c565b6040516101f79190611121565b60405180910390f35b34801561020b575f80fd5b50610214610c9f565b6040516102219190611121565b60405180910390f35b610244600480360381019061023f9190611164565b610cb1565b005b348015610251575f80fd5b5061025a610e72565b604051610267919061103c565b60405180910390f35b34801561027b575f80fd5b50610284610e78565b604051610291919061106d565b60405180910390f35b3480156102a5575f80fd5b506102ae610e7d565b6040516102bb919061103c565b60405180910390f35b3480156102cf575f80fd5b506102d8610e83565b6040516102e59190611095565b60405180910390f35b3480156102f9575f80fd5b50610302610e9b565b60405161030f919061106d565b60405180910390f35b60045442111561035d576040517f08c379a0000000000000000000000000000000000000000000000000000000008152600401610354906111e9565b60405180910390fd5b735b38da6a701c568545dcfcb03fcb875f56beddc473ffffffffffffffffffffffffffffffffffffffff163373ffffffffffffffffffffffffffffffffffffffff1614806103ea575073ab8483f64d9c6d1ecf9b849ae677dd3315835cb273ffffffffffffffffffffffffffffffffffffffff163373ffffffffffffffffffffffffffffffffffffffff16145b610429576040517f08c379a000000000000000000000000000000000000000000000000000000000815260040161042090611251565b60405180910390fd5b5f801b6001541415801561044057505f801b5f5414155b61047f576040517f08c379a0000000000000000000000000000000000000000000000000000000008152600401610476906112b9565b60405180910390fd5b600380811115610492576104916110ae565b5b8260038111156104a5576104a46110ae565b5b036104e5576040517f08c379a00000000000000000000000000000000000000000000000000000000081526004016104dc90611347565b60405180910390fd5b735b38da6a701c568545dcfcb03fcb875f56beddc473ffffffffffffffffffffffffffffffffffffffff163373ffffffffffffffffffffffffffffffffffffffff16036105c557818160405160200161053f9291906113b9565b604051602081830303815290604052805190602001205f5414610597576040517f08c379a000000000000000000000000000000000000000000000000000000000815260040161058e9061142e565b60405180910390fd5b8160025f6101000a81548160ff021916908360038111156105bb576105ba6110ae565b5b021790555061065c565b81816040516020016105d89291906113b9565b6040516020818303038152906040528051906020012060015414610631576040517f08c379a000000000000000000000000000000000000000000000000000000000815260040161062890611496565b60405180910390fd5b81600260016101000a81548160ff02191690836003811115610656576106556110ae565b5b02179055505b60038081111561066f5761066e6110ae565b5b60025f9054906101000a900460ff1660038111156106905761068f6110ae565b5b141580156106d157506003808111156106ac576106ab6110ae565b5b600260019054906101000a900460ff1660038111156106ce576106cd6110ae565b5b14155b156106df576106de6106f8565b5b5050565b6005602052805f5260405f205f915090505481565b60038081111561070b5761070a6110ae565b5b60025f9054906101000a900460ff16600381111561072c5761072b6110ae565b5b1415801561076d5750600380811115610748576107476110ae565b5b600260019054906101000a900460ff16600381111561076a576107696110ae565b5b14155b6107ac576040517f08c379a00000000000000000000000000000000000000000000000000000000081526004016107a3906114fe565b60405180910390fd5b600260019054906101000a900460ff1660038111156107ce576107cd6110ae565b5b60025f9054906101000a900460ff1660038111156107ef576107ee6110ae565b5b036108d757670de0b6b3a764000060055f735b38da6a701c568545dcfcb03fcb875f56beddc473ffffffffffffffffffffffffffffffffffffffff1673ffffffffffffffffffffffffffffffffffffffff1681526020019081526020015f205f82825461085c9190611549565b92505081905550670de0b6b3a764000060055f73ab8483f64d9c6d1ecf9b849ae677dd3315835cb273ffffffffffffffffffffffffffffffffffffffff1673ffffffffffffffffffffffffffffffffffffffff1681526020019081526020015f205f8282546108cb9190611549565b92505081905550610b2c565b5f60038111156108ea576108e96110ae565b5b60025f9054906101000a900460ff16600381111561090b5761090a6110ae565b5b14801561094b575060026003811115610927576109266110ae565b5b600260019054906101000a900460ff166003811115610949576109486110ae565b5b145b806109c7575060026003811115610965576109646110ae565b5b60025f9054906101000a900460ff166003811115610986576109856110ae565b5b1480156109c65750600160038111156109a2576109a16110ae565b5b600260019054906101000a900460ff1660038111156109c4576109c36110ae565b5b145b5b80610a425750600160038111156109e1576109e06110ae565b5b60025f9054906101000a900460ff166003811115610a0257610a016110ae565b5b148015610a4157505f6003811115610a1d57610a1c6110ae565b5b600260019054906101000a900460ff166003811115610a3f57610a3e6110ae565b5b145b5b15610abb57671bc16d674ec8000060055f735b38da6a701c568545dcfcb03fcb875f56beddc473ffffffffffffffffffffffffffffffffffffffff1673ffffffffffffffffffffffffffffffffffffffff1681526020019081526020015f205f828254610aaf9190611549565b92505081905550610b2b565b671bc16d674ec8000060055f73ab8483f64d9c6d1ecf9b849ae677dd3315835cb273ffffffffffffffffffffffffffffffffffffffff1673ffffffffffffffffffffffffffffffffffffffff1681526020019081526020015f205f828254610b239190611549565b925050819055505b5b610b34610ea1565b565b5f60055f3373ffffffffffffffffffffffffffffffffffffffff1673ffffffffffffffffffffffffffffffffffffffff1681526020019081526020015f205490505f8111610bb9576040517f08c379a0000000000000000000000000000000000000000000000000000000008152600401610bb0906115c6565b60405180910390fd5b5f60055f3373ffffffffffffffffffffffffffffffffffffffff1673ffffffffffffffffffffffffffffffffffffffff1681526020019081526020015f20819055503373ffffffffffffffffffffffffffffffffffffffff166108fc8290811502906040515f60405180830381858888f19350505050158015610c3e573d5f803e3d5ffd5b5050565b5f8282604051602001610c569291906113b9565b60405160208183030381529060405280519060200120905092915050565b73ab8483f64d9c6d1ecf9b849ae677dd3315835cb281565b600260019054906101000a900460ff1681565b60025f9054906101000a900460ff1681565b735b38da6a701c568545dcfcb03fcb875f56beddc473ffffffffffffffffffffffffffffffffffffffff163373ffffffffffffffffffffffffffffffffffffffff16148015610d0257505f801b5f54145b80610d5b575073ab8483f64d9c6d1ecf9b849ae677dd3315835cb273ffffffffffffffffffffffffffffffffffffffff163373ffffffffffffffffffffffffffffffffffffffff16148015610d5a57505f801b600154145b5b610d9a576040517f08c379a0000000000000000000000000000000000000000000000000000000008152600401610d9190611654565b60405180910390fd5b670de0b6b3a76400003414610de4576040517f08c379a0000000000000000000000000000000000000000000000000000000008152600401610ddb906116bc565b60405180910390fd5b735b38da6a701c568545dcfcb03fcb875f56beddc473ffffffffffffffffffffffffffffffffffffffff163373ffffffffffffffffffffffffffffffffffffffff1603610e3657805f81905550610e3e565b806001819055505b5f801b5f5414158015610e5557505f801b60015414155b15610e6f5761465042610e689190611549565b6004819055505b50565b60045481565b5f5481565b60035481565b735b38da6a701c568545dcfcb03fcb875f56beddc481565b60015481565b5f801b5f819055505f801b600181905550600360025f6101000a81548160ff02191690836003811115610ed757610ed66110ae565b5b02179055506003600260016101000a81548160ff02191690836003811115610f0257610f016110ae565b5b02179055505f600481905550565b5f80fd5b60048110610f20575f80fd5b50565b5f81359050610f3181610f14565b92915050565b5f819050919050565b610f4981610f37565b8114610f53575f80fd5b50565b5f81359050610f6481610f40565b92915050565b5f8060408385031215610f8057610f7f610f10565b5b5f610f8d85828601610f23565b9250506020610f9e85828601610f56565b9150509250929050565b5f73ffffffffffffffffffffffffffffffffffffffff82169050919050565b5f610fd182610fa8565b9050919050565b610fe181610fc7565b8114610feb575f80fd5b50565b5f81359050610ffc81610fd8565b92915050565b5f6020828403121561101757611016610f10565b5b5f61102484828501610fee565b91505092915050565b61103681610f37565b82525050565b5f60208201905061104f5f83018461102d565b92915050565b5f819050919050565b61106781611055565b82525050565b5f6020820190506110805f83018461105e565b92915050565b61108f81610fc7565b82525050565b5f6020820190506110a85f830184611086565b92915050565b7f4e487b71000000000000000000000000000000000000000000000000000000005f52602160045260245ffd5b600481106110ec576110eb6110ae565b5b50565b5f8190506110fc826110db565b919050565b5f61110b826110ef565b9050919050565b61111b81611101565b82525050565b5f6020820190506111345f830184611112565b92915050565b61114381611055565b811461114d575f80fd5b50565b5f8135905061115e8161113a565b92915050565b5f6020828403121561117957611178610f10565b5b5f61118684828501611150565b91505092915050565b5f82825260208201905092915050565b7f52657665616c2074696d65206861732062656e206f76657273746570706564005f82015250565b5f6111d3601f8361118f565b91506111de8261119f565b602082019050919050565b5f6020820190508181035f830152611200816111c7565b9050919050565b7f6e6f74206120706c6179657200000000000000000000000000000000000000005f82015250565b5f61123b600c8361118f565b915061124682611207565b602082019050919050565b5f6020820190508181035f8301526112688161122f565b9050919050565b7f736f6d656f6e65206469646e7420636f6d6d69742061206861736800000000005f82015250565b5f6112a3601b8361118f565b91506112ae8261126f565b602082019050919050565b5f6020820190508181035f8301526112d081611297565b9050919050565b7f6861766520746f2063686f6f7365206265747765656e20526f636b2c205061705f8201527f657220616e642053636973736f72000000000000000000000000000000000000602082015250565b5f611331602e8361118f565b915061133c826112d7565b604082019050919050565b5f6020820190508181035f83015261135e81611325565b9050919050565b5f8160f81b9050919050565b5f61137b82611365565b9050919050565b61139361138e82611101565b611371565b82525050565b5f819050919050565b6113b36113ae82610f37565b611399565b82525050565b5f6113c48285611382565b6001820191506113d482846113a2565b6020820191508190509392505050565b7f496e76616c696420636f6d6d697420666f7220706c61796572310000000000005f82015250565b5f611418601a8361118f565b9150611423826113e4565b602082019050919050565b5f6020820190508181035f8301526114458161140c565b9050919050565b7f496e76616c696420636f6d6d697420666f7220706c61796572320000000000005f82015250565b5f611480601a8361118f565b915061148b8261144c565b602082019050919050565b5f6020820190508181035f8301526114ad81611474565b9050919050565b7f6174206c65617374206f6e6520706c61796572206469646e742063686f6f73655f82015250565b5f6114e860208361118f565b91506114f3826114b4565b602082019050919050565b5f6020820190508181035f830152611515816114dc565b9050919050565b7f4e487b71000000000000000000000000000000000000000000000000000000005f52601160045260245ffd5b5f61155382610f37565b915061155e83610f37565b92508282019050808211156115765761157561151c565b5b92915050565b7f4e6f2062616c616e636520746f207769746864726177000000000000000000005f82015250565b5f6115b060168361118f565b91506115bb8261157c565b602082019050919050565b5f6020820190508181035f8301526115dd816115a4565b9050919050565b7f65697468657220696e76616c696420706c61796572206f7220616c72656164795f8201527f20636f6d6d697465640000000000000000000000000000000000000000000000602082015250565b5f61163e60298361118f565b9150611649826115e4565b604082019050919050565b5f6020820190508181035f83015261166b81611632565b9050919050565b7f4e656564203120657468657220746f20706172746963697061746500000000005f82015250565b5f6116a6601b8361118f565b91506116b182611672565b602082019050919050565b5f6020820190508181035f8301526116d38161169a565b905091905056fea264697066735822122068409c5d4f667f76ede4397c0b9c14c26e035410669aa38e52396dd16161c1a364736f6c634300081a0033",
					"opcodes": "PUSH1 0x80 PUSH1 0x40 MSTORE PUSH1 0x3 PUSH1 0x2 PUSH0 PUSH2 0x100 EXP DUP2 SLOAD DUP2 PUSH1 0xFF MUL NOT AND SWAP1 DUP4 PUSH1 0x3 DUP2 GT ISZERO PUSH1 0x26 JUMPI PUSH1 0x25 PUSH1 0x62 JUMP JUMPDEST JUMPDEST MUL OR SWAP1 SSTORE POP PUSH1 0x3 PUSH1 0x2 PUSH1 0x1 PUSH2 0x100 EXP DUP2 SLOAD DUP2 PUSH1 0xFF MUL NOT AND SWAP1 DUP4 PUSH1 0x3 DUP2 GT ISZERO PUSH1 0x4E JUMPI PUSH1 0x4D PUSH1 0x62 JUMP JUMPDEST JUMPDEST MUL OR SWAP1 SSTORE POP CALLVALUE DUP1 ISZERO PUSH1 0x5D JUMPI PUSH0 DUP1 REVERT JUMPDEST POP PUSH1 0x8F JUMP JUMPDEST PUSH32 0x4E487B7100000000000000000000000000000000000000000000000000000000 PUSH0 MSTORE PUSH1 0x21 PUSH1 0x4 MSTORE PUSH1 0x24 PUSH0 REVERT JUMPDEST PUSH2 0x1710 DUP1 PUSH2 0x9C PUSH0 CODECOPY PUSH0 RETURN INVALID PUSH1 0x80 PUSH1 0x40 MSTORE PUSH1 0x4 CALLDATASIZE LT PUSH2 0xDC JUMPI PUSH0 CALLDATALOAD PUSH1 0xE0 SHR DUP1 PUSH4 0x8690FD71 GT PUSH2 0x7E JUMPI DUP1 PUSH4 0xCE6B2225 GT PUSH2 0x58 JUMPI DUP1 PUSH4 0xCE6B2225 EQ PUSH2 0x270 JUMPI DUP1 PUSH4 0xD24257C0 EQ PUSH2 0x29A JUMPI DUP1 PUSH4 0xD30895E4 EQ PUSH2 0x2C4 JUMPI DUP1 PUSH4 0xF1917766 EQ PUSH2 0x2EE JUMPI PUSH2 0xDC JUMP JUMPDEST DUP1 PUSH4 0x8690FD71 EQ PUSH2 0x200 JUMPI DUP1 PUSH4 0xA9EA37B6 EQ PUSH2 0x22A JUMPI DUP1 PUSH4 0xB14B28A3 EQ PUSH2 0x246 JUMPI PUSH2 0xDC JUMP JUMPDEST DUP1 PUSH4 0x3CCFD60B GT PUSH2 0xBA JUMPI DUP1 PUSH4 0x3CCFD60B EQ PUSH2 0x15A JUMPI DUP1 PUSH4 0x562A5B74 EQ PUSH2 0x170 JUMPI DUP1 PUSH4 0x59A5F12D EQ PUSH2 0x1AC JUMPI DUP1 PUSH4 0x7685EF8E EQ PUSH2 0x1D6 JUMPI PUSH2 0xDC JUMP JUMPDEST DUP1 PUSH4 0x1F683F24 EQ PUSH2 0xE0 JUMPI DUP1 PUSH4 0x27E235E3 EQ PUSH2 0x108 JUMPI DUP1 PUSH4 0x33B16D93 EQ PUSH2 0x144 JUMPI JUMPDEST PUSH0 DUP1 REVERT JUMPDEST CALLVALUE DUP1 ISZERO PUSH2 0xEB JUMPI PUSH0 DUP1 REVERT JUMPDEST POP PUSH2 0x106 PUSH1 0x4 DUP1 CALLDATASIZE SUB DUP2 ADD SWAP1 PUSH2 0x101 SWAP2 SWAP1 PUSH2 0xF6A JUMP JUMPDEST PUSH2 0x318 JUMP JUMPDEST STOP JUMPDEST CALLVALUE DUP1 ISZERO PUSH2 0x113 JUMPI PUSH0 DUP1 REVERT JUMPDEST POP PUSH2 0x12E PUSH1 0x4 DUP1 CALLDATASIZE SUB DUP2 ADD SWAP1 PUSH2 0x129 SWAP2 SWAP1 PUSH2 0x1002 JUMP JUMPDEST PUSH2 0x6E3 JUMP JUMPDEST PUSH1 0x40 MLOAD PUSH2 0x13B SWAP2 SWAP1 PUSH2 0x103C JUMP JUMPDEST PUSH1 0x40 MLOAD DUP1 SWAP2 SUB SWAP1 RETURN JUMPDEST CALLVALUE DUP1 ISZERO PUSH2 0x14F JUMPI PUSH0 DUP1 REVERT JUMPDEST POP PUSH2 0x158 PUSH2 0x6F8 JUMP JUMPDEST STOP JUMPDEST CALLVALUE DUP1 ISZERO PUSH2 0x165 JUMPI PUSH0 DUP1 REVERT JUMPDEST POP PUSH2 0x16E PUSH2 0xB36 JUMP JUMPDEST STOP JUMPDEST CALLVALUE DUP1 ISZERO PUSH2 0x17B JUMPI PUSH0 DUP1 REVERT JUMPDEST POP PUSH2 0x196 PUSH1 0x4 DUP1 CALLDATASIZE SUB DUP2 ADD SWAP1 PUSH2 0x191 SWAP2 SWAP1 PUSH2 0xF6A JUMP JUMPDEST PUSH2 0xC42 JUMP JUMPDEST PUSH1 0x40 MLOAD PUSH2 0x1A3 SWAP2 SWAP1 PUSH2 0x106D JUMP JUMPDEST PUSH1 0x40 MLOAD DUP1 SWAP2 SUB SWAP1 RETURN JUMPDEST CALLVALUE DUP1 ISZERO PUSH2 0x1B7 JUMPI PUSH0 DUP1 REVERT JUMPDEST POP PUSH2 0x1C0 PUSH2 0xC74 JUMP JUMPDEST PUSH1 0x40 MLOAD PUSH2 0x1CD SWAP2 SWAP1 PUSH2 0x1095 JUMP JUMPDEST PUSH1 0x40 MLOAD DUP1 SWAP2 SUB SWAP1 RETURN JUMPDEST CALLVALUE DUP1 ISZERO PUSH2 0x1E1 JUMPI PUSH0 DUP1 REVERT JUMPDEST POP PUSH2 0x1EA PUSH2 0xC8C JUMP JUMPDEST PUSH1 0x40 MLOAD PUSH2 0x1F7 SWAP2 SWAP1 PUSH2 0x1121 JUMP JUMPDEST PUSH1 0x40 MLOAD DUP1 SWAP2 SUB SWAP1 RETURN JUMPDEST CALLVALUE DUP1 ISZERO PUSH2 0x20B JUMPI PUSH0 DUP1 REVERT JUMPDEST POP PUSH2 0x214 PUSH2 0xC9F JUMP JUMPDEST PUSH1 0x40 MLOAD PUSH2 0x221 SWAP2 SWAP1 PUSH2 0x1121 JUMP JUMPDEST PUSH1 0x40 MLOAD DUP1 SWAP2 SUB SWAP1 RETURN JUMPDEST PUSH2 0x244 PUSH1 0x4 DUP1 CALLDATASIZE SUB DUP2 ADD SWAP1 PUSH2 0x23F SWAP2 SWAP1 PUSH2 0x1164 JUMP JUMPDEST PUSH2 0xCB1 JUMP JUMPDEST STOP JUMPDEST CALLVALUE DUP1 ISZERO PUSH2 0x251 JUMPI PUSH0 DUP1 REVERT JUMPDEST POP PUSH2 0x25A PUSH2 0xE72 JUMP JUMPDEST PUSH1 0x40 MLOAD PUSH2 0x267 SWAP2 SWAP1 PUSH2 0x103C JUMP JUMPDEST PUSH1 0x40 MLOAD DUP1 SWAP2 SUB SWAP1 RETURN JUMPDEST CALLVALUE DUP1 ISZERO PUSH2 0x27B JUMPI PUSH0 DUP1 REVERT JUMPDEST POP PUSH2 0x284 PUSH2 0xE78 JUMP JUMPDEST PUSH1 0x40 MLOAD PUSH2 0x291 SWAP2 SWAP1 PUSH2 0x106D JUMP JUMPDEST PUSH1 0x40 MLOAD DUP1 SWAP2 SUB SWAP1 RETURN JUMPDEST CALLVALUE DUP1 ISZERO PUSH2 0x2A5 JUMPI PUSH0 DUP1 REVERT JUMPDEST POP PUSH2 0x2AE PUSH2 0xE7D JUMP JUMPDEST PUSH1 0x40 MLOAD PUSH2 0x2BB SWAP2 SWAP1 PUSH2 0x103C JUMP JUMPDEST PUSH1 0x40 MLOAD DUP1 SWAP2 SUB SWAP1 RETURN JUMPDEST CALLVALUE DUP1 ISZERO PUSH2 0x2CF JUMPI PUSH0 DUP1 REVERT JUMPDEST POP PUSH2 0x2D8 PUSH2 0xE83 JUMP JUMPDEST PUSH1 0x40 MLOAD PUSH2 0x2E5 SWAP2 SWAP1 PUSH2 0x1095 JUMP JUMPDEST PUSH1 0x40 MLOAD DUP1 SWAP2 SUB SWAP1 RETURN JUMPDEST CALLVALUE DUP1 ISZERO PUSH2 0x2F9 JUMPI PUSH0 DUP1 REVERT JUMPDEST POP PUSH2 0x302 PUSH2 0xE9B JUMP JUMPDEST PUSH1 0x40 MLOAD PUSH2 0x30F SWAP2 SWAP1 PUSH2 0x106D JUMP JUMPDEST PUSH1 0x40 MLOAD DUP1 SWAP2 SUB SWAP1 RETURN JUMPDEST PUSH1 0x4 SLOAD TIMESTAMP GT ISZERO PUSH2 0x35D JUMPI PUSH1 0x40 MLOAD PUSH32 0x8C379A000000000000000000000000000000000000000000000000000000000 DUP2 MSTORE PUSH1 0x4 ADD PUSH2 0x354 SWAP1 PUSH2 0x11E9 JUMP JUMPDEST PUSH1 0x40 MLOAD DUP1 SWAP2 SUB SWAP1 REVERT JUMPDEST PUSH20 0x5B38DA6A701C568545DCFCB03FCB875F56BEDDC4 PUSH20 0xFFFFFFFFFFFFFFFFFFFFFFFFFFFFFFFFFFFFFFFF AND CALLER PUSH20 0xFFFFFFFFFFFFFFFFFFFFFFFFFFFFFFFFFFFFFFFF AND EQ DUP1 PUSH2 0x3EA JUMPI POP PUSH20 0xAB8483F64D9C6D1ECF9B849AE677DD3315835CB2 PUSH20 0xFFFFFFFFFFFFFFFFFFFFFFFFFFFFFFFFFFFFFFFF AND CALLER PUSH20 0xFFFFFFFFFFFFFFFFFFFFFFFFFFFFFFFFFFFFFFFF AND EQ JUMPDEST PUSH2 0x429 JUMPI PUSH1 0x40 MLOAD PUSH32 0x8C379A000000000000000000000000000000000000000000000000000000000 DUP2 MSTORE PUSH1 0x4 ADD PUSH2 0x420 SWAP1 PUSH2 0x1251 JUMP JUMPDEST PUSH1 0x40 MLOAD DUP1 SWAP2 SUB SWAP1 REVERT JUMPDEST PUSH0 DUP1 SHL PUSH1 0x1 SLOAD EQ ISZERO DUP1 ISZERO PUSH2 0x440 JUMPI POP PUSH0 DUP1 SHL PUSH0 SLOAD EQ ISZERO JUMPDEST PUSH2 0x47F JUMPI PUSH1 0x40 MLOAD PUSH32 0x8C379A000000000000000000000000000000000000000000000000000000000 DUP2 MSTORE PUSH1 0x4 ADD PUSH2 0x476 SWAP1 PUSH2 0x12B9 JUMP JUMPDEST PUSH1 0x40 MLOAD DUP1 SWAP2 SUB SWAP1 REVERT JUMPDEST PUSH1 0x3 DUP1 DUP2 GT ISZERO PUSH2 0x492 JUMPI PUSH2 0x491 PUSH2 0x10AE JUMP JUMPDEST JUMPDEST DUP3 PUSH1 0x3 DUP2 GT ISZERO PUSH2 0x4A5 JUMPI PUSH2 0x4A4 PUSH2 0x10AE JUMP JUMPDEST JUMPDEST SUB PUSH2 0x4E5 JUMPI PUSH1 0x40 MLOAD PUSH32 0x8C379A000000000000000000000000000000000000000000000000000000000 DUP2 MSTORE PUSH1 0x4 ADD PUSH2 0x4DC SWAP1 PUSH2 0x1347 JUMP JUMPDEST PUSH1 0x40 MLOAD DUP1 SWAP2 SUB SWAP1 REVERT JUMPDEST PUSH20 0x5B38DA6A701C568545DCFCB03FCB875F56BEDDC4 PUSH20 0xFFFFFFFFFFFFFFFFFFFFFFFFFFFFFFFFFFFFFFFF AND CALLER PUSH20 0xFFFFFFFFFFFFFFFFFFFFFFFFFFFFFFFFFFFFFFFF AND SUB PUSH2 0x5C5 JUMPI DUP2 DUP2 PUSH1 0x40 MLOAD PUSH1 0x20 ADD PUSH2 0x53F SWAP3 SWAP2 SWAP1 PUSH2 0x13B9 JUMP JUMPDEST PUSH1 0x40 MLOAD PUSH1 0x20 DUP2 DUP4 SUB SUB DUP2 MSTORE SWAP1 PUSH1 0x40 MSTORE DUP1 MLOAD SWAP1 PUSH1 0x20 ADD KECCAK256 PUSH0 SLOAD EQ PUSH2 0x597 JUMPI PUSH1 0x40 MLOAD PUSH32 0x8C379A000000000000000000000000000000000000000000000000000000000 DUP2 MSTORE PUSH1 0x4 ADD PUSH2 0x58E SWAP1 PUSH2 0x142E JUMP JUMPDEST PUSH1 0x40 MLOAD DUP1 SWAP2 SUB SWAP1 REVERT JUMPDEST DUP2 PUSH1 0x2 PUSH0 PUSH2 0x100 EXP DUP2 SLOAD DUP2 PUSH1 0xFF MUL NOT AND SWAP1 DUP4 PUSH1 0x3 DUP2 GT ISZERO PUSH2 0x5BB JUMPI PUSH2 0x5BA PUSH2 0x10AE JUMP JUMPDEST JUMPDEST MUL OR SWAP1 SSTORE POP PUSH2 0x65C JUMP JUMPDEST DUP2 DUP2 PUSH1 0x40 MLOAD PUSH1 0x20 ADD PUSH2 0x5D8 SWAP3 SWAP2 SWAP1 PUSH2 0x13B9 JUMP JUMPDEST PUSH1 0x40 MLOAD PUSH1 0x20 DUP2 DUP4 SUB SUB DUP2 MSTORE SWAP1 PUSH1 0x40 MSTORE DUP1 MLOAD SWAP1 PUSH1 0x20 ADD KECCAK256 PUSH1 0x1 SLOAD EQ PUSH2 0x631 JUMPI PUSH1 0x40 MLOAD PUSH32 0x8C379A000000000000000000000000000000000000000000000000000000000 DUP2 MSTORE PUSH1 0x4 ADD PUSH2 0x628 SWAP1 PUSH2 0x1496 JUMP JUMPDEST PUSH1 0x40 MLOAD DUP1 SWAP2 SUB SWAP1 REVERT JUMPDEST DUP2 PUSH1 0x2 PUSH1 0x1 PUSH2 0x100 EXP DUP2 SLOAD DUP2 PUSH1 0xFF MUL NOT AND SWAP1 DUP4 PUSH1 0x3 DUP2 GT ISZERO PUSH2 0x656 JUMPI PUSH2 0x655 PUSH2 0x10AE JUMP JUMPDEST JUMPDEST MUL OR SWAP1 SSTORE POP JUMPDEST PUSH1 0x3 DUP1 DUP2 GT ISZERO PUSH2 0x66F JUMPI PUSH2 0x66E PUSH2 0x10AE JUMP JUMPDEST JUMPDEST PUSH1 0x2 PUSH0 SWAP1 SLOAD SWAP1 PUSH2 0x100 EXP SWAP1 DIV PUSH1 0xFF AND PUSH1 0x3 DUP2 GT ISZERO PUSH2 0x690 JUMPI PUSH2 0x68F PUSH2 0x10AE JUMP JUMPDEST JUMPDEST EQ ISZERO DUP1 ISZERO PUSH2 0x6D1 JUMPI POP PUSH1 0x3 DUP1 DUP2 GT ISZERO PUSH2 0x6AC JUMPI PUSH2 0x6AB PUSH2 0x10AE JUMP JUMPDEST JUMPDEST PUSH1 0x2 PUSH1 0x1 SWAP1 SLOAD SWAP1 PUSH2 0x100 EXP SWAP1 DIV PUSH1 0xFF AND PUSH1 0x3 DUP2 GT ISZERO PUSH2 0x6CE JUMPI PUSH2 0x6CD PUSH2 0x10AE JUMP JUMPDEST JUMPDEST EQ ISZERO JUMPDEST ISZERO PUSH2 0x6DF JUMPI PUSH2 0x6DE PUSH2 0x6F8 JUMP JUMPDEST JUMPDEST POP POP JUMP JUMPDEST PUSH1 0x5 PUSH1 0x20 MSTORE DUP1 PUSH0 MSTORE PUSH1 0x40 PUSH0 KECCAK256 PUSH0 SWAP2 POP SWAP1 POP SLOAD DUP2 JUMP JUMPDEST PUSH1 0x3 DUP1 DUP2 GT ISZERO PUSH2 0x70B JUMPI PUSH2 0x70A PUSH2 0x10AE JUMP JUMPDEST JUMPDEST PUSH1 0x2 PUSH0 SWAP1 SLOAD SWAP1 PUSH2 0x100 EXP SWAP1 DIV PUSH1 0xFF AND PUSH1 0x3 DUP2 GT ISZERO PUSH2 0x72C JUMPI PUSH2 0x72B PUSH2 0x10AE JUMP JUMPDEST JUMPDEST EQ ISZERO DUP1 ISZERO PUSH2 0x76D JUMPI POP PUSH1 0x3 DUP1 DUP2 GT ISZERO PUSH2 0x748 JUMPI PUSH2 0x747 PUSH2 0x10AE JUMP JUMPDEST JUMPDEST PUSH1 0x2 PUSH1 0x1 SWAP1 SLOAD SWAP1 PUSH2 0x100 EXP SWAP1 DIV PUSH1 0xFF AND PUSH1 0x3 DUP2 GT ISZERO PUSH2 0x76A JUMPI PUSH2 0x769 PUSH2 0x10AE JUMP JUMPDEST JUMPDEST EQ ISZERO JUMPDEST PUSH2 0x7AC JUMPI PUSH1 0x40 MLOAD PUSH32 0x8C379A000000000000000000000000000000000000000000000000000000000 DUP2 MSTORE PUSH1 0x4 ADD PUSH2 0x7A3 SWAP1 PUSH2 0x14FE JUMP JUMPDEST PUSH1 0x40 MLOAD DUP1 SWAP2 SUB SWAP1 REVERT JUMPDEST PUSH1 0x2 PUSH1 0x1 SWAP1 SLOAD SWAP1 PUSH2 0x100 EXP SWAP1 DIV PUSH1 0xFF AND PUSH1 0x3 DUP2 GT ISZERO PUSH2 0x7CE JUMPI PUSH2 0x7CD PUSH2 0x10AE JUMP JUMPDEST JUMPDEST PUSH1 0x2 PUSH0 SWAP1 SLOAD SWAP1 PUSH2 0x100 EXP SWAP1 DIV PUSH1 0xFF AND PUSH1 0x3 DUP2 GT ISZERO PUSH2 0x7EF JUMPI PUSH2 0x7EE PUSH2 0x10AE JUMP JUMPDEST JUMPDEST SUB PUSH2 0x8D7 JUMPI PUSH8 0xDE0B6B3A7640000 PUSH1 0x5 PUSH0 PUSH20 0x5B38DA6A701C568545DCFCB03FCB875F56BEDDC4 PUSH20 0xFFFFFFFFFFFFFFFFFFFFFFFFFFFFFFFFFFFFFFFF AND PUSH20 0xFFFFFFFFFFFFFFFFFFFFFFFFFFFFFFFFFFFFFFFF AND DUP2 MSTORE PUSH1 0x20 ADD SWAP1 DUP2 MSTORE PUSH1 0x20 ADD PUSH0 KECCAK256 PUSH0 DUP3 DUP3 SLOAD PUSH2 0x85C SWAP2 SWAP1 PUSH2 0x1549 JUMP JUMPDEST SWAP3 POP POP DUP2 SWAP1 SSTORE POP PUSH8 0xDE0B6B3A7640000 PUSH1 0x5 PUSH0 PUSH20 0xAB8483F64D9C6D1ECF9B849AE677DD3315835CB2 PUSH20 0xFFFFFFFFFFFFFFFFFFFFFFFFFFFFFFFFFFFFFFFF AND PUSH20 0xFFFFFFFFFFFFFFFFFFFFFFFFFFFFFFFFFFFFFFFF AND DUP2 MSTORE PUSH1 0x20 ADD SWAP1 DUP2 MSTORE PUSH1 0x20 ADD PUSH0 KECCAK256 PUSH0 DUP3 DUP3 SLOAD PUSH2 0x8CB SWAP2 SWAP1 PUSH2 0x1549 JUMP JUMPDEST SWAP3 POP POP DUP2 SWAP1 SSTORE POP PUSH2 0xB2C JUMP JUMPDEST PUSH0 PUSH1 0x3 DUP2 GT ISZERO PUSH2 0x8EA JUMPI PUSH2 0x8E9 PUSH2 0x10AE JUMP JUMPDEST JUMPDEST PUSH1 0x2 PUSH0 SWAP1 SLOAD SWAP1 PUSH2 0x100 EXP SWAP1 DIV PUSH1 0xFF AND PUSH1 0x3 DUP2 GT ISZERO PUSH2 0x90B JUMPI PUSH2 0x90A PUSH2 0x10AE JUMP JUMPDEST JUMPDEST EQ DUP1 ISZERO PUSH2 0x94B JUMPI POP PUSH1 0x2 PUSH1 0x3 DUP2 GT ISZERO PUSH2 0x927 JUMPI PUSH2 0x926 PUSH2 0x10AE JUMP JUMPDEST JUMPDEST PUSH1 0x2 PUSH1 0x1 SWAP1 SLOAD SWAP1 PUSH2 0x100 EXP SWAP1 DIV PUSH1 0xFF AND PUSH1 0x3 DUP2 GT ISZERO PUSH2 0x949 JUMPI PUSH2 0x948 PUSH2 0x10AE JUMP JUMPDEST JUMPDEST EQ JUMPDEST DUP1 PUSH2 0x9C7 JUMPI POP PUSH1 0x2 PUSH1 0x3 DUP2 GT ISZERO PUSH2 0x965 JUMPI PUSH2 0x964 PUSH2 0x10AE JUMP JUMPDEST JUMPDEST PUSH1 0x2 PUSH0 SWAP1 SLOAD SWAP1 PUSH2 0x100 EXP SWAP1 DIV PUSH1 0xFF AND PUSH1 0x3 DUP2 GT ISZERO PUSH2 0x986 JUMPI PUSH2 0x985 PUSH2 0x10AE JUMP JUMPDEST JUMPDEST EQ DUP1 ISZERO PUSH2 0x9C6 JUMPI POP PUSH1 0x1 PUSH1 0x3 DUP2 GT ISZERO PUSH2 0x9A2 JUMPI PUSH2 0x9A1 PUSH2 0x10AE JUMP JUMPDEST JUMPDEST PUSH1 0x2 PUSH1 0x1 SWAP1 SLOAD SWAP1 PUSH2 0x100 EXP SWAP1 DIV PUSH1 0xFF AND PUSH1 0x3 DUP2 GT ISZERO PUSH2 0x9C4 JUMPI PUSH2 0x9C3 PUSH2 0x10AE JUMP JUMPDEST JUMPDEST EQ JUMPDEST JUMPDEST DUP1 PUSH2 0xA42 JUMPI POP PUSH1 0x1 PUSH1 0x3 DUP2 GT ISZERO PUSH2 0x9E1 JUMPI PUSH2 0x9E0 PUSH2 0x10AE JUMP JUMPDEST JUMPDEST PUSH1 0x2 PUSH0 SWAP1 SLOAD SWAP1 PUSH2 0x100 EXP SWAP1 DIV PUSH1 0xFF AND PUSH1 0x3 DUP2 GT ISZERO PUSH2 0xA02 JUMPI PUSH2 0xA01 PUSH2 0x10AE JUMP JUMPDEST JUMPDEST EQ DUP1 ISZERO PUSH2 0xA41 JUMPI POP PUSH0 PUSH1 0x3 DUP2 GT ISZERO PUSH2 0xA1D JUMPI PUSH2 0xA1C PUSH2 0x10AE JUMP JUMPDEST JUMPDEST PUSH1 0x2 PUSH1 0x1 SWAP1 SLOAD SWAP1 PUSH2 0x100 EXP SWAP1 DIV PUSH1 0xFF AND PUSH1 0x3 DUP2 GT ISZERO PUSH2 0xA3F JUMPI PUSH2 0xA3E PUSH2 0x10AE JUMP JUMPDEST JUMPDEST EQ JUMPDEST JUMPDEST ISZERO PUSH2 0xABB JUMPI PUSH8 0x1BC16D674EC80000 PUSH1 0x5 PUSH0 PUSH20 0x5B38DA6A701C568545DCFCB03FCB875F56BEDDC4 PUSH20 0xFFFFFFFFFFFFFFFFFFFFFFFFFFFFFFFFFFFFFFFF AND PUSH20 0xFFFFFFFFFFFFFFFFFFFFFFFFFFFFFFFFFFFFFFFF AND DUP2 MSTORE PUSH1 0x20 ADD SWAP1 DUP2 MSTORE PUSH1 0x20 ADD PUSH0 KECCAK256 PUSH0 DUP3 DUP3 SLOAD PUSH2 0xAAF SWAP2 SWAP1 PUSH2 0x1549 JUMP JUMPDEST SWAP3 POP POP DUP2 SWAP1 SSTORE POP PUSH2 0xB2B JUMP JUMPDEST PUSH8 0x1BC16D674EC80000 PUSH1 0x5 PUSH0 PUSH20 0xAB8483F64D9C6D1ECF9B849AE677DD3315835CB2 PUSH20 0xFFFFFFFFFFFFFFFFFFFFFFFFFFFFFFFFFFFFFFFF AND PUSH20 0xFFFFFFFFFFFFFFFFFFFFFFFFFFFFFFFFFFFFFFFF AND DUP2 MSTORE PUSH1 0x20 ADD SWAP1 DUP2 MSTORE PUSH1 0x20 ADD PUSH0 KECCAK256 PUSH0 DUP3 DUP3 SLOAD PUSH2 0xB23 SWAP2 SWAP1 PUSH2 0x1549 JUMP JUMPDEST SWAP3 POP POP DUP2 SWAP1 SSTORE POP JUMPDEST JUMPDEST PUSH2 0xB34 PUSH2 0xEA1 JUMP JUMPDEST JUMP JUMPDEST PUSH0 PUSH1 0x5 PUSH0 CALLER PUSH20 0xFFFFFFFFFFFFFFFFFFFFFFFFFFFFFFFFFFFFFFFF AND PUSH20 0xFFFFFFFFFFFFFFFFFFFFFFFFFFFFFFFFFFFFFFFF AND DUP2 MSTORE PUSH1 0x20 ADD SWAP1 DUP2 MSTORE PUSH1 0x20 ADD PUSH0 KECCAK256 SLOAD SWAP1 POP PUSH0 DUP2 GT PUSH2 0xBB9 JUMPI PUSH1 0x40 MLOAD PUSH32 0x8C379A000000000000000000000000000000000000000000000000000000000 DUP2 MSTORE PUSH1 0x4 ADD PUSH2 0xBB0 SWAP1 PUSH2 0x15C6 JUMP JUMPDEST PUSH1 0x40 MLOAD DUP1 SWAP2 SUB SWAP1 REVERT JUMPDEST PUSH0 PUSH1 0x5 PUSH0 CALLER PUSH20 0xFFFFFFFFFFFFFFFFFFFFFFFFFFFFFFFFFFFFFFFF AND PUSH20 0xFFFFFFFFFFFFFFFFFFFFFFFFFFFFFFFFFFFFFFFF AND DUP2 MSTORE PUSH1 0x20 ADD SWAP1 DUP2 MSTORE PUSH1 0x20 ADD PUSH0 KECCAK256 DUP2 SWAP1 SSTORE POP CALLER PUSH20 0xFFFFFFFFFFFFFFFFFFFFFFFFFFFFFFFFFFFFFFFF AND PUSH2 0x8FC DUP3 SWAP1 DUP2 ISZERO MUL SWAP1 PUSH1 0x40 MLOAD PUSH0 PUSH1 0x40 MLOAD DUP1 DUP4 SUB DUP2 DUP6 DUP9 DUP9 CALL SWAP4 POP POP POP POP ISZERO DUP1 ISZERO PUSH2 0xC3E JUMPI RETURNDATASIZE PUSH0 DUP1 RETURNDATACOPY RETURNDATASIZE PUSH0 REVERT JUMPDEST POP POP JUMP JUMPDEST PUSH0 DUP3 DUP3 PUSH1 0x40 MLOAD PUSH1 0x20 ADD PUSH2 0xC56 SWAP3 SWAP2 SWAP1 PUSH2 0x13B9 JUMP JUMPDEST PUSH1 0x40 MLOAD PUSH1 0x20 DUP2 DUP4 SUB SUB DUP2 MSTORE SWAP1 PUSH1 0x40 MSTORE DUP1 MLOAD SWAP1 PUSH1 0x20 ADD KECCAK256 SWAP1 POP SWAP3 SWAP2 POP POP JUMP JUMPDEST PUSH20 0xAB8483F64D9C6D1ECF9B849AE677DD3315835CB2 DUP2 JUMP JUMPDEST PUSH1 0x2 PUSH1 0x1 SWAP1 SLOAD SWAP1 PUSH2 0x100 EXP SWAP1 DIV PUSH1 0xFF AND DUP2 JUMP JUMPDEST PUSH1 0x2 PUSH0 SWAP1 SLOAD SWAP1 PUSH2 0x100 EXP SWAP1 DIV PUSH1 0xFF AND DUP2 JUMP JUMPDEST PUSH20 0x5B38DA6A701C568545DCFCB03FCB875F56BEDDC4 PUSH20 0xFFFFFFFFFFFFFFFFFFFFFFFFFFFFFFFFFFFFFFFF AND CALLER PUSH20 0xFFFFFFFFFFFFFFFFFFFFFFFFFFFFFFFFFFFFFFFF AND EQ DUP1 ISZERO PUSH2 0xD02 JUMPI POP PUSH0 DUP1 SHL PUSH0 SLOAD EQ JUMPDEST DUP1 PUSH2 0xD5B JUMPI POP PUSH20 0xAB8483F64D9C6D1ECF9B849AE677DD3315835CB2 PUSH20 0xFFFFFFFFFFFFFFFFFFFFFFFFFFFFFFFFFFFFFFFF AND CALLER PUSH20 0xFFFFFFFFFFFFFFFFFFFFFFFFFFFFFFFFFFFFFFFF AND EQ DUP1 ISZERO PUSH2 0xD5A JUMPI POP PUSH0 DUP1 SHL PUSH1 0x1 SLOAD EQ JUMPDEST JUMPDEST PUSH2 0xD9A JUMPI PUSH1 0x40 MLOAD PUSH32 0x8C379A000000000000000000000000000000000000000000000000000000000 DUP2 MSTORE PUSH1 0x4 ADD PUSH2 0xD91 SWAP1 PUSH2 0x1654 JUMP JUMPDEST PUSH1 0x40 MLOAD DUP1 SWAP2 SUB SWAP1 REVERT JUMPDEST PUSH8 0xDE0B6B3A7640000 CALLVALUE EQ PUSH2 0xDE4 JUMPI PUSH1 0x40 MLOAD PUSH32 0x8C379A000000000000000000000000000000000000000000000000000000000 DUP2 MSTORE PUSH1 0x4 ADD PUSH2 0xDDB SWAP1 PUSH2 0x16BC JUMP JUMPDEST PUSH1 0x40 MLOAD DUP1 SWAP2 SUB SWAP1 REVERT JUMPDEST PUSH20 0x5B38DA6A701C568545DCFCB03FCB875F56BEDDC4 PUSH20 0xFFFFFFFFFFFFFFFFFFFFFFFFFFFFFFFFFFFFFFFF AND CALLER PUSH20 0xFFFFFFFFFFFFFFFFFFFFFFFFFFFFFFFFFFFFFFFF AND SUB PUSH2 0xE36 JUMPI DUP1 PUSH0 DUP2 SWAP1 SSTORE POP PUSH2 0xE3E JUMP JUMPDEST DUP1 PUSH1 0x1 DUP2 SWAP1 SSTORE POP JUMPDEST PUSH0 DUP1 SHL PUSH0 SLOAD EQ ISZERO DUP1 ISZERO PUSH2 0xE55 JUMPI POP PUSH0 DUP1 SHL PUSH1 0x1 SLOAD EQ ISZERO JUMPDEST ISZERO PUSH2 0xE6F JUMPI PUSH2 0x4650 TIMESTAMP PUSH2 0xE68 SWAP2 SWAP1 PUSH2 0x1549 JUMP JUMPDEST PUSH1 0x4 DUP2 SWAP1 SSTORE POP JUMPDEST POP JUMP JUMPDEST PUSH1 0x4 SLOAD DUP2 JUMP JUMPDEST PUSH0 SLOAD DUP2 JUMP JUMPDEST PUSH1 0x3 SLOAD DUP2 JUMP JUMPDEST PUSH20 0x5B38DA6A701C568545DCFCB03FCB875F56BEDDC4 DUP2 JUMP JUMPDEST PUSH1 0x1 SLOAD DUP2 JUMP JUMPDEST PUSH0 DUP1 SHL PUSH0 DUP2 SWAP1 SSTORE POP PUSH0 DUP1 SHL PUSH1 0x1 DUP2 SWAP1 SSTORE POP PUSH1 0x3 PUSH1 0x2 PUSH0 PUSH2 0x100 EXP DUP2 SLOAD DUP2 PUSH1 0xFF MUL NOT AND SWAP1 DUP4 PUSH1 0x3 DUP2 GT ISZERO PUSH2 0xED7 JUMPI PUSH2 0xED6 PUSH2 0x10AE JUMP JUMPDEST JUMPDEST MUL OR SWAP1 SSTORE POP PUSH1 0x3 PUSH1 0x2 PUSH1 0x1 PUSH2 0x100 EXP DUP2 SLOAD DUP2 PUSH1 0xFF MUL NOT AND SWAP1 DUP4 PUSH1 0x3 DUP2 GT ISZERO PUSH2 0xF02 JUMPI PUSH2 0xF01 PUSH2 0x10AE JUMP JUMPDEST JUMPDEST MUL OR SWAP1 SSTORE POP PUSH0 PUSH1 0x4 DUP2 SWAP1 SSTORE POP JUMP JUMPDEST PUSH0 DUP1 REVERT JUMPDEST PUSH1 0x4 DUP2 LT PUSH2 0xF20 JUMPI PUSH0 DUP1 REVERT JUMPDEST POP JUMP JUMPDEST PUSH0 DUP2 CALLDATALOAD SWAP1 POP PUSH2 0xF31 DUP2 PUSH2 0xF14 JUMP JUMPDEST SWAP3 SWAP2 POP POP JUMP JUMPDEST PUSH0 DUP2 SWAP1 POP SWAP2 SWAP1 POP JUMP JUMPDEST PUSH2 0xF49 DUP2 PUSH2 0xF37 JUMP JUMPDEST DUP2 EQ PUSH2 0xF53 JUMPI PUSH0 DUP1 REVERT JUMPDEST POP JUMP JUMPDEST PUSH0 DUP2 CALLDATALOAD SWAP1 POP PUSH2 0xF64 DUP2 PUSH2 0xF40 JUMP JUMPDEST SWAP3 SWAP2 POP POP JUMP JUMPDEST PUSH0 DUP1 PUSH1 0x40 DUP4 DUP6 SUB SLT ISZERO PUSH2 0xF80 JUMPI PUSH2 0xF7F PUSH2 0xF10 JUMP JUMPDEST JUMPDEST PUSH0 PUSH2 0xF8D DUP6 DUP3 DUP7 ADD PUSH2 0xF23 JUMP JUMPDEST SWAP3 POP POP PUSH1 0x20 PUSH2 0xF9E DUP6 DUP3 DUP7 ADD PUSH2 0xF56 JUMP JUMPDEST SWAP2 POP POP SWAP3 POP SWAP3 SWAP1 POP JUMP JUMPDEST PUSH0 PUSH20 0xFFFFFFFFFFFFFFFFFFFFFFFFFFFFFFFFFFFFFFFF DUP3 AND SWAP1 POP SWAP2 SWAP1 POP JUMP JUMPDEST PUSH0 PUSH2 0xFD1 DUP3 PUSH2 0xFA8 JUMP JUMPDEST SWAP1 POP SWAP2 SWAP1 POP JUMP JUMPDEST PUSH2 0xFE1 DUP2 PUSH2 0xFC7 JUMP JUMPDEST DUP2 EQ PUSH2 0xFEB JUMPI PUSH0 DUP1 REVERT JUMPDEST POP JUMP JUMPDEST PUSH0 DUP2 CALLDATALOAD SWAP1 POP PUSH2 0xFFC DUP2 PUSH2 0xFD8 JUMP JUMPDEST SWAP3 SWAP2 POP POP JUMP JUMPDEST PUSH0 PUSH1 0x20 DUP3 DUP5 SUB SLT ISZERO PUSH2 0x1017 JUMPI PUSH2 0x1016 PUSH2 0xF10 JUMP JUMPDEST JUMPDEST PUSH0 PUSH2 0x1024 DUP5 DUP3 DUP6 ADD PUSH2 0xFEE JUMP JUMPDEST SWAP2 POP POP SWAP3 SWAP2 POP POP JUMP JUMPDEST PUSH2 0x1036 DUP2 PUSH2 0xF37 JUMP JUMPDEST DUP3 MSTORE POP POP JUMP JUMPDEST PUSH0 PUSH1 0x20 DUP3 ADD SWAP1 POP PUSH2 0x104F PUSH0 DUP4 ADD DUP5 PUSH2 0x102D JUMP JUMPDEST SWAP3 SWAP2 POP POP JUMP JUMPDEST PUSH0 DUP2 SWAP1 POP SWAP2 SWAP1 POP JUMP JUMPDEST PUSH2 0x1067 DUP2 PUSH2 0x1055 JUMP JUMPDEST DUP3 MSTORE POP POP JUMP JUMPDEST PUSH0 PUSH1 0x20 DUP3 ADD SWAP1 POP PUSH2 0x1080 PUSH0 DUP4 ADD DUP5 PUSH2 0x105E JUMP JUMPDEST SWAP3 SWAP2 POP POP JUMP JUMPDEST PUSH2 0x108F DUP2 PUSH2 0xFC7 JUMP JUMPDEST DUP3 MSTORE POP POP JUMP JUMPDEST PUSH0 PUSH1 0x20 DUP3 ADD SWAP1 POP PUSH2 0x10A8 PUSH0 DUP4 ADD DUP5 PUSH2 0x1086 JUMP JUMPDEST SWAP3 SWAP2 POP POP JUMP JUMPDEST PUSH32 0x4E487B7100000000000000000000000000000000000000000000000000000000 PUSH0 MSTORE PUSH1 0x21 PUSH1 0x4 MSTORE PUSH1 0x24 PUSH0 REVERT JUMPDEST PUSH1 0x4 DUP2 LT PUSH2 0x10EC JUMPI PUSH2 0x10EB PUSH2 0x10AE JUMP JUMPDEST JUMPDEST POP JUMP JUMPDEST PUSH0 DUP2 SWAP1 POP PUSH2 0x10FC DUP3 PUSH2 0x10DB JUMP JUMPDEST SWAP2 SWAP1 POP JUMP JUMPDEST PUSH0 PUSH2 0x110B DUP3 PUSH2 0x10EF JUMP JUMPDEST SWAP1 POP SWAP2 SWAP1 POP JUMP JUMPDEST PUSH2 0x111B DUP2 PUSH2 0x1101 JUMP JUMPDEST DUP3 MSTORE POP POP JUMP JUMPDEST PUSH0 PUSH1 0x20 DUP3 ADD SWAP1 POP PUSH2 0x1134 PUSH0 DUP4 ADD DUP5 PUSH2 0x1112 JUMP JUMPDEST SWAP3 SWAP2 POP POP JUMP JUMPDEST PUSH2 0x1143 DUP2 PUSH2 0x1055 JUMP JUMPDEST DUP2 EQ PUSH2 0x114D JUMPI PUSH0 DUP1 REVERT JUMPDEST POP JUMP JUMPDEST PUSH0 DUP2 CALLDATALOAD SWAP1 POP PUSH2 0x115E DUP2 PUSH2 0x113A JUMP JUMPDEST SWAP3 SWAP2 POP POP JUMP JUMPDEST PUSH0 PUSH1 0x20 DUP3 DUP5 SUB SLT ISZERO PUSH2 0x1179 JUMPI PUSH2 0x1178 PUSH2 0xF10 JUMP JUMPDEST JUMPDEST PUSH0 PUSH2 0x1186 DUP5 DUP3 DUP6 ADD PUSH2 0x1150 JUMP JUMPDEST SWAP2 POP POP SWAP3 SWAP2 POP POP JUMP JUMPDEST PUSH0 DUP3 DUP3 MSTORE PUSH1 0x20 DUP3 ADD SWAP1 POP SWAP3 SWAP2 POP POP JUMP JUMPDEST PUSH32 0x52657665616C2074696D65206861732062656E206F7665727374657070656400 PUSH0 DUP3 ADD MSTORE POP JUMP JUMPDEST PUSH0 PUSH2 0x11D3 PUSH1 0x1F DUP4 PUSH2 0x118F JUMP JUMPDEST SWAP2 POP PUSH2 0x11DE DUP3 PUSH2 0x119F JUMP JUMPDEST PUSH1 0x20 DUP3 ADD SWAP1 POP SWAP2 SWAP1 POP JUMP JUMPDEST PUSH0 PUSH1 0x20 DUP3 ADD SWAP1 POP DUP2 DUP2 SUB PUSH0 DUP4 ADD MSTORE PUSH2 0x1200 DUP2 PUSH2 0x11C7 JUMP JUMPDEST SWAP1 POP SWAP2 SWAP1 POP JUMP JUMPDEST PUSH32 0x6E6F74206120706C617965720000000000000000000000000000000000000000 PUSH0 DUP3 ADD MSTORE POP JUMP JUMPDEST PUSH0 PUSH2 0x123B PUSH1 0xC DUP4 PUSH2 0x118F JUMP JUMPDEST SWAP2 POP PUSH2 0x1246 DUP3 PUSH2 0x1207 JUMP JUMPDEST PUSH1 0x20 DUP3 ADD SWAP1 POP SWAP2 SWAP1 POP JUMP JUMPDEST PUSH0 PUSH1 0x20 DUP3 ADD SWAP1 POP DUP2 DUP2 SUB PUSH0 DUP4 ADD MSTORE PUSH2 0x1268 DUP2 PUSH2 0x122F JUMP JUMPDEST SWAP1 POP SWAP2 SWAP1 POP JUMP JUMPDEST PUSH32 0x736F6D656F6E65206469646E7420636F6D6D6974206120686173680000000000 PUSH0 DUP3 ADD MSTORE POP JUMP JUMPDEST PUSH0 PUSH2 0x12A3 PUSH1 0x1B DUP4 PUSH2 0x118F JUMP JUMPDEST SWAP2 POP PUSH2 0x12AE DUP3 PUSH2 0x126F JUMP JUMPDEST PUSH1 0x20 DUP3 ADD SWAP1 POP SWAP2 SWAP1 POP JUMP JUMPDEST PUSH0 PUSH1 0x20 DUP3 ADD SWAP1 POP DUP2 DUP2 SUB PUSH0 DUP4 ADD MSTORE PUSH2 0x12D0 DUP2 PUSH2 0x1297 JUMP JUMPDEST SWAP1 POP SWAP2 SWAP1 POP JUMP JUMPDEST PUSH32 0x6861766520746F2063686F6F7365206265747765656E20526F636B2C20506170 PUSH0 DUP3 ADD MSTORE PUSH32 0x657220616E642053636973736F72000000000000000000000000000000000000 PUSH1 0x20 DUP3 ADD MSTORE POP JUMP JUMPDEST PUSH0 PUSH2 0x1331 PUSH1 0x2E DUP4 PUSH2 0x118F JUMP JUMPDEST SWAP2 POP PUSH2 0x133C DUP3 PUSH2 0x12D7 JUMP JUMPDEST PUSH1 0x40 DUP3 ADD SWAP1 POP SWAP2 SWAP1 POP JUMP JUMPDEST PUSH0 PUSH1 0x20 DUP3 ADD SWAP1 POP DUP2 DUP2 SUB PUSH0 DUP4 ADD MSTORE PUSH2 0x135E DUP2 PUSH2 0x1325 JUMP JUMPDEST SWAP1 POP SWAP2 SWAP1 POP JUMP JUMPDEST PUSH0 DUP2 PUSH1 0xF8 SHL SWAP1 POP SWAP2 SWAP1 POP JUMP JUMPDEST PUSH0 PUSH2 0x137B DUP3 PUSH2 0x1365 JUMP JUMPDEST SWAP1 POP SWAP2 SWAP1 POP JUMP JUMPDEST PUSH2 0x1393 PUSH2 0x138E DUP3 PUSH2 0x1101 JUMP JUMPDEST PUSH2 0x1371 JUMP JUMPDEST DUP3 MSTORE POP POP JUMP JUMPDEST PUSH0 DUP2 SWAP1 POP SWAP2 SWAP1 POP JUMP JUMPDEST PUSH2 0x13B3 PUSH2 0x13AE DUP3 PUSH2 0xF37 JUMP JUMPDEST PUSH2 0x1399 JUMP JUMPDEST DUP3 MSTORE POP POP JUMP JUMPDEST PUSH0 PUSH2 0x13C4 DUP3 DUP6 PUSH2 0x1382 JUMP JUMPDEST PUSH1 0x1 DUP3 ADD SWAP2 POP PUSH2 0x13D4 DUP3 DUP5 PUSH2 0x13A2 JUMP JUMPDEST PUSH1 0x20 DUP3 ADD SWAP2 POP DUP2 SWAP1 POP SWAP4 SWAP3 POP POP POP JUMP JUMPDEST PUSH32 0x496E76616C696420636F6D6D697420666F7220706C6179657231000000000000 PUSH0 DUP3 ADD MSTORE POP JUMP JUMPDEST PUSH0 PUSH2 0x1418 PUSH1 0x1A DUP4 PUSH2 0x118F JUMP JUMPDEST SWAP2 POP PUSH2 0x1423 DUP3 PUSH2 0x13E4 JUMP JUMPDEST PUSH1 0x20 DUP3 ADD SWAP1 POP SWAP2 SWAP1 POP JUMP JUMPDEST PUSH0 PUSH1 0x20 DUP3 ADD SWAP1 POP DUP2 DUP2 SUB PUSH0 DUP4 ADD MSTORE PUSH2 0x1445 DUP2 PUSH2 0x140C JUMP JUMPDEST SWAP1 POP SWAP2 SWAP1 POP JUMP JUMPDEST PUSH32 0x496E76616C696420636F6D6D697420666F7220706C6179657232000000000000 PUSH0 DUP3 ADD MSTORE POP JUMP JUMPDEST PUSH0 PUSH2 0x1480 PUSH1 0x1A DUP4 PUSH2 0x118F JUMP JUMPDEST SWAP2 POP PUSH2 0x148B DUP3 PUSH2 0x144C JUMP JUMPDEST PUSH1 0x20 DUP3 ADD SWAP1 POP SWAP2 SWAP1 POP JUMP JUMPDEST PUSH0 PUSH1 0x20 DUP3 ADD SWAP1 POP DUP2 DUP2 SUB PUSH0 DUP4 ADD MSTORE PUSH2 0x14AD DUP2 PUSH2 0x1474 JUMP JUMPDEST SWAP1 POP SWAP2 SWAP1 POP JUMP JUMPDEST PUSH32 0x6174206C65617374206F6E6520706C61796572206469646E742063686F6F7365 PUSH0 DUP3 ADD MSTORE POP JUMP JUMPDEST PUSH0 PUSH2 0x14E8 PUSH1 0x20 DUP4 PUSH2 0x118F JUMP JUMPDEST SWAP2 POP PUSH2 0x14F3 DUP3 PUSH2 0x14B4 JUMP JUMPDEST PUSH1 0x20 DUP3 ADD SWAP1 POP SWAP2 SWAP1 POP JUMP JUMPDEST PUSH0 PUSH1 0x20 DUP3 ADD SWAP1 POP DUP2 DUP2 SUB PUSH0 DUP4 ADD MSTORE PUSH2 0x1515 DUP2 PUSH2 0x14DC JUMP JUMPDEST SWAP1 POP SWAP2 SWAP1 POP JUMP JUMPDEST PUSH32 0x4E487B7100000000000000000000000000000000000000000000000000000000 PUSH0 MSTORE PUSH1 0x11 PUSH1 0x4 MSTORE PUSH1 0x24 PUSH0 REVERT JUMPDEST PUSH0 PUSH2 0x1553 DUP3 PUSH2 0xF37 JUMP JUMPDEST SWAP2 POP PUSH2 0x155E DUP4 PUSH2 0xF37 JUMP JUMPDEST SWAP3 POP DUP3 DUP3 ADD SWAP1 POP DUP1 DUP3 GT ISZERO PUSH2 0x1576 JUMPI PUSH2 0x1575 PUSH2 0x151C JUMP JUMPDEST JUMPDEST SWAP3 SWAP2 POP POP JUMP JUMPDEST PUSH32 0x4E6F2062616C616E636520746F20776974686472617700000000000000000000 PUSH0 DUP3 ADD MSTORE POP JUMP JUMPDEST PUSH0 PUSH2 0x15B0 PUSH1 0x16 DUP4 PUSH2 0x118F JUMP JUMPDEST SWAP2 POP PUSH2 0x15BB DUP3 PUSH2 0x157C JUMP JUMPDEST PUSH1 0x20 DUP3 ADD SWAP1 POP SWAP2 SWAP1 POP JUMP JUMPDEST PUSH0 PUSH1 0x20 DUP3 ADD SWAP1 POP DUP2 DUP2 SUB PUSH0 DUP4 ADD MSTORE PUSH2 0x15DD DUP2 PUSH2 0x15A4 JUMP JUMPDEST SWAP1 POP SWAP2 SWAP1 POP JUMP JUMPDEST PUSH32 0x65697468657220696E76616C696420706C61796572206F7220616C7265616479 PUSH0 DUP3 ADD MSTORE PUSH32 0x20636F6D6D697465640000000000000000000000000000000000000000000000 PUSH1 0x20 DUP3 ADD MSTORE POP JUMP JUMPDEST PUSH0 PUSH2 0x163E PUSH1 0x29 DUP4 PUSH2 0x118F JUMP JUMPDEST SWAP2 POP PUSH2 0x1649 DUP3 PUSH2 0x15E4 JUMP JUMPDEST PUSH1 0x40 DUP3 ADD SWAP1 POP SWAP2 SWAP1 POP JUMP JUMPDEST PUSH0 PUSH1 0x20 DUP3 ADD SWAP1 POP DUP2 DUP2 SUB PUSH0 DUP4 ADD MSTORE PUSH2 0x166B DUP2 PUSH2 0x1632 JUMP JUMPDEST SWAP1 POP SWAP2 SWAP1 POP JUMP JUMPDEST PUSH32 0x4E656564203120657468657220746F2070617274696369706174650000000000 PUSH0 DUP3 ADD MSTORE POP JUMP JUMPDEST PUSH0 PUSH2 0x16A6 PUSH1 0x1B DUP4 PUSH2 0x118F JUMP JUMPDEST SWAP2 POP PUSH2 0x16B1 DUP3 PUSH2 0x1672 JUMP JUMPDEST PUSH1 0x20 DUP3 ADD SWAP1 POP SWAP2 SWAP1 POP JUMP JUMPDEST PUSH0 PUSH1 0x20 DUP3 ADD SWAP1 POP DUP2 DUP2 SUB PUSH0 DUP4 ADD MSTORE PUSH2 0x16D3 DUP2 PUSH2 0x169A JUMP JUMPDEST SWAP1 POP SWAP2 SWAP1 POP JUMP INVALID LOG2 PUSH5 0x6970667358 0x22 SLT KECCAK256 PUSH9 0x409C5D4F667F76EDE4 CODECOPY PUSH29 0xB9C14C26E035410669AA38E52396DD16161C1A364736F6C634300081A STOP CALLER "
				},
				"gasEstimates": {
					"creation": {
						"codeDepositCost": "1180800",
						"executionCost": "49860",
						"totalCost": "1230660"
					},
					"external": {
						"balances(address)": "2848",
						"betAmount()": "2469",
						"commitMove(bytes32)": "infinite",
						"determineWinner()": "infinite",
						"generateCommit(uint8,uint256)": "infinite",
						"player1()": "439",
						"player1Commit()": "2446",
						"player1Move()": "2577",
						"player2()": "440",
						"player2Commit()": "2513",
						"player2Move()": "2694",
						"revealDeadline()": "2492",
						"revealMove(uint8,uint256)": "infinite",
						"withdraw()": "infinite"
					},
					"internal": {
						"resetGame()": "63682"
					}
				},
				"methodIdentifiers": {
					"balances(address)": "27e235e3",
					"betAmount()": "d24257c0",
					"commitMove(bytes32)": "a9ea37b6",
					"determineWinner()": "33b16d93",
					"generateCommit(uint8,uint256)": "562a5b74",
					"player1()": "d30895e4",
					"player1Commit()": "ce6b2225",
					"player1Move()": "8690fd71",
					"player2()": "59a5f12d",
					"player2Commit()": "f1917766",
					"player2Move()": "7685ef8e",
					"revealDeadline()": "b14b28a3",
					"revealMove(uint8,uint256)": "1f683f24",
					"withdraw()": "3ccfd60b"
				}
			},
			"storageLayout": {
				"storage": [
					{
						"astId": 14,
						"contract": "RPS_Schett_with_Transaction_and_Draw.sol:RPS",
						"label": "player1Commit",
						"offset": 0,
						"slot": "0",
						"type": "t_bytes32"
					},
					{
						"astId": 16,
						"contract": "RPS_Schett_with_Transaction_and_Draw.sol:RPS",
						"label": "player2Commit",
						"offset": 0,
						"slot": "1",
						"type": "t_bytes32"
					},
					{
						"astId": 21,
						"contract": "RPS_Schett_with_Transaction_and_Draw.sol:RPS",
						"label": "player1Move",
						"offset": 0,
						"slot": "2",
						"type": "t_enum(Move)6"
					},
					{
						"astId": 26,
						"contract": "RPS_Schett_with_Transaction_and_Draw.sol:RPS",
						"label": "player2Move",
						"offset": 1,
						"slot": "2",
						"type": "t_enum(Move)6"
					},
					{
						"astId": 28,
						"contract": "RPS_Schett_with_Transaction_and_Draw.sol:RPS",
						"label": "betAmount",
						"offset": 0,
						"slot": "3",
						"type": "t_uint256"
					},
					{
						"astId": 33,
						"contract": "RPS_Schett_with_Transaction_and_Draw.sol:RPS",
						"label": "revealDeadline",
						"offset": 0,
						"slot": "4",
						"type": "t_uint256"
					},
					{
						"astId": 37,
						"contract": "RPS_Schett_with_Transaction_and_Draw.sol:RPS",
						"label": "balances",
						"offset": 0,
						"slot": "5",
						"type": "t_mapping(t_address,t_uint256)"
					}
				],
				"types": {
					"t_address": {
						"encoding": "inplace",
						"label": "address",
						"numberOfBytes": "20"
					},
					"t_bytes32": {
						"encoding": "inplace",
						"label": "bytes32",
						"numberOfBytes": "32"
					},
					"t_enum(Move)6": {
						"encoding": "inplace",
						"label": "enum RPS.Move",
						"numberOfBytes": "1"
					},
					"t_mapping(t_address,t_uint256)": {
						"encoding": "mapping",
						"key": "t_address",
						"label": "mapping(address => uint256)",
						"numberOfBytes": "32",
						"value": "t_uint256"
					},
					"t_uint256": {
						"encoding": "inplace",
						"label": "uint256",
						"numberOfBytes": "32"
					}
				}
			},
			"userdoc": {
				"kind": "user",
				"methods": {},
				"version": 1
			}
		}
	}
}