{
	"RPS_Schett1.sol": {
		"RPS": {
			"abi": [
				{
					"inputs": [
						{
							"internalType": "bytes32",
							"name": "commit",
							"type": "bytes32"
						}
					],
					"name": "commitMove",
					"outputs": [],
					"stateMutability": "nonpayable",
					"type": "function"
				},
				{
					"inputs": [
						{
							"internalType": "uint256",
							"name": "v",
							"type": "uint256"
						},
						{
							"internalType": "uint256",
							"name": "rand",
							"type": "uint256"
						}
					],
					"name": "generateCommit",
					"outputs": [
						{
							"internalType": "bytes32",
							"name": "",
							"type": "bytes32"
						}
					],
					"stateMutability": "pure",
					"type": "function"
				},
				{
					"inputs": [],
					"name": "player1",
					"outputs": [
						{
							"internalType": "address",
							"name": "",
							"type": "address"
						}
					],
					"stateMutability": "view",
					"type": "function"
				},
				{
					"inputs": [],
					"name": "player1Commit",
					"outputs": [
						{
							"internalType": "bytes32",
							"name": "",
							"type": "bytes32"
						}
					],
					"stateMutability": "view",
					"type": "function"
				},
				{
					"inputs": [],
					"name": "player1Move",
					"outputs": [
						{
							"internalType": "enum RPS.Move",
							"name": "",
							"type": "uint8"
						}
					],
					"stateMutability": "view",
					"type": "function"
				},
				{
					"inputs": [],
					"name": "player2",
					"outputs": [
						{
							"internalType": "address",
							"name": "",
							"type": "address"
						}
					],
					"stateMutability": "view",
					"type": "function"
				},
				{
					"inputs": [],
					"name": "player2Commit",
					"outputs": [
						{
							"internalType": "bytes32",
							"name": "",
							"type": "bytes32"
						}
					],
					"stateMutability": "view",
					"type": "function"
				},
				{
					"inputs": [],
					"name": "player2Move",
					"outputs": [
						{
							"internalType": "enum RPS.Move",
							"name": "",
							"type": "uint8"
						}
					],
					"stateMutability": "view",
					"type": "function"
				},
				{
					"inputs": [
						{
							"internalType": "uint256",
							"name": "move",
							"type": "uint256"
						},
						{
							"internalType": "uint256",
							"name": "rand",
							"type": "uint256"
						}
					],
					"name": "revealMove",
					"outputs": [],
					"stateMutability": "nonpayable",
					"type": "function"
				}
			],
			"devdoc": {
				"kind": "dev",
				"methods": {},
				"version": 1
			},
			"evm": {
				"assembly": "    /* \"RPS_Schett1.sol\":261:2014  contract RPS{... */\n  mstore(0x40, 0x80)\n  callvalue\n  dup1\n  iszero\n  tag_1\n  jumpi\n  0x00\n  dup1\n  revert\ntag_1:\n  pop\n  dataSize(sub_0)\n  dup1\n  dataOffset(sub_0)\n  0x00\n  codecopy\n  0x00\n  return\nstop\n\nsub_0: assembly {\n        /* \"RPS_Schett1.sol\":261:2014  contract RPS{... */\n      mstore(0x40, 0x80)\n      callvalue\n      dup1\n      iszero\n      tag_1\n      jumpi\n      0x00\n      dup1\n      revert\n    tag_1:\n      pop\n      jumpi(tag_2, lt(calldatasize, 0x04))\n      shr(0xe0, calldataload(0x00))\n      dup1\n      0x8690fd71\n      gt\n      tag_12\n      jumpi\n      dup1\n      0x8690fd71\n      eq\n      tag_7\n      jumpi\n      dup1\n      0xa9ea37b6\n      eq\n      tag_8\n      jumpi\n      dup1\n      0xce6b2225\n      eq\n      tag_9\n      jumpi\n      dup1\n      0xd30895e4\n      eq\n      tag_10\n      jumpi\n      dup1\n      0xf1917766\n      eq\n      tag_11\n      jumpi\n      jump(tag_2)\n    tag_12:\n      dup1\n      0x12190ae0\n      eq\n      tag_3\n      jumpi\n      dup1\n      0x5280fba0\n      eq\n      tag_4\n      jumpi\n      dup1\n      0x59a5f12d\n      eq\n      tag_5\n      jumpi\n      dup1\n      0x7685ef8e\n      eq\n      tag_6\n      jumpi\n    tag_2:\n      0x00\n      dup1\n      revert\n        /* \"RPS_Schett1.sol\":559:692  function generateCommit(uint v, uint rand) public pure returns(bytes32){... */\n    tag_3:\n      tag_13\n      0x04\n      dup1\n      calldatasize\n      sub\n      dup2\n      add\n      swap1\n      tag_14\n      swap2\n      swap1\n      tag_15\n      jump\t// in\n    tag_14:\n      tag_16\n      jump\t// in\n    tag_13:\n      mload(0x40)\n      tag_17\n      swap2\n      swap1\n      tag_18\n      jump\t// in\n    tag_17:\n      mload(0x40)\n      dup1\n      swap2\n      sub\n      swap1\n      return\n        /* \"RPS_Schett1.sol\":1035:1638  function revealMove(uint move, uint rand) external {... */\n    tag_4:\n      tag_19\n      0x04\n      dup1\n      calldatasize\n      sub\n      dup2\n      add\n      swap1\n      tag_20\n      swap2\n      swap1\n      tag_15\n      jump\t// in\n    tag_20:\n      tag_21\n      jump\t// in\n    tag_19:\n      stop\n        /* \"RPS_Schett1.sol\":349:371  address public player2 */\n    tag_5:\n      tag_22\n      tag_23\n      jump\t// in\n    tag_22:\n      mload(0x40)\n      tag_24\n      swap2\n      swap1\n      tag_25\n      jump\t// in\n    tag_24:\n      mload(0x40)\n      dup1\n      swap2\n      sub\n      swap1\n      return\n        /* \"RPS_Schett1.sol\":478:501  Move public player2Move */\n    tag_6:\n      tag_26\n      tag_27\n      jump\t// in\n    tag_26:\n      mload(0x40)\n      tag_28\n      swap2\n      swap1\n      tag_29\n      jump\t// in\n    tag_28:\n      mload(0x40)\n      dup1\n      swap2\n      sub\n      swap1\n      return\n        /* \"RPS_Schett1.sol\":448:471  Move public player1Move */\n    tag_7:\n      tag_30\n      tag_31\n      jump\t// in\n    tag_30:\n      mload(0x40)\n      tag_32\n      swap2\n      swap1\n      tag_29\n      jump\t// in\n    tag_32:\n      mload(0x40)\n      dup1\n      swap2\n      sub\n      swap1\n      return\n        /* \"RPS_Schett1.sol\":700:1027  function commitMove(bytes32 commit) external {... */\n    tag_8:\n      tag_33\n      0x04\n      dup1\n      calldatasize\n      sub\n      dup2\n      add\n      swap1\n      tag_34\n      swap2\n      swap1\n      tag_35\n      jump\t// in\n    tag_34:\n      tag_36\n      jump\t// in\n    tag_33:\n      stop\n        /* \"RPS_Schett1.sol\":378:406  bytes32 public player1Commit */\n    tag_9:\n      tag_37\n      tag_38\n      jump\t// in\n    tag_37:\n      mload(0x40)\n      tag_39\n      swap2\n      swap1\n      tag_18\n      jump\t// in\n    tag_39:\n      mload(0x40)\n      dup1\n      swap2\n      sub\n      swap1\n      return\n        /* \"RPS_Schett1.sol\":320:342  address public player1 */\n    tag_10:\n      tag_40\n      tag_41\n      jump\t// in\n    tag_40:\n      mload(0x40)\n      tag_42\n      swap2\n      swap1\n      tag_25\n      jump\t// in\n    tag_42:\n      mload(0x40)\n      dup1\n      swap2\n      sub\n      swap1\n      return\n        /* \"RPS_Schett1.sol\":413:441  bytes32 public player2Commit */\n    tag_11:\n      tag_43\n      tag_44\n      jump\t// in\n    tag_43:\n      mload(0x40)\n      tag_45\n      swap2\n      swap1\n      tag_18\n      jump\t// in\n    tag_45:\n      mload(0x40)\n      dup1\n      swap2\n      sub\n      swap1\n      return\n        /* \"RPS_Schett1.sol\":559:692  function generateCommit(uint v, uint rand) public pure returns(bytes32){... */\n    tag_16:\n        /* \"RPS_Schett1.sol\":622:629  bytes32 */\n      0x00\n        /* \"RPS_Schett1.sol\":675:676  v */\n      dup3\n        /* \"RPS_Schett1.sol\":678:682  rand */\n      dup3\n        /* \"RPS_Schett1.sol\":658:683  abi.encodePacked(v, rand) */\n      add(0x20, mload(0x40))\n      tag_47\n      swap3\n      swap2\n      swap1\n      tag_48\n      jump\t// in\n    tag_47:\n      mload(0x40)\n      0x20\n      dup2\n      dup4\n      sub\n      sub\n      dup2\n      mstore\n      swap1\n      0x40\n      mstore\n        /* \"RPS_Schett1.sol\":648:684  keccak256(abi.encodePacked(v, rand)) */\n      dup1\n      mload\n      swap1\n      0x20\n      add\n      keccak256\n        /* \"RPS_Schett1.sol\":641:684  return keccak256(abi.encodePacked(v, rand)) */\n      swap1\n      pop\n        /* \"RPS_Schett1.sol\":559:692  function generateCommit(uint v, uint rand) public pure returns(bytes32){... */\n      swap3\n      swap2\n      pop\n      pop\n      jump\t// out\n        /* \"RPS_Schett1.sol\":1035:1638  function revealMove(uint move, uint rand) external {... */\n    tag_21:\n        /* \"RPS_Schett1.sol\":1119:1126  player1 */\n      0x00\n      dup1\n      sload\n      swap1\n      0x0100\n      exp\n      swap1\n      div\n      0xffffffffffffffffffffffffffffffffffffffff\n      and\n        /* \"RPS_Schett1.sol\":1105:1126  msg.sender == player1 */\n      0xffffffffffffffffffffffffffffffffffffffff\n      and\n        /* \"RPS_Schett1.sol\":1105:1115  msg.sender */\n      caller\n        /* \"RPS_Schett1.sol\":1105:1126  msg.sender == player1 */\n      0xffffffffffffffffffffffffffffffffffffffff\n      and\n      eq\n        /* \"RPS_Schett1.sol\":1105:1151  msg.sender == player1 || msg.sender == player2 */\n      dup1\n      tag_50\n      jumpi\n      pop\n        /* \"RPS_Schett1.sol\":1144:1151  player2 */\n      0x01\n      0x00\n      swap1\n      sload\n      swap1\n      0x0100\n      exp\n      swap1\n      div\n      0xffffffffffffffffffffffffffffffffffffffff\n      and\n        /* \"RPS_Schett1.sol\":1130:1151  msg.sender == player2 */\n      0xffffffffffffffffffffffffffffffffffffffff\n      and\n        /* \"RPS_Schett1.sol\":1130:1140  msg.sender */\n      caller\n        /* \"RPS_Schett1.sol\":1130:1151  msg.sender == player2 */\n      0xffffffffffffffffffffffffffffffffffffffff\n      and\n      eq\n        /* \"RPS_Schett1.sol\":1105:1151  msg.sender == player1 || msg.sender == player2 */\n    tag_50:\n        /* \"RPS_Schett1.sol\":1097:1168  require(msg.sender == player1 || msg.sender == player2, \"not a player\") */\n      tag_51\n      jumpi\n      mload(0x40)\n      0x08c379a000000000000000000000000000000000000000000000000000000000\n      dup2\n      mstore\n      0x04\n      add\n      tag_52\n      swap1\n      tag_53\n      jump\t// in\n    tag_52:\n      mload(0x40)\n      dup1\n      swap2\n      sub\n      swap1\n      revert\n    tag_51:\n        /* \"RPS_Schett1.sol\":1259:1273  bytes32 commit */\n      0x00\n        /* \"RPS_Schett1.sol\":1276:1302  generateCommit(move, rand) */\n      tag_54\n        /* \"RPS_Schett1.sol\":1291:1295  move */\n      dup4\n        /* \"RPS_Schett1.sol\":1297:1301  rand */\n      dup4\n        /* \"RPS_Schett1.sol\":1276:1290  generateCommit */\n      tag_16\n        /* \"RPS_Schett1.sol\":1276:1302  generateCommit(move, rand) */\n      jump\t// in\n    tag_54:\n        /* \"RPS_Schett1.sol\":1259:1302  bytes32 commit = generateCommit(move, rand) */\n      swap1\n      pop\n        /* \"RPS_Schett1.sol\":1331:1338  player1 */\n      0x00\n      dup1\n      sload\n      swap1\n      0x0100\n      exp\n      swap1\n      div\n      0xffffffffffffffffffffffffffffffffffffffff\n      and\n        /* \"RPS_Schett1.sol\":1317:1338  msg.sender == player1 */\n      0xffffffffffffffffffffffffffffffffffffffff\n      and\n        /* \"RPS_Schett1.sol\":1317:1327  msg.sender */\n      caller\n        /* \"RPS_Schett1.sol\":1317:1338  msg.sender == player1 */\n      0xffffffffffffffffffffffffffffffffffffffff\n      and\n      sub\n        /* \"RPS_Schett1.sol\":1313:1601  if (msg.sender == player1){... */\n      tag_55\n      jumpi\n        /* \"RPS_Schett1.sol\":1372:1385  player1Commit */\n      sload(0x02)\n        /* \"RPS_Schett1.sol\":1362:1368  commit */\n      dup2\n        /* \"RPS_Schett1.sol\":1362:1385  commit == player1Commit */\n      eq\n        /* \"RPS_Schett1.sol\":1354:1416  require(commit == player1Commit, \"Invalid commit for player1\") */\n      tag_56\n      jumpi\n      mload(0x40)\n      0x08c379a000000000000000000000000000000000000000000000000000000000\n      dup2\n      mstore\n      0x04\n      add\n      tag_57\n      swap1\n      tag_58\n      jump\t// in\n    tag_57:\n      mload(0x40)\n      dup1\n      swap2\n      sub\n      swap1\n      revert\n    tag_56:\n        /* \"RPS_Schett1.sol\":1450:1454  move */\n      dup3\n        /* \"RPS_Schett1.sol\":1445:1455  Move(move) */\n      0x02\n      dup2\n      gt\n      iszero\n      tag_59\n      jumpi\n      tag_60\n      tag_61\n      jump\t// in\n    tag_60:\n    tag_59:\n        /* \"RPS_Schett1.sol\":1431:1442  player1Move */\n      0x04\n      0x00\n        /* \"RPS_Schett1.sol\":1431:1455  player1Move = Move(move) */\n      0x0100\n      exp\n      dup2\n      sload\n      dup2\n      0xff\n      mul\n      not\n      and\n      swap1\n      dup4\n      0x02\n      dup2\n      gt\n      iszero\n      tag_62\n      jumpi\n      tag_63\n      tag_61\n      jump\t// in\n    tag_63:\n    tag_62:\n      mul\n      or\n      swap1\n      sstore\n      pop\n        /* \"RPS_Schett1.sol\":1313:1601  if (msg.sender == player1){... */\n      jump(tag_64)\n    tag_55:\n        /* \"RPS_Schett1.sol\":1506:1519  player2Commit */\n      sload(0x03)\n        /* \"RPS_Schett1.sol\":1496:1502  commit */\n      dup2\n        /* \"RPS_Schett1.sol\":1496:1519  commit == player2Commit */\n      eq\n        /* \"RPS_Schett1.sol\":1488:1550  require(commit == player2Commit, \"Invalid commit for player1\") */\n      tag_65\n      jumpi\n      mload(0x40)\n      0x08c379a000000000000000000000000000000000000000000000000000000000\n      dup2\n      mstore\n      0x04\n      add\n      tag_66\n      swap1\n      tag_58\n      jump\t// in\n    tag_66:\n      mload(0x40)\n      dup1\n      swap2\n      sub\n      swap1\n      revert\n    tag_65:\n        /* \"RPS_Schett1.sol\":1584:1588  move */\n      dup3\n        /* \"RPS_Schett1.sol\":1579:1589  Move(move) */\n      0x02\n      dup2\n      gt\n      iszero\n      tag_67\n      jumpi\n      tag_68\n      tag_61\n      jump\t// in\n    tag_68:\n    tag_67:\n        /* \"RPS_Schett1.sol\":1565:1576  player2Move */\n      0x04\n      0x01\n        /* \"RPS_Schett1.sol\":1565:1589  player2Move = Move(move) */\n      0x0100\n      exp\n      dup2\n      sload\n      dup2\n      0xff\n      mul\n      not\n      and\n      swap1\n      dup4\n      0x02\n      dup2\n      gt\n      iszero\n      tag_69\n      jumpi\n      tag_70\n      tag_61\n      jump\t// in\n    tag_70:\n    tag_69:\n      mul\n      or\n      swap1\n      sstore\n      pop\n        /* \"RPS_Schett1.sol\":1313:1601  if (msg.sender == player1){... */\n    tag_64:\n        /* \"RPS_Schett1.sol\":1613:1630  determineWinner() */\n      tag_71\n        /* \"RPS_Schett1.sol\":1613:1628  determineWinner */\n      tag_72\n        /* \"RPS_Schett1.sol\":1613:1630  determineWinner() */\n      jump\t// in\n    tag_71:\n        /* \"RPS_Schett1.sol\":1086:1638  {... */\n      pop\n        /* \"RPS_Schett1.sol\":1035:1638  function revealMove(uint move, uint rand) external {... */\n      pop\n      pop\n      jump\t// out\n        /* \"RPS_Schett1.sol\":349:371  address public player2 */\n    tag_23:\n      0x01\n      0x00\n      swap1\n      sload\n      swap1\n      0x0100\n      exp\n      swap1\n      div\n      0xffffffffffffffffffffffffffffffffffffffff\n      and\n      dup2\n      jump\t// out\n        /* \"RPS_Schett1.sol\":478:501  Move public player2Move */\n    tag_27:\n      0x04\n      0x01\n      swap1\n      sload\n      swap1\n      0x0100\n      exp\n      swap1\n      div\n      0xff\n      and\n      dup2\n      jump\t// out\n        /* \"RPS_Schett1.sol\":448:471  Move public player1Move */\n    tag_31:\n      0x04\n      0x00\n      swap1\n      sload\n      swap1\n      0x0100\n      exp\n      swap1\n      div\n      0xff\n      and\n      dup2\n      jump\t// out\n        /* \"RPS_Schett1.sol\":700:1027  function commitMove(bytes32 commit) external {... */\n    tag_36:\n        /* \"RPS_Schett1.sol\":774:781  player1 */\n      0x00\n      dup1\n      sload\n      swap1\n      0x0100\n      exp\n      swap1\n      div\n      0xffffffffffffffffffffffffffffffffffffffff\n      and\n        /* \"RPS_Schett1.sol\":760:781  msg.sender == player1 */\n      0xffffffffffffffffffffffffffffffffffffffff\n      and\n        /* \"RPS_Schett1.sol\":760:770  msg.sender */\n      caller\n        /* \"RPS_Schett1.sol\":760:781  msg.sender == player1 */\n      0xffffffffffffffffffffffffffffffffffffffff\n      and\n      sub\n        /* \"RPS_Schett1.sol\":756:1020  if (msg.sender == player1) {... */\n      tag_74\n      jumpi\n        /* \"RPS_Schett1.sol\":823:824  0 */\n      0x00\n        /* \"RPS_Schett1.sol\":806:824  player1Commit == 0 */\n      dup1\n      shl\n        /* \"RPS_Schett1.sol\":806:819  player1Commit */\n      sload(0x02)\n        /* \"RPS_Schett1.sol\":806:824  player1Commit == 0 */\n      eq\n        /* \"RPS_Schett1.sol\":798:850  require(player1Commit == 0, \"Player 1 has commited\") */\n      tag_75\n      jumpi\n      mload(0x40)\n      0x08c379a000000000000000000000000000000000000000000000000000000000\n      dup2\n      mstore\n      0x04\n      add\n      tag_76\n      swap1\n      tag_77\n      jump\t// in\n    tag_76:\n      mload(0x40)\n      dup1\n      swap2\n      sub\n      swap1\n      revert\n    tag_75:\n        /* \"RPS_Schett1.sol\":881:887  commit */\n      dup1\n        /* \"RPS_Schett1.sol\":865:878  player1Commit */\n      0x02\n        /* \"RPS_Schett1.sol\":865:887  player1Commit = commit */\n      dup2\n      swap1\n      sstore\n      pop\n        /* \"RPS_Schett1.sol\":756:1020  if (msg.sender == player1) {... */\n      jump(tag_78)\n    tag_74:\n        /* \"RPS_Schett1.sol\":945:946  0 */\n      0x00\n        /* \"RPS_Schett1.sol\":928:946  player2Commit == 0 */\n      dup1\n      shl\n        /* \"RPS_Schett1.sol\":928:941  player2Commit */\n      sload(0x03)\n        /* \"RPS_Schett1.sol\":928:946  player2Commit == 0 */\n      eq\n        /* \"RPS_Schett1.sol\":920:971  require(player2Commit == 0, \"Player 2 has comited\") */\n      tag_79\n      jumpi\n      mload(0x40)\n      0x08c379a000000000000000000000000000000000000000000000000000000000\n      dup2\n      mstore\n      0x04\n      add\n      tag_80\n      swap1\n      tag_81\n      jump\t// in\n    tag_80:\n      mload(0x40)\n      dup1\n      swap2\n      sub\n      swap1\n      revert\n    tag_79:\n        /* \"RPS_Schett1.sol\":1002:1008  commit */\n      dup1\n        /* \"RPS_Schett1.sol\":986:999  player2Commit */\n      0x03\n        /* \"RPS_Schett1.sol\":986:1008  player2Commit = commit */\n      dup2\n      swap1\n      sstore\n      pop\n        /* \"RPS_Schett1.sol\":756:1020  if (msg.sender == player1) {... */\n    tag_78:\n        /* \"RPS_Schett1.sol\":700:1027  function commitMove(bytes32 commit) external {... */\n      pop\n      jump\t// out\n        /* \"RPS_Schett1.sol\":378:406  bytes32 public player1Commit */\n    tag_38:\n      sload(0x02)\n      dup2\n      jump\t// out\n        /* \"RPS_Schett1.sol\":320:342  address public player1 */\n    tag_41:\n      0x00\n      dup1\n      sload\n      swap1\n      0x0100\n      exp\n      swap1\n      div\n      0xffffffffffffffffffffffffffffffffffffffff\n      and\n      dup2\n      jump\t// out\n        /* \"RPS_Schett1.sol\":413:441  bytes32 public player2Commit */\n    tag_44:\n      sload(0x03)\n      dup2\n      jump\t// out\n        /* \"RPS_Schett1.sol\":1646:2007  function determineWinner() internal view {... */\n    tag_72:\n        /* \"RPS_Schett1.sol\":1718:1727  Move.Rock */\n      0x00\n        /* \"RPS_Schett1.sol\":1703:1727  player1Move == Move.Rock */\n      0x02\n      dup2\n      gt\n      iszero\n      tag_83\n      jumpi\n      tag_84\n      tag_61\n      jump\t// in\n    tag_84:\n    tag_83:\n        /* \"RPS_Schett1.sol\":1703:1714  player1Move */\n      0x04\n      0x00\n      swap1\n      sload\n      swap1\n      0x0100\n      exp\n      swap1\n      div\n      0xff\n      and\n        /* \"RPS_Schett1.sol\":1703:1727  player1Move == Move.Rock */\n      0x02\n      dup2\n      gt\n      iszero\n      tag_85\n      jumpi\n      tag_86\n      tag_61\n      jump\t// in\n    tag_86:\n    tag_85:\n      eq\n        /* \"RPS_Schett1.sol\":1703:1759  player1Move == Move.Rock && player2Move == Move.Scissors */\n      dup1\n      iszero\n      tag_87\n      jumpi\n      pop\n        /* \"RPS_Schett1.sol\":1746:1759  Move.Scissors */\n      0x02\n        /* \"RPS_Schett1.sol\":1731:1759  player2Move == Move.Scissors */\n      dup1\n      dup2\n      gt\n      iszero\n      tag_88\n      jumpi\n      tag_89\n      tag_61\n      jump\t// in\n    tag_89:\n    tag_88:\n        /* \"RPS_Schett1.sol\":1731:1742  player2Move */\n      0x04\n      0x01\n      swap1\n      sload\n      swap1\n      0x0100\n      exp\n      swap1\n      div\n      0xff\n      and\n        /* \"RPS_Schett1.sol\":1731:1759  player2Move == Move.Scissors */\n      0x02\n      dup2\n      gt\n      iszero\n      tag_90\n      jumpi\n      tag_91\n      tag_61\n      jump\t// in\n    tag_91:\n    tag_90:\n      eq\n        /* \"RPS_Schett1.sol\":1703:1759  player1Move == Move.Rock && player2Move == Move.Scissors */\n    tag_87:\n        /* \"RPS_Schett1.sol\":1702:1836  (player1Move == Move.Rock && player2Move == Move.Scissors) ||... */\n      dup1\n      tag_92\n      jumpi\n      pop\n        /* \"RPS_Schett1.sol\":1793:1806  Move.Scissors */\n      0x02\n        /* \"RPS_Schett1.sol\":1778:1806  player1Move == Move.Scissors */\n      dup1\n      dup2\n      gt\n      iszero\n      tag_93\n      jumpi\n      tag_94\n      tag_61\n      jump\t// in\n    tag_94:\n    tag_93:\n        /* \"RPS_Schett1.sol\":1778:1789  player1Move */\n      0x04\n      0x00\n      swap1\n      sload\n      swap1\n      0x0100\n      exp\n      swap1\n      div\n      0xff\n      and\n        /* \"RPS_Schett1.sol\":1778:1806  player1Move == Move.Scissors */\n      0x02\n      dup2\n      gt\n      iszero\n      tag_95\n      jumpi\n      tag_96\n      tag_61\n      jump\t// in\n    tag_96:\n    tag_95:\n      eq\n        /* \"RPS_Schett1.sol\":1778:1835  player1Move == Move.Scissors && player2Move == Move.Paper */\n      dup1\n      iszero\n      tag_97\n      jumpi\n      pop\n        /* \"RPS_Schett1.sol\":1825:1835  Move.Paper */\n      0x01\n        /* \"RPS_Schett1.sol\":1810:1835  player2Move == Move.Paper */\n      0x02\n      dup2\n      gt\n      iszero\n      tag_98\n      jumpi\n      tag_99\n      tag_61\n      jump\t// in\n    tag_99:\n    tag_98:\n        /* \"RPS_Schett1.sol\":1810:1821  player2Move */\n      0x04\n      0x01\n      swap1\n      sload\n      swap1\n      0x0100\n      exp\n      swap1\n      div\n      0xff\n      and\n        /* \"RPS_Schett1.sol\":1810:1835  player2Move == Move.Paper */\n      0x02\n      dup2\n      gt\n      iszero\n      tag_100\n      jumpi\n      tag_101\n      tag_61\n      jump\t// in\n    tag_101:\n    tag_100:\n      eq\n        /* \"RPS_Schett1.sol\":1778:1835  player1Move == Move.Scissors && player2Move == Move.Paper */\n    tag_97:\n        /* \"RPS_Schett1.sol\":1702:1836  (player1Move == Move.Rock && player2Move == Move.Scissors) ||... */\n    tag_92:\n        /* \"RPS_Schett1.sol\":1702:1908  (player1Move == Move.Rock && player2Move == Move.Scissors) ||... */\n      dup1\n      tag_102\n      jumpi\n      pop\n        /* \"RPS_Schett1.sol\":1869:1879  Move.Paper */\n      0x01\n        /* \"RPS_Schett1.sol\":1854:1879  player1Move == Move.Paper */\n      0x02\n      dup2\n      gt\n      iszero\n      tag_103\n      jumpi\n      tag_104\n      tag_61\n      jump\t// in\n    tag_104:\n    tag_103:\n        /* \"RPS_Schett1.sol\":1854:1865  player1Move */\n      0x04\n      0x00\n      swap1\n      sload\n      swap1\n      0x0100\n      exp\n      swap1\n      div\n      0xff\n      and\n        /* \"RPS_Schett1.sol\":1854:1879  player1Move == Move.Paper */\n      0x02\n      dup2\n      gt\n      iszero\n      tag_105\n      jumpi\n      tag_106\n      tag_61\n      jump\t// in\n    tag_106:\n    tag_105:\n      eq\n        /* \"RPS_Schett1.sol\":1854:1907  player1Move == Move.Paper && player2Move == Move.Rock */\n      dup1\n      iszero\n      tag_107\n      jumpi\n      pop\n        /* \"RPS_Schett1.sol\":1898:1907  Move.Rock */\n      0x00\n        /* \"RPS_Schett1.sol\":1883:1907  player2Move == Move.Rock */\n      0x02\n      dup2\n      gt\n      iszero\n      tag_108\n      jumpi\n      tag_109\n      tag_61\n      jump\t// in\n    tag_109:\n    tag_108:\n        /* \"RPS_Schett1.sol\":1883:1894  player2Move */\n      0x04\n      0x01\n      swap1\n      sload\n      swap1\n      0x0100\n      exp\n      swap1\n      div\n      0xff\n      and\n        /* \"RPS_Schett1.sol\":1883:1907  player2Move == Move.Rock */\n      0x02\n      dup2\n      gt\n      iszero\n      tag_110\n      jumpi\n      tag_111\n      tag_61\n      jump\t// in\n    tag_111:\n    tag_110:\n      eq\n        /* \"RPS_Schett1.sol\":1854:1907  player1Move == Move.Paper && player2Move == Move.Rock */\n    tag_107:\n        /* \"RPS_Schett1.sol\":1702:1908  (player1Move == Move.Rock && player2Move == Move.Scissors) ||... */\n    tag_102:\n        /* \"RPS_Schett1.sol\":1698:2000  if ((player1Move == Move.Rock && player2Move == Move.Scissors) ||... */\n      pop\n        /* \"RPS_Schett1.sol\":1646:2007  function determineWinner() internal view {... */\n      jump\t// out\n        /* \"#utility.yul\":88:205   */\n    tag_115:\n        /* \"#utility.yul\":197:198   */\n      0x00\n        /* \"#utility.yul\":194:195   */\n      dup1\n        /* \"#utility.yul\":187:199   */\n      revert\n        /* \"#utility.yul\":334:411   */\n    tag_117:\n        /* \"#utility.yul\":371:378   */\n      0x00\n        /* \"#utility.yul\":400:405   */\n      dup2\n        /* \"#utility.yul\":389:405   */\n      swap1\n      pop\n        /* \"#utility.yul\":334:411   */\n      swap2\n      swap1\n      pop\n      jump\t// out\n        /* \"#utility.yul\":417:539   */\n    tag_118:\n        /* \"#utility.yul\":490:514   */\n      tag_148\n        /* \"#utility.yul\":508:513   */\n      dup2\n        /* \"#utility.yul\":490:514   */\n      tag_117\n      jump\t// in\n    tag_148:\n        /* \"#utility.yul\":483:488   */\n      dup2\n        /* \"#utility.yul\":480:515   */\n      eq\n        /* \"#utility.yul\":470:533   */\n      tag_149\n      jumpi\n        /* \"#utility.yul\":529:530   */\n      0x00\n        /* \"#utility.yul\":526:527   */\n      dup1\n        /* \"#utility.yul\":519:531   */\n      revert\n        /* \"#utility.yul\":470:533   */\n    tag_149:\n        /* \"#utility.yul\":417:539   */\n      pop\n      jump\t// out\n        /* \"#utility.yul\":545:684   */\n    tag_119:\n        /* \"#utility.yul\":591:596   */\n      0x00\n        /* \"#utility.yul\":629:635   */\n      dup2\n        /* \"#utility.yul\":616:636   */\n      calldataload\n        /* \"#utility.yul\":607:636   */\n      swap1\n      pop\n        /* \"#utility.yul\":645:678   */\n      tag_151\n        /* \"#utility.yul\":672:677   */\n      dup2\n        /* \"#utility.yul\":645:678   */\n      tag_118\n      jump\t// in\n    tag_151:\n        /* \"#utility.yul\":545:684   */\n      swap3\n      swap2\n      pop\n      pop\n      jump\t// out\n        /* \"#utility.yul\":690:1164   */\n    tag_15:\n        /* \"#utility.yul\":758:764   */\n      0x00\n        /* \"#utility.yul\":766:772   */\n      dup1\n        /* \"#utility.yul\":815:817   */\n      0x40\n        /* \"#utility.yul\":803:812   */\n      dup4\n        /* \"#utility.yul\":794:801   */\n      dup6\n        /* \"#utility.yul\":790:813   */\n      sub\n        /* \"#utility.yul\":786:818   */\n      slt\n        /* \"#utility.yul\":783:902   */\n      iszero\n      tag_153\n      jumpi\n        /* \"#utility.yul\":821:900   */\n      tag_154\n      tag_115\n      jump\t// in\n    tag_154:\n        /* \"#utility.yul\":783:902   */\n    tag_153:\n        /* \"#utility.yul\":941:942   */\n      0x00\n        /* \"#utility.yul\":966:1019   */\n      tag_155\n        /* \"#utility.yul\":1011:1018   */\n      dup6\n        /* \"#utility.yul\":1002:1008   */\n      dup3\n        /* \"#utility.yul\":991:1000   */\n      dup7\n        /* \"#utility.yul\":987:1009   */\n      add\n        /* \"#utility.yul\":966:1019   */\n      tag_119\n      jump\t// in\n    tag_155:\n        /* \"#utility.yul\":956:1019   */\n      swap3\n      pop\n        /* \"#utility.yul\":912:1029   */\n      pop\n        /* \"#utility.yul\":1068:1070   */\n      0x20\n        /* \"#utility.yul\":1094:1147   */\n      tag_156\n        /* \"#utility.yul\":1139:1146   */\n      dup6\n        /* \"#utility.yul\":1130:1136   */\n      dup3\n        /* \"#utility.yul\":1119:1128   */\n      dup7\n        /* \"#utility.yul\":1115:1137   */\n      add\n        /* \"#utility.yul\":1094:1147   */\n      tag_119\n      jump\t// in\n    tag_156:\n        /* \"#utility.yul\":1084:1147   */\n      swap2\n      pop\n        /* \"#utility.yul\":1039:1157   */\n      pop\n        /* \"#utility.yul\":690:1164   */\n      swap3\n      pop\n      swap3\n      swap1\n      pop\n      jump\t// out\n        /* \"#utility.yul\":1170:1247   */\n    tag_120:\n        /* \"#utility.yul\":1207:1214   */\n      0x00\n        /* \"#utility.yul\":1236:1241   */\n      dup2\n        /* \"#utility.yul\":1225:1241   */\n      swap1\n      pop\n        /* \"#utility.yul\":1170:1247   */\n      swap2\n      swap1\n      pop\n      jump\t// out\n        /* \"#utility.yul\":1253:1371   */\n    tag_121:\n        /* \"#utility.yul\":1340:1364   */\n      tag_159\n        /* \"#utility.yul\":1358:1363   */\n      dup2\n        /* \"#utility.yul\":1340:1364   */\n      tag_120\n      jump\t// in\n    tag_159:\n        /* \"#utility.yul\":1335:1338   */\n      dup3\n        /* \"#utility.yul\":1328:1365   */\n      mstore\n        /* \"#utility.yul\":1253:1371   */\n      pop\n      pop\n      jump\t// out\n        /* \"#utility.yul\":1377:1599   */\n    tag_18:\n        /* \"#utility.yul\":1470:1474   */\n      0x00\n        /* \"#utility.yul\":1508:1510   */\n      0x20\n        /* \"#utility.yul\":1497:1506   */\n      dup3\n        /* \"#utility.yul\":1493:1511   */\n      add\n        /* \"#utility.yul\":1485:1511   */\n      swap1\n      pop\n        /* \"#utility.yul\":1521:1592   */\n      tag_161\n        /* \"#utility.yul\":1589:1590   */\n      0x00\n        /* \"#utility.yul\":1578:1587   */\n      dup4\n        /* \"#utility.yul\":1574:1591   */\n      add\n        /* \"#utility.yul\":1565:1571   */\n      dup5\n        /* \"#utility.yul\":1521:1592   */\n      tag_121\n      jump\t// in\n    tag_161:\n        /* \"#utility.yul\":1377:1599   */\n      swap3\n      swap2\n      pop\n      pop\n      jump\t// out\n        /* \"#utility.yul\":1605:1731   */\n    tag_122:\n        /* \"#utility.yul\":1642:1649   */\n      0x00\n        /* \"#utility.yul\":1682:1724   */\n      0xffffffffffffffffffffffffffffffffffffffff\n        /* \"#utility.yul\":1675:1680   */\n      dup3\n        /* \"#utility.yul\":1671:1725   */\n      and\n        /* \"#utility.yul\":1660:1725   */\n      swap1\n      pop\n        /* \"#utility.yul\":1605:1731   */\n      swap2\n      swap1\n      pop\n      jump\t// out\n        /* \"#utility.yul\":1737:1833   */\n    tag_123:\n        /* \"#utility.yul\":1774:1781   */\n      0x00\n        /* \"#utility.yul\":1803:1827   */\n      tag_164\n        /* \"#utility.yul\":1821:1826   */\n      dup3\n        /* \"#utility.yul\":1803:1827   */\n      tag_122\n      jump\t// in\n    tag_164:\n        /* \"#utility.yul\":1792:1827   */\n      swap1\n      pop\n        /* \"#utility.yul\":1737:1833   */\n      swap2\n      swap1\n      pop\n      jump\t// out\n        /* \"#utility.yul\":1839:1957   */\n    tag_124:\n        /* \"#utility.yul\":1926:1950   */\n      tag_166\n        /* \"#utility.yul\":1944:1949   */\n      dup2\n        /* \"#utility.yul\":1926:1950   */\n      tag_123\n      jump\t// in\n    tag_166:\n        /* \"#utility.yul\":1921:1924   */\n      dup3\n        /* \"#utility.yul\":1914:1951   */\n      mstore\n        /* \"#utility.yul\":1839:1957   */\n      pop\n      pop\n      jump\t// out\n        /* \"#utility.yul\":1963:2185   */\n    tag_25:\n        /* \"#utility.yul\":2056:2060   */\n      0x00\n        /* \"#utility.yul\":2094:2096   */\n      0x20\n        /* \"#utility.yul\":2083:2092   */\n      dup3\n        /* \"#utility.yul\":2079:2097   */\n      add\n        /* \"#utility.yul\":2071:2097   */\n      swap1\n      pop\n        /* \"#utility.yul\":2107:2178   */\n      tag_168\n        /* \"#utility.yul\":2175:2176   */\n      0x00\n        /* \"#utility.yul\":2164:2173   */\n      dup4\n        /* \"#utility.yul\":2160:2177   */\n      add\n        /* \"#utility.yul\":2151:2157   */\n      dup5\n        /* \"#utility.yul\":2107:2178   */\n      tag_124\n      jump\t// in\n    tag_168:\n        /* \"#utility.yul\":1963:2185   */\n      swap3\n      swap2\n      pop\n      pop\n      jump\t// out\n        /* \"#utility.yul\":2191:2371   */\n    tag_61:\n        /* \"#utility.yul\":2239:2316   */\n      0x4e487b7100000000000000000000000000000000000000000000000000000000\n        /* \"#utility.yul\":2236:2237   */\n      0x00\n        /* \"#utility.yul\":2229:2317   */\n      mstore\n        /* \"#utility.yul\":2336:2340   */\n      0x21\n        /* \"#utility.yul\":2333:2334   */\n      0x04\n        /* \"#utility.yul\":2326:2341   */\n      mstore\n        /* \"#utility.yul\":2360:2364   */\n      0x24\n        /* \"#utility.yul\":2357:2358   */\n      0x00\n        /* \"#utility.yul\":2350:2365   */\n      revert\n        /* \"#utility.yul\":2377:2488   */\n    tag_125:\n        /* \"#utility.yul\":2456:2457   */\n      0x03\n        /* \"#utility.yul\":2449:2454   */\n      dup2\n        /* \"#utility.yul\":2446:2458   */\n      lt\n        /* \"#utility.yul\":2436:2482   */\n      tag_171\n      jumpi\n        /* \"#utility.yul\":2462:2480   */\n      tag_172\n      tag_61\n      jump\t// in\n    tag_172:\n        /* \"#utility.yul\":2436:2482   */\n    tag_171:\n        /* \"#utility.yul\":2377:2488   */\n      pop\n      jump\t// out\n        /* \"#utility.yul\":2494:2617   */\n    tag_126:\n        /* \"#utility.yul\":2537:2544   */\n      0x00\n        /* \"#utility.yul\":2566:2571   */\n      dup2\n        /* \"#utility.yul\":2555:2571   */\n      swap1\n      pop\n        /* \"#utility.yul\":2572:2611   */\n      tag_174\n        /* \"#utility.yul\":2605:2610   */\n      dup3\n        /* \"#utility.yul\":2572:2611   */\n      tag_125\n      jump\t// in\n    tag_174:\n        /* \"#utility.yul\":2494:2617   */\n      swap2\n      swap1\n      pop\n      jump\t// out\n        /* \"#utility.yul\":2623:2746   */\n    tag_127:\n        /* \"#utility.yul\":2677:2686   */\n      0x00\n        /* \"#utility.yul\":2710:2740   */\n      tag_176\n        /* \"#utility.yul\":2734:2739   */\n      dup3\n        /* \"#utility.yul\":2710:2740   */\n      tag_126\n      jump\t// in\n    tag_176:\n        /* \"#utility.yul\":2697:2740   */\n      swap1\n      pop\n        /* \"#utility.yul\":2623:2746   */\n      swap2\n      swap1\n      pop\n      jump\t// out\n        /* \"#utility.yul\":2752:2891   */\n    tag_128:\n        /* \"#utility.yul\":2843:2884   */\n      tag_178\n        /* \"#utility.yul\":2878:2883   */\n      dup2\n        /* \"#utility.yul\":2843:2884   */\n      tag_127\n      jump\t// in\n    tag_178:\n        /* \"#utility.yul\":2838:2841   */\n      dup3\n        /* \"#utility.yul\":2831:2885   */\n      mstore\n        /* \"#utility.yul\":2752:2891   */\n      pop\n      pop\n      jump\t// out\n        /* \"#utility.yul\":2897:3127   */\n    tag_29:\n        /* \"#utility.yul\":2994:2998   */\n      0x00\n        /* \"#utility.yul\":3032:3034   */\n      0x20\n        /* \"#utility.yul\":3021:3030   */\n      dup3\n        /* \"#utility.yul\":3017:3035   */\n      add\n        /* \"#utility.yul\":3009:3035   */\n      swap1\n      pop\n        /* \"#utility.yul\":3045:3120   */\n      tag_180\n        /* \"#utility.yul\":3117:3118   */\n      0x00\n        /* \"#utility.yul\":3106:3115   */\n      dup4\n        /* \"#utility.yul\":3102:3119   */\n      add\n        /* \"#utility.yul\":3093:3099   */\n      dup5\n        /* \"#utility.yul\":3045:3120   */\n      tag_128\n      jump\t// in\n    tag_180:\n        /* \"#utility.yul\":2897:3127   */\n      swap3\n      swap2\n      pop\n      pop\n      jump\t// out\n        /* \"#utility.yul\":3133:3255   */\n    tag_129:\n        /* \"#utility.yul\":3206:3230   */\n      tag_182\n        /* \"#utility.yul\":3224:3229   */\n      dup2\n        /* \"#utility.yul\":3206:3230   */\n      tag_120\n      jump\t// in\n    tag_182:\n        /* \"#utility.yul\":3199:3204   */\n      dup2\n        /* \"#utility.yul\":3196:3231   */\n      eq\n        /* \"#utility.yul\":3186:3249   */\n      tag_183\n      jumpi\n        /* \"#utility.yul\":3245:3246   */\n      0x00\n        /* \"#utility.yul\":3242:3243   */\n      dup1\n        /* \"#utility.yul\":3235:3247   */\n      revert\n        /* \"#utility.yul\":3186:3249   */\n    tag_183:\n        /* \"#utility.yul\":3133:3255   */\n      pop\n      jump\t// out\n        /* \"#utility.yul\":3261:3400   */\n    tag_130:\n        /* \"#utility.yul\":3307:3312   */\n      0x00\n        /* \"#utility.yul\":3345:3351   */\n      dup2\n        /* \"#utility.yul\":3332:3352   */\n      calldataload\n        /* \"#utility.yul\":3323:3352   */\n      swap1\n      pop\n        /* \"#utility.yul\":3361:3394   */\n      tag_185\n        /* \"#utility.yul\":3388:3393   */\n      dup2\n        /* \"#utility.yul\":3361:3394   */\n      tag_129\n      jump\t// in\n    tag_185:\n        /* \"#utility.yul\":3261:3400   */\n      swap3\n      swap2\n      pop\n      pop\n      jump\t// out\n        /* \"#utility.yul\":3406:3735   */\n    tag_35:\n        /* \"#utility.yul\":3465:3471   */\n      0x00\n        /* \"#utility.yul\":3514:3516   */\n      0x20\n        /* \"#utility.yul\":3502:3511   */\n      dup3\n        /* \"#utility.yul\":3493:3500   */\n      dup5\n        /* \"#utility.yul\":3489:3512   */\n      sub\n        /* \"#utility.yul\":3485:3517   */\n      slt\n        /* \"#utility.yul\":3482:3601   */\n      iszero\n      tag_187\n      jumpi\n        /* \"#utility.yul\":3520:3599   */\n      tag_188\n      tag_115\n      jump\t// in\n    tag_188:\n        /* \"#utility.yul\":3482:3601   */\n    tag_187:\n        /* \"#utility.yul\":3640:3641   */\n      0x00\n        /* \"#utility.yul\":3665:3718   */\n      tag_189\n        /* \"#utility.yul\":3710:3717   */\n      dup5\n        /* \"#utility.yul\":3701:3707   */\n      dup3\n        /* \"#utility.yul\":3690:3699   */\n      dup6\n        /* \"#utility.yul\":3686:3708   */\n      add\n        /* \"#utility.yul\":3665:3718   */\n      tag_130\n      jump\t// in\n    tag_189:\n        /* \"#utility.yul\":3655:3718   */\n      swap2\n      pop\n        /* \"#utility.yul\":3611:3728   */\n      pop\n        /* \"#utility.yul\":3406:3735   */\n      swap3\n      swap2\n      pop\n      pop\n      jump\t// out\n        /* \"#utility.yul\":3741:3820   */\n    tag_131:\n        /* \"#utility.yul\":3780:3787   */\n      0x00\n        /* \"#utility.yul\":3809:3814   */\n      dup2\n        /* \"#utility.yul\":3798:3814   */\n      swap1\n      pop\n        /* \"#utility.yul\":3741:3820   */\n      swap2\n      swap1\n      pop\n      jump\t// out\n        /* \"#utility.yul\":3826:3983   */\n    tag_132:\n        /* \"#utility.yul\":3931:3976   */\n      tag_192\n        /* \"#utility.yul\":3951:3975   */\n      tag_193\n        /* \"#utility.yul\":3969:3974   */\n      dup3\n        /* \"#utility.yul\":3951:3975   */\n      tag_117\n      jump\t// in\n    tag_193:\n        /* \"#utility.yul\":3931:3976   */\n      tag_131\n      jump\t// in\n    tag_192:\n        /* \"#utility.yul\":3926:3929   */\n      dup3\n        /* \"#utility.yul\":3919:3977   */\n      mstore\n        /* \"#utility.yul\":3826:3983   */\n      pop\n      pop\n      jump\t// out\n        /* \"#utility.yul\":3989:4386   */\n    tag_48:\n        /* \"#utility.yul\":4129:4132   */\n      0x00\n        /* \"#utility.yul\":4144:4219   */\n      tag_195\n        /* \"#utility.yul\":4215:4218   */\n      dup3\n        /* \"#utility.yul\":4206:4212   */\n      dup6\n        /* \"#utility.yul\":4144:4219   */\n      tag_132\n      jump\t// in\n    tag_195:\n        /* \"#utility.yul\":4244:4246   */\n      0x20\n        /* \"#utility.yul\":4239:4242   */\n      dup3\n        /* \"#utility.yul\":4235:4247   */\n      add\n        /* \"#utility.yul\":4228:4247   */\n      swap2\n      pop\n        /* \"#utility.yul\":4257:4332   */\n      tag_196\n        /* \"#utility.yul\":4328:4331   */\n      dup3\n        /* \"#utility.yul\":4319:4325   */\n      dup5\n        /* \"#utility.yul\":4257:4332   */\n      tag_132\n      jump\t// in\n    tag_196:\n        /* \"#utility.yul\":4357:4359   */\n      0x20\n        /* \"#utility.yul\":4352:4355   */\n      dup3\n        /* \"#utility.yul\":4348:4360   */\n      add\n        /* \"#utility.yul\":4341:4360   */\n      swap2\n      pop\n        /* \"#utility.yul\":4377:4380   */\n      dup2\n        /* \"#utility.yul\":4370:4380   */\n      swap1\n      pop\n        /* \"#utility.yul\":3989:4386   */\n      swap4\n      swap3\n      pop\n      pop\n      pop\n      jump\t// out\n        /* \"#utility.yul\":4392:4561   */\n    tag_133:\n        /* \"#utility.yul\":4476:4487   */\n      0x00\n        /* \"#utility.yul\":4510:4516   */\n      dup3\n        /* \"#utility.yul\":4505:4508   */\n      dup3\n        /* \"#utility.yul\":4498:4517   */\n      mstore\n        /* \"#utility.yul\":4550:4554   */\n      0x20\n        /* \"#utility.yul\":4545:4548   */\n      dup3\n        /* \"#utility.yul\":4541:4555   */\n      add\n        /* \"#utility.yul\":4526:4555   */\n      swap1\n      pop\n        /* \"#utility.yul\":4392:4561   */\n      swap3\n      swap2\n      pop\n      pop\n      jump\t// out\n        /* \"#utility.yul\":4567:4729   */\n    tag_134:\n        /* \"#utility.yul\":4707:4721   */\n      0x6e6f74206120706c617965720000000000000000000000000000000000000000\n        /* \"#utility.yul\":4703:4704   */\n      0x00\n        /* \"#utility.yul\":4695:4701   */\n      dup3\n        /* \"#utility.yul\":4691:4705   */\n      add\n        /* \"#utility.yul\":4684:4722   */\n      mstore\n        /* \"#utility.yul\":4567:4729   */\n      pop\n      jump\t// out\n        /* \"#utility.yul\":4735:5101   */\n    tag_135:\n        /* \"#utility.yul\":4877:4880   */\n      0x00\n        /* \"#utility.yul\":4898:4965   */\n      tag_200\n        /* \"#utility.yul\":4962:4964   */\n      0x0c\n        /* \"#utility.yul\":4957:4960   */\n      dup4\n        /* \"#utility.yul\":4898:4965   */\n      tag_133\n      jump\t// in\n    tag_200:\n        /* \"#utility.yul\":4891:4965   */\n      swap2\n      pop\n        /* \"#utility.yul\":4974:5067   */\n      tag_201\n        /* \"#utility.yul\":5063:5066   */\n      dup3\n        /* \"#utility.yul\":4974:5067   */\n      tag_134\n      jump\t// in\n    tag_201:\n        /* \"#utility.yul\":5092:5094   */\n      0x20\n        /* \"#utility.yul\":5087:5090   */\n      dup3\n        /* \"#utility.yul\":5083:5095   */\n      add\n        /* \"#utility.yul\":5076:5095   */\n      swap1\n      pop\n        /* \"#utility.yul\":4735:5101   */\n      swap2\n      swap1\n      pop\n      jump\t// out\n        /* \"#utility.yul\":5107:5526   */\n    tag_53:\n        /* \"#utility.yul\":5273:5277   */\n      0x00\n        /* \"#utility.yul\":5311:5313   */\n      0x20\n        /* \"#utility.yul\":5300:5309   */\n      dup3\n        /* \"#utility.yul\":5296:5314   */\n      add\n        /* \"#utility.yul\":5288:5314   */\n      swap1\n      pop\n        /* \"#utility.yul\":5360:5369   */\n      dup2\n        /* \"#utility.yul\":5354:5358   */\n      dup2\n        /* \"#utility.yul\":5350:5370   */\n      sub\n        /* \"#utility.yul\":5346:5347   */\n      0x00\n        /* \"#utility.yul\":5335:5344   */\n      dup4\n        /* \"#utility.yul\":5331:5348   */\n      add\n        /* \"#utility.yul\":5324:5371   */\n      mstore\n        /* \"#utility.yul\":5388:5519   */\n      tag_203\n        /* \"#utility.yul\":5514:5518   */\n      dup2\n        /* \"#utility.yul\":5388:5519   */\n      tag_135\n      jump\t// in\n    tag_203:\n        /* \"#utility.yul\":5380:5519   */\n      swap1\n      pop\n        /* \"#utility.yul\":5107:5526   */\n      swap2\n      swap1\n      pop\n      jump\t// out\n        /* \"#utility.yul\":5532:5708   */\n    tag_136:\n        /* \"#utility.yul\":5672:5700   */\n      0x496e76616c696420636f6d6d697420666f7220706c6179657231000000000000\n        /* \"#utility.yul\":5668:5669   */\n      0x00\n        /* \"#utility.yul\":5660:5666   */\n      dup3\n        /* \"#utility.yul\":5656:5670   */\n      add\n        /* \"#utility.yul\":5649:5701   */\n      mstore\n        /* \"#utility.yul\":5532:5708   */\n      pop\n      jump\t// out\n        /* \"#utility.yul\":5714:6080   */\n    tag_137:\n        /* \"#utility.yul\":5856:5859   */\n      0x00\n        /* \"#utility.yul\":5877:5944   */\n      tag_206\n        /* \"#utility.yul\":5941:5943   */\n      0x1a\n        /* \"#utility.yul\":5936:5939   */\n      dup4\n        /* \"#utility.yul\":5877:5944   */\n      tag_133\n      jump\t// in\n    tag_206:\n        /* \"#utility.yul\":5870:5944   */\n      swap2\n      pop\n        /* \"#utility.yul\":5953:6046   */\n      tag_207\n        /* \"#utility.yul\":6042:6045   */\n      dup3\n        /* \"#utility.yul\":5953:6046   */\n      tag_136\n      jump\t// in\n    tag_207:\n        /* \"#utility.yul\":6071:6073   */\n      0x20\n        /* \"#utility.yul\":6066:6069   */\n      dup3\n        /* \"#utility.yul\":6062:6074   */\n      add\n        /* \"#utility.yul\":6055:6074   */\n      swap1\n      pop\n        /* \"#utility.yul\":5714:6080   */\n      swap2\n      swap1\n      pop\n      jump\t// out\n        /* \"#utility.yul\":6086:6505   */\n    tag_58:\n        /* \"#utility.yul\":6252:6256   */\n      0x00\n        /* \"#utility.yul\":6290:6292   */\n      0x20\n        /* \"#utility.yul\":6279:6288   */\n      dup3\n        /* \"#utility.yul\":6275:6293   */\n      add\n        /* \"#utility.yul\":6267:6293   */\n      swap1\n      pop\n        /* \"#utility.yul\":6339:6348   */\n      dup2\n        /* \"#utility.yul\":6333:6337   */\n      dup2\n        /* \"#utility.yul\":6329:6349   */\n      sub\n        /* \"#utility.yul\":6325:6326   */\n      0x00\n        /* \"#utility.yul\":6314:6323   */\n      dup4\n        /* \"#utility.yul\":6310:6327   */\n      add\n        /* \"#utility.yul\":6303:6350   */\n      mstore\n        /* \"#utility.yul\":6367:6498   */\n      tag_209\n        /* \"#utility.yul\":6493:6497   */\n      dup2\n        /* \"#utility.yul\":6367:6498   */\n      tag_137\n      jump\t// in\n    tag_209:\n        /* \"#utility.yul\":6359:6498   */\n      swap1\n      pop\n        /* \"#utility.yul\":6086:6505   */\n      swap2\n      swap1\n      pop\n      jump\t// out\n        /* \"#utility.yul\":6511:6682   */\n    tag_138:\n        /* \"#utility.yul\":6651:6674   */\n      0x506c6179657220312068617320636f6d6d697465640000000000000000000000\n        /* \"#utility.yul\":6647:6648   */\n      0x00\n        /* \"#utility.yul\":6639:6645   */\n      dup3\n        /* \"#utility.yul\":6635:6649   */\n      add\n        /* \"#utility.yul\":6628:6675   */\n      mstore\n        /* \"#utility.yul\":6511:6682   */\n      pop\n      jump\t// out\n        /* \"#utility.yul\":6688:7054   */\n    tag_139:\n        /* \"#utility.yul\":6830:6833   */\n      0x00\n        /* \"#utility.yul\":6851:6918   */\n      tag_212\n        /* \"#utility.yul\":6915:6917   */\n      0x15\n        /* \"#utility.yul\":6910:6913   */\n      dup4\n        /* \"#utility.yul\":6851:6918   */\n      tag_133\n      jump\t// in\n    tag_212:\n        /* \"#utility.yul\":6844:6918   */\n      swap2\n      pop\n        /* \"#utility.yul\":6927:7020   */\n      tag_213\n        /* \"#utility.yul\":7016:7019   */\n      dup3\n        /* \"#utility.yul\":6927:7020   */\n      tag_138\n      jump\t// in\n    tag_213:\n        /* \"#utility.yul\":7045:7047   */\n      0x20\n        /* \"#utility.yul\":7040:7043   */\n      dup3\n        /* \"#utility.yul\":7036:7048   */\n      add\n        /* \"#utility.yul\":7029:7048   */\n      swap1\n      pop\n        /* \"#utility.yul\":6688:7054   */\n      swap2\n      swap1\n      pop\n      jump\t// out\n        /* \"#utility.yul\":7060:7479   */\n    tag_77:\n        /* \"#utility.yul\":7226:7230   */\n      0x00\n        /* \"#utility.yul\":7264:7266   */\n      0x20\n        /* \"#utility.yul\":7253:7262   */\n      dup3\n        /* \"#utility.yul\":7249:7267   */\n      add\n        /* \"#utility.yul\":7241:7267   */\n      swap1\n      pop\n        /* \"#utility.yul\":7313:7322   */\n      dup2\n        /* \"#utility.yul\":7307:7311   */\n      dup2\n        /* \"#utility.yul\":7303:7323   */\n      sub\n        /* \"#utility.yul\":7299:7300   */\n      0x00\n        /* \"#utility.yul\":7288:7297   */\n      dup4\n        /* \"#utility.yul\":7284:7301   */\n      add\n        /* \"#utility.yul\":7277:7324   */\n      mstore\n        /* \"#utility.yul\":7341:7472   */\n      tag_215\n        /* \"#utility.yul\":7467:7471   */\n      dup2\n        /* \"#utility.yul\":7341:7472   */\n      tag_139\n      jump\t// in\n    tag_215:\n        /* \"#utility.yul\":7333:7472   */\n      swap1\n      pop\n        /* \"#utility.yul\":7060:7479   */\n      swap2\n      swap1\n      pop\n      jump\t// out\n        /* \"#utility.yul\":7485:7655   */\n    tag_140:\n        /* \"#utility.yul\":7625:7647   */\n      0x506c6179657220322068617320636f6d69746564000000000000000000000000\n        /* \"#utility.yul\":7621:7622   */\n      0x00\n        /* \"#utility.yul\":7613:7619   */\n      dup3\n        /* \"#utility.yul\":7609:7623   */\n      add\n        /* \"#utility.yul\":7602:7648   */\n      mstore\n        /* \"#utility.yul\":7485:7655   */\n      pop\n      jump\t// out\n        /* \"#utility.yul\":7661:8027   */\n    tag_141:\n        /* \"#utility.yul\":7803:7806   */\n      0x00\n        /* \"#utility.yul\":7824:7891   */\n      tag_218\n        /* \"#utility.yul\":7888:7890   */\n      0x14\n        /* \"#utility.yul\":7883:7886   */\n      dup4\n        /* \"#utility.yul\":7824:7891   */\n      tag_133\n      jump\t// in\n    tag_218:\n        /* \"#utility.yul\":7817:7891   */\n      swap2\n      pop\n        /* \"#utility.yul\":7900:7993   */\n      tag_219\n        /* \"#utility.yul\":7989:7992   */\n      dup3\n        /* \"#utility.yul\":7900:7993   */\n      tag_140\n      jump\t// in\n    tag_219:\n        /* \"#utility.yul\":8018:8020   */\n      0x20\n        /* \"#utility.yul\":8013:8016   */\n      dup3\n        /* \"#utility.yul\":8009:8021   */\n      add\n        /* \"#utility.yul\":8002:8021   */\n      swap1\n      pop\n        /* \"#utility.yul\":7661:8027   */\n      swap2\n      swap1\n      pop\n      jump\t// out\n        /* \"#utility.yul\":8033:8452   */\n    tag_81:\n        /* \"#utility.yul\":8199:8203   */\n      0x00\n        /* \"#utility.yul\":8237:8239   */\n      0x20\n        /* \"#utility.yul\":8226:8235   */\n      dup3\n        /* \"#utility.yul\":8222:8240   */\n      add\n        /* \"#utility.yul\":8214:8240   */\n      swap1\n      pop\n        /* \"#utility.yul\":8286:8295   */\n      dup2\n        /* \"#utility.yul\":8280:8284   */\n      dup2\n        /* \"#utility.yul\":8276:8296   */\n      sub\n        /* \"#utility.yul\":8272:8273   */\n      0x00\n        /* \"#utility.yul\":8261:8270   */\n      dup4\n        /* \"#utility.yul\":8257:8274   */\n      add\n        /* \"#utility.yul\":8250:8297   */\n      mstore\n        /* \"#utility.yul\":8314:8445   */\n      tag_221\n        /* \"#utility.yul\":8440:8444   */\n      dup2\n        /* \"#utility.yul\":8314:8445   */\n      tag_141\n      jump\t// in\n    tag_221:\n        /* \"#utility.yul\":8306:8445   */\n      swap1\n      pop\n        /* \"#utility.yul\":8033:8452   */\n      swap2\n      swap1\n      pop\n      jump\t// out\n\n    auxdata: 0xa2646970667358221220dd79b5be29669ccff2e82f305ac5ba504338eff8fcc854645fdd941ac7db315764736f6c634300081a0033\n}\n",
				"bytecode": {
					"linkReferences": {},
					"object": "6080604052348015600e575f80fd5b50610b228061001c5f395ff3fe608060405234801561000f575f80fd5b5060043610610091575f3560e01c80638690fd71116100645780638690fd711461011d578063a9ea37b61461013b578063ce6b222514610157578063d30895e414610175578063f19177661461019357610091565b806312190ae0146100955780635280fba0146100c557806359a5f12d146100e15780637685ef8e146100ff575b5f80fd5b6100af60048036038101906100aa9190610749565b6101b1565b6040516100bc919061079f565b60405180910390f35b6100df60048036038101906100da9190610749565b6101e3565b005b6100e9610438565b6040516100f691906107f7565b60405180910390f35b61010761045d565b6040516101149190610883565b60405180910390f35b610125610470565b6040516101329190610883565b60405180910390f35b610155600480360381019061015091906108c6565b610482565b005b61015f610577565b60405161016c919061079f565b60405180910390f35b61017d61057d565b60405161018a91906107f7565b60405180910390f35b61019b6105a0565b6040516101a8919061079f565b60405180910390f35b5f82826040516020016101c5929190610911565b60405160208183030381529060405280519060200120905092915050565b5f8054906101000a900473ffffffffffffffffffffffffffffffffffffffff1673ffffffffffffffffffffffffffffffffffffffff163373ffffffffffffffffffffffffffffffffffffffff161480610288575060015f9054906101000a900473ffffffffffffffffffffffffffffffffffffffff1673ffffffffffffffffffffffffffffffffffffffff163373ffffffffffffffffffffffffffffffffffffffff16145b6102c7576040517f08c379a00000000000000000000000000000000000000000000000000000000081526004016102be90610996565b60405180910390fd5b5f6102d283836101b1565b90505f8054906101000a900473ffffffffffffffffffffffffffffffffffffffff1673ffffffffffffffffffffffffffffffffffffffff163373ffffffffffffffffffffffffffffffffffffffff16036103aa57600254811461036a576040517f08c379a0000000000000000000000000000000000000000000000000000000008152600401610361906109fe565b60405180910390fd5b82600281111561037d5761037c610810565b5b60045f6101000a81548160ff021916908360028111156103a05761039f610810565b5b021790555061042b565b60035481146103ee576040517f08c379a00000000000000000000000000000000000000000000000000000000081526004016103e5906109fe565b60405180910390fd5b82600281111561040157610400610810565b5b600460016101000a81548160ff0219169083600281111561042557610424610810565b5b02179055505b6104336105a6565b505050565b60015f9054906101000a900473ffffffffffffffffffffffffffffffffffffffff1681565b600460019054906101000a900460ff1681565b60045f9054906101000a900460ff1681565b5f8054906101000a900473ffffffffffffffffffffffffffffffffffffffff1673ffffffffffffffffffffffffffffffffffffffff163373ffffffffffffffffffffffffffffffffffffffff1603610526575f801b6002541461051a576040517f08c379a000000000000000000000000000000000000000000000000000000000815260040161051190610a66565b60405180910390fd5b80600281905550610574565b5f801b6003541461056c576040517f08c379a000000000000000000000000000000000000000000000000000000000815260040161056390610ace565b60405180910390fd5b806003819055505b50565b60025481565b5f8054906101000a900473ffffffffffffffffffffffffffffffffffffffff1681565b60035481565b5f60028111156105b9576105b8610810565b5b60045f9054906101000a900460ff1660028111156105da576105d9610810565b5b14801561061957506002808111156105f5576105f4610810565b5b600460019054906101000a900460ff16600281111561061757610616610810565b5b145b80610694575060028081111561063257610631610810565b5b60045f9054906101000a900460ff16600281111561065357610652610810565b5b14801561069357506001600281111561066f5761066e610810565b5b600460019054906101000a900460ff16600281111561069157610690610810565b5b145b5b8061070f5750600160028111156106ae576106ad610810565b5b60045f9054906101000a900460ff1660028111156106cf576106ce610810565b5b14801561070e57505f60028111156106ea576106e9610810565b5b600460019054906101000a900460ff16600281111561070c5761070b610810565b5b145b5b50565b5f80fd5b5f819050919050565b61072881610716565b8114610732575f80fd5b50565b5f813590506107438161071f565b92915050565b5f806040838503121561075f5761075e610712565b5b5f61076c85828601610735565b925050602061077d85828601610735565b9150509250929050565b5f819050919050565b61079981610787565b82525050565b5f6020820190506107b25f830184610790565b92915050565b5f73ffffffffffffffffffffffffffffffffffffffff82169050919050565b5f6107e1826107b8565b9050919050565b6107f1816107d7565b82525050565b5f60208201905061080a5f8301846107e8565b92915050565b7f4e487b71000000000000000000000000000000000000000000000000000000005f52602160045260245ffd5b6003811061084e5761084d610810565b5b50565b5f81905061085e8261083d565b919050565b5f61086d82610851565b9050919050565b61087d81610863565b82525050565b5f6020820190506108965f830184610874565b92915050565b6108a581610787565b81146108af575f80fd5b50565b5f813590506108c08161089c565b92915050565b5f602082840312156108db576108da610712565b5b5f6108e8848285016108b2565b91505092915050565b5f819050919050565b61090b61090682610716565b6108f1565b82525050565b5f61091c82856108fa565b60208201915061092c82846108fa565b6020820191508190509392505050565b5f82825260208201905092915050565b7f6e6f74206120706c6179657200000000000000000000000000000000000000005f82015250565b5f610980600c8361093c565b915061098b8261094c565b602082019050919050565b5f6020820190508181035f8301526109ad81610974565b9050919050565b7f496e76616c696420636f6d6d697420666f7220706c61796572310000000000005f82015250565b5f6109e8601a8361093c565b91506109f3826109b4565b602082019050919050565b5f6020820190508181035f830152610a15816109dc565b9050919050565b7f506c6179657220312068617320636f6d6d6974656400000000000000000000005f82015250565b5f610a5060158361093c565b9150610a5b82610a1c565b602082019050919050565b5f6020820190508181035f830152610a7d81610a44565b9050919050565b7f506c6179657220322068617320636f6d697465640000000000000000000000005f82015250565b5f610ab860148361093c565b9150610ac382610a84565b602082019050919050565b5f6020820190508181035f830152610ae581610aac565b905091905056fea2646970667358221220dd79b5be29669ccff2e82f305ac5ba504338eff8fcc854645fdd941ac7db315764736f6c634300081a0033",
					"opcodes": "PUSH1 0x80 PUSH1 0x40 MSTORE CALLVALUE DUP1 ISZERO PUSH1 0xE JUMPI PUSH0 DUP1 REVERT JUMPDEST POP PUSH2 0xB22 DUP1 PUSH2 0x1C PUSH0 CODECOPY PUSH0 RETURN INVALID PUSH1 0x80 PUSH1 0x40 MSTORE CALLVALUE DUP1 ISZERO PUSH2 0xF JUMPI PUSH0 DUP1 REVERT JUMPDEST POP PUSH1 0x4 CALLDATASIZE LT PUSH2 0x91 JUMPI PUSH0 CALLDATALOAD PUSH1 0xE0 SHR DUP1 PUSH4 0x8690FD71 GT PUSH2 0x64 JUMPI DUP1 PUSH4 0x8690FD71 EQ PUSH2 0x11D JUMPI DUP1 PUSH4 0xA9EA37B6 EQ PUSH2 0x13B JUMPI DUP1 PUSH4 0xCE6B2225 EQ PUSH2 0x157 JUMPI DUP1 PUSH4 0xD30895E4 EQ PUSH2 0x175 JUMPI DUP1 PUSH4 0xF1917766 EQ PUSH2 0x193 JUMPI PUSH2 0x91 JUMP JUMPDEST DUP1 PUSH4 0x12190AE0 EQ PUSH2 0x95 JUMPI DUP1 PUSH4 0x5280FBA0 EQ PUSH2 0xC5 JUMPI DUP1 PUSH4 0x59A5F12D EQ PUSH2 0xE1 JUMPI DUP1 PUSH4 0x7685EF8E EQ PUSH2 0xFF JUMPI JUMPDEST PUSH0 DUP1 REVERT JUMPDEST PUSH2 0xAF PUSH1 0x4 DUP1 CALLDATASIZE SUB DUP2 ADD SWAP1 PUSH2 0xAA SWAP2 SWAP1 PUSH2 0x749 JUMP JUMPDEST PUSH2 0x1B1 JUMP JUMPDEST PUSH1 0x40 MLOAD PUSH2 0xBC SWAP2 SWAP1 PUSH2 0x79F JUMP JUMPDEST PUSH1 0x40 MLOAD DUP1 SWAP2 SUB SWAP1 RETURN JUMPDEST PUSH2 0xDF PUSH1 0x4 DUP1 CALLDATASIZE SUB DUP2 ADD SWAP1 PUSH2 0xDA SWAP2 SWAP1 PUSH2 0x749 JUMP JUMPDEST PUSH2 0x1E3 JUMP JUMPDEST STOP JUMPDEST PUSH2 0xE9 PUSH2 0x438 JUMP JUMPDEST PUSH1 0x40 MLOAD PUSH2 0xF6 SWAP2 SWAP1 PUSH2 0x7F7 JUMP JUMPDEST PUSH1 0x40 MLOAD DUP1 SWAP2 SUB SWAP1 RETURN JUMPDEST PUSH2 0x107 PUSH2 0x45D JUMP JUMPDEST PUSH1 0x40 MLOAD PUSH2 0x114 SWAP2 SWAP1 PUSH2 0x883 JUMP JUMPDEST PUSH1 0x40 MLOAD DUP1 SWAP2 SUB SWAP1 RETURN JUMPDEST PUSH2 0x125 PUSH2 0x470 JUMP JUMPDEST PUSH1 0x40 MLOAD PUSH2 0x132 SWAP2 SWAP1 PUSH2 0x883 JUMP JUMPDEST PUSH1 0x40 MLOAD DUP1 SWAP2 SUB SWAP1 RETURN JUMPDEST PUSH2 0x155 PUSH1 0x4 DUP1 CALLDATASIZE SUB DUP2 ADD SWAP1 PUSH2 0x150 SWAP2 SWAP1 PUSH2 0x8C6 JUMP JUMPDEST PUSH2 0x482 JUMP JUMPDEST STOP JUMPDEST PUSH2 0x15F PUSH2 0x577 JUMP JUMPDEST PUSH1 0x40 MLOAD PUSH2 0x16C SWAP2 SWAP1 PUSH2 0x79F JUMP JUMPDEST PUSH1 0x40 MLOAD DUP1 SWAP2 SUB SWAP1 RETURN JUMPDEST PUSH2 0x17D PUSH2 0x57D JUMP JUMPDEST PUSH1 0x40 MLOAD PUSH2 0x18A SWAP2 SWAP1 PUSH2 0x7F7 JUMP JUMPDEST PUSH1 0x40 MLOAD DUP1 SWAP2 SUB SWAP1 RETURN JUMPDEST PUSH2 0x19B PUSH2 0x5A0 JUMP JUMPDEST PUSH1 0x40 MLOAD PUSH2 0x1A8 SWAP2 SWAP1 PUSH2 0x79F JUMP JUMPDEST PUSH1 0x40 MLOAD DUP1 SWAP2 SUB SWAP1 RETURN JUMPDEST PUSH0 DUP3 DUP3 PUSH1 0x40 MLOAD PUSH1 0x20 ADD PUSH2 0x1C5 SWAP3 SWAP2 SWAP1 PUSH2 0x911 JUMP JUMPDEST PUSH1 0x40 MLOAD PUSH1 0x20 DUP2 DUP4 SUB SUB DUP2 MSTORE SWAP1 PUSH1 0x40 MSTORE DUP1 MLOAD SWAP1 PUSH1 0x20 ADD KECCAK256 SWAP1 POP SWAP3 SWAP2 POP POP JUMP JUMPDEST PUSH0 DUP1 SLOAD SWAP1 PUSH2 0x100 EXP SWAP1 DIV PUSH20 0xFFFFFFFFFFFFFFFFFFFFFFFFFFFFFFFFFFFFFFFF AND PUSH20 0xFFFFFFFFFFFFFFFFFFFFFFFFFFFFFFFFFFFFFFFF AND CALLER PUSH20 0xFFFFFFFFFFFFFFFFFFFFFFFFFFFFFFFFFFFFFFFF AND EQ DUP1 PUSH2 0x288 JUMPI POP PUSH1 0x1 PUSH0 SWAP1 SLOAD SWAP1 PUSH2 0x100 EXP SWAP1 DIV PUSH20 0xFFFFFFFFFFFFFFFFFFFFFFFFFFFFFFFFFFFFFFFF AND PUSH20 0xFFFFFFFFFFFFFFFFFFFFFFFFFFFFFFFFFFFFFFFF AND CALLER PUSH20 0xFFFFFFFFFFFFFFFFFFFFFFFFFFFFFFFFFFFFFFFF AND EQ JUMPDEST PUSH2 0x2C7 JUMPI PUSH1 0x40 MLOAD PUSH32 0x8C379A000000000000000000000000000000000000000000000000000000000 DUP2 MSTORE PUSH1 0x4 ADD PUSH2 0x2BE SWAP1 PUSH2 0x996 JUMP JUMPDEST PUSH1 0x40 MLOAD DUP1 SWAP2 SUB SWAP1 REVERT JUMPDEST PUSH0 PUSH2 0x2D2 DUP4 DUP4 PUSH2 0x1B1 JUMP JUMPDEST SWAP1 POP PUSH0 DUP1 SLOAD SWAP1 PUSH2 0x100 EXP SWAP1 DIV PUSH20 0xFFFFFFFFFFFFFFFFFFFFFFFFFFFFFFFFFFFFFFFF AND PUSH20 0xFFFFFFFFFFFFFFFFFFFFFFFFFFFFFFFFFFFFFFFF AND CALLER PUSH20 0xFFFFFFFFFFFFFFFFFFFFFFFFFFFFFFFFFFFFFFFF AND SUB PUSH2 0x3AA JUMPI PUSH1 0x2 SLOAD DUP2 EQ PUSH2 0x36A JUMPI PUSH1 0x40 MLOAD PUSH32 0x8C379A000000000000000000000000000000000000000000000000000000000 DUP2 MSTORE PUSH1 0x4 ADD PUSH2 0x361 SWAP1 PUSH2 0x9FE JUMP JUMPDEST PUSH1 0x40 MLOAD DUP1 SWAP2 SUB SWAP1 REVERT JUMPDEST DUP3 PUSH1 0x2 DUP2 GT ISZERO PUSH2 0x37D JUMPI PUSH2 0x37C PUSH2 0x810 JUMP JUMPDEST JUMPDEST PUSH1 0x4 PUSH0 PUSH2 0x100 EXP DUP2 SLOAD DUP2 PUSH1 0xFF MUL NOT AND SWAP1 DUP4 PUSH1 0x2 DUP2 GT ISZERO PUSH2 0x3A0 JUMPI PUSH2 0x39F PUSH2 0x810 JUMP JUMPDEST JUMPDEST MUL OR SWAP1 SSTORE POP PUSH2 0x42B JUMP JUMPDEST PUSH1 0x3 SLOAD DUP2 EQ PUSH2 0x3EE JUMPI PUSH1 0x40 MLOAD PUSH32 0x8C379A000000000000000000000000000000000000000000000000000000000 DUP2 MSTORE PUSH1 0x4 ADD PUSH2 0x3E5 SWAP1 PUSH2 0x9FE JUMP JUMPDEST PUSH1 0x40 MLOAD DUP1 SWAP2 SUB SWAP1 REVERT JUMPDEST DUP3 PUSH1 0x2 DUP2 GT ISZERO PUSH2 0x401 JUMPI PUSH2 0x400 PUSH2 0x810 JUMP JUMPDEST JUMPDEST PUSH1 0x4 PUSH1 0x1 PUSH2 0x100 EXP DUP2 SLOAD DUP2 PUSH1 0xFF MUL NOT AND SWAP1 DUP4 PUSH1 0x2 DUP2 GT ISZERO PUSH2 0x425 JUMPI PUSH2 0x424 PUSH2 0x810 JUMP JUMPDEST JUMPDEST MUL OR SWAP1 SSTORE POP JUMPDEST PUSH2 0x433 PUSH2 0x5A6 JUMP JUMPDEST POP POP POP JUMP JUMPDEST PUSH1 0x1 PUSH0 SWAP1 SLOAD SWAP1 PUSH2 0x100 EXP SWAP1 DIV PUSH20 0xFFFFFFFFFFFFFFFFFFFFFFFFFFFFFFFFFFFFFFFF AND DUP2 JUMP JUMPDEST PUSH1 0x4 PUSH1 0x1 SWAP1 SLOAD SWAP1 PUSH2 0x100 EXP SWAP1 DIV PUSH1 0xFF AND DUP2 JUMP JUMPDEST PUSH1 0x4 PUSH0 SWAP1 SLOAD SWAP1 PUSH2 0x100 EXP SWAP1 DIV PUSH1 0xFF AND DUP2 JUMP JUMPDEST PUSH0 DUP1 SLOAD SWAP1 PUSH2 0x100 EXP SWAP1 DIV PUSH20 0xFFFFFFFFFFFFFFFFFFFFFFFFFFFFFFFFFFFFFFFF AND PUSH20 0xFFFFFFFFFFFFFFFFFFFFFFFFFFFFFFFFFFFFFFFF AND CALLER PUSH20 0xFFFFFFFFFFFFFFFFFFFFFFFFFFFFFFFFFFFFFFFF AND SUB PUSH2 0x526 JUMPI PUSH0 DUP1 SHL PUSH1 0x2 SLOAD EQ PUSH2 0x51A JUMPI PUSH1 0x40 MLOAD PUSH32 0x8C379A000000000000000000000000000000000000000000000000000000000 DUP2 MSTORE PUSH1 0x4 ADD PUSH2 0x511 SWAP1 PUSH2 0xA66 JUMP JUMPDEST PUSH1 0x40 MLOAD DUP1 SWAP2 SUB SWAP1 REVERT JUMPDEST DUP1 PUSH1 0x2 DUP2 SWAP1 SSTORE POP PUSH2 0x574 JUMP JUMPDEST PUSH0 DUP1 SHL PUSH1 0x3 SLOAD EQ PUSH2 0x56C JUMPI PUSH1 0x40 MLOAD PUSH32 0x8C379A000000000000000000000000000000000000000000000000000000000 DUP2 MSTORE PUSH1 0x4 ADD PUSH2 0x563 SWAP1 PUSH2 0xACE JUMP JUMPDEST PUSH1 0x40 MLOAD DUP1 SWAP2 SUB SWAP1 REVERT JUMPDEST DUP1 PUSH1 0x3 DUP2 SWAP1 SSTORE POP JUMPDEST POP JUMP JUMPDEST PUSH1 0x2 SLOAD DUP2 JUMP JUMPDEST PUSH0 DUP1 SLOAD SWAP1 PUSH2 0x100 EXP SWAP1 DIV PUSH20 0xFFFFFFFFFFFFFFFFFFFFFFFFFFFFFFFFFFFFFFFF AND DUP2 JUMP JUMPDEST PUSH1 0x3 SLOAD DUP2 JUMP JUMPDEST PUSH0 PUSH1 0x2 DUP2 GT ISZERO PUSH2 0x5B9 JUMPI PUSH2 0x5B8 PUSH2 0x810 JUMP JUMPDEST JUMPDEST PUSH1 0x4 PUSH0 SWAP1 SLOAD SWAP1 PUSH2 0x100 EXP SWAP1 DIV PUSH1 0xFF AND PUSH1 0x2 DUP2 GT ISZERO PUSH2 0x5DA JUMPI PUSH2 0x5D9 PUSH2 0x810 JUMP JUMPDEST JUMPDEST EQ DUP1 ISZERO PUSH2 0x619 JUMPI POP PUSH1 0x2 DUP1 DUP2 GT ISZERO PUSH2 0x5F5 JUMPI PUSH2 0x5F4 PUSH2 0x810 JUMP JUMPDEST JUMPDEST PUSH1 0x4 PUSH1 0x1 SWAP1 SLOAD SWAP1 PUSH2 0x100 EXP SWAP1 DIV PUSH1 0xFF AND PUSH1 0x2 DUP2 GT ISZERO PUSH2 0x617 JUMPI PUSH2 0x616 PUSH2 0x810 JUMP JUMPDEST JUMPDEST EQ JUMPDEST DUP1 PUSH2 0x694 JUMPI POP PUSH1 0x2 DUP1 DUP2 GT ISZERO PUSH2 0x632 JUMPI PUSH2 0x631 PUSH2 0x810 JUMP JUMPDEST JUMPDEST PUSH1 0x4 PUSH0 SWAP1 SLOAD SWAP1 PUSH2 0x100 EXP SWAP1 DIV PUSH1 0xFF AND PUSH1 0x2 DUP2 GT ISZERO PUSH2 0x653 JUMPI PUSH2 0x652 PUSH2 0x810 JUMP JUMPDEST JUMPDEST EQ DUP1 ISZERO PUSH2 0x693 JUMPI POP PUSH1 0x1 PUSH1 0x2 DUP2 GT ISZERO PUSH2 0x66F JUMPI PUSH2 0x66E PUSH2 0x810 JUMP JUMPDEST JUMPDEST PUSH1 0x4 PUSH1 0x1 SWAP1 SLOAD SWAP1 PUSH2 0x100 EXP SWAP1 DIV PUSH1 0xFF AND PUSH1 0x2 DUP2 GT ISZERO PUSH2 0x691 JUMPI PUSH2 0x690 PUSH2 0x810 JUMP JUMPDEST JUMPDEST EQ JUMPDEST JUMPDEST DUP1 PUSH2 0x70F JUMPI POP PUSH1 0x1 PUSH1 0x2 DUP2 GT ISZERO PUSH2 0x6AE JUMPI PUSH2 0x6AD PUSH2 0x810 JUMP JUMPDEST JUMPDEST PUSH1 0x4 PUSH0 SWAP1 SLOAD SWAP1 PUSH2 0x100 EXP SWAP1 DIV PUSH1 0xFF AND PUSH1 0x2 DUP2 GT ISZERO PUSH2 0x6CF JUMPI PUSH2 0x6CE PUSH2 0x810 JUMP JUMPDEST JUMPDEST EQ DUP1 ISZERO PUSH2 0x70E JUMPI POP PUSH0 PUSH1 0x2 DUP2 GT ISZERO PUSH2 0x6EA JUMPI PUSH2 0x6E9 PUSH2 0x810 JUMP JUMPDEST JUMPDEST PUSH1 0x4 PUSH1 0x1 SWAP1 SLOAD SWAP1 PUSH2 0x100 EXP SWAP1 DIV PUSH1 0xFF AND PUSH1 0x2 DUP2 GT ISZERO PUSH2 0x70C JUMPI PUSH2 0x70B PUSH2 0x810 JUMP JUMPDEST JUMPDEST EQ JUMPDEST JUMPDEST POP JUMP JUMPDEST PUSH0 DUP1 REVERT JUMPDEST PUSH0 DUP2 SWAP1 POP SWAP2 SWAP1 POP JUMP JUMPDEST PUSH2 0x728 DUP2 PUSH2 0x716 JUMP JUMPDEST DUP2 EQ PUSH2 0x732 JUMPI PUSH0 DUP1 REVERT JUMPDEST POP JUMP JUMPDEST PUSH0 DUP2 CALLDATALOAD SWAP1 POP PUSH2 0x743 DUP2 PUSH2 0x71F JUMP JUMPDEST SWAP3 SWAP2 POP POP JUMP JUMPDEST PUSH0 DUP1 PUSH1 0x40 DUP4 DUP6 SUB SLT ISZERO PUSH2 0x75F JUMPI PUSH2 0x75E PUSH2 0x712 JUMP JUMPDEST JUMPDEST PUSH0 PUSH2 0x76C DUP6 DUP3 DUP7 ADD PUSH2 0x735 JUMP JUMPDEST SWAP3 POP POP PUSH1 0x20 PUSH2 0x77D DUP6 DUP3 DUP7 ADD PUSH2 0x735 JUMP JUMPDEST SWAP2 POP POP SWAP3 POP SWAP3 SWAP1 POP JUMP JUMPDEST PUSH0 DUP2 SWAP1 POP SWAP2 SWAP1 POP JUMP JUMPDEST PUSH2 0x799 DUP2 PUSH2 0x787 JUMP JUMPDEST DUP3 MSTORE POP POP JUMP JUMPDEST PUSH0 PUSH1 0x20 DUP3 ADD SWAP1 POP PUSH2 0x7B2 PUSH0 DUP4 ADD DUP5 PUSH2 0x790 JUMP JUMPDEST SWAP3 SWAP2 POP POP JUMP JUMPDEST PUSH0 PUSH20 0xFFFFFFFFFFFFFFFFFFFFFFFFFFFFFFFFFFFFFFFF DUP3 AND SWAP1 POP SWAP2 SWAP1 POP JUMP JUMPDEST PUSH0 PUSH2 0x7E1 DUP3 PUSH2 0x7B8 JUMP JUMPDEST SWAP1 POP SWAP2 SWAP1 POP JUMP JUMPDEST PUSH2 0x7F1 DUP2 PUSH2 0x7D7 JUMP JUMPDEST DUP3 MSTORE POP POP JUMP JUMPDEST PUSH0 PUSH1 0x20 DUP3 ADD SWAP1 POP PUSH2 0x80A PUSH0 DUP4 ADD DUP5 PUSH2 0x7E8 JUMP JUMPDEST SWAP3 SWAP2 POP POP JUMP JUMPDEST PUSH32 0x4E487B7100000000000000000000000000000000000000000000000000000000 PUSH0 MSTORE PUSH1 0x21 PUSH1 0x4 MSTORE PUSH1 0x24 PUSH0 REVERT JUMPDEST PUSH1 0x3 DUP2 LT PUSH2 0x84E JUMPI PUSH2 0x84D PUSH2 0x810 JUMP JUMPDEST JUMPDEST POP JUMP JUMPDEST PUSH0 DUP2 SWAP1 POP PUSH2 0x85E DUP3 PUSH2 0x83D JUMP JUMPDEST SWAP2 SWAP1 POP JUMP JUMPDEST PUSH0 PUSH2 0x86D DUP3 PUSH2 0x851 JUMP JUMPDEST SWAP1 POP SWAP2 SWAP1 POP JUMP JUMPDEST PUSH2 0x87D DUP2 PUSH2 0x863 JUMP JUMPDEST DUP3 MSTORE POP POP JUMP JUMPDEST PUSH0 PUSH1 0x20 DUP3 ADD SWAP1 POP PUSH2 0x896 PUSH0 DUP4 ADD DUP5 PUSH2 0x874 JUMP JUMPDEST SWAP3 SWAP2 POP POP JUMP JUMPDEST PUSH2 0x8A5 DUP2 PUSH2 0x787 JUMP JUMPDEST DUP2 EQ PUSH2 0x8AF JUMPI PUSH0 DUP1 REVERT JUMPDEST POP JUMP JUMPDEST PUSH0 DUP2 CALLDATALOAD SWAP1 POP PUSH2 0x8C0 DUP2 PUSH2 0x89C JUMP JUMPDEST SWAP3 SWAP2 POP POP JUMP JUMPDEST PUSH0 PUSH1 0x20 DUP3 DUP5 SUB SLT ISZERO PUSH2 0x8DB JUMPI PUSH2 0x8DA PUSH2 0x712 JUMP JUMPDEST JUMPDEST PUSH0 PUSH2 0x8E8 DUP5 DUP3 DUP6 ADD PUSH2 0x8B2 JUMP JUMPDEST SWAP2 POP POP SWAP3 SWAP2 POP POP JUMP JUMPDEST PUSH0 DUP2 SWAP1 POP SWAP2 SWAP1 POP JUMP JUMPDEST PUSH2 0x90B PUSH2 0x906 DUP3 PUSH2 0x716 JUMP JUMPDEST PUSH2 0x8F1 JUMP JUMPDEST DUP3 MSTORE POP POP JUMP JUMPDEST PUSH0 PUSH2 0x91C DUP3 DUP6 PUSH2 0x8FA JUMP JUMPDEST PUSH1 0x20 DUP3 ADD SWAP2 POP PUSH2 0x92C DUP3 DUP5 PUSH2 0x8FA JUMP JUMPDEST PUSH1 0x20 DUP3 ADD SWAP2 POP DUP2 SWAP1 POP SWAP4 SWAP3 POP POP POP JUMP JUMPDEST PUSH0 DUP3 DUP3 MSTORE PUSH1 0x20 DUP3 ADD SWAP1 POP SWAP3 SWAP2 POP POP JUMP JUMPDEST PUSH32 0x6E6F74206120706C617965720000000000000000000000000000000000000000 PUSH0 DUP3 ADD MSTORE POP JUMP JUMPDEST PUSH0 PUSH2 0x980 PUSH1 0xC DUP4 PUSH2 0x93C JUMP JUMPDEST SWAP2 POP PUSH2 0x98B DUP3 PUSH2 0x94C JUMP JUMPDEST PUSH1 0x20 DUP3 ADD SWAP1 POP SWAP2 SWAP1 POP JUMP JUMPDEST PUSH0 PUSH1 0x20 DUP3 ADD SWAP1 POP DUP2 DUP2 SUB PUSH0 DUP4 ADD MSTORE PUSH2 0x9AD DUP2 PUSH2 0x974 JUMP JUMPDEST SWAP1 POP SWAP2 SWAP1 POP JUMP JUMPDEST PUSH32 0x496E76616C696420636F6D6D697420666F7220706C6179657231000000000000 PUSH0 DUP3 ADD MSTORE POP JUMP JUMPDEST PUSH0 PUSH2 0x9E8 PUSH1 0x1A DUP4 PUSH2 0x93C JUMP JUMPDEST SWAP2 POP PUSH2 0x9F3 DUP3 PUSH2 0x9B4 JUMP JUMPDEST PUSH1 0x20 DUP3 ADD SWAP1 POP SWAP2 SWAP1 POP JUMP JUMPDEST PUSH0 PUSH1 0x20 DUP3 ADD SWAP1 POP DUP2 DUP2 SUB PUSH0 DUP4 ADD MSTORE PUSH2 0xA15 DUP2 PUSH2 0x9DC JUMP JUMPDEST SWAP1 POP SWAP2 SWAP1 POP JUMP JUMPDEST PUSH32 0x506C6179657220312068617320636F6D6D697465640000000000000000000000 PUSH0 DUP3 ADD MSTORE POP JUMP JUMPDEST PUSH0 PUSH2 0xA50 PUSH1 0x15 DUP4 PUSH2 0x93C JUMP JUMPDEST SWAP2 POP PUSH2 0xA5B DUP3 PUSH2 0xA1C JUMP JUMPDEST PUSH1 0x20 DUP3 ADD SWAP1 POP SWAP2 SWAP1 POP JUMP JUMPDEST PUSH0 PUSH1 0x20 DUP3 ADD SWAP1 POP DUP2 DUP2 SUB PUSH0 DUP4 ADD MSTORE PUSH2 0xA7D DUP2 PUSH2 0xA44 JUMP JUMPDEST SWAP1 POP SWAP2 SWAP1 POP JUMP JUMPDEST PUSH32 0x506C6179657220322068617320636F6D69746564000000000000000000000000 PUSH0 DUP3 ADD MSTORE POP JUMP JUMPDEST PUSH0 PUSH2 0xAB8 PUSH1 0x14 DUP4 PUSH2 0x93C JUMP JUMPDEST SWAP2 POP PUSH2 0xAC3 DUP3 PUSH2 0xA84 JUMP JUMPDEST PUSH1 0x20 DUP3 ADD SWAP1 POP SWAP2 SWAP1 POP JUMP JUMPDEST PUSH0 PUSH1 0x20 DUP3 ADD SWAP1 POP DUP2 DUP2 SUB PUSH0 DUP4 ADD MSTORE PUSH2 0xAE5 DUP2 PUSH2 0xAAC JUMP JUMPDEST SWAP1 POP SWAP2 SWAP1 POP JUMP INVALID LOG2 PUSH5 0x6970667358 0x22 SLT KECCAK256 0xDD PUSH26 0xB5BE29669CCFF2E82F305AC5BA504338EFF8FCC854645FDD941A 0xC7 0xDB BALANCE JUMPI PUSH5 0x736F6C6343 STOP ADDMOD BYTE STOP CALLER "
				},
				"gasEstimates": {
					"creation": {
						"codeDepositCost": "570000",
						"executionCost": "604",
						"totalCost": "570604"
					},
					"external": {
						"commitMove(bytes32)": "26842",
						"generateCommit(uint256,uint256)": "infinite",
						"player1()": "2571",
						"player1Commit()": "2469",
						"player1Move()": "2554",
						"player2()": "2553",
						"player2Commit()": "2513",
						"player2Move()": "2672",
						"revealMove(uint256,uint256)": "infinite"
					},
					"internal": {
						"determineWinner()": "13469"
					}
				},
				"methodIdentifiers": {
					"commitMove(bytes32)": "a9ea37b6",
					"generateCommit(uint256,uint256)": "12190ae0",
					"player1()": "d30895e4",
					"player1Commit()": "ce6b2225",
					"player1Move()": "8690fd71",
					"player2()": "59a5f12d",
					"player2Commit()": "f1917766",
					"player2Move()": "7685ef8e",
					"revealMove(uint256,uint256)": "5280fba0"
				}
			},
			"storageLayout": {
				"storage": [
					{
						"astId": 7,
						"contract": "RPS_Schett1.sol:RPS",
						"label": "player1",
						"offset": 0,
						"slot": "0",
						"type": "t_address"
					},
					{
						"astId": 9,
						"contract": "RPS_Schett1.sol:RPS",
						"label": "player2",
						"offset": 0,
						"slot": "1",
						"type": "t_address"
					},
					{
						"astId": 11,
						"contract": "RPS_Schett1.sol:RPS",
						"label": "player1Commit",
						"offset": 0,
						"slot": "2",
						"type": "t_bytes32"
					},
					{
						"astId": 13,
						"contract": "RPS_Schett1.sol:RPS",
						"label": "player2Commit",
						"offset": 0,
						"slot": "3",
						"type": "t_bytes32"
					},
					{
						"astId": 16,
						"contract": "RPS_Schett1.sol:RPS",
						"label": "player1Move",
						"offset": 0,
						"slot": "4",
						"type": "t_enum(Move)5"
					},
					{
						"astId": 19,
						"contract": "RPS_Schett1.sol:RPS",
						"label": "player2Move",
						"offset": 1,
						"slot": "4",
						"type": "t_enum(Move)5"
					}
				],
				"types": {
					"t_address": {
						"encoding": "inplace",
						"label": "address",
						"numberOfBytes": "20"
					},
					"t_bytes32": {
						"encoding": "inplace",
						"label": "bytes32",
						"numberOfBytes": "32"
					},
					"t_enum(Move)5": {
						"encoding": "inplace",
						"label": "enum RPS.Move",
						"numberOfBytes": "1"
					}
				}
			},
			"userdoc": {
				"kind": "user",
				"methods": {},
				"version": 1
			}
		}
	}
}